{
  "_format": "hh-sol-artifact-1",
  "contractName": "VaultFacet",
  "sourceName": "contracts/VaultFacet.sol",
  "abi": [
    {
      "inputs": [],
      "stateMutability": "nonpayable",
      "type": "constructor"
    },
    {
      "inputs": [],
      "name": "getVaultState",
      "outputs": [
        {
          "internalType": "uint256",
          "name": "totalReclaimed",
          "type": "uint256"
        },
        {
          "internalType": "uint256",
          "name": "totalLeft2Redeem",
          "type": "uint256"
        },
        {
          "internalType": "uint256",
          "name": "totalReady2Redeem",
          "type": "uint256"
        }
      ],
      "stateMutability": "view",
      "type": "function"
    },
    {
      "inputs": [],
      "name": "redeemFromVault",
      "outputs": [],
      "stateMutability": "nonpayable",
      "type": "function"
    },
    {
      "inputs": [],
      "name": "test",
      "outputs": [
        {
          "internalType": "bool",
          "name": "",
          "type": "bool"
        }
      ],
      "stateMutability": "nonpayable",
      "type": "function"
    }
  ],
  "bytecode": "0x608060405234801561001057600080fd5b506100243361002960201b6105051760201c565b610133565b600061003961010660201b60201c565b905060008160030160009054906101000a900473ffffffffffffffffffffffffffffffffffffffff169050828260030160006101000a81548173ffffffffffffffffffffffffffffffffffffffff021916908373ffffffffffffffffffffffffffffffffffffffff1602179055508273ffffffffffffffffffffffffffffffffffffffff168173ffffffffffffffffffffffffffffffffffffffff167f8be0079c531659141344cd1fd0a4f28419497f9722a3daafe3b4186f6b6457e060405160405180910390a3505050565b6000807fec2e1d18880eab0fa99cf138ce95db1d80287501a0d954892af33d430f009c4190508091505090565b610f80806101426000396000f3fe608060405234801561001057600080fd5b50600436106100415760003560e01c80634a8c110a14610046578063af1adb6214610066578063f8a8fd6d14610070575b600080fd5b61004e61008e565b60405161005d93929190610a00565b60405180910390f35b61006e61021b565b005b6100786104fc565b6040516100859190610a52565b60405180910390f35b6000806000806000600b0160000160003373ffffffffffffffffffffffffffffffffffffffff1673ffffffffffffffffffffffffffffffffffffffff168152602001908152602001600020905060008180549050905060005b8181101561021357600083828154811061010457610103610a6d565b5b90600052602060002090600302016040518060600160405290816000820154815260200160018201548152602001600282015481525050905080600001518761014d9190610acb565b9650806020015181600001516101639190610b21565b8661016e9190610acb565b95506000620151808260400151426101869190610b21565b6101909190610b84565b90506000811115610200576000670de0b6b3a764000083600001516014670de0b6b3a7640000856101c19190610bb5565b6101cb9190610b84565b6101d59190610bb5565b6101df9190610b84565b90508260200151816101f19190610b21565b876101fc9190610acb565b9650505b50508061020c90610c0f565b90506100e7565b505050909192565b6000600a0160009054906101000a900460ff161561026e576040517f08c379a000000000000000000000000000000000000000000000000000000000815260040161026590610cb5565b60405180910390fd5b60016000600a0160006101000a81548160ff021916908315150217905550600080600b0160000160003373ffffffffffffffffffffffffffffffffffffffff1673ffffffffffffffffffffffffffffffffffffffff1681526020019081526020016000209050600081805490509050600080600090505b8281121561047e57600084828154811061030257610301610a6d565b5b906000526020600020906003020190506000620151808260020154426103289190610b21565b6103329190610b84565b9050600081111561046b5761037c6040518060400160405280600b81526020017f4461797320706173736564000000000000000000000000000000000000000000815250826105dc565b6014811015610418576000670de0b6b3a764000083600001546014670de0b6b3a7640000856103ab9190610bb5565b6103b59190610b84565b6103bf9190610bb5565b6103c99190610b84565b905060008360010154826103dd9190610b21565b90506103e881610678565b808460010160008282546103fc9190610acb565b92505081905550858061040e90610c0f565b965050505061046a565b60008260010154836000015461042e9190610b21565b905061043981610678565b826000015483600101819055506104508488610851565b8561045a90610cd5565b95508361046690610d09565b9350505b5b50508061047790610d52565b90506102e5565b5060008114156104da576000600b0160000160003373ffffffffffffffffffffffffffffffffffffffff1673ffffffffffffffffffffffffffffffffffffffff16815260200190815260200160002060006104d99190610994565b5b505050600080600a0160006101000a81548160ff021916908315150217905550565b60006001905090565b600061050f61093e565b905060008160030160009054906101000a900473ffffffffffffffffffffffffffffffffffffffff169050828260030160006101000a81548173ffffffffffffffffffffffffffffffffffffffff021916908373ffffffffffffffffffffffffffffffffffffffff1602179055508273ffffffffffffffffffffffffffffffffffffffff168173ffffffffffffffffffffffffffffffffffffffff167f8be0079c531659141344cd1fd0a4f28419497f9722a3daafe3b4186f6b6457e060405160405180910390a3505050565b61067482826040516024016105f2929190610e23565b6040516020818303038152906040527fb60e72cc000000000000000000000000000000000000000000000000000000007bffffffffffffffffffffffffffffffffffffffffffffffffffffffff19166020820180517bffffffffffffffffffffffffffffffffffffffffffffffffffffffff838183161783525050505061096b565b5050565b60008060020160020160009054906101000a900473ffffffffffffffffffffffffffffffffffffffff1673ffffffffffffffffffffffffffffffffffffffff166318160ddd6040518163ffffffff1660e01b815260040160206040518083038186803b1580156106e757600080fd5b505afa1580156106fb573d6000803e3d6000fd5b505050506040513d601f19601f8201168201806040525081019061071f9190610e84565b9050600081670de0b6b3a7640000846107389190610bb5565b6107429190610b84565b90506000670de0b6b3a7640000600060020160000154836107639190610bb5565b61076d9190610b84565b90503373ffffffffffffffffffffffffffffffffffffffff166108fc829081150290604051600060405180830381858888f193505050501580156107b5573d6000803e3d6000fd5b50600060020160020160009054906101000a900473ffffffffffffffffffffffffffffffffffffffff1673ffffffffffffffffffffffffffffffffffffffff16639dc29fac30866040518363ffffffff1660e01b8152600401610819929190610ef2565b600060405180830381600087803b15801561083357600080fd5b505af1158015610847573d6000803e3d6000fd5b5050505050505050565b6000600182805490506108649190610b21565b905060008390505b818110156108f657826001826108829190610acb565b8154811061089357610892610a6d565b5b90600052602060002090600302018382815481106108b4576108b3610a6d565b5b906000526020600020906003020160008201548160000155600182015481600101556002820154816002015590505080806108ee90610c0f565b91505061086c565b508180548061090857610907610f1b565b5b60019003818190600052602060002090600302016000808201600090556001820160009055600282016000905550509055505050565b6000807fec2e1d18880eab0fa99cf138ce95db1d80287501a0d954892af33d430f009c4190508091505090565b60008151905060006a636f6e736f6c652e6c6f679050602083016000808483855afa5050505050565b50805460008255600302906000526020600020908101906109b591906109b8565b50565b5b808211156109e35760008082016000905560018201600090556002820160009055506003016109b9565b5090565b6000819050919050565b6109fa816109e7565b82525050565b6000606082019050610a1560008301866109f1565b610a2260208301856109f1565b610a2f60408301846109f1565b949350505050565b60008115159050919050565b610a4c81610a37565b82525050565b6000602082019050610a676000830184610a43565b92915050565b7f4e487b7100000000000000000000000000000000000000000000000000000000600052603260045260246000fd5b7f4e487b7100000000000000000000000000000000000000000000000000000000600052601160045260246000fd5b6000610ad6826109e7565b9150610ae1836109e7565b9250827fffffffffffffffffffffffffffffffffffffffffffffffffffffffffffffffff03821115610b1657610b15610a9c565b5b828201905092915050565b6000610b2c826109e7565b9150610b37836109e7565b925082821015610b4a57610b49610a9c565b5b828203905092915050565b7f4e487b7100000000000000000000000000000000000000000000000000000000600052601260045260246000fd5b6000610b8f826109e7565b9150610b9a836109e7565b925082610baa57610ba9610b55565b5b828204905092915050565b6000610bc0826109e7565b9150610bcb836109e7565b9250817fffffffffffffffffffffffffffffffffffffffffffffffffffffffffffffffff0483118215151615610c0457610c03610a9c565b5b828202905092915050565b6000610c1a826109e7565b91507fffffffffffffffffffffffffffffffffffffffffffffffffffffffffffffffff821415610c4d57610c4c610a9c565b5b600182019050919050565b600082825260208201905092915050565b7f4e6f2072652d656e7472616e6379000000000000000000000000000000000000600082015250565b6000610c9f600e83610c58565b9150610caa82610c69565b602082019050919050565b60006020820190508181036000830152610cce81610c92565b9050919050565b6000610ce0826109e7565b91506000821415610cf457610cf3610a9c565b5b600182039050919050565b6000819050919050565b6000610d1482610cff565b91507f8000000000000000000000000000000000000000000000000000000000000000821415610d4757610d46610a9c565b5b600182039050919050565b6000610d5d82610cff565b91507f7fffffffffffffffffffffffffffffffffffffffffffffffffffffffffffffff821415610d9057610d8f610a9c565b5b600182019050919050565b600081519050919050565b60005b83811015610dc4578082015181840152602081019050610da9565b83811115610dd3576000848401525b50505050565b6000601f19601f8301169050919050565b6000610df582610d9b565b610dff8185610c58565b9350610e0f818560208601610da6565b610e1881610dd9565b840191505092915050565b60006040820190508181036000830152610e3d8185610dea565b9050610e4c60208301846109f1565b9392505050565b600080fd5b610e61816109e7565b8114610e6c57600080fd5b50565b600081519050610e7e81610e58565b92915050565b600060208284031215610e9a57610e99610e53565b5b6000610ea884828501610e6f565b91505092915050565b600073ffffffffffffffffffffffffffffffffffffffff82169050919050565b6000610edc82610eb1565b9050919050565b610eec81610ed1565b82525050565b6000604082019050610f076000830185610ee3565b610f1460208301846109f1565b9392505050565b7f4e487b7100000000000000000000000000000000000000000000000000000000600052603160045260246000fdfea2646970667358221220315361f72f811beb7a952ce33f1464dfde40d9e637e5f60cfcf1c175b897b4c164736f6c63430008090033",
  "linkReferences": {},
  "deployedLinkReferences": {}
}