{
  "_format": "hh-sol-artifact-1",
  "contractName": "AdminFacet",
  "sourceName": "contracts/AdminFacet.sol",
  "abi": [
    {
      "inputs": [],
      "stateMutability": "nonpayable",
      "type": "constructor"
    },
    {
      "inputs": [],
      "name": "checkPlatformBalance",
      "outputs": [
        {
          "internalType": "uint256",
          "name": "platformBalance",
          "type": "uint256"
        },
        {
          "internalType": "uint256",
          "name": "contractBalance",
          "type": "uint256"
        }
      ],
      "stateMutability": "view",
      "type": "function"
    },
    {
      "inputs": [],
      "name": "isContractOwner",
      "outputs": [
        {
          "internalType": "bool",
          "name": "",
          "type": "bool"
        }
      ],
      "stateMutability": "view",
      "type": "function"
    },
    {
      "inputs": [],
      "name": "withdrawAllPlatformFunds",
      "outputs": [],
      "stateMutability": "nonpayable",
      "type": "function"
    }
  ],
  "bytecode": "0x608060405234801561001057600080fd5b506100243361002960201b6101971760201c565b610133565b600061003961010660201b60201c565b905060008160030160009054906101000a900473ffffffffffffffffffffffffffffffffffffffff169050828260030160006101000a81548173ffffffffffffffffffffffffffffffffffffffff021916908373ffffffffffffffffffffffffffffffffffffffff1602179055508273ffffffffffffffffffffffffffffffffffffffff168173ffffffffffffffffffffffffffffffffffffffff167f8be0079c531659141344cd1fd0a4f28419497f9722a3daafe3b4186f6b6457e060405160405180910390a3505050565b6000807fec2e1d18880eab0fa99cf138ce95db1d80287501a0d954892af33d430f009c4190508091505090565b6105e6806101426000396000f3fe608060405234801561001057600080fd5b50600436106100415760003560e01c80632bb6a4f5146100465780637f7dcdbf1461006557806396a47d2714610083575b600080fd5b61004e61008d565b60405161005c9291906103b0565b60405180910390f35b61006d6100a7565b60405161007a91906103f4565b60405180910390f35b61008b6100b6565b005b60008061009861026e565b60006009015447915091509091565b60006100b1610309565b905090565b6100be61026e565b6000806009015490506000811161010a576040517f08c379a00000000000000000000000000000000000000000000000000000000081526004016101019061046c565b60405180910390fd5b4781111561014d576040517f08c379a0000000000000000000000000000000000000000000000000000000008152600401610144906104fe565b60405180910390fd5b3373ffffffffffffffffffffffffffffffffffffffff166108fc829081150290604051600060405180830381858888f19350505050158015610193573d6000803e3d6000fd5b5050565b60006101a161036a565b905060008160030160009054906101000a900473ffffffffffffffffffffffffffffffffffffffff169050828260030160006101000a81548173ffffffffffffffffffffffffffffffffffffffff021916908373ffffffffffffffffffffffffffffffffffffffff1602179055508273ffffffffffffffffffffffffffffffffffffffff168173ffffffffffffffffffffffffffffffffffffffff167f8be0079c531659141344cd1fd0a4f28419497f9722a3daafe3b4186f6b6457e060405160405180910390a3505050565b61027661036a565b60030160009054906101000a900473ffffffffffffffffffffffffffffffffffffffff1673ffffffffffffffffffffffffffffffffffffffff163373ffffffffffffffffffffffffffffffffffffffff1614610307576040517f08c379a00000000000000000000000000000000000000000000000000000000081526004016102fe90610590565b60405180910390fd5b565b600061031361036a565b60030160009054906101000a900473ffffffffffffffffffffffffffffffffffffffff1673ffffffffffffffffffffffffffffffffffffffff163373ffffffffffffffffffffffffffffffffffffffff1614905090565b6000807fec2e1d18880eab0fa99cf138ce95db1d80287501a0d954892af33d430f009c4190508091505090565b6000819050919050565b6103aa81610397565b82525050565b60006040820190506103c560008301856103a1565b6103d260208301846103a1565b9392505050565b60008115159050919050565b6103ee816103d9565b82525050565b600060208201905061040960008301846103e5565b92915050565b600082825260208201905092915050565b7f596f75722062616c616e6365206973205a45524f000000000000000000000000600082015250565b600061045660148361040f565b915061046182610420565b602082019050919050565b6000602082019050818103600083015261048581610449565b9050919050565b7f596f75722062616c616e6365206973206d6f7265207468616e20636f6e74726160008201527f6374206861730000000000000000000000000000000000000000000000000000602082015250565b60006104e860268361040f565b91506104f38261048c565b604082019050919050565b60006020820190508181036000830152610517816104db565b9050919050565b7f4c69624469616d6f6e643a204d75737420626520636f6e7472616374206f776e60008201527f6572000000000000000000000000000000000000000000000000000000000000602082015250565b600061057a60228361040f565b91506105858261051e565b604082019050919050565b600060208201905081810360008301526105a98161056d565b905091905056fea264697066735822122020203f8442749546306f97b271ca3f42492a3d629f3cdf16f906dfeeab49dcbe64736f6c63430008090033",
  "linkReferences": {},
  "deployedLinkReferences": {}
}