{
  "_format": "hh-sol-artifact-1",
  "contractName": "AdminFacet",
  "sourceName": "contracts/AdminFacet.sol",
  "abi": [
    {
      "inputs": [],
      "stateMutability": "nonpayable",
      "type": "constructor"
    },
    {
      "inputs": [],
      "name": "checkPlatformBalance",
      "outputs": [
        {
          "internalType": "uint256",
          "name": "platformBalance",
          "type": "uint256"
        },
        {
          "internalType": "uint256",
          "name": "contractBalance",
          "type": "uint256"
        }
      ],
      "stateMutability": "view",
      "type": "function"
    },
    {
      "inputs": [],
      "name": "isContractOwner",
      "outputs": [
        {
          "internalType": "bool",
          "name": "",
          "type": "bool"
        }
      ],
      "stateMutability": "view",
      "type": "function"
    },
    {
      "inputs": [],
      "name": "withdrawAllPlatformFunds",
      "outputs": [],
      "stateMutability": "nonpayable",
      "type": "function"
    }
  ],
  "bytecode": "0x608060405234801561001057600080fd5b506100243361002960201b61018f1760201c565b610133565b600061003961010660201b60201c565b905060008160030160009054906101000a900473ffffffffffffffffffffffffffffffffffffffff169050828260030160006101000a81548173ffffffffffffffffffffffffffffffffffffffff021916908373ffffffffffffffffffffffffffffffffffffffff1602179055508273ffffffffffffffffffffffffffffffffffffffff168173ffffffffffffffffffffffffffffffffffffffff167f8be0079c531659141344cd1fd0a4f28419497f9722a3daafe3b4186f6b6457e060405160405180910390a3505050565b6000807fec2e1d18880eab0fa99cf138ce95db1d80287501a0d954892af33d430f009c4190508091505090565b6105de806101426000396000f3fe608060405234801561001057600080fd5b50600436106100415760003560e01c80632bb6a4f5146100465780637f7dcdbf1461006557806396a47d2714610083575b600080fd5b61004e61008d565b60405161005c9291906103a8565b60405180910390f35b61006d61009f565b60405161007a91906103ec565b60405180910390f35b61008b6100ae565b005b6000806000600a015447915091509091565b60006100a9610266565b905090565b6100b66102c7565b600080600a0154905060008111610102576040517f08c379a00000000000000000000000000000000000000000000000000000000081526004016100f990610464565b60405180910390fd5b47811115610145576040517f08c379a000000000000000000000000000000000000000000000000000000000815260040161013c906104f6565b60405180910390fd5b3373ffffffffffffffffffffffffffffffffffffffff166108fc829081150290604051600060405180830381858888f1935050505015801561018b573d6000803e3d6000fd5b5050565b6000610199610362565b905060008160030160009054906101000a900473ffffffffffffffffffffffffffffffffffffffff169050828260030160006101000a81548173ffffffffffffffffffffffffffffffffffffffff021916908373ffffffffffffffffffffffffffffffffffffffff1602179055508273ffffffffffffffffffffffffffffffffffffffff168173ffffffffffffffffffffffffffffffffffffffff167f8be0079c531659141344cd1fd0a4f28419497f9722a3daafe3b4186f6b6457e060405160405180910390a3505050565b6000610270610362565b60030160009054906101000a900473ffffffffffffffffffffffffffffffffffffffff1673ffffffffffffffffffffffffffffffffffffffff163373ffffffffffffffffffffffffffffffffffffffff1614905090565b6102cf610362565b60030160009054906101000a900473ffffffffffffffffffffffffffffffffffffffff1673ffffffffffffffffffffffffffffffffffffffff163373ffffffffffffffffffffffffffffffffffffffff1614610360576040517f08c379a000000000000000000000000000000000000000000000000000000000815260040161035790610588565b60405180910390fd5b565b6000807fec2e1d18880eab0fa99cf138ce95db1d80287501a0d954892af33d430f009c4190508091505090565b6000819050919050565b6103a28161038f565b82525050565b60006040820190506103bd6000830185610399565b6103ca6020830184610399565b9392505050565b60008115159050919050565b6103e6816103d1565b82525050565b600060208201905061040160008301846103dd565b92915050565b600082825260208201905092915050565b7f596f75722062616c616e6365206973205a45524f000000000000000000000000600082015250565b600061044e601483610407565b915061045982610418565b602082019050919050565b6000602082019050818103600083015261047d81610441565b9050919050565b7f596f75722062616c616e6365206973206d6f7265207468616e20636f6e74726160008201527f6374206861730000000000000000000000000000000000000000000000000000602082015250565b60006104e0602683610407565b91506104eb82610484565b604082019050919050565b6000602082019050818103600083015261050f816104d3565b9050919050565b7f4c69624469616d6f6e643a204d75737420626520636f6e7472616374206f776e60008201527f6572000000000000000000000000000000000000000000000000000000000000602082015250565b6000610572602283610407565b915061057d82610516565b604082019050919050565b600060208201905081810360008301526105a181610565565b905091905056fea2646970667358221220436e5459f29877a8f387a8d75bcafeeb4a2c0a08abe33c85e0b21f95862bd2d464736f6c63430008090033",
  "linkReferences": {},
  "deployedLinkReferences": {}
}