{
  "_format": "hh-sol-artifact-1",
  "contractName": "PlayersFacet",
  "sourceName": "contracts/PlayersFacet.sol",
  "abi": [
    {
      "inputs": [],
      "stateMutability": "nonpayable",
      "type": "constructor"
    },
    {
      "inputs": [],
      "name": "checkPlayerBalance",
      "outputs": [
        {
          "internalType": "uint256",
          "name": "playerBalance",
          "type": "uint256"
        },
        {
          "internalType": "int256",
          "name": "priceInStable",
          "type": "int256"
        }
      ],
      "stateMutability": "view",
      "type": "function"
    },
    {
      "inputs": [],
      "name": "depositToCashier",
      "outputs": [],
      "stateMutability": "payable",
      "type": "function"
    },
    {
      "inputs": [],
      "name": "withdrawPlayerBalance",
      "outputs": [],
      "stateMutability": "nonpayable",
      "type": "function"
    },
    {
      "inputs": [
        {
          "internalType": "uint256",
          "name": "amount",
          "type": "uint256"
        }
      ],
      "name": "withdrawPlayerBalanceAmount",
      "outputs": [],
      "stateMutability": "nonpayable",
      "type": "function"
    }
  ],
  "bytecode": "0x608060405234801561001057600080fd5b506100243361002960201b61064b1760201c565b610133565b600061003961010660201b60201c565b905060008160030160009054906101000a900473ffffffffffffffffffffffffffffffffffffffff169050828260030160006101000a81548173ffffffffffffffffffffffffffffffffffffffff021916908373ffffffffffffffffffffffffffffffffffffffff1602179055508273ffffffffffffffffffffffffffffffffffffffff168173ffffffffffffffffffffffffffffffffffffffff167f8be0079c531659141344cd1fd0a4f28419497f9722a3daafe3b4186f6b6457e060405160405180910390a3505050565b6000807fec2e1d18880eab0fa99cf138ce95db1d80287501a0d954892af33d430f009c4190508091505090565b610cda806101426000396000f3fe60806040526004361061003f5760003560e01c806368f143a114610044578063cce113071461006d578063d325101a14610099578063e1fa4336146100b0575b600080fd5b34801561005057600080fd5b5061006b6004803603810190610066919061078a565b6100ba565b005b34801561007957600080fd5b506100826102ff565b6040516100909291906107df565b60405180910390f35b3480156100a557600080fd5b506100ae6103f1565b005b6100b86105e8565b005b6000600b0160009054906101000a900460ff161561010d576040517f08c379a000000000000000000000000000000000000000000000000000000000815260040161010490610865565b60405180910390fd5b60016000600b0160006101000a81548160ff021916908315150217905550600080600001600001905060008160003373ffffffffffffffffffffffffffffffffffffffff1673ffffffffffffffffffffffffffffffffffffffff168152602001908152602001600020549050600081116101bc576040517f08c379a00000000000000000000000000000000000000000000000000000000081526004016101b3906108d1565b60405180910390fd5b808311156101ff576040517f08c379a00000000000000000000000000000000000000000000000000000000081526004016101f69061093d565b60405180910390fd5b47831115610242576040517f08c379a0000000000000000000000000000000000000000000000000000000008152600401610239906109cf565b60405180910390fd5b828161024e9190610a1e565b6000800160000160003373ffffffffffffffffffffffffffffffffffffffff1673ffffffffffffffffffffffffffffffffffffffff168152602001908152602001600020819055503373ffffffffffffffffffffffffffffffffffffffff166108fc849081150290604051600060405180830381858888f193505050501580156102dc573d6000803e3d6000fd5b505050600080600b0160006101000a81548160ff02191690831515021790555050565b600080600073d0d5e3db44de05e9f294bb0a3beeaf030de24ada905060008173ffffffffffffffffffffffffffffffffffffffff1663feaf968c6040518163ffffffff1660e01b815260040160a06040518083038186803b15801561036357600080fd5b505afa158015610377573d6000803e3d6000fd5b505050506040513d601f19601f8201168201806040525081019061039b9190610ad5565b5050509150506000800160000160003373ffffffffffffffffffffffffffffffffffffffff1673ffffffffffffffffffffffffffffffffffffffff16815260200190815260200160002054819350935050509091565b6000600b0160009054906101000a900460ff1615610444576040517f08c379a000000000000000000000000000000000000000000000000000000000815260040161043b90610865565b60405180910390fd5b60016000600b0160006101000a81548160ff021916908315150217905550600080600001600001905060008160003373ffffffffffffffffffffffffffffffffffffffff1673ffffffffffffffffffffffffffffffffffffffff168152602001908152602001600020549050600081116104f3576040517f08c379a00000000000000000000000000000000000000000000000000000000081526004016104ea90610b9c565b60405180910390fd5b47811115610536576040517f08c379a000000000000000000000000000000000000000000000000000000000815260040161052d90610c2e565b60405180910390fd5b60008060000160000160003373ffffffffffffffffffffffffffffffffffffffff1673ffffffffffffffffffffffffffffffffffffffff168152602001908152602001600020819055503373ffffffffffffffffffffffffffffffffffffffff166108fc829081150290604051600060405180830381858888f193505050501580156105c6573d6000803e3d6000fd5b505050600080600b0160006101000a81548160ff021916908315150217905550565b6000349050806000800160000160003373ffffffffffffffffffffffffffffffffffffffff1673ffffffffffffffffffffffffffffffffffffffff16815260200190815260200160002060008282546106419190610c4e565b9250508190555050565b6000610655610722565b905060008160030160009054906101000a900473ffffffffffffffffffffffffffffffffffffffff169050828260030160006101000a81548173ffffffffffffffffffffffffffffffffffffffff021916908373ffffffffffffffffffffffffffffffffffffffff1602179055508273ffffffffffffffffffffffffffffffffffffffff168173ffffffffffffffffffffffffffffffffffffffff167f8be0079c531659141344cd1fd0a4f28419497f9722a3daafe3b4186f6b6457e060405160405180910390a3505050565b6000807fec2e1d18880eab0fa99cf138ce95db1d80287501a0d954892af33d430f009c4190508091505090565b600080fd5b6000819050919050565b61076781610754565b811461077257600080fd5b50565b6000813590506107848161075e565b92915050565b6000602082840312156107a05761079f61074f565b5b60006107ae84828501610775565b91505092915050565b6107c081610754565b82525050565b6000819050919050565b6107d9816107c6565b82525050565b60006040820190506107f460008301856107b7565b61080160208301846107d0565b9392505050565b600082825260208201905092915050565b7f4e6f2072652d656e7472616e6379000000000000000000000000000000000000600082015250565b600061084f600e83610808565b915061085a82610819565b602082019050919050565b6000602082019050818103600083015261087e81610842565b9050919050565b7f596f75722062616c616e6365206973205a45524f000000000000000000000000600082015250565b60006108bb601483610808565b91506108c682610885565b602082019050919050565b600060208201905081810360008301526108ea816108ae565b9050919050565b7f596f75722062616c616e636520697320696e73756666696369656e7400000000600082015250565b6000610927601c83610808565b9150610932826108f1565b602082019050919050565b600060208201905081810360008301526109568161091a565b9050919050565b7f416d6f756e7420697320626967676572207468616e20706c6174666f726d206860008201527f6173000000000000000000000000000000000000000000000000000000000000602082015250565b60006109b9602283610808565b91506109c48261095d565b604082019050919050565b600060208201905081810360008301526109e8816109ac565b9050919050565b7f4e487b7100000000000000000000000000000000000000000000000000000000600052601160045260246000fd5b6000610a2982610754565b9150610a3483610754565b925082821015610a4757610a466109ef565b5b828203905092915050565b600069ffffffffffffffffffff82169050919050565b610a7181610a52565b8114610a7c57600080fd5b50565b600081519050610a8e81610a68565b92915050565b610a9d816107c6565b8114610aa857600080fd5b50565b600081519050610aba81610a94565b92915050565b600081519050610acf8161075e565b92915050565b600080600080600060a08688031215610af157610af061074f565b5b6000610aff88828901610a7f565b9550506020610b1088828901610aab565b9450506040610b2188828901610ac0565b9350506060610b3288828901610ac0565b9250506080610b4388828901610a7f565b9150509295509295909350565b7f596f75722062616c616e636520697a205a45524f000000000000000000000000600082015250565b6000610b86601483610808565b9150610b9182610b50565b602082019050919050565b60006020820190508181036000830152610bb581610b79565b9050919050565b7f42616c616e6365206973206c657373207468616e20706c6174666f726d20686160008201527f7300000000000000000000000000000000000000000000000000000000000000602082015250565b6000610c18602183610808565b9150610c2382610bbc565b604082019050919050565b60006020820190508181036000830152610c4781610c0b565b9050919050565b6000610c5982610754565b9150610c6483610754565b9250827fffffffffffffffffffffffffffffffffffffffffffffffffffffffffffffffff03821115610c9957610c986109ef565b5b82820190509291505056fea264697066735822122061b4a959a30e20162478209017691f9d326773b85cd02f59bd9a71930b95ea7c64736f6c63430008090033",
  "linkReferences": {},
  "deployedLinkReferences": {}
}