{
  "_format": "hh-sol-artifact-1",
  "contractName": "StakerFacet",
  "sourceName": "contracts/StakerFacet.sol",
  "abi": [
    {
      "inputs": [],
      "stateMutability": "nonpayable",
      "type": "constructor"
    },
    {
      "inputs": [],
      "name": "checkStakerBalance",
      "outputs": [
        {
          "internalType": "uint256",
          "name": "stakerPercent",
          "type": "uint256"
        },
        {
          "internalType": "uint256",
          "name": "houseBalance",
          "type": "uint256"
        },
        {
          "internalType": "uint256",
          "name": "userbalance",
          "type": "uint256"
        },
        {
          "internalType": "uint256",
          "name": "hlpSupply",
          "type": "uint256"
        }
      ],
      "stateMutability": "view",
      "type": "function"
    },
    {
      "inputs": [],
      "name": "getHLPTokenAddress",
      "outputs": [
        {
          "internalType": "address",
          "name": "HLPtokenAddress",
          "type": "address"
        }
      ],
      "stateMutability": "view",
      "type": "function"
    },
    {
      "inputs": [
        {
          "internalType": "uint256",
          "name": "hlp2Reclaim",
          "type": "uint256"
        }
      ],
      "name": "reclaimHLP",
      "outputs": [],
      "stateMutability": "nonpayable",
      "type": "function"
    },
    {
      "inputs": [
        {
          "internalType": "address",
          "name": "HLPtokenAddress",
          "type": "address"
        }
      ],
      "name": "setHLPTokenAddress",
      "outputs": [],
      "stateMutability": "nonpayable",
      "type": "function"
    },
    {
      "inputs": [],
      "name": "stakeETH",
      "outputs": [],
      "stateMutability": "payable",
      "type": "function"
    }
  ],
  "bytecode": "0x608060405234801561001057600080fd5b506100243361002960201b6108d51760201c565b610133565b600061003961010660201b60201c565b905060008160030160009054906101000a900473ffffffffffffffffffffffffffffffffffffffff169050828260030160006101000a81548173ffffffffffffffffffffffffffffffffffffffff021916908373ffffffffffffffffffffffffffffffffffffffff1602179055508273ffffffffffffffffffffffffffffffffffffffff168173ffffffffffffffffffffffffffffffffffffffff167f8be0079c531659141344cd1fd0a4f28419497f9722a3daafe3b4186f6b6457e060405160405180910390a3505050565b6000807fec2e1d18880eab0fa99cf138ce95db1d80287501a0d954892af33d430f009c4190508091505090565b610f9a806101426000396000f3fe60806040526004361061004a5760003560e01c80630f40e69c1461004f57806322970b691461007a5780635c1ed8c7146100a3578063cae8012f146100cc578063dceb986d146100fa575b600080fd5b34801561005b57600080fd5b50610064610104565b6040516100719190610ab5565b60405180910390f35b34801561008657600080fd5b506100a1600480360381019061009c9190610b01565b610133565b005b3480156100af57600080fd5b506100ca60048036038101906100c59190610b64565b610185565b005b3480156100d857600080fd5b506100e1610479565b6040516100f19493929190610ba0565b60405180910390f35b61010261061d565b005b60008060020160020160009054906101000a900473ffffffffffffffffffffffffffffffffffffffff16905090565b61013b6109ac565b80600060020160020160006101000a81548173ffffffffffffffffffffffffffffffffffffffff021916908373ffffffffffffffffffffffffffffffffffffffff16021790555050565b60008060020160020160009054906101000a900473ffffffffffffffffffffffffffffffffffffffff1673ffffffffffffffffffffffffffffffffffffffff166370a08231336040518263ffffffff1660e01b81526004016101e79190610ab5565b60206040518083038186803b1580156101ff57600080fd5b505afa158015610213573d6000803e3d6000fd5b505050506040513d601f19601f820116820180604052508101906102379190610bfa565b90508082111561027c576040517f08c379a000000000000000000000000000000000000000000000000000000000815260040161027390610caa565b60405180910390fd5b600060020160020160009054906101000a900473ffffffffffffffffffffffffffffffffffffffff1673ffffffffffffffffffffffffffffffffffffffff16639dc29fac33846040518363ffffffff1660e01b81526004016102df929190610cca565b600060405180830381600087803b1580156102f957600080fd5b505af115801561030d573d6000803e3d6000fd5b50505050600060020160020160009054906101000a900473ffffffffffffffffffffffffffffffffffffffff1673ffffffffffffffffffffffffffffffffffffffff166340c10f1930846040518363ffffffff1660e01b8152600401610374929190610cca565b600060405180830381600087803b15801561038e57600080fd5b505af11580156103a2573d6000803e3d6000fd5b5050505060006040518060600160405280848152602001600081526020014281525090506000600c0160000160003373ffffffffffffffffffffffffffffffffffffffff1673ffffffffffffffffffffffffffffffffffffffff1681526020019081526020016000208190806001815401808255809150506001900390600052602060002090600302016000909190919091506000820151816000015560208201518160010155604082015181600201555050826000600c01600101600082825461046d9190610d22565b92505081905550505050565b600080600080600060020160020160009054906101000a900473ffffffffffffffffffffffffffffffffffffffff1673ffffffffffffffffffffffffffffffffffffffff166318160ddd6040518163ffffffff1660e01b815260040160206040518083038186803b1580156104ed57600080fd5b505afa158015610501573d6000803e3d6000fd5b505050506040513d601f19601f820116820180604052508101906105259190610bfa565b9050600060020160020160009054906101000a900473ffffffffffffffffffffffffffffffffffffffff1673ffffffffffffffffffffffffffffffffffffffff166370a08231336040518263ffffffff1660e01b81526004016105889190610ab5565b60206040518083038186803b1580156105a057600080fd5b505afa1580156105b4573d6000803e3d6000fd5b505050506040513d601f19601f820116820180604052508101906105d89190610bfa565b91506000935060008111156106095780670de0b6b3a7640000836105fc9190610d78565b6106069190610e01565b93505b836000600201600001549350935090919293565b600073ffffffffffffffffffffffffffffffffffffffff16600060020160020160009054906101000a900473ffffffffffffffffffffffffffffffffffffffff1673ffffffffffffffffffffffffffffffffffffffff1614156106b5576040517f08c379a00000000000000000000000000000000000000000000000000000000081526004016106ac90610e7e565b60405180910390fd5b600034905060008060020160000154905081600060020160000160008282546106de9190610d22565b9250508190555081600060020160030160008282546106fd9190610d22565b92505081905550600082826107129190610d22565b9050600080600060020160020160009054906101000a900473ffffffffffffffffffffffffffffffffffffffff1673ffffffffffffffffffffffffffffffffffffffff166318160ddd6040518163ffffffff1660e01b815260040160206040518083038186803b15801561078557600080fd5b505afa158015610799573d6000803e3d6000fd5b505050506040513d601f19601f820116820180604052508101906107bd9190610bfa565b905060008114806107ce5750600084145b156107e8576103e8346107e19190610d78565b9150610839565b600083670de0b6b3a7640000866107ff9190610d78565b6108099190610e01565b90508081670de0b6b3a76400006108209190610e9e565b8361082b9190610d78565b6108359190610e01565b9250505b600060020160020160009054906101000a900473ffffffffffffffffffffffffffffffffffffffff1673ffffffffffffffffffffffffffffffffffffffff166340c10f1933846040518363ffffffff1660e01b815260040161089c929190610cca565b600060405180830381600087803b1580156108b657600080fd5b505af11580156108ca573d6000803e3d6000fd5b505050505050505050565b60006108df610a47565b905060008160030160009054906101000a900473ffffffffffffffffffffffffffffffffffffffff169050828260030160006101000a81548173ffffffffffffffffffffffffffffffffffffffff021916908373ffffffffffffffffffffffffffffffffffffffff1602179055508273ffffffffffffffffffffffffffffffffffffffff168173ffffffffffffffffffffffffffffffffffffffff167f8be0079c531659141344cd1fd0a4f28419497f9722a3daafe3b4186f6b6457e060405160405180910390a3505050565b6109b4610a47565b60030160009054906101000a900473ffffffffffffffffffffffffffffffffffffffff1673ffffffffffffffffffffffffffffffffffffffff163373ffffffffffffffffffffffffffffffffffffffff1614610a45576040517f08c379a0000000000000000000000000000000000000000000000000000000008152600401610a3c90610f44565b60405180910390fd5b565b6000807fec2e1d18880eab0fa99cf138ce95db1d80287501a0d954892af33d430f009c4190508091505090565b600073ffffffffffffffffffffffffffffffffffffffff82169050919050565b6000610a9f82610a74565b9050919050565b610aaf81610a94565b82525050565b6000602082019050610aca6000830184610aa6565b92915050565b600080fd5b610ade81610a94565b8114610ae957600080fd5b50565b600081359050610afb81610ad5565b92915050565b600060208284031215610b1757610b16610ad0565b5b6000610b2584828501610aec565b91505092915050565b6000819050919050565b610b4181610b2e565b8114610b4c57600080fd5b50565b600081359050610b5e81610b38565b92915050565b600060208284031215610b7a57610b79610ad0565b5b6000610b8884828501610b4f565b91505092915050565b610b9a81610b2e565b82525050565b6000608082019050610bb56000830187610b91565b610bc26020830186610b91565b610bcf6040830185610b91565b610bdc6060830184610b91565b95945050505050565b600081519050610bf481610b38565b92915050565b600060208284031215610c1057610c0f610ad0565b5b6000610c1e84828501610be5565b91505092915050565b600082825260208201905092915050565b7f4e6f7420656e6f75676820484c502062616c616e636520746f20636c69616d2060008201527f74686973207175616e7469747900000000000000000000000000000000000000602082015250565b6000610c94602d83610c27565b9150610c9f82610c38565b604082019050919050565b60006020820190508181036000830152610cc381610c87565b9050919050565b6000604082019050610cdf6000830185610aa6565b610cec6020830184610b91565b9392505050565b7f4e487b7100000000000000000000000000000000000000000000000000000000600052601160045260246000fd5b6000610d2d82610b2e565b9150610d3883610b2e565b9250827fffffffffffffffffffffffffffffffffffffffffffffffffffffffffffffffff03821115610d6d57610d6c610cf3565b5b828201905092915050565b6000610d8382610b2e565b9150610d8e83610b2e565b9250817fffffffffffffffffffffffffffffffffffffffffffffffffffffffffffffffff0483118215151615610dc757610dc6610cf3565b5b828202905092915050565b7f4e487b7100000000000000000000000000000000000000000000000000000000600052601260045260246000fd5b6000610e0c82610b2e565b9150610e1783610b2e565b925082610e2757610e26610dd2565b5b828204905092915050565b7f484c50546f6b656e41646472657373206973206e6f7420736574000000000000600082015250565b6000610e68601a83610c27565b9150610e7382610e32565b602082019050919050565b60006020820190508181036000830152610e9781610e5b565b9050919050565b6000610ea982610b2e565b9150610eb483610b2e565b925082821015610ec757610ec6610cf3565b5b828203905092915050565b7f4c69624469616d6f6e643a204d75737420626520636f6e7472616374206f776e60008201527f6572000000000000000000000000000000000000000000000000000000000000602082015250565b6000610f2e602283610c27565b9150610f3982610ed2565b604082019050919050565b60006020820190508181036000830152610f5d81610f21565b905091905056fea264697066735822122036a8abb81f442c4c1475c2f0c3b72aaf0e25357a155180456764e7ccfe0049a164736f6c63430008090033",
  "linkReferences": {},
  "deployedLinkReferences": {}
}