{
  "_format": "hh-sol-artifact-1",
  "contractName": "StakerFacet",
  "sourceName": "contracts/StakerFacet.sol",
  "abi": [
    {
      "inputs": [],
      "stateMutability": "nonpayable",
      "type": "constructor"
    },
    {
      "inputs": [],
      "name": "checkStakerBalance",
      "outputs": [
        {
          "internalType": "uint256",
          "name": "stakerPercent",
          "type": "uint256"
        },
        {
          "internalType": "uint256",
          "name": "houseBalance",
          "type": "uint256"
        },
        {
          "internalType": "uint256",
          "name": "userbalance",
          "type": "uint256"
        },
        {
          "internalType": "uint256",
          "name": "hlpSupply",
          "type": "uint256"
        }
      ],
      "stateMutability": "view",
      "type": "function"
    },
    {
      "inputs": [],
      "name": "getHLPTokenAddress",
      "outputs": [
        {
          "internalType": "address",
          "name": "HLPtokenAddress",
          "type": "address"
        }
      ],
      "stateMutability": "view",
      "type": "function"
    },
    {
      "inputs": [
        {
          "internalType": "uint256",
          "name": "hlp2Reclaim",
          "type": "uint256"
        }
      ],
      "name": "reclaimHLP",
      "outputs": [],
      "stateMutability": "nonpayable",
      "type": "function"
    },
    {
      "inputs": [
        {
          "internalType": "address",
          "name": "HLPtokenAddress",
          "type": "address"
        }
      ],
      "name": "setHLPTokenAddress",
      "outputs": [],
      "stateMutability": "nonpayable",
      "type": "function"
    },
    {
      "inputs": [],
      "name": "stakeETH",
      "outputs": [],
      "stateMutability": "payable",
      "type": "function"
    }
  ],
  "bytecode": "0x608060405234801561001057600080fd5b506100243361002960201b6109931760201c565b610133565b600061003961010660201b60201c565b905060008160030160009054906101000a900473ffffffffffffffffffffffffffffffffffffffff169050828260030160006101000a81548173ffffffffffffffffffffffffffffffffffffffff021916908373ffffffffffffffffffffffffffffffffffffffff1602179055508273ffffffffffffffffffffffffffffffffffffffff168173ffffffffffffffffffffffffffffffffffffffff167f8be0079c531659141344cd1fd0a4f28419497f9722a3daafe3b4186f6b6457e060405160405180910390a3505050565b6000807fec2e1d18880eab0fa99cf138ce95db1d80287501a0d954892af33d430f009c4190508091505090565b6111d5806101426000396000f3fe60806040526004361061004a5760003560e01c806311afddaf1461004f5780631e12dcf71461007a5780635fdb73ed146100a3578063cae8012f146100cc578063dceb986d146100fa575b600080fd5b34801561005b57600080fd5b50610064610104565b6040516100719190610c38565b60405180910390f35b34801561008657600080fd5b506100a1600480360381019061009c9190610c84565b610133565b005b3480156100af57600080fd5b506100ca60048036038101906100c59190610ce7565b610185565b005b3480156100d857600080fd5b506100e161045a565b6040516100f19493929190610d23565b60405180910390f35b6101026105fe565b005b60008060020160020160009054906101000a900473ffffffffffffffffffffffffffffffffffffffff16905090565b61013b610a6a565b80600060020160020160006101000a81548173ffffffffffffffffffffffffffffffffffffffff021916908373ffffffffffffffffffffffffffffffffffffffff16021790555050565b60008060020160020160009054906101000a900473ffffffffffffffffffffffffffffffffffffffff1673ffffffffffffffffffffffffffffffffffffffff166370a08231336040518263ffffffff1660e01b81526004016101e79190610c38565b60206040518083038186803b1580156101ff57600080fd5b505afa158015610213573d6000803e3d6000fd5b505050506040513d601f19601f820116820180604052508101906102379190610d7d565b90508082111561027c576040517f08c379a000000000000000000000000000000000000000000000000000000000815260040161027390610e2d565b60405180910390fd5b600060020160020160009054906101000a900473ffffffffffffffffffffffffffffffffffffffff1673ffffffffffffffffffffffffffffffffffffffff16639dc29fac33846040518363ffffffff1660e01b81526004016102df929190610e4d565b600060405180830381600087803b1580156102f957600080fd5b505af115801561030d573d6000803e3d6000fd5b50505050600060020160020160009054906101000a900473ffffffffffffffffffffffffffffffffffffffff1673ffffffffffffffffffffffffffffffffffffffff166340c10f1930846040518363ffffffff1660e01b8152600401610374929190610e4d565b600060405180830381600087803b15801561038e57600080fd5b505af11580156103a2573d6000803e3d6000fd5b5050505060006040518060600160405280848152602001600081526020014281525090506000600b0160000160003373ffffffffffffffffffffffffffffffffffffffff1673ffffffffffffffffffffffffffffffffffffffff1681526020019081526020016000208190806001815401808255809150506001900390600052602060002090600302016000909190919091506000820151816000015560208201518160010155604082015181600201555050505050565b600080600080600060020160020160009054906101000a900473ffffffffffffffffffffffffffffffffffffffff1673ffffffffffffffffffffffffffffffffffffffff166318160ddd6040518163ffffffff1660e01b815260040160206040518083038186803b1580156104ce57600080fd5b505afa1580156104e2573d6000803e3d6000fd5b505050506040513d601f19601f820116820180604052508101906105069190610d7d565b9050600060020160020160009054906101000a900473ffffffffffffffffffffffffffffffffffffffff1673ffffffffffffffffffffffffffffffffffffffff166370a08231336040518263ffffffff1660e01b81526004016105699190610c38565b60206040518083038186803b15801561058157600080fd5b505afa158015610595573d6000803e3d6000fd5b505050506040513d601f19601f820116820180604052508101906105b99190610d7d565b91506000935060008111156105ea5780670de0b6b3a7640000836105dd9190610ea5565b6105e79190610f2e565b93505b836000600201600001549350935090919293565b600073ffffffffffffffffffffffffffffffffffffffff16600060020160020160009054906101000a900473ffffffffffffffffffffffffffffffffffffffff1673ffffffffffffffffffffffffffffffffffffffff161415610696576040517f08c379a000000000000000000000000000000000000000000000000000000000815260040161068d90610fab565b60405180910390fd5b600034905060008060020160000154905081600060020160000160008282546106bf9190610fcb565b92505081905550600082826106d49190610fcb565b9050600080600060020160020160009054906101000a900473ffffffffffffffffffffffffffffffffffffffff1673ffffffffffffffffffffffffffffffffffffffff166318160ddd6040518163ffffffff1660e01b815260040160206040518083038186803b15801561074757600080fd5b505afa15801561075b573d6000803e3d6000fd5b505050506040513d601f19601f8201168201806040525081019061077f9190610d7d565b905060008114806107905750600084145b156107aa576103e8346107a39190610ea5565b91506108f7565b600083670de0b6b3a7640000866107c19190610ea5565b6107cb9190610f2e565b905061080c6040518060400160405280600f81526020017f6f6c64486f75736542616c616e6365000000000000000000000000000000000081525086610b05565b61084b6040518060400160405280600f81526020017f6e6577486f75736542616c616e6365000000000000000000000000000000000081525085610b05565b61088a6040518060400160405280600881526020017f4f6c6456734e657700000000000000000000000000000000000000000000000081525082610b05565b6108c96040518060400160405280600981526020017f676c70537570706c79000000000000000000000000000000000000000000000081525083610b05565b8081670de0b6b3a76400006108de9190611021565b836108e99190610ea5565b6108f39190610f2e565b9250505b600060020160020160009054906101000a900473ffffffffffffffffffffffffffffffffffffffff1673ffffffffffffffffffffffffffffffffffffffff166340c10f1933846040518363ffffffff1660e01b815260040161095a929190610e4d565b600060405180830381600087803b15801561097457600080fd5b505af1158015610988573d6000803e3d6000fd5b505050505050505050565b600061099d610ba1565b905060008160030160009054906101000a900473ffffffffffffffffffffffffffffffffffffffff169050828260030160006101000a81548173ffffffffffffffffffffffffffffffffffffffff021916908373ffffffffffffffffffffffffffffffffffffffff1602179055508273ffffffffffffffffffffffffffffffffffffffff168173ffffffffffffffffffffffffffffffffffffffff167f8be0079c531659141344cd1fd0a4f28419497f9722a3daafe3b4186f6b6457e060405160405180910390a3505050565b610a72610ba1565b60030160009054906101000a900473ffffffffffffffffffffffffffffffffffffffff1673ffffffffffffffffffffffffffffffffffffffff163373ffffffffffffffffffffffffffffffffffffffff1614610b03576040517f08c379a0000000000000000000000000000000000000000000000000000000008152600401610afa906110c7565b60405180910390fd5b565b610b9d8282604051602401610b1b92919061116f565b6040516020818303038152906040527fb60e72cc000000000000000000000000000000000000000000000000000000007bffffffffffffffffffffffffffffffffffffffffffffffffffffffff19166020820180517bffffffffffffffffffffffffffffffffffffffffffffffffffffffff8381831617835250505050610bce565b5050565b6000807fec2e1d18880eab0fa99cf138ce95db1d80287501a0d954892af33d430f009c4190508091505090565b60008151905060006a636f6e736f6c652e6c6f679050602083016000808483855afa5050505050565b600073ffffffffffffffffffffffffffffffffffffffff82169050919050565b6000610c2282610bf7565b9050919050565b610c3281610c17565b82525050565b6000602082019050610c4d6000830184610c29565b92915050565b600080fd5b610c6181610c17565b8114610c6c57600080fd5b50565b600081359050610c7e81610c58565b92915050565b600060208284031215610c9a57610c99610c53565b5b6000610ca884828501610c6f565b91505092915050565b6000819050919050565b610cc481610cb1565b8114610ccf57600080fd5b50565b600081359050610ce181610cbb565b92915050565b600060208284031215610cfd57610cfc610c53565b5b6000610d0b84828501610cd2565b91505092915050565b610d1d81610cb1565b82525050565b6000608082019050610d386000830187610d14565b610d456020830186610d14565b610d526040830185610d14565b610d5f6060830184610d14565b95945050505050565b600081519050610d7781610cbb565b92915050565b600060208284031215610d9357610d92610c53565b5b6000610da184828501610d68565b91505092915050565b600082825260208201905092915050565b7f4e6f7420656e6f75676820474c502062616c616e636520746f20636c69616d2060008201527f74686973207175616e7469747900000000000000000000000000000000000000602082015250565b6000610e17602d83610daa565b9150610e2282610dbb565b604082019050919050565b60006020820190508181036000830152610e4681610e0a565b9050919050565b6000604082019050610e626000830185610c29565b610e6f6020830184610d14565b9392505050565b7f4e487b7100000000000000000000000000000000000000000000000000000000600052601160045260246000fd5b6000610eb082610cb1565b9150610ebb83610cb1565b9250817fffffffffffffffffffffffffffffffffffffffffffffffffffffffffffffffff0483118215151615610ef457610ef3610e76565b5b828202905092915050565b7f4e487b7100000000000000000000000000000000000000000000000000000000600052601260045260246000fd5b6000610f3982610cb1565b9150610f4483610cb1565b925082610f5457610f53610eff565b5b828204905092915050565b7f474c50546f6b656e41646472657373206973206e6f7420736574000000000000600082015250565b6000610f95601a83610daa565b9150610fa082610f5f565b602082019050919050565b60006020820190508181036000830152610fc481610f88565b9050919050565b6000610fd682610cb1565b9150610fe183610cb1565b9250827fffffffffffffffffffffffffffffffffffffffffffffffffffffffffffffffff0382111561101657611015610e76565b5b828201905092915050565b600061102c82610cb1565b915061103783610cb1565b92508282101561104a57611049610e76565b5b828203905092915050565b7f4c69624469616d6f6e643a204d75737420626520636f6e7472616374206f776e60008201527f6572000000000000000000000000000000000000000000000000000000000000602082015250565b60006110b1602283610daa565b91506110bc82611055565b604082019050919050565b600060208201905081810360008301526110e0816110a4565b9050919050565b600081519050919050565b60005b838110156111105780820151818401526020810190506110f5565b8381111561111f576000848401525b50505050565b6000601f19601f8301169050919050565b6000611141826110e7565b61114b8185610daa565b935061115b8185602086016110f2565b61116481611125565b840191505092915050565b600060408201905081810360008301526111898185611136565b90506111986020830184610d14565b939250505056fea26469706673582212202d4fd918b931c1fa71ae4e56e7ab14181ffceccc8667c9d2ebe4758716b49dec64736f6c63430008090033",
  "linkReferences": {},
  "deployedLinkReferences": {}
}