{
  "_format": "hh-sol-artifact-1",
  "contractName": "VaultFacet",
  "sourceName": "contracts/VaultFacet.sol",
  "abi": [
    {
      "inputs": [],
      "stateMutability": "nonpayable",
      "type": "constructor"
    },
    {
      "inputs": [],
      "name": "getVaultState",
      "outputs": [
        {
          "internalType": "uint256",
          "name": "totalReclaimed",
          "type": "uint256"
        },
        {
          "internalType": "uint256",
          "name": "totalLeft2Redeem",
          "type": "uint256"
        },
        {
          "internalType": "uint256",
          "name": "totalReady2Redeem",
          "type": "uint256"
        }
      ],
      "stateMutability": "view",
      "type": "function"
    },
    {
      "inputs": [],
      "name": "redeemFromVault",
      "outputs": [],
      "stateMutability": "nonpayable",
      "type": "function"
    }
  ],
  "bytecode": "0x608060405234801561001057600080fd5b506100243361002960201b6105301760201c565b610133565b600061003961010660201b60201c565b905060008160030160009054906101000a900473ffffffffffffffffffffffffffffffffffffffff169050828260030160006101000a81548173ffffffffffffffffffffffffffffffffffffffff021916908373ffffffffffffffffffffffffffffffffffffffff1602179055508273ffffffffffffffffffffffffffffffffffffffff168173ffffffffffffffffffffffffffffffffffffffff167f8be0079c531659141344cd1fd0a4f28419497f9722a3daafe3b4186f6b6457e060405160405180910390a3505050565b6000807fec2e1d18880eab0fa99cf138ce95db1d80287501a0d954892af33d430f009c4190508091505090565b610fd2806101426000396000f3fe608060405234801561001057600080fd5b50600436106100365760003560e01c80634a8c110a1461003b578063af1adb621461005b575b600080fd5b610043610065565b60405161005293929190610a88565b60405180910390f35b61006361020c565b005b6000806000806000600c0160000160003373ffffffffffffffffffffffffffffffffffffffff1673ffffffffffffffffffffffffffffffffffffffff168152602001908152602001600020905060008180549050905060005b818110156102045760008382815481106100db576100da610abf565b5b9060005260206000209060030201604051806060016040529081600082015481526020016001820154815260200160028201548152505090508060000151876101249190610b1d565b96508060200151816000015161013a9190610b73565b866101459190610b1d565b95506000620151806127108360400151426101609190610b73565b61016a9190610ba7565b6101749190610c30565b905060008111156101f1576000612710670de0b6b3a764000084600001516014670de0b6b3a7640000866101a89190610ba7565b6101b29190610c30565b6101bc9190610ba7565b6101c69190610c30565b6101d09190610c30565b90508260200151816101e29190610b73565b876101ed9190610b1d565b9650505b5050806101fd90610c61565b90506100be565b505050909192565b6000600b0160009054906101000a900460ff161561025f576040517f08c379a000000000000000000000000000000000000000000000000000000000815260040161025690610d07565b60405180910390fd5b60016000600b0160006101000a81548160ff021916908315150217905550600080600c0160000160003373ffffffffffffffffffffffffffffffffffffffff1673ffffffffffffffffffffffffffffffffffffffff168152602001908152602001600020905060008180549050905060008060005b8381121561049e5760008582815481106102f1576102f0610abf565b5b9060005260206000209060030201905060006201518061271083600201544261031a9190610b73565b6103249190610ba7565b61032e9190610c30565b9050600081111561048b576103786040518060400160405280600b81526020017f446179732070617373656400000000000000000000000000000000000000000081525082610607565b61271060146103879190610ba7565b811015610433576000612710670de0b6b3a764000084600001546014670de0b6b3a7640000866103b79190610ba7565b6103c19190610c30565b6103cb9190610ba7565b6103d59190610c30565b6103df9190610c30565b905060008360010154826103f39190610b73565b905080866104019190610b1d565b9550808460010160008282546104179190610b1d565b92505081905550868061042990610c61565b975050505061048a565b6000826001015483600001546104499190610b73565b905080856104579190610b1d565b94508260000154836001018190555061047084896106a3565b8661047a90610d27565b96508361048690610d5b565b9350505b5b50508061049790610da4565b90506102d4565b5060008111156104b2576104b181610790565b5b600082141561050d576000600c0160000160003373ffffffffffffffffffffffffffffffffffffffff1673ffffffffffffffffffffffffffffffffffffffff168152602001908152602001600020600061050c9190610a1c565b5b50505050600080600b0160006101000a81548160ff021916908315150217905550565b600061053a6109c6565b905060008160030160009054906101000a900473ffffffffffffffffffffffffffffffffffffffff169050828260030160006101000a81548173ffffffffffffffffffffffffffffffffffffffff021916908373ffffffffffffffffffffffffffffffffffffffff1602179055508273ffffffffffffffffffffffffffffffffffffffff168173ffffffffffffffffffffffffffffffffffffffff167f8be0079c531659141344cd1fd0a4f28419497f9722a3daafe3b4186f6b6457e060405160405180910390a3505050565b61069f828260405160240161061d929190610e75565b6040516020818303038152906040527fb60e72cc000000000000000000000000000000000000000000000000000000007bffffffffffffffffffffffffffffffffffffffffffffffffffffffff19166020820180517bffffffffffffffffffffffffffffffffffffffffffffffffffffffff83818316178352505050506109f3565b5050565b6000600182805490506106b69190610b73565b905060008390505b8181101561074857826001826106d49190610b1d565b815481106106e5576106e4610abf565b5b906000526020600020906003020183828154811061070657610705610abf565b5b9060005260206000209060030201600082015481600001556001820154816001015560028201548160020155905050808061074090610c61565b9150506106be565b508180548061075a57610759610ea5565b5b60019003818190600052602060002090600302016000808201600090556001820160009055600282016000905550509055505050565b60008060020160020160009054906101000a900473ffffffffffffffffffffffffffffffffffffffff1673ffffffffffffffffffffffffffffffffffffffff166318160ddd6040518163ffffffff1660e01b815260040160206040518083038186803b1580156107ff57600080fd5b505afa158015610813573d6000803e3d6000fd5b505050506040513d601f19601f820116820180604052508101906108379190610f05565b9050600081670de0b6b3a7640000846108509190610ba7565b61085a9190610c30565b90506000670de0b6b3a76400006000600201600001548361087b9190610ba7565b6108859190610c30565b9050600060020160020160009054906101000a900473ffffffffffffffffffffffffffffffffffffffff1673ffffffffffffffffffffffffffffffffffffffff16639dc29fac30866040518363ffffffff1660e01b81526004016108ea929190610f73565b600060405180830381600087803b15801561090457600080fd5b505af1158015610918573d6000803e3d6000fd5b50505050836000600c0160010160008282546109349190610b73565b9250508190555080600060020160000160008282546109539190610b73565b9250508190555080600060020160030160008282546109729190610b73565b925050819055503373ffffffffffffffffffffffffffffffffffffffff166108fc829081150290604051600060405180830381858888f193505050501580156109bf573d6000803e3d6000fd5b5050505050565b6000807fec2e1d18880eab0fa99cf138ce95db1d80287501a0d954892af33d430f009c4190508091505090565b60008151905060006a636f6e736f6c652e6c6f679050602083016000808483855afa5050505050565b5080546000825560030290600052602060002090810190610a3d9190610a40565b50565b5b80821115610a6b576000808201600090556001820160009055600282016000905550600301610a41565b5090565b6000819050919050565b610a8281610a6f565b82525050565b6000606082019050610a9d6000830186610a79565b610aaa6020830185610a79565b610ab76040830184610a79565b949350505050565b7f4e487b7100000000000000000000000000000000000000000000000000000000600052603260045260246000fd5b7f4e487b7100000000000000000000000000000000000000000000000000000000600052601160045260246000fd5b6000610b2882610a6f565b9150610b3383610a6f565b9250827fffffffffffffffffffffffffffffffffffffffffffffffffffffffffffffffff03821115610b6857610b67610aee565b5b828201905092915050565b6000610b7e82610a6f565b9150610b8983610a6f565b925082821015610b9c57610b9b610aee565b5b828203905092915050565b6000610bb282610a6f565b9150610bbd83610a6f565b9250817fffffffffffffffffffffffffffffffffffffffffffffffffffffffffffffffff0483118215151615610bf657610bf5610aee565b5b828202905092915050565b7f4e487b7100000000000000000000000000000000000000000000000000000000600052601260045260246000fd5b6000610c3b82610a6f565b9150610c4683610a6f565b925082610c5657610c55610c01565b5b828204905092915050565b6000610c6c82610a6f565b91507fffffffffffffffffffffffffffffffffffffffffffffffffffffffffffffffff821415610c9f57610c9e610aee565b5b600182019050919050565b600082825260208201905092915050565b7f4e6f2072652d656e7472616e6379000000000000000000000000000000000000600082015250565b6000610cf1600e83610caa565b9150610cfc82610cbb565b602082019050919050565b60006020820190508181036000830152610d2081610ce4565b9050919050565b6000610d3282610a6f565b91506000821415610d4657610d45610aee565b5b600182039050919050565b6000819050919050565b6000610d6682610d51565b91507f8000000000000000000000000000000000000000000000000000000000000000821415610d9957610d98610aee565b5b600182039050919050565b6000610daf82610d51565b91507f7fffffffffffffffffffffffffffffffffffffffffffffffffffffffffffffff821415610de257610de1610aee565b5b600182019050919050565b600081519050919050565b60005b83811015610e16578082015181840152602081019050610dfb565b83811115610e25576000848401525b50505050565b6000601f19601f8301169050919050565b6000610e4782610ded565b610e518185610caa565b9350610e61818560208601610df8565b610e6a81610e2b565b840191505092915050565b60006040820190508181036000830152610e8f8185610e3c565b9050610e9e6020830184610a79565b9392505050565b7f4e487b7100000000000000000000000000000000000000000000000000000000600052603160045260246000fd5b600080fd5b610ee281610a6f565b8114610eed57600080fd5b50565b600081519050610eff81610ed9565b92915050565b600060208284031215610f1b57610f1a610ed4565b5b6000610f2984828501610ef0565b91505092915050565b600073ffffffffffffffffffffffffffffffffffffffff82169050919050565b6000610f5d82610f32565b9050919050565b610f6d81610f52565b82525050565b6000604082019050610f886000830185610f64565b610f956020830184610a79565b939250505056fea264697066735822122024bab6e77f32b03c2e56f3fc83d166f171f4d57d941fe055582688eed63389fa64736f6c63430008090033",
  "linkReferences": {},
  "deployedLinkReferences": {}
}