{
  "_format": "hh-sol-artifact-1",
  "contractName": "VaultFacet",
  "sourceName": "contracts/VaultFacet.sol",
  "abi": [
    {
      "inputs": [],
      "stateMutability": "nonpayable",
      "type": "constructor"
    },
    {
      "inputs": [],
      "name": "getVaultState",
      "outputs": [
        {
          "internalType": "uint256",
          "name": "totalReclaimed",
          "type": "uint256"
        },
        {
          "internalType": "uint256",
          "name": "totalLeft2Redeem",
          "type": "uint256"
        },
        {
          "internalType": "uint256",
          "name": "totalReady2Redeem",
          "type": "uint256"
        }
      ],
      "stateMutability": "view",
      "type": "function"
    },
    {
      "inputs": [],
      "name": "redeemFromVault",
      "outputs": [],
      "stateMutability": "nonpayable",
      "type": "function"
    }
  ],
  "bytecode": "0x608060405234801561001057600080fd5b506100243361002960201b6104ef1760201c565b610133565b600061003961010660201b60201c565b905060008160030160009054906101000a900473ffffffffffffffffffffffffffffffffffffffff169050828260030160006101000a81548173ffffffffffffffffffffffffffffffffffffffff021916908373ffffffffffffffffffffffffffffffffffffffff1602179055508273ffffffffffffffffffffffffffffffffffffffff168173ffffffffffffffffffffffffffffffffffffffff167f8be0079c531659141344cd1fd0a4f28419497f9722a3daafe3b4186f6b6457e060405160405180910390a3505050565b6000807fec2e1d18880eab0fa99cf138ce95db1d80287501a0d954892af33d430f009c4190508091505090565b610f91806101426000396000f3fe608060405234801561001057600080fd5b50600436106100365760003560e01c80634a8c110a1461003b578063af1adb621461005b575b600080fd5b610043610065565b60405161005293929190610a47565b60405180910390f35b6100636101f2565b005b6000806000806000600c0160000160003373ffffffffffffffffffffffffffffffffffffffff1673ffffffffffffffffffffffffffffffffffffffff168152602001908152602001600020905060008180549050905060005b818110156101ea5760008382815481106100db576100da610a7e565b5b9060005260206000209060030201604051806060016040529081600082015481526020016001820154815260200160028201548152505090508060000151876101249190610adc565b96508060200151816000015161013a9190610b32565b866101459190610adc565b955060006201518082604001514261015d9190610b32565b6101679190610b95565b905060008111156101d7576000670de0b6b3a764000083600001516014670de0b6b3a7640000856101989190610bc6565b6101a29190610b95565b6101ac9190610bc6565b6101b69190610b95565b90508260200151816101c89190610b32565b876101d39190610adc565b9650505b5050806101e390610c20565b90506100be565b505050909192565b6000600b0160009054906101000a900460ff1615610245576040517f08c379a000000000000000000000000000000000000000000000000000000000815260040161023c90610cc6565b60405180910390fd5b60016000600b0160006101000a81548160ff021916908315150217905550600080600c0160000160003373ffffffffffffffffffffffffffffffffffffffff1673ffffffffffffffffffffffffffffffffffffffff168152602001908152602001600020905060008180549050905060008060005b8381121561045d5760008582815481106102d7576102d6610a7e565b5b906000526020600020906003020190506000620151808260020154426102fd9190610b32565b6103079190610b95565b9050600081111561044a576103516040518060400160405280600b81526020017f4461797320706173736564000000000000000000000000000000000000000000815250826105c6565b60148110156103f2576000670de0b6b3a764000083600001546014670de0b6b3a7640000856103809190610bc6565b61038a9190610b95565b6103949190610bc6565b61039e9190610b95565b905060008360010154826103b29190610b32565b905080866103c09190610adc565b9550808460010160008282546103d69190610adc565b9250508190555086806103e890610c20565b9750505050610449565b6000826001015483600001546104089190610b32565b905080856104169190610adc565b94508260000154836001018190555061042f8489610662565b8661043990610ce6565b96508361044590610d1a565b9350505b5b50508061045690610d63565b90506102ba565b506000811115610471576104708161074f565b5b60008214156104cc576000600c0160000160003373ffffffffffffffffffffffffffffffffffffffff1673ffffffffffffffffffffffffffffffffffffffff16815260200190815260200160002060006104cb91906109db565b5b50505050600080600b0160006101000a81548160ff021916908315150217905550565b60006104f9610985565b905060008160030160009054906101000a900473ffffffffffffffffffffffffffffffffffffffff169050828260030160006101000a81548173ffffffffffffffffffffffffffffffffffffffff021916908373ffffffffffffffffffffffffffffffffffffffff1602179055508273ffffffffffffffffffffffffffffffffffffffff168173ffffffffffffffffffffffffffffffffffffffff167f8be0079c531659141344cd1fd0a4f28419497f9722a3daafe3b4186f6b6457e060405160405180910390a3505050565b61065e82826040516024016105dc929190610e34565b6040516020818303038152906040527fb60e72cc000000000000000000000000000000000000000000000000000000007bffffffffffffffffffffffffffffffffffffffffffffffffffffffff19166020820180517bffffffffffffffffffffffffffffffffffffffffffffffffffffffff83818316178352505050506109b2565b5050565b6000600182805490506106759190610b32565b905060008390505b8181101561070757826001826106939190610adc565b815481106106a4576106a3610a7e565b5b90600052602060002090600302018382815481106106c5576106c4610a7e565b5b906000526020600020906003020160008201548160000155600182015481600101556002820154816002015590505080806106ff90610c20565b91505061067d565b508180548061071957610718610e64565b5b60019003818190600052602060002090600302016000808201600090556001820160009055600282016000905550509055505050565b60008060020160020160009054906101000a900473ffffffffffffffffffffffffffffffffffffffff1673ffffffffffffffffffffffffffffffffffffffff166318160ddd6040518163ffffffff1660e01b815260040160206040518083038186803b1580156107be57600080fd5b505afa1580156107d2573d6000803e3d6000fd5b505050506040513d601f19601f820116820180604052508101906107f69190610ec4565b9050600081670de0b6b3a76400008461080f9190610bc6565b6108199190610b95565b90506000670de0b6b3a76400006000600201600001548361083a9190610bc6565b6108449190610b95565b9050600060020160020160009054906101000a900473ffffffffffffffffffffffffffffffffffffffff1673ffffffffffffffffffffffffffffffffffffffff16639dc29fac30866040518363ffffffff1660e01b81526004016108a9929190610f32565b600060405180830381600087803b1580156108c357600080fd5b505af11580156108d7573d6000803e3d6000fd5b50505050836000600c0160010160008282546108f39190610b32565b9250508190555080600060020160000160008282546109129190610b32565b9250508190555080600060020160030160008282546109319190610b32565b925050819055503373ffffffffffffffffffffffffffffffffffffffff166108fc829081150290604051600060405180830381858888f1935050505015801561097e573d6000803e3d6000fd5b5050505050565b6000807fec2e1d18880eab0fa99cf138ce95db1d80287501a0d954892af33d430f009c4190508091505090565b60008151905060006a636f6e736f6c652e6c6f679050602083016000808483855afa5050505050565b50805460008255600302906000526020600020908101906109fc91906109ff565b50565b5b80821115610a2a576000808201600090556001820160009055600282016000905550600301610a00565b5090565b6000819050919050565b610a4181610a2e565b82525050565b6000606082019050610a5c6000830186610a38565b610a696020830185610a38565b610a766040830184610a38565b949350505050565b7f4e487b7100000000000000000000000000000000000000000000000000000000600052603260045260246000fd5b7f4e487b7100000000000000000000000000000000000000000000000000000000600052601160045260246000fd5b6000610ae782610a2e565b9150610af283610a2e565b9250827fffffffffffffffffffffffffffffffffffffffffffffffffffffffffffffffff03821115610b2757610b26610aad565b5b828201905092915050565b6000610b3d82610a2e565b9150610b4883610a2e565b925082821015610b5b57610b5a610aad565b5b828203905092915050565b7f4e487b7100000000000000000000000000000000000000000000000000000000600052601260045260246000fd5b6000610ba082610a2e565b9150610bab83610a2e565b925082610bbb57610bba610b66565b5b828204905092915050565b6000610bd182610a2e565b9150610bdc83610a2e565b9250817fffffffffffffffffffffffffffffffffffffffffffffffffffffffffffffffff0483118215151615610c1557610c14610aad565b5b828202905092915050565b6000610c2b82610a2e565b91507fffffffffffffffffffffffffffffffffffffffffffffffffffffffffffffffff821415610c5e57610c5d610aad565b5b600182019050919050565b600082825260208201905092915050565b7f4e6f2072652d656e7472616e6379000000000000000000000000000000000000600082015250565b6000610cb0600e83610c69565b9150610cbb82610c7a565b602082019050919050565b60006020820190508181036000830152610cdf81610ca3565b9050919050565b6000610cf182610a2e565b91506000821415610d0557610d04610aad565b5b600182039050919050565b6000819050919050565b6000610d2582610d10565b91507f8000000000000000000000000000000000000000000000000000000000000000821415610d5857610d57610aad565b5b600182039050919050565b6000610d6e82610d10565b91507f7fffffffffffffffffffffffffffffffffffffffffffffffffffffffffffffff821415610da157610da0610aad565b5b600182019050919050565b600081519050919050565b60005b83811015610dd5578082015181840152602081019050610dba565b83811115610de4576000848401525b50505050565b6000601f19601f8301169050919050565b6000610e0682610dac565b610e108185610c69565b9350610e20818560208601610db7565b610e2981610dea565b840191505092915050565b60006040820190508181036000830152610e4e8185610dfb565b9050610e5d6020830184610a38565b9392505050565b7f4e487b7100000000000000000000000000000000000000000000000000000000600052603160045260246000fd5b600080fd5b610ea181610a2e565b8114610eac57600080fd5b50565b600081519050610ebe81610e98565b92915050565b600060208284031215610eda57610ed9610e93565b5b6000610ee884828501610eaf565b91505092915050565b600073ffffffffffffffffffffffffffffffffffffffff82169050919050565b6000610f1c82610ef1565b9050919050565b610f2c81610f11565b82525050565b6000604082019050610f476000830185610f23565b610f546020830184610a38565b939250505056fea2646970667358221220c00a9545ecea4e2b2cfa111ac769a90d6db9807e07d094ffe3c90ec4c6d6335e64736f6c63430008090033",
  "linkReferences": {},
  "deployedLinkReferences": {}
}