{
  "_format": "hh-sol-artifact-1",
  "contractName": "AdminFacet",
  "sourceName": "contracts/AdminFacet.sol",
  "abi": [
    {
      "inputs": [],
      "stateMutability": "nonpayable",
      "type": "constructor"
    },
    {
      "inputs": [],
      "name": "checkPlatformBalance",
      "outputs": [
        {
          "internalType": "uint256",
          "name": "platformBalanceP18",
          "type": "uint256"
        },
        {
          "internalType": "uint256",
          "name": "platformBalanceP2",
          "type": "uint256"
        }
      ],
      "stateMutability": "view",
      "type": "function"
    },
    {
      "inputs": [],
      "name": "isContractOwner",
      "outputs": [
        {
          "internalType": "bool",
          "name": "",
          "type": "bool"
        }
      ],
      "stateMutability": "view",
      "type": "function"
    },
    {
      "inputs": [],
      "name": "test1",
      "outputs": [
        {
          "internalType": "string",
          "name": "",
          "type": "string"
        }
      ],
      "stateMutability": "view",
      "type": "function"
    },
    {
      "inputs": [],
      "name": "withdrawAllPlatformDAI",
      "outputs": [],
      "stateMutability": "nonpayable",
      "type": "function"
    }
  ],
  "bytecode": "0x608060405234801561001057600080fd5b506100243361002960201b6102c41760201c565b610133565b600061003961010660201b60201c565b905060008160030160009054906101000a900473ffffffffffffffffffffffffffffffffffffffff169050828260030160006101000a81548173ffffffffffffffffffffffffffffffffffffffff021916908373ffffffffffffffffffffffffffffffffffffffff1602179055508273ffffffffffffffffffffffffffffffffffffffff168173ffffffffffffffffffffffffffffffffffffffff167f8be0079c531659141344cd1fd0a4f28419497f9722a3daafe3b4186f6b6457e060405160405180910390a3505050565b6000807fec2e1d18880eab0fa99cf138ce95db1d80287501a0d954892af33d430f009c4190508091505090565b610853806101426000396000f3fe608060405234801561001057600080fd5b506004361061004c5760003560e01c80632bb6a4f5146100515780636b59084d146100705780637f7dcdbf1461008e5780638c49fda6146100ac575b600080fd5b6100596100b6565b6040516100679291906104dd565b60405180910390f35b6100786100e7565b604051610085919061059f565b60405180910390f35b610096610124565b6040516100a391906105dc565b60405180910390f35b6100b4610133565b005b6000806100c161039b565b6000600b0154662386f26fc100006000600b01546100df9190610626565b915091509091565b60606040518060400160405280600581526020017f7465737431000000000000000000000000000000000000000000000000000000815250905090565b600061012e610436565b905090565b61013b61039b565b600080600b015411610182576040517f08c379a0000000000000000000000000000000000000000000000000000000008152600401610179906106a3565b60405180910390fd5b6000736b175474e89094c44da98b954eedeac495271d0f90508073ffffffffffffffffffffffffffffffffffffffff1663095ea7b3306000600b01546040518363ffffffff1660e01b81526004016101db929190610704565b602060405180830381600087803b1580156101f557600080fd5b505af1158015610209573d6000803e3d6000fd5b505050506040513d601f19601f8201168201806040525081019061022d919061075e565b508073ffffffffffffffffffffffffffffffffffffffff1663a9059cbb336000600b01546040518363ffffffff1660e01b815260040161026e929190610704565b602060405180830381600087803b15801561028857600080fd5b505af115801561029c573d6000803e3d6000fd5b505050506040513d601f19601f820116820180604052508101906102c0919061075e565b5050565b60006102ce610497565b905060008160030160009054906101000a900473ffffffffffffffffffffffffffffffffffffffff169050828260030160006101000a81548173ffffffffffffffffffffffffffffffffffffffff021916908373ffffffffffffffffffffffffffffffffffffffff1602179055508273ffffffffffffffffffffffffffffffffffffffff168173ffffffffffffffffffffffffffffffffffffffff167f8be0079c531659141344cd1fd0a4f28419497f9722a3daafe3b4186f6b6457e060405160405180910390a3505050565b6103a3610497565b60030160009054906101000a900473ffffffffffffffffffffffffffffffffffffffff1673ffffffffffffffffffffffffffffffffffffffff163373ffffffffffffffffffffffffffffffffffffffff1614610434576040517f08c379a000000000000000000000000000000000000000000000000000000000815260040161042b906107fd565b60405180910390fd5b565b6000610440610497565b60030160009054906101000a900473ffffffffffffffffffffffffffffffffffffffff1673ffffffffffffffffffffffffffffffffffffffff163373ffffffffffffffffffffffffffffffffffffffff1614905090565b6000807fec2e1d18880eab0fa99cf138ce95db1d80287501a0d954892af33d430f009c4190508091505090565b6000819050919050565b6104d7816104c4565b82525050565b60006040820190506104f260008301856104ce565b6104ff60208301846104ce565b9392505050565b600081519050919050565b600082825260208201905092915050565b60005b83811015610540578082015181840152602081019050610525565b8381111561054f576000848401525b50505050565b6000601f19601f8301169050919050565b600061057182610506565b61057b8185610511565b935061058b818560208601610522565b61059481610555565b840191505092915050565b600060208201905081810360008301526105b98184610566565b905092915050565b60008115159050919050565b6105d6816105c1565b82525050565b60006020820190506105f160008301846105cd565b92915050565b7f4e487b7100000000000000000000000000000000000000000000000000000000600052601260045260246000fd5b6000610631826104c4565b915061063c836104c4565b92508261064c5761064b6105f7565b5b828204905092915050565b7f596f75722062616c616e636520697a205a45524f000000000000000000000000600082015250565b600061068d601483610511565b915061069882610657565b602082019050919050565b600060208201905081810360008301526106bc81610680565b9050919050565b600073ffffffffffffffffffffffffffffffffffffffff82169050919050565b60006106ee826106c3565b9050919050565b6106fe816106e3565b82525050565b600060408201905061071960008301856106f5565b61072660208301846104ce565b9392505050565b600080fd5b61073b816105c1565b811461074657600080fd5b50565b60008151905061075881610732565b92915050565b6000602082840312156107745761077361072d565b5b600061078284828501610749565b91505092915050565b7f4c69624469616d6f6e643a204d75737420626520636f6e7472616374206f776e60008201527f6572000000000000000000000000000000000000000000000000000000000000602082015250565b60006107e7602283610511565b91506107f28261078b565b604082019050919050565b60006020820190508181036000830152610816816107da565b905091905056fea2646970667358221220dee04888ceeeed74a473dd10b0f5fa4ba1d07adcc03e0cfa746e06ece9e8fd2e64736f6c63430008090033",
  "linkReferences": {},
  "deployedLinkReferences": {}
}