{
  "_format": "hh-sol-artifact-1",
  "contractName": "AdminFacet",
  "sourceName": "contracts/AdminFacet.sol",
  "abi": [
    {
      "inputs": [],
      "stateMutability": "nonpayable",
      "type": "constructor"
    },
    {
      "inputs": [],
      "name": "checkPlatformBalance",
      "outputs": [
        {
          "internalType": "uint256",
          "name": "platformBalance",
          "type": "uint256"
        },
        {
          "internalType": "uint256",
          "name": "contractBalance",
          "type": "uint256"
        }
      ],
      "stateMutability": "view",
      "type": "function"
    },
    {
      "inputs": [],
      "name": "isContractOwner",
      "outputs": [
        {
          "internalType": "bool",
          "name": "",
          "type": "bool"
        }
      ],
      "stateMutability": "view",
      "type": "function"
    },
    {
      "inputs": [],
      "name": "withdrawAllContractFunds",
      "outputs": [],
      "stateMutability": "nonpayable",
      "type": "function"
    },
    {
      "inputs": [],
      "name": "withdrawAllPlatformFunds",
      "outputs": [],
      "stateMutability": "nonpayable",
      "type": "function"
    }
  ],
  "bytecode": "0x608060405234801561001057600080fd5b506100243361002960201b6101fd1760201c565b610133565b600061003961010660201b60201c565b905060008160030160009054906101000a900473ffffffffffffffffffffffffffffffffffffffff169050828260030160006101000a81548173ffffffffffffffffffffffffffffffffffffffff021916908373ffffffffffffffffffffffffffffffffffffffff1602179055508273ffffffffffffffffffffffffffffffffffffffff168173ffffffffffffffffffffffffffffffffffffffff167f8be0079c531659141344cd1fd0a4f28419497f9722a3daafe3b4186f6b6457e060405160405180910390a3505050565b6000807fec2e1d18880eab0fa99cf138ce95db1d80287501a0d954892af33d430f009c4190508091505090565b61064c806101426000396000f3fe608060405234801561001057600080fd5b506004361061004c5760003560e01c80632bb6a4f5146100515780637f7dcdbf1461007057806396a47d271461008e578063f84007b214610098575b600080fd5b6100596100a2565b604051610067929190610416565b60405180910390f35b6100786100bc565b604051610085919061045a565b60405180910390f35b6100966100cb565b005b6100a06101ac565b005b6000806100ad6102d4565b6000600b015447915091509091565b60006100c661036f565b905090565b6100d36102d4565b600080600b015490506000811161011f576040517f08c379a0000000000000000000000000000000000000000000000000000000008152600401610116906104d2565b60405180910390fd5b47811115610162576040517f08c379a000000000000000000000000000000000000000000000000000000000815260040161015990610564565b60405180910390fd5b3373ffffffffffffffffffffffffffffffffffffffff166108fc829081150290604051600060405180830381858888f193505050501580156101a8573d6000803e3d6000fd5b5050565b6101b46102d4565b3373ffffffffffffffffffffffffffffffffffffffff166108fc479081150290604051600060405180830381858888f193505050501580156101fa573d6000803e3d6000fd5b50565b60006102076103d0565b905060008160030160009054906101000a900473ffffffffffffffffffffffffffffffffffffffff169050828260030160006101000a81548173ffffffffffffffffffffffffffffffffffffffff021916908373ffffffffffffffffffffffffffffffffffffffff1602179055508273ffffffffffffffffffffffffffffffffffffffff168173ffffffffffffffffffffffffffffffffffffffff167f8be0079c531659141344cd1fd0a4f28419497f9722a3daafe3b4186f6b6457e060405160405180910390a3505050565b6102dc6103d0565b60030160009054906101000a900473ffffffffffffffffffffffffffffffffffffffff1673ffffffffffffffffffffffffffffffffffffffff163373ffffffffffffffffffffffffffffffffffffffff161461036d576040517f08c379a0000000000000000000000000000000000000000000000000000000008152600401610364906105f6565b60405180910390fd5b565b60006103796103d0565b60030160009054906101000a900473ffffffffffffffffffffffffffffffffffffffff1673ffffffffffffffffffffffffffffffffffffffff163373ffffffffffffffffffffffffffffffffffffffff1614905090565b6000807fec2e1d18880eab0fa99cf138ce95db1d80287501a0d954892af33d430f009c4190508091505090565b6000819050919050565b610410816103fd565b82525050565b600060408201905061042b6000830185610407565b6104386020830184610407565b9392505050565b60008115159050919050565b6104548161043f565b82525050565b600060208201905061046f600083018461044b565b92915050565b600082825260208201905092915050565b7f596f75722062616c616e6365206973205a45524f000000000000000000000000600082015250565b60006104bc601483610475565b91506104c782610486565b602082019050919050565b600060208201905081810360008301526104eb816104af565b9050919050565b7f596f75722062616c616e6365206973206d6f7265207468616e20636f6e74726160008201527f6374206861730000000000000000000000000000000000000000000000000000602082015250565b600061054e602683610475565b9150610559826104f2565b604082019050919050565b6000602082019050818103600083015261057d81610541565b9050919050565b7f4c69624469616d6f6e643a204d75737420626520636f6e7472616374206f776e60008201527f6572000000000000000000000000000000000000000000000000000000000000602082015250565b60006105e0602283610475565b91506105eb82610584565b604082019050919050565b6000602082019050818103600083015261060f816105d3565b905091905056fea264697066735822122010061014b16d49baeca43b84caa7d55b823da08c428406a5b92b73006211d05464736f6c63430008090033",
  "linkReferences": {},
  "deployedLinkReferences": {}
}