{
  "_format": "hh-sol-artifact-1",
  "contractName": "AdminFacet",
  "sourceName": "contracts/AdminFacet.sol",
  "abi": [
    {
      "inputs": [],
      "stateMutability": "nonpayable",
      "type": "constructor"
    },
    {
      "inputs": [],
      "name": "checkPlatformBalance",
      "outputs": [
        {
          "internalType": "uint256",
          "name": "platformBalanceP18",
          "type": "uint256"
        },
        {
          "internalType": "uint256",
          "name": "platformBalanceP2",
          "type": "uint256"
        }
      ],
      "stateMutability": "view",
      "type": "function"
    },
    {
      "inputs": [],
      "name": "isContractOwner",
      "outputs": [
        {
          "internalType": "bool",
          "name": "",
          "type": "bool"
        }
      ],
      "stateMutability": "view",
      "type": "function"
    },
    {
      "inputs": [],
      "name": "withdrawAllPlatformDAI",
      "outputs": [],
      "stateMutability": "nonpayable",
      "type": "function"
    }
  ],
  "bytecode": "0x608060405234801561001057600080fd5b506100243361002960201b61025e1760201c565b610133565b600061003961010660201b60201c565b905060008160030160009054906101000a900473ffffffffffffffffffffffffffffffffffffffff169050828260030160006101000a81548173ffffffffffffffffffffffffffffffffffffffff021916908373ffffffffffffffffffffffffffffffffffffffff1602179055508273ffffffffffffffffffffffffffffffffffffffff168173ffffffffffffffffffffffffffffffffffffffff167f8be0079c531659141344cd1fd0a4f28419497f9722a3daafe3b4186f6b6457e060405160405180910390a3505050565b6000807fec2e1d18880eab0fa99cf138ce95db1d80287501a0d954892af33d430f009c4190508091505090565b610743806101426000396000f3fe608060405234801561001057600080fd5b50600436106100415760003560e01c80632bb6a4f5146100465780637f7dcdbf146100655780638c49fda614610083575b600080fd5b61004e61008d565b60405161005c929190610477565b60405180910390f35b61006d6100be565b60405161007a91906104bb565b60405180910390f35b61008b6100cd565b005b600080610098610335565b6000600b0154662386f26fc100006000600b01546100b69190610505565b915091509091565b60006100c86103d0565b905090565b6100d5610335565b600080600b01541161011c576040517f08c379a000000000000000000000000000000000000000000000000000000000815260040161011390610593565b60405180910390fd5b6000736b175474e89094c44da98b954eedeac495271d0f90508073ffffffffffffffffffffffffffffffffffffffff1663095ea7b3306000600b01546040518363ffffffff1660e01b81526004016101759291906105f4565b602060405180830381600087803b15801561018f57600080fd5b505af11580156101a3573d6000803e3d6000fd5b505050506040513d601f19601f820116820180604052508101906101c7919061064e565b508073ffffffffffffffffffffffffffffffffffffffff1663a9059cbb336000600b01546040518363ffffffff1660e01b81526004016102089291906105f4565b602060405180830381600087803b15801561022257600080fd5b505af1158015610236573d6000803e3d6000fd5b505050506040513d601f19601f8201168201806040525081019061025a919061064e565b5050565b6000610268610431565b905060008160030160009054906101000a900473ffffffffffffffffffffffffffffffffffffffff169050828260030160006101000a81548173ffffffffffffffffffffffffffffffffffffffff021916908373ffffffffffffffffffffffffffffffffffffffff1602179055508273ffffffffffffffffffffffffffffffffffffffff168173ffffffffffffffffffffffffffffffffffffffff167f8be0079c531659141344cd1fd0a4f28419497f9722a3daafe3b4186f6b6457e060405160405180910390a3505050565b61033d610431565b60030160009054906101000a900473ffffffffffffffffffffffffffffffffffffffff1673ffffffffffffffffffffffffffffffffffffffff163373ffffffffffffffffffffffffffffffffffffffff16146103ce576040517f08c379a00000000000000000000000000000000000000000000000000000000081526004016103c5906106ed565b60405180910390fd5b565b60006103da610431565b60030160009054906101000a900473ffffffffffffffffffffffffffffffffffffffff1673ffffffffffffffffffffffffffffffffffffffff163373ffffffffffffffffffffffffffffffffffffffff1614905090565b6000807fec2e1d18880eab0fa99cf138ce95db1d80287501a0d954892af33d430f009c4190508091505090565b6000819050919050565b6104718161045e565b82525050565b600060408201905061048c6000830185610468565b6104996020830184610468565b9392505050565b60008115159050919050565b6104b5816104a0565b82525050565b60006020820190506104d060008301846104ac565b92915050565b7f4e487b7100000000000000000000000000000000000000000000000000000000600052601260045260246000fd5b60006105108261045e565b915061051b8361045e565b92508261052b5761052a6104d6565b5b828204905092915050565b600082825260208201905092915050565b7f596f75722062616c616e636520697a205a45524f000000000000000000000000600082015250565b600061057d601483610536565b915061058882610547565b602082019050919050565b600060208201905081810360008301526105ac81610570565b9050919050565b600073ffffffffffffffffffffffffffffffffffffffff82169050919050565b60006105de826105b3565b9050919050565b6105ee816105d3565b82525050565b600060408201905061060960008301856105e5565b6106166020830184610468565b9392505050565b600080fd5b61062b816104a0565b811461063657600080fd5b50565b60008151905061064881610622565b92915050565b6000602082840312156106645761066361061d565b5b600061067284828501610639565b91505092915050565b7f4c69624469616d6f6e643a204d75737420626520636f6e7472616374206f776e60008201527f6572000000000000000000000000000000000000000000000000000000000000602082015250565b60006106d7602283610536565b91506106e28261067b565b604082019050919050565b60006020820190508181036000830152610706816106ca565b905091905056fea2646970667358221220b34c5cfc6d0138681162a45141f38c02bbc2443cc9f9a44d71e1055392e5190164736f6c63430008090033",
  "linkReferences": {},
  "deployedLinkReferences": {}
}