{
  "_format": "hh-sol-artifact-1",
  "contractName": "Bank",
  "sourceName": "contracts/BankContract.sol",
  "abi": [
    {
      "inputs": [],
      "stateMutability": "nonpayable",
      "type": "constructor"
    },
    {
      "inputs": [],
      "name": "bankName",
      "outputs": [
        {
          "internalType": "string",
          "name": "",
          "type": "string"
        }
      ],
      "stateMutability": "view",
      "type": "function"
    },
    {
      "inputs": [],
      "name": "bankOwner",
      "outputs": [
        {
          "internalType": "address",
          "name": "",
          "type": "address"
        }
      ],
      "stateMutability": "view",
      "type": "function"
    },
    {
      "inputs": [
        {
          "internalType": "address",
          "name": "",
          "type": "address"
        }
      ],
      "name": "customerAlias",
      "outputs": [
        {
          "internalType": "string",
          "name": "",
          "type": "string"
        }
      ],
      "stateMutability": "view",
      "type": "function"
    },
    {
      "inputs": [
        {
          "internalType": "address",
          "name": "",
          "type": "address"
        }
      ],
      "name": "customerBalance",
      "outputs": [
        {
          "internalType": "uint256",
          "name": "",
          "type": "uint256"
        }
      ],
      "stateMutability": "view",
      "type": "function"
    },
    {
      "inputs": [
        {
          "internalType": "address",
          "name": "",
          "type": "address"
        }
      ],
      "name": "customerBalanceContains",
      "outputs": [
        {
          "internalType": "bool",
          "name": "",
          "type": "bool"
        }
      ],
      "stateMutability": "view",
      "type": "function"
    },
    {
      "inputs": [],
      "name": "depositMoney",
      "outputs": [],
      "stateMutability": "payable",
      "type": "function"
    },
    {
      "inputs": [],
      "name": "getAccounts",
      "outputs": [
        {
          "internalType": "address[]",
          "name": "",
          "type": "address[]"
        },
        {
          "internalType": "uint256[]",
          "name": "",
          "type": "uint256[]"
        },
        {
          "internalType": "string[]",
          "name": "",
          "type": "string[]"
        }
      ],
      "stateMutability": "view",
      "type": "function"
    },
    {
      "inputs": [],
      "name": "getBankBalance",
      "outputs": [
        {
          "internalType": "uint256",
          "name": "",
          "type": "uint256"
        }
      ],
      "stateMutability": "view",
      "type": "function"
    },
    {
      "inputs": [],
      "name": "getCustomerBalance",
      "outputs": [
        {
          "internalType": "uint256",
          "name": "",
          "type": "uint256"
        }
      ],
      "stateMutability": "view",
      "type": "function"
    },
    {
      "inputs": [
        {
          "internalType": "string",
          "name": "_name",
          "type": "string"
        }
      ],
      "name": "setBankName",
      "outputs": [],
      "stateMutability": "nonpayable",
      "type": "function"
    },
    {
      "inputs": [
        {
          "internalType": "address",
          "name": "_account",
          "type": "address"
        },
        {
          "internalType": "string",
          "name": "_accountAlias",
          "type": "string"
        }
      ],
      "name": "setCustomerAlias",
      "outputs": [],
      "stateMutability": "nonpayable",
      "type": "function"
    },
    {
      "inputs": [
        {
          "internalType": "address payable",
          "name": "_to",
          "type": "address"
        },
        {
          "internalType": "uint256",
          "name": "_total",
          "type": "uint256"
        }
      ],
      "name": "withDrawMoney",
      "outputs": [],
      "stateMutability": "payable",
      "type": "function"
    }
  ],
  "bytecode": "0x6080604052600067ffffffffffffffff81111562000046577f4e487b7100000000000000000000000000000000000000000000000000000000600052604160045260246000fd5b604051908082528060200260200182016040528015620000755781602001602082028036833780820191505090505b50600490805190602001906200008d929190620000e2565b503480156200009b57600080fd5b50336000806101000a81548173ffffffffffffffffffffffffffffffffffffffff021916908373ffffffffffffffffffffffffffffffffffffffff16021790555062000190565b8280548282559060005260206000209081019282156200015e579160200282015b828111156200015d5782518260006101000a81548173ffffffffffffffffffffffffffffffffffffffff021916908373ffffffffffffffffffffffffffffffffffffffff1602179055509160200191906001019062000103565b5b5090506200016d919062000171565b5090565b5b808211156200018c57600081600090555060010162000172565b5090565b611beb80620001a06000396000f3fe6080604052600436106100a75760003560e01c80637ee15d0b116100645780637ee15d0b146101af5780638a48ac03146101ec578063a853409a14610219578063b1144e6714610244578063b39d7b7c1461026d578063e147aaa714610289576100a7565b806316c05aa2146100ac57806327d35801146100b657806337ebe47b146100e1578063701426901461011e57806378e25bfc146101475780637b83b50b14610184575b600080fd5b6100b46102b4565b005b3480156100c257600080fd5b506100cb61045d565b6040516100d891906116fb565b60405180910390f35b3480156100ed57600080fd5b5061010860048036038101906101039190611135565b6104eb565b60405161011591906117dd565b60405180910390f35b34801561012a57600080fd5b50610145600480360381019061014091906111ee565b610503565b005b34801561015357600080fd5b5061016e60048036038101906101699190611135565b6105ab565b60405161017b91906116e0565b60405180910390f35b34801561019057600080fd5b506101996105cb565b6040516101a691906117dd565b60405180910390f35b3480156101bb57600080fd5b506101d660048036038101906101d19190611135565b610662565b6040516101e391906116fb565b60405180910390f35b3480156101f857600080fd5b50610201610702565b60405161021093929190611694565b60405180910390f35b34801561022557600080fd5b5061022e610c5f565b60405161023b91906117dd565b60405180910390f35b34801561025057600080fd5b5061026b6004803603810190610266919061119a565b610ca6565b005b6102876004803603810190610282919061115e565b610e18565b005b34801561029557600080fd5b5061029e610fc7565b6040516102ab9190611679565b60405180910390f35b60003414156102f8576040517f08c379a00000000000000000000000000000000000000000000000000000000081526004016102ef9061173d565b60405180910390fd5b34600260003373ffffffffffffffffffffffffffffffffffffffff1673ffffffffffffffffffffffffffffffffffffffff16815260200190815260200160002060008282546103479190611931565b92505081905550600560003373ffffffffffffffffffffffffffffffffffffffff1673ffffffffffffffffffffffffffffffffffffffff16815260200190815260200160002060009054906101000a900460ff1661045b576001600560003373ffffffffffffffffffffffffffffffffffffffff1673ffffffffffffffffffffffffffffffffffffffff16815260200190815260200160002060006101000a81548160ff0219169083151502179055506004339080600181540180825580915050600190039060005260206000200160009091909190916101000a81548173ffffffffffffffffffffffffffffffffffffffff021916908373ffffffffffffffffffffffffffffffffffffffff1602179055505b565b6001805461046a90611a57565b80601f016020809104026020016040519081016040528092919081815260200182805461049690611a57565b80156104e35780601f106104b8576101008083540402835291602001916104e3565b820191906000526020600020905b8154815290600101906020018083116104c657829003601f168201915b505050505081565b60026020528060005260406000206000915090505481565b60008054906101000a900473ffffffffffffffffffffffffffffffffffffffff1673ffffffffffffffffffffffffffffffffffffffff163373ffffffffffffffffffffffffffffffffffffffff1614610591576040517f08c379a00000000000000000000000000000000000000000000000000000000081526004016105889061179d565b60405180910390fd5b80600190805190602001906105a7929190610feb565b5050565b60056020528060005260406000206000915054906101000a900460ff1681565b60008060009054906101000a900473ffffffffffffffffffffffffffffffffffffffff1673ffffffffffffffffffffffffffffffffffffffff163373ffffffffffffffffffffffffffffffffffffffff161461065c576040517f08c379a0000000000000000000000000000000000000000000000000000000008152600401610653906117bd565b60405180910390fd5b47905090565b6003602052806000526040600020600091509050805461068190611a57565b80601f01602080910402602001604051908101604052809291908181526020018280546106ad90611a57565b80156106fa5780601f106106cf576101008083540402835291602001916106fa565b820191906000526020600020905b8154815290600101906020018083116106dd57829003601f168201915b505050505081565b606080606060008054906101000a900473ffffffffffffffffffffffffffffffffffffffff1673ffffffffffffffffffffffffffffffffffffffff163373ffffffffffffffffffffffffffffffffffffffff1614610795576040517f08c379a000000000000000000000000000000000000000000000000000000000815260040161078c906117bd565b60405180910390fd5b6000600480549050905060008167ffffffffffffffff8111156107e1577f4e487b7100000000000000000000000000000000000000000000000000000000600052604160045260246000fd5b60405190808252806020026020018201604052801561080f5781602001602082028036833780820191505090505b50905060008267ffffffffffffffff811115610854577f4e487b7100000000000000000000000000000000000000000000000000000000600052604160045260246000fd5b6040519080825280602002602001820160405280156108825781602001602082028036833780820191505090505b50905060008367ffffffffffffffff8111156108c7577f4e487b7100000000000000000000000000000000000000000000000000000000600052604160045260246000fd5b6040519080825280602002602001820160405280156108fa57816020015b60608152602001906001900390816108e55790505b50905060005b84811015610c4c5760048181548110610942577f4e487b7100000000000000000000000000000000000000000000000000000000600052603260045260246000fd5b9060005260206000200160009054906101000a900473ffffffffffffffffffffffffffffffffffffffff168482815181106109a6577f4e487b7100000000000000000000000000000000000000000000000000000000600052603260045260246000fd5b602002602001019073ffffffffffffffffffffffffffffffffffffffff16908173ffffffffffffffffffffffffffffffffffffffff16815250506002600060048381548110610a1e577f4e487b7100000000000000000000000000000000000000000000000000000000600052603260045260246000fd5b9060005260206000200160009054906101000a900473ffffffffffffffffffffffffffffffffffffffff1673ffffffffffffffffffffffffffffffffffffffff1673ffffffffffffffffffffffffffffffffffffffff16815260200190815260200160002054838281518110610abd577f4e487b7100000000000000000000000000000000000000000000000000000000600052603260045260246000fd5b6020026020010181815250506003600060048381548110610b07577f4e487b7100000000000000000000000000000000000000000000000000000000600052603260045260246000fd5b9060005260206000200160009054906101000a900473ffffffffffffffffffffffffffffffffffffffff1673ffffffffffffffffffffffffffffffffffffffff1673ffffffffffffffffffffffffffffffffffffffff1681526020019081526020016000208054610b7790611a57565b80601f0160208091040260200160405190810160405280929190818152602001828054610ba390611a57565b8015610bf05780601f10610bc557610100808354040283529160200191610bf0565b820191906000526020600020905b815481529060010190602001808311610bd357829003601f168201915b5050505050828281518110610c2e577f4e487b7100000000000000000000000000000000000000000000000000000000600052603260045260246000fd5b60200260200101819052508080610c4490611a89565b915050610900565b5082828296509650965050505050909192565b6000600260003373ffffffffffffffffffffffffffffffffffffffff1673ffffffffffffffffffffffffffffffffffffffff16815260200190815260200160002054905090565b60008054906101000a900473ffffffffffffffffffffffffffffffffffffffff1673ffffffffffffffffffffffffffffffffffffffff163373ffffffffffffffffffffffffffffffffffffffff1614610d34576040517f08c379a0000000000000000000000000000000000000000000000000000000008152600401610d2b9061179d565b60405180910390fd5b600560008373ffffffffffffffffffffffffffffffffffffffff1673ffffffffffffffffffffffffffffffffffffffff16815260200190815260200160002060009054906101000a900460ff16610dc0576040517f08c379a0000000000000000000000000000000000000000000000000000000008152600401610db79061177d565b60405180910390fd5b80600360008473ffffffffffffffffffffffffffffffffffffffff1673ffffffffffffffffffffffffffffffffffffffff1681526020019081526020016000209080519060200190610e13929190610feb565b505050565b600560003373ffffffffffffffffffffffffffffffffffffffff1673ffffffffffffffffffffffffffffffffffffffff16815260200190815260200160002060009054906101000a900460ff16610ea4576040517f08c379a0000000000000000000000000000000000000000000000000000000008152600401610e9b9061175d565b60405180910390fd5b600260003373ffffffffffffffffffffffffffffffffffffffff1673ffffffffffffffffffffffffffffffffffffffff16815260200190815260200160002054811115610f26576040517f08c379a0000000000000000000000000000000000000000000000000000000008152600401610f1d9061171d565b60405180910390fd5b80600260003373ffffffffffffffffffffffffffffffffffffffff1673ffffffffffffffffffffffffffffffffffffffff1681526020019081526020016000206000828254610f759190611987565b925050819055508173ffffffffffffffffffffffffffffffffffffffff166108fc829081150290604051600060405180830381858888f19350505050158015610fc2573d6000803e3d6000fd5b505050565b60008054906101000a900473ffffffffffffffffffffffffffffffffffffffff1681565b828054610ff790611a57565b90600052602060002090601f0160209004810192826110195760008555611060565b82601f1061103257805160ff1916838001178555611060565b82800160010185558215611060579182015b8281111561105f578251825591602001919060010190611044565b5b50905061106d9190611071565b5090565b5b8082111561108a576000816000905550600101611072565b5090565b60006110a161109c84611829565b6117f8565b9050828152602081018484840111156110b957600080fd5b6110c4848285611a15565b509392505050565b6000813590506110db81611b70565b92915050565b6000813590506110f081611b87565b92915050565b600082601f83011261110757600080fd5b813561111784826020860161108e565b91505092915050565b60008135905061112f81611b9e565b92915050565b60006020828403121561114757600080fd5b6000611155848285016110cc565b91505092915050565b6000806040838503121561117157600080fd5b600061117f858286016110e1565b925050602061119085828601611120565b9150509250929050565b600080604083850312156111ad57600080fd5b60006111bb858286016110cc565b925050602083013567ffffffffffffffff8111156111d857600080fd5b6111e4858286016110f6565b9150509250929050565b60006020828403121561120057600080fd5b600082013567ffffffffffffffff81111561121a57600080fd5b611226848285016110f6565b91505092915050565b600061123b8383611273565b60208301905092915050565b600061125383836113d1565b905092915050565b6000611267838361165b565b60208301905092915050565b61127c816119bb565b82525050565b61128b816119bb565b82525050565b600061129c82611889565b6112a681856118dc565b93506112b183611859565b8060005b838110156112e25781516112c9888261122f565b97506112d4836118b5565b9250506001810190506112b5565b5085935050505092915050565b60006112fa82611894565b61130481856118ed565b93508360208202850161131685611869565b8060005b8581101561135257848403895281516113338582611247565b945061133e836118c2565b925060208a0199505060018101905061131a565b50829750879550505050505092915050565b600061136f8261189f565b61137981856118fe565b935061138483611879565b8060005b838110156113b557815161139c888261125b565b97506113a7836118cf565b925050600181019050611388565b5085935050505092915050565b6113cb816119df565b82525050565b60006113dc826118aa565b6113e6818561190f565b93506113f6818560208601611a24565b6113ff81611b5f565b840191505092915050565b6000611415826118aa565b61141f8185611920565b935061142f818560208601611a24565b61143881611b5f565b840191505092915050565b6000611450602583611920565b91507f596f75206861766520696e7375666669656e742066756e647320746f2077697460008301527f68647261770000000000000000000000000000000000000000000000000000006020830152604082019050919050565b60006114b6602983611920565b91507f596f75206e65656420746f206465706f73697420736f6d6520616d6f756e742060008301527f6f66206d6f6e65792100000000000000000000000000000000000000000000006020830152604082019050919050565b600061151c601983611920565b91507f596f75206e65766572206465706f73697465642066756e6473000000000000006000830152602082019050919050565b600061155c601183611920565b91507f4163636f756e74206e6f7420666f756e640000000000000000000000000000006000830152602082019050919050565b600061159c603183611920565b91507f596f75206d75737420626520746865206f776e657220746f207365742074686560008301527f206e616d65206f66207468652062616e6b0000000000000000000000000000006020830152604082019050919050565b6000611602603683611920565b91507f596f75206d75737420626520746865206f776e6572206f66207468652062616e60008301527f6b20746f2073656520616c6c2062616c616e6365732e000000000000000000006020830152604082019050919050565b61166481611a0b565b82525050565b61167381611a0b565b82525050565b600060208201905061168e6000830184611282565b92915050565b600060608201905081810360008301526116ae8186611291565b905081810360208301526116c28185611364565b905081810360408301526116d681846112ef565b9050949350505050565b60006020820190506116f560008301846113c2565b92915050565b60006020820190508181036000830152611715818461140a565b905092915050565b6000602082019050818103600083015261173681611443565b9050919050565b60006020820190508181036000830152611756816114a9565b9050919050565b600060208201905081810360008301526117768161150f565b9050919050565b600060208201905081810360008301526117968161154f565b9050919050565b600060208201905081810360008301526117b68161158f565b9050919050565b600060208201905081810360008301526117d6816115f5565b9050919050565b60006020820190506117f2600083018461166a565b92915050565b6000604051905081810181811067ffffffffffffffff8211171561181f5761181e611b30565b5b8060405250919050565b600067ffffffffffffffff82111561184457611843611b30565b5b601f19601f8301169050602081019050919050565b6000819050602082019050919050565b6000819050602082019050919050565b6000819050602082019050919050565b600081519050919050565b600081519050919050565b600081519050919050565b600081519050919050565b6000602082019050919050565b6000602082019050919050565b6000602082019050919050565b600082825260208201905092915050565b600082825260208201905092915050565b600082825260208201905092915050565b600082825260208201905092915050565b600082825260208201905092915050565b600061193c82611a0b565b915061194783611a0b565b9250827fffffffffffffffffffffffffffffffffffffffffffffffffffffffffffffffff0382111561197c5761197b611ad2565b5b828201905092915050565b600061199282611a0b565b915061199d83611a0b565b9250828210156119b0576119af611ad2565b5b828203905092915050565b60006119c6826119eb565b9050919050565b60006119d8826119eb565b9050919050565b60008115159050919050565b600073ffffffffffffffffffffffffffffffffffffffff82169050919050565b6000819050919050565b82818337600083830152505050565b60005b83811015611a42578082015181840152602081019050611a27565b83811115611a51576000848401525b50505050565b60006002820490506001821680611a6f57607f821691505b60208210811415611a8357611a82611b01565b5b50919050565b6000611a9482611a0b565b91507fffffffffffffffffffffffffffffffffffffffffffffffffffffffffffffffff821415611ac757611ac6611ad2565b5b600182019050919050565b7f4e487b7100000000000000000000000000000000000000000000000000000000600052601160045260246000fd5b7f4e487b7100000000000000000000000000000000000000000000000000000000600052602260045260246000fd5b7f4e487b7100000000000000000000000000000000000000000000000000000000600052604160045260246000fd5b6000601f19601f8301169050919050565b611b79816119bb565b8114611b8457600080fd5b50565b611b90816119cd565b8114611b9b57600080fd5b50565b611ba781611a0b565b8114611bb257600080fd5b5056fea264697066735822122037c7fa823e9869aa2d7570a36885ff792ec585dd365b1753bc6afc2b2f3102ca64736f6c63430008000033",
  "linkReferences": {},
  "deployedLinkReferences": {}
}