{
  "_format": "hh-sol-artifact-1",
  "contractName": "GLP",
  "sourceName": "contracts/GLP/GLP.sol",
  "abi": [
    {
      "inputs": [],
      "stateMutability": "nonpayable",
      "type": "constructor"
    },
    {
      "anonymous": false,
      "inputs": [
        {
          "indexed": true,
          "internalType": "address",
          "name": "owner",
          "type": "address"
        },
        {
          "indexed": true,
          "internalType": "address",
          "name": "spender",
          "type": "address"
        },
        {
          "indexed": false,
          "internalType": "uint256",
          "name": "value",
          "type": "uint256"
        }
      ],
      "name": "Approval",
      "type": "event"
    },
    {
      "anonymous": false,
      "inputs": [
        {
          "indexed": true,
          "internalType": "address",
          "name": "from",
          "type": "address"
        },
        {
          "indexed": true,
          "internalType": "address",
          "name": "to",
          "type": "address"
        },
        {
          "indexed": false,
          "internalType": "uint256",
          "name": "value",
          "type": "uint256"
        }
      ],
      "name": "Transfer",
      "type": "event"
    },
    {
      "inputs": [
        {
          "internalType": "address",
          "name": "_recipient",
          "type": "address"
        }
      ],
      "name": "addBlockedRecipient",
      "outputs": [],
      "stateMutability": "nonpayable",
      "type": "function"
    },
    {
      "inputs": [
        {
          "internalType": "address",
          "name": "_msgSender",
          "type": "address"
        }
      ],
      "name": "addMsgSender",
      "outputs": [],
      "stateMutability": "nonpayable",
      "type": "function"
    },
    {
      "inputs": [
        {
          "internalType": "address",
          "name": "",
          "type": "address"
        }
      ],
      "name": "admins",
      "outputs": [
        {
          "internalType": "bool",
          "name": "",
          "type": "bool"
        }
      ],
      "stateMutability": "view",
      "type": "function"
    },
    {
      "inputs": [
        {
          "internalType": "address",
          "name": "_owner",
          "type": "address"
        },
        {
          "internalType": "address",
          "name": "_spender",
          "type": "address"
        }
      ],
      "name": "allowance",
      "outputs": [
        {
          "internalType": "uint256",
          "name": "",
          "type": "uint256"
        }
      ],
      "stateMutability": "view",
      "type": "function"
    },
    {
      "inputs": [
        {
          "internalType": "address",
          "name": "",
          "type": "address"
        },
        {
          "internalType": "address",
          "name": "",
          "type": "address"
        }
      ],
      "name": "allowances",
      "outputs": [
        {
          "internalType": "uint256",
          "name": "",
          "type": "uint256"
        }
      ],
      "stateMutability": "view",
      "type": "function"
    },
    {
      "inputs": [
        {
          "internalType": "address",
          "name": "",
          "type": "address"
        }
      ],
      "name": "allowedMsgSenders",
      "outputs": [
        {
          "internalType": "bool",
          "name": "",
          "type": "bool"
        }
      ],
      "stateMutability": "view",
      "type": "function"
    },
    {
      "inputs": [
        {
          "internalType": "address",
          "name": "_spender",
          "type": "address"
        },
        {
          "internalType": "uint256",
          "name": "_amount",
          "type": "uint256"
        }
      ],
      "name": "approve",
      "outputs": [
        {
          "internalType": "bool",
          "name": "",
          "type": "bool"
        }
      ],
      "stateMutability": "nonpayable",
      "type": "function"
    },
    {
      "inputs": [
        {
          "internalType": "address",
          "name": "_account",
          "type": "address"
        }
      ],
      "name": "balanceOf",
      "outputs": [
        {
          "internalType": "uint256",
          "name": "",
          "type": "uint256"
        }
      ],
      "stateMutability": "view",
      "type": "function"
    },
    {
      "inputs": [
        {
          "internalType": "address",
          "name": "",
          "type": "address"
        }
      ],
      "name": "balances",
      "outputs": [
        {
          "internalType": "uint256",
          "name": "",
          "type": "uint256"
        }
      ],
      "stateMutability": "view",
      "type": "function"
    },
    {
      "inputs": [
        {
          "internalType": "address",
          "name": "",
          "type": "address"
        }
      ],
      "name": "blockedRecipients",
      "outputs": [
        {
          "internalType": "bool",
          "name": "",
          "type": "bool"
        }
      ],
      "stateMutability": "view",
      "type": "function"
    },
    {
      "inputs": [
        {
          "internalType": "address",
          "name": "_account",
          "type": "address"
        },
        {
          "internalType": "uint256",
          "name": "_amount",
          "type": "uint256"
        }
      ],
      "name": "burn",
      "outputs": [],
      "stateMutability": "nonpayable",
      "type": "function"
    },
    {
      "inputs": [],
      "name": "decimals",
      "outputs": [
        {
          "internalType": "uint8",
          "name": "",
          "type": "uint8"
        }
      ],
      "stateMutability": "view",
      "type": "function"
    },
    {
      "inputs": [],
      "name": "getMaintenance",
      "outputs": [
        {
          "internalType": "bool",
          "name": "",
          "type": "bool"
        }
      ],
      "stateMutability": "view",
      "type": "function"
    },
    {
      "inputs": [],
      "name": "gov",
      "outputs": [
        {
          "internalType": "address",
          "name": "",
          "type": "address"
        }
      ],
      "stateMutability": "view",
      "type": "function"
    },
    {
      "inputs": [],
      "name": "id",
      "outputs": [
        {
          "internalType": "string",
          "name": "_name",
          "type": "string"
        }
      ],
      "stateMutability": "pure",
      "type": "function"
    },
    {
      "inputs": [
        {
          "internalType": "address",
          "name": "",
          "type": "address"
        }
      ],
      "name": "isMinter",
      "outputs": [
        {
          "internalType": "bool",
          "name": "",
          "type": "bool"
        }
      ],
      "stateMutability": "view",
      "type": "function"
    },
    {
      "inputs": [],
      "name": "maintenancestate",
      "outputs": [
        {
          "internalType": "bool",
          "name": "",
          "type": "bool"
        }
      ],
      "stateMutability": "view",
      "type": "function"
    },
    {
      "inputs": [],
      "name": "migrationTime",
      "outputs": [
        {
          "internalType": "uint256",
          "name": "",
          "type": "uint256"
        }
      ],
      "stateMutability": "view",
      "type": "function"
    },
    {
      "inputs": [
        {
          "internalType": "address",
          "name": "_account",
          "type": "address"
        },
        {
          "internalType": "uint256",
          "name": "_amount",
          "type": "uint256"
        }
      ],
      "name": "mint",
      "outputs": [],
      "stateMutability": "nonpayable",
      "type": "function"
    },
    {
      "inputs": [],
      "name": "name",
      "outputs": [
        {
          "internalType": "string",
          "name": "",
          "type": "string"
        }
      ],
      "stateMutability": "view",
      "type": "function"
    },
    {
      "inputs": [
        {
          "internalType": "address",
          "name": "_recipient",
          "type": "address"
        }
      ],
      "name": "removeBlockedRecipient",
      "outputs": [],
      "stateMutability": "nonpayable",
      "type": "function"
    },
    {
      "inputs": [
        {
          "internalType": "address",
          "name": "_msgSender",
          "type": "address"
        }
      ],
      "name": "removeMsgSender",
      "outputs": [],
      "stateMutability": "nonpayable",
      "type": "function"
    },
    {
      "inputs": [
        {
          "internalType": "address",
          "name": "_minter",
          "type": "address"
        },
        {
          "internalType": "bool",
          "name": "_isActive",
          "type": "bool"
        }
      ],
      "name": "setMinter",
      "outputs": [],
      "stateMutability": "nonpayable",
      "type": "function"
    },
    {
      "inputs": [],
      "name": "symbol",
      "outputs": [
        {
          "internalType": "string",
          "name": "",
          "type": "string"
        }
      ],
      "stateMutability": "view",
      "type": "function"
    },
    {
      "inputs": [],
      "name": "toggleMaintenance",
      "outputs": [],
      "stateMutability": "nonpayable",
      "type": "function"
    },
    {
      "inputs": [],
      "name": "totalSupply",
      "outputs": [
        {
          "internalType": "uint256",
          "name": "",
          "type": "uint256"
        }
      ],
      "stateMutability": "view",
      "type": "function"
    },
    {
      "inputs": [
        {
          "internalType": "address",
          "name": "_recipient",
          "type": "address"
        },
        {
          "internalType": "uint256",
          "name": "_amount",
          "type": "uint256"
        }
      ],
      "name": "transfer",
      "outputs": [
        {
          "internalType": "bool",
          "name": "",
          "type": "bool"
        }
      ],
      "stateMutability": "nonpayable",
      "type": "function"
    },
    {
      "inputs": [
        {
          "internalType": "address",
          "name": "_sender",
          "type": "address"
        },
        {
          "internalType": "address",
          "name": "_recipient",
          "type": "address"
        },
        {
          "internalType": "uint256",
          "name": "_amount",
          "type": "uint256"
        }
      ],
      "name": "transferFrom",
      "outputs": [
        {
          "internalType": "bool",
          "name": "",
          "type": "bool"
        }
      ],
      "stateMutability": "nonpayable",
      "type": "function"
    },
    {
      "inputs": [
        {
          "internalType": "address",
          "name": "_token",
          "type": "address"
        },
        {
          "internalType": "address",
          "name": "_account",
          "type": "address"
        },
        {
          "internalType": "uint256",
          "name": "_amount",
          "type": "uint256"
        }
      ],
      "name": "withdrawToken",
      "outputs": [],
      "stateMutability": "nonpayable",
      "type": "function"
    }
  ],
  "bytecode": "0x60806040526001600360146101000a81548160ff0219169083151502179055503480156200002c57600080fd5b506040518060400160405280601981526020017f486f757365206f66204d617472697820474c5020746f6b656e000000000000008152506040518060400160405280600381526020017f474c50000000000000000000000000000000000000000000000000000000000081525081818160009080519060200190620000b392919062000170565b508060019080519060200190620000cc92919062000170565b5033600360006101000a81548173ffffffffffffffffffffffffffffffffffffffff021916908373ffffffffffffffffffffffffffffffffffffffff1602179055506001600760003373ffffffffffffffffffffffffffffffffffffffff1673ffffffffffffffffffffffffffffffffffffffff16815260200190815260200160002060006101000a81548160ff0219169083151502179055505050505062000285565b8280546200017e906200024f565b90600052602060002090601f016020900481019282620001a25760008555620001ee565b82601f10620001bd57805160ff1916838001178555620001ee565b82800160010185558215620001ee579182015b82811115620001ed578251825591602001919060010190620001d0565b5b509050620001fd919062000201565b5090565b5b808211156200021c57600081600090555060010162000202565b5090565b7f4e487b7100000000000000000000000000000000000000000000000000000000600052602260045260246000fd5b600060028204905060018216806200026857607f821691505b602082108114156200027f576200027e62000220565b5b50919050565b61275f80620002956000396000f3fe608060405234801561001057600080fd5b50600436106101cf5760003560e01c8063429b62e5116101045780639dc29fac116100a2578063b995245511610071578063b995245514610556578063cf456ae714610572578063dd62ed3e1461058e578063ff61a51c146105be576101cf565b80639dc29fac146104bc578063a9059cbb146104d8578063aa271e1a14610508578063af640d0f14610538576101cf565b80635eba1fb3116100de5780635eba1fb3146104345780635ec080fc1461045257806370a082311461046e57806395d89b411461049e576101cf565b8063429b62e5146103b85780634d9567ee146103e857806355b6ed5c14610404576101cf565b806318160ddd1161017157806327e235e31161014b57806327e235e31461033057806330a36bed14610360578063313ce5671461037e57806340c10f191461039c576101cf565b806318160ddd146102b2578063205b10a0146102d057806323b872dd14610300576101cf565b806308ebd96a116101ad57806308ebd96a1461023e578063095ea7b31461025a5780630ef897051461028a57806312d43a5114610294576101cf565b806301d060b0146101d457806301e336671461020457806306fdde0314610220575b600080fd5b6101ee60048036038101906101e99190611b68565b6105dc565b6040516101fb9190611bb0565b60405180910390f35b61021e60048036038101906102199190611c01565b6105fc565b005b61022861071f565b6040516102359190611ced565b60405180910390f35b61025860048036038101906102539190611b68565b6107ad565b005b610274600480360381019061026f9190611d0f565b610898565b6040516102819190611bb0565b60405180910390f35b6102926108af565b005b61029c610967565b6040516102a99190611d5e565b60405180910390f35b6102ba61098d565b6040516102c79190611d88565b60405180910390f35b6102ea60048036038101906102e59190611b68565b610993565b6040516102f79190611bb0565b60405180910390f35b61031a60048036038101906103159190611c01565b6109b3565b6040516103279190611bb0565b60405180910390f35b61034a60048036038101906103459190611b68565b610aab565b6040516103579190611d88565b60405180910390f35b610368610ac3565b6040516103759190611bb0565b60405180910390f35b610386610ada565b6040516103939190611dbf565b60405180910390f35b6103b660048036038101906103b19190611d0f565b610adf565b005b6103d260048036038101906103cd9190611b68565b610b79565b6040516103df9190611bb0565b60405180910390f35b61040260048036038101906103fd9190611b68565b610b99565b005b61041e60048036038101906104199190611dda565b610c84565b60405161042b9190611d88565b60405180910390f35b61043c610ca9565b6040516104499190611bb0565b60405180910390f35b61046c60048036038101906104679190611b68565b610cbc565b005b61048860048036038101906104839190611b68565b610da7565b6040516104959190611d88565b60405180910390f35b6104a6610df0565b6040516104b39190611ced565b60405180910390f35b6104d660048036038101906104d19190611d0f565b610e7e565b005b6104f260048036038101906104ed9190611d0f565b610f18565b6040516104ff9190611bb0565b60405180910390f35b610522600480360381019061051d9190611b68565b610f2f565b60405161052f9190611bb0565b60405180910390f35b610540610f4f565b60405161054d9190611ced565b60405180910390f35b610570600480360381019061056b9190611b68565b610f8c565b005b61058c60048036038101906105879190611e46565b611077565b005b6105a860048036038101906105a39190611dda565b611162565b6040516105b59190611d88565b60405180910390f35b6105c66111e9565b6040516105d39190611d88565b60405180910390f35b60096020528060005260406000206000915054906101000a900460ff1681565b600360009054906101000a900473ffffffffffffffffffffffffffffffffffffffff1673ffffffffffffffffffffffffffffffffffffffff163373ffffffffffffffffffffffffffffffffffffffff161461068c576040517f08c379a000000000000000000000000000000000000000000000000000000000815260040161068390611ed2565b60405180910390fd5b8273ffffffffffffffffffffffffffffffffffffffff1663a9059cbb83836040518363ffffffff1660e01b81526004016106c7929190611ef2565b602060405180830381600087803b1580156106e157600080fd5b505af11580156106f5573d6000803e3d6000fd5b505050506040513d601f19601f820116820180604052508101906107199190611f30565b50505050565b6000805461072c90611f8c565b80601f016020809104026020016040519081016040528092919081815260200182805461075890611f8c565b80156107a55780601f1061077a576101008083540402835291602001916107a5565b820191906000526020600020905b81548152906001019060200180831161078857829003601f168201915b505050505081565b600360009054906101000a900473ffffffffffffffffffffffffffffffffffffffff1673ffffffffffffffffffffffffffffffffffffffff163373ffffffffffffffffffffffffffffffffffffffff161461083d576040517f08c379a000000000000000000000000000000000000000000000000000000000815260040161083490611ed2565b60405180910390fd5b6001600960008373ffffffffffffffffffffffffffffffffffffffff1673ffffffffffffffffffffffffffffffffffffffff16815260200190815260200160002060006101000a81548160ff02191690831515021790555050565b60006108a53384846111ef565b6001905092915050565b600760003373ffffffffffffffffffffffffffffffffffffffff1673ffffffffffffffffffffffffffffffffffffffff16815260200190815260200160002060009054906101000a900460ff1661093b576040517f08c379a000000000000000000000000000000000000000000000000000000000815260040161093290611ed2565b60405180910390fd5b600360149054906101000a900460ff1615600360146101000a81548160ff021916908315150217905550565b600360009054906101000a900473ffffffffffffffffffffffffffffffffffffffff1681565b60025481565b60086020528060005260406000206000915054906101000a900460ff1681565b600080600660008673ffffffffffffffffffffffffffffffffffffffff1673ffffffffffffffffffffffffffffffffffffffff16815260200190815260200160002060003373ffffffffffffffffffffffffffffffffffffffff1673ffffffffffffffffffffffffffffffffffffffff16815260200190815260200160002054905082811015610a78576040517f08c379a0000000000000000000000000000000000000000000000000000000008152600401610a6f90612030565b60405180910390fd5b60008382610a86919061207f565b9050610a938633836111ef565b610a9e8686866113ba565b6001925050509392505050565b60056020528060005260406000206000915090505481565b6000600360149054906101000a900460ff16905090565b601281565b600a60003373ffffffffffffffffffffffffffffffffffffffff1673ffffffffffffffffffffffffffffffffffffffff16815260200190815260200160002060009054906101000a900460ff16610b6b576040517f08c379a0000000000000000000000000000000000000000000000000000000008152600401610b62906120ff565b60405180910390fd5b610b7582826117d1565b5050565b60076020528060005260406000206000915054906101000a900460ff1681565b600360009054906101000a900473ffffffffffffffffffffffffffffffffffffffff1673ffffffffffffffffffffffffffffffffffffffff163373ffffffffffffffffffffffffffffffffffffffff1614610c29576040517f08c379a0000000000000000000000000000000000000000000000000000000008152600401610c2090611ed2565b60405180910390fd5b6000600960008373ffffffffffffffffffffffffffffffffffffffff1673ffffffffffffffffffffffffffffffffffffffff16815260200190815260200160002060006101000a81548160ff02191690831515021790555050565b6006602052816000526040600020602052806000526040600020600091509150505481565b600360149054906101000a900460ff1681565b600360009054906101000a900473ffffffffffffffffffffffffffffffffffffffff1673ffffffffffffffffffffffffffffffffffffffff163373ffffffffffffffffffffffffffffffffffffffff1614610d4c576040517f08c379a0000000000000000000000000000000000000000000000000000000008152600401610d4390611ed2565b60405180910390fd5b6000600860008373ffffffffffffffffffffffffffffffffffffffff1673ffffffffffffffffffffffffffffffffffffffff16815260200190815260200160002060006101000a81548160ff02191690831515021790555050565b6000600560008373ffffffffffffffffffffffffffffffffffffffff1673ffffffffffffffffffffffffffffffffffffffff168152602001908152602001600020549050919050565b60018054610dfd90611f8c565b80601f0160208091040260200160405190810160405280929190818152602001828054610e2990611f8c565b8015610e765780601f10610e4b57610100808354040283529160200191610e76565b820191906000526020600020905b815481529060010190602001808311610e5957829003601f168201915b505050505081565b600a60003373ffffffffffffffffffffffffffffffffffffffff1673ffffffffffffffffffffffffffffffffffffffff16815260200190815260200160002060009054906101000a900460ff16610f0a576040517f08c379a0000000000000000000000000000000000000000000000000000000008152600401610f01906120ff565b60405180910390fd5b610f14828261194d565b5050565b6000610f253384846113ba565b6001905092915050565b600a6020528060005260406000206000915054906101000a900460ff1681565b60606040518060400160405280600381526020017f474c500000000000000000000000000000000000000000000000000000000000815250905090565b600360009054906101000a900473ffffffffffffffffffffffffffffffffffffffff1673ffffffffffffffffffffffffffffffffffffffff163373ffffffffffffffffffffffffffffffffffffffff161461101c576040517f08c379a000000000000000000000000000000000000000000000000000000000815260040161101390611ed2565b60405180910390fd5b6001600860008373ffffffffffffffffffffffffffffffffffffffff1673ffffffffffffffffffffffffffffffffffffffff16815260200190815260200160002060006101000a81548160ff02191690831515021790555050565b600360009054906101000a900473ffffffffffffffffffffffffffffffffffffffff1673ffffffffffffffffffffffffffffffffffffffff163373ffffffffffffffffffffffffffffffffffffffff1614611107576040517f08c379a00000000000000000000000000000000000000000000000000000000081526004016110fe90611ed2565b60405180910390fd5b80600a60008473ffffffffffffffffffffffffffffffffffffffff1673ffffffffffffffffffffffffffffffffffffffff16815260200190815260200160002060006101000a81548160ff0219169083151502179055505050565b6000600660008473ffffffffffffffffffffffffffffffffffffffff1673ffffffffffffffffffffffffffffffffffffffff16815260200190815260200160002060008373ffffffffffffffffffffffffffffffffffffffff1673ffffffffffffffffffffffffffffffffffffffff16815260200190815260200160002054905092915050565b60045481565b600073ffffffffffffffffffffffffffffffffffffffff168373ffffffffffffffffffffffffffffffffffffffff16141561125f576040517f08c379a000000000000000000000000000000000000000000000000000000000815260040161125690612191565b60405180910390fd5b600073ffffffffffffffffffffffffffffffffffffffff168273ffffffffffffffffffffffffffffffffffffffff1614156112cf576040517f08c379a00000000000000000000000000000000000000000000000000000000081526004016112c690612223565b60405180910390fd5b80600660008573ffffffffffffffffffffffffffffffffffffffff1673ffffffffffffffffffffffffffffffffffffffff16815260200190815260200160002060008473ffffffffffffffffffffffffffffffffffffffff1673ffffffffffffffffffffffffffffffffffffffff168152602001908152602001600020819055508173ffffffffffffffffffffffffffffffffffffffff168373ffffffffffffffffffffffffffffffffffffffff167f8c5be1e5ebec7d5bd14f71427d1e84f3dd0314c0f7b2291e5b200ac8c7c3b925836040516113ad9190611d88565b60405180910390a3505050565b600073ffffffffffffffffffffffffffffffffffffffff168373ffffffffffffffffffffffffffffffffffffffff16141561142a576040517f08c379a0000000000000000000000000000000000000000000000000000000008152600401611421906122b5565b60405180910390fd5b600073ffffffffffffffffffffffffffffffffffffffff168273ffffffffffffffffffffffffffffffffffffffff16141561149a576040517f08c379a000000000000000000000000000000000000000000000000000000000815260040161149190612347565b60405180910390fd5b600360149054906101000a900460ff16156115c957600960003373ffffffffffffffffffffffffffffffffffffffff1673ffffffffffffffffffffffffffffffffffffffff16815260200190815260200160002060009054906101000a900460ff1661153b576040517f08c379a0000000000000000000000000000000000000000000000000000000008152600401611532906123d9565b60405180910390fd5b600860008373ffffffffffffffffffffffffffffffffffffffff1673ffffffffffffffffffffffffffffffffffffffff16815260200190815260200160002060009054906101000a900460ff16156115c8576040517f08c379a00000000000000000000000000000000000000000000000000000000081526004016115bf9061246b565b60405180910390fd5b5b80600560008573ffffffffffffffffffffffffffffffffffffffff1673ffffffffffffffffffffffffffffffffffffffff16815260200190815260200160002054101561164b576040517f08c379a0000000000000000000000000000000000000000000000000000000008152600401611642906124fd565b60405180910390fd5b80600560008573ffffffffffffffffffffffffffffffffffffffff1673ffffffffffffffffffffffffffffffffffffffff16815260200190815260200160002054611696919061207f565b600560008573ffffffffffffffffffffffffffffffffffffffff1673ffffffffffffffffffffffffffffffffffffffff1681526020019081526020016000208190555080600560008473ffffffffffffffffffffffffffffffffffffffff1673ffffffffffffffffffffffffffffffffffffffff16815260200190815260200160002054611724919061251d565b600560008473ffffffffffffffffffffffffffffffffffffffff1673ffffffffffffffffffffffffffffffffffffffff168152602001908152602001600020819055508173ffffffffffffffffffffffffffffffffffffffff168373ffffffffffffffffffffffffffffffffffffffff167fddf252ad1be2c89b69c2b068fc378daa952ba7f163c4a11628f55a4df523b3ef836040516117c49190611d88565b60405180910390a3505050565b600073ffffffffffffffffffffffffffffffffffffffff168273ffffffffffffffffffffffffffffffffffffffff161415611841576040517f08c379a0000000000000000000000000000000000000000000000000000000008152600401611838906125e5565b60405180910390fd5b8060025461184f919061251d565b60028190555080600560008473ffffffffffffffffffffffffffffffffffffffff1673ffffffffffffffffffffffffffffffffffffffff168152602001908152602001600020546118a0919061251d565b600560008473ffffffffffffffffffffffffffffffffffffffff1673ffffffffffffffffffffffffffffffffffffffff168152602001908152602001600020819055508173ffffffffffffffffffffffffffffffffffffffff16600073ffffffffffffffffffffffffffffffffffffffff167fddf252ad1be2c89b69c2b068fc378daa952ba7f163c4a11628f55a4df523b3ef836040516119419190611d88565b60405180910390a35050565b600073ffffffffffffffffffffffffffffffffffffffff168273ffffffffffffffffffffffffffffffffffffffff1614156119bd576040517f08c379a00000000000000000000000000000000000000000000000000000000081526004016119b490612677565b60405180910390fd5b6000600560008473ffffffffffffffffffffffffffffffffffffffff1673ffffffffffffffffffffffffffffffffffffffff16815260200190815260200160002054905081811015611a44576040517f08c379a0000000000000000000000000000000000000000000000000000000008152600401611a3b90612709565b60405180910390fd5b818103600560008573ffffffffffffffffffffffffffffffffffffffff1673ffffffffffffffffffffffffffffffffffffffff1681526020019081526020016000208190555081600260008282540392505081905550600073ffffffffffffffffffffffffffffffffffffffff168373ffffffffffffffffffffffffffffffffffffffff167fddf252ad1be2c89b69c2b068fc378daa952ba7f163c4a11628f55a4df523b3ef84604051611af89190611d88565b60405180910390a3505050565b600080fd5b600073ffffffffffffffffffffffffffffffffffffffff82169050919050565b6000611b3582611b0a565b9050919050565b611b4581611b2a565b8114611b5057600080fd5b50565b600081359050611b6281611b3c565b92915050565b600060208284031215611b7e57611b7d611b05565b5b6000611b8c84828501611b53565b91505092915050565b60008115159050919050565b611baa81611b95565b82525050565b6000602082019050611bc56000830184611ba1565b92915050565b6000819050919050565b611bde81611bcb565b8114611be957600080fd5b50565b600081359050611bfb81611bd5565b92915050565b600080600060608486031215611c1a57611c19611b05565b5b6000611c2886828701611b53565b9350506020611c3986828701611b53565b9250506040611c4a86828701611bec565b9150509250925092565b600081519050919050565b600082825260208201905092915050565b60005b83811015611c8e578082015181840152602081019050611c73565b83811115611c9d576000848401525b50505050565b6000601f19601f8301169050919050565b6000611cbf82611c54565b611cc98185611c5f565b9350611cd9818560208601611c70565b611ce281611ca3565b840191505092915050565b60006020820190508181036000830152611d078184611cb4565b905092915050565b60008060408385031215611d2657611d25611b05565b5b6000611d3485828601611b53565b9250506020611d4585828601611bec565b9150509250929050565b611d5881611b2a565b82525050565b6000602082019050611d736000830184611d4f565b92915050565b611d8281611bcb565b82525050565b6000602082019050611d9d6000830184611d79565b92915050565b600060ff82169050919050565b611db981611da3565b82525050565b6000602082019050611dd46000830184611db0565b92915050565b60008060408385031215611df157611df0611b05565b5b6000611dff85828601611b53565b9250506020611e1085828601611b53565b9150509250929050565b611e2381611b95565b8114611e2e57600080fd5b50565b600081359050611e4081611e1a565b92915050565b60008060408385031215611e5d57611e5c611b05565b5b6000611e6b85828601611b53565b9250506020611e7c85828601611e31565b9150509250929050565b7f42617365546f6b656e3a20666f7262696464656e000000000000000000000000600082015250565b6000611ebc601483611c5f565b9150611ec782611e86565b602082019050919050565b60006020820190508181036000830152611eeb81611eaf565b9050919050565b6000604082019050611f076000830185611d4f565b611f146020830184611d79565b9392505050565b600081519050611f2a81611e1a565b92915050565b600060208284031215611f4657611f45611b05565b5b6000611f5484828501611f1b565b91505092915050565b7f4e487b7100000000000000000000000000000000000000000000000000000000600052602260045260246000fd5b60006002820490506001821680611fa457607f821691505b60208210811415611fb857611fb7611f5d565b5b50919050565b7f42617365546f6b656e3a207472616e7366657220616d6f756e7420657863656560008201527f647320616c6c6f77616e63650000000000000000000000000000000000000000602082015250565b600061201a602c83611c5f565b915061202582611fbe565b604082019050919050565b600060208201905081810360008301526120498161200d565b9050919050565b7f4e487b7100000000000000000000000000000000000000000000000000000000600052601160045260246000fd5b600061208a82611bcb565b915061209583611bcb565b9250828210156120a8576120a7612050565b5b828203905092915050565b7f4d696e7461626c6542617365546f6b656e3a20666f7262696464656e00000000600082015250565b60006120e9601c83611c5f565b91506120f4826120b3565b602082019050919050565b60006020820190508181036000830152612118816120dc565b9050919050565b7f42617365546f6b656e3a20617070726f76652066726f6d20746865207a65726f60008201527f2061646472657373000000000000000000000000000000000000000000000000602082015250565b600061217b602883611c5f565b91506121868261211f565b604082019050919050565b600060208201905081810360008301526121aa8161216e565b9050919050565b7f42617365546f6b656e3a20617070726f766520746f20746865207a65726f206160008201527f6464726573730000000000000000000000000000000000000000000000000000602082015250565b600061220d602683611c5f565b9150612218826121b1565b604082019050919050565b6000602082019050818103600083015261223c81612200565b9050919050565b7f42617365546f6b656e3a207472616e736665722066726f6d20746865207a657260008201527f6f20616464726573730000000000000000000000000000000000000000000000602082015250565b600061229f602983611c5f565b91506122aa82612243565b604082019050919050565b600060208201905081810360008301526122ce81612292565b9050919050565b7f42617365546f6b656e3a207472616e7366657220746f20746865207a65726f2060008201527f6164647265737300000000000000000000000000000000000000000000000000602082015250565b6000612331602783611c5f565b915061233c826122d5565b604082019050919050565b6000602082019050818103600083015261236081612324565b9050919050565b7f42617365546f6b656e206d61696e74656e616e63653a20666f7262696464656e60008201527f206d73672e73656e646572000000000000000000000000000000000000000000602082015250565b60006123c3602b83611c5f565b91506123ce82612367565b604082019050919050565b600060208201905081810360008301526123f2816123b6565b9050919050565b7f42617365546f6b656e206d61696e74656e616e63653a20666f7262696464656e60008201527f20726563697069656e7400000000000000000000000000000000000000000000602082015250565b6000612455602a83611c5f565b9150612460826123f9565b604082019050919050565b6000602082019050818103600083015261248481612448565b9050919050565b7f42617365546f6b656e3a207472616e7366657220616d6f756e7420657863656560008201527f64732062616c616e636500000000000000000000000000000000000000000000602082015250565b60006124e7602a83611c5f565b91506124f28261248b565b604082019050919050565b60006020820190508181036000830152612516816124da565b9050919050565b600061252882611bcb565b915061253383611bcb565b9250827fffffffffffffffffffffffffffffffffffffffffffffffffffffffffffffffff0382111561256857612567612050565b5b828201905092915050565b7f42617365546f6b656e3a206d696e7420746f20746865207a65726f206164647260008201527f6573730000000000000000000000000000000000000000000000000000000000602082015250565b60006125cf602383611c5f565b91506125da82612573565b604082019050919050565b600060208201905081810360008301526125fe816125c2565b9050919050565b7f45524332303a206275726e2066726f6d20746865207a65726f2061646472657360008201527f7300000000000000000000000000000000000000000000000000000000000000602082015250565b6000612661602183611c5f565b915061266c82612605565b604082019050919050565b6000602082019050818103600083015261269081612654565b9050919050565b7f45524332303a206275726e20616d6f756e7420657863656564732062616c616e60008201527f6365000000000000000000000000000000000000000000000000000000000000602082015250565b60006126f3602283611c5f565b91506126fe82612697565b604082019050919050565b60006020820190508181036000830152612722816126e6565b905091905056fea2646970667358221220afbce3455ff6c1ec4a57ed2016345f5b798110dbdf53da150f66cddaad8397c764736f6c63430008090033",
  "linkReferences": {},
  "deployedLinkReferences": {}
}