{
  "_format": "hh-sol-artifact-1",
  "contractName": "PlayersFacet",
  "sourceName": "contracts/PlayersFacet.sol",
  "abi": [
    {
      "inputs": [],
      "stateMutability": "nonpayable",
      "type": "constructor"
    },
    {
      "inputs": [
        {
          "internalType": "address",
          "name": "have",
          "type": "address"
        },
        {
          "internalType": "address",
          "name": "want",
          "type": "address"
        }
      ],
      "name": "OnlyCoordinatorCanFulfill",
      "type": "error"
    },
    {
      "anonymous": false,
      "inputs": [
        {
          "indexed": false,
          "internalType": "bool",
          "name": "",
          "type": "bool"
        }
      ],
      "name": "RouletteLaunchOfPlayerFound",
      "type": "event"
    },
    {
      "anonymous": false,
      "inputs": [
        {
          "indexed": false,
          "internalType": "uint256",
          "name": "requestId",
          "type": "uint256"
        }
      ],
      "name": "RouletteLaunched",
      "type": "event"
    },
    {
      "anonymous": false,
      "inputs": [
        {
          "indexed": false,
          "internalType": "uint256",
          "name": "requestId",
          "type": "uint256"
        },
        {
          "indexed": false,
          "internalType": "uint256",
          "name": "randomWord",
          "type": "uint256"
        },
        {
          "indexed": false,
          "internalType": "uint256",
          "name": "resultNum",
          "type": "uint256"
        }
      ],
      "name": "RouletteStopped",
      "type": "event"
    },
    {
      "anonymous": false,
      "inputs": [
        {
          "indexed": false,
          "internalType": "uint256",
          "name": "requestId",
          "type": "uint256"
        },
        {
          "indexed": false,
          "internalType": "uint256",
          "name": "randomWord",
          "type": "uint256"
        },
        {
          "indexed": false,
          "internalType": "uint256",
          "name": "resultNum",
          "type": "uint256"
        },
        {
          "indexed": false,
          "internalType": "uint256[10]",
          "name": "winByPosition",
          "type": "uint256[10]"
        }
      ],
      "name": "RouletteStoppedPrizeInfo",
      "type": "event"
    },
    {
      "anonymous": false,
      "inputs": [
        {
          "indexed": false,
          "internalType": "bool",
          "name": "",
          "type": "bool"
        }
      ],
      "name": "RouletteStoppedRequestIdRecognized",
      "type": "event"
    },
    {
      "anonymous": false,
      "inputs": [],
      "name": "RouletteStoppedVRFCallReceived",
      "type": "event"
    },
    {
      "inputs": [],
      "name": "checkPlayerBalance",
      "outputs": [
        {
          "internalType": "uint256",
          "name": "",
          "type": "uint256"
        },
        {
          "internalType": "int256",
          "name": "",
          "type": "int256"
        }
      ],
      "stateMutability": "view",
      "type": "function"
    },
    {
      "inputs": [],
      "name": "depositETH",
      "outputs": [],
      "stateMutability": "payable",
      "type": "function"
    },
    {
      "inputs": [
        {
          "components": [
            {
              "internalType": "uint256",
              "name": "amount",
              "type": "uint256"
            },
            {
              "internalType": "uint8",
              "name": "betType",
              "type": "uint8"
            },
            {
              "internalType": "uint8",
              "name": "betDet",
              "type": "uint8"
            }
          ],
          "internalType": "struct BetPointPrm[]",
          "name": "betPoints",
          "type": "tuple[]"
        }
      ],
      "name": "placeBet",
      "outputs": [],
      "stateMutability": "nonpayable",
      "type": "function"
    },
    {
      "inputs": [
        {
          "internalType": "uint256",
          "name": "requestId",
          "type": "uint256"
        },
        {
          "internalType": "uint256[]",
          "name": "randomWords",
          "type": "uint256[]"
        }
      ],
      "name": "rawFulfillRandomWords",
      "outputs": [],
      "stateMutability": "nonpayable",
      "type": "function"
    },
    {
      "inputs": [
        {
          "components": [
            {
              "internalType": "uint64",
              "name": "subscriptionId",
              "type": "uint64"
            },
            {
              "internalType": "address",
              "name": "vrfCoordinatorAddress",
              "type": "address"
            },
            {
              "internalType": "bytes32",
              "name": "keyHash",
              "type": "bytes32"
            }
          ],
          "internalType": "struct VrfInfoStruct",
          "name": "_vrfInfo",
          "type": "tuple"
        }
      ],
      "name": "setVrfInfo",
      "outputs": [],
      "stateMutability": "nonpayable",
      "type": "function"
    },
    {
      "inputs": [],
      "name": "withdrawDAI",
      "outputs": [],
      "stateMutability": "nonpayable",
      "type": "function"
    }
  ],
  "bytecode": "0x60806040523480156200001157600080fd5b5062000028336200002e60201b62000b3f1760201c565b6200013a565b6000620000406200010d60201b60201c565b905060008160030160009054906101000a900473ffffffffffffffffffffffffffffffffffffffff169050828260030160006101000a81548173ffffffffffffffffffffffffffffffffffffffff021916908373ffffffffffffffffffffffffffffffffffffffff1602179055508273ffffffffffffffffffffffffffffffffffffffff168173ffffffffffffffffffffffffffffffffffffffff167f8be0079c531659141344cd1fd0a4f28419497f9722a3daafe3b4186f6b6457e060405160405180910390a3505050565b6000807fec2e1d18880eab0fa99cf138ce95db1d80287501a0d954892af33d430f009c4190508091505090565b6136cd806200014a6000396000f3fe6080604052600436106100555760003560e01c8063020bcc9e1461005a5780630a718749146100715780631fe543e31461009a57806325c555d1146100c3578063cce11307146100ec578063f6326fb314610118575b600080fd5b34801561006657600080fd5b5061006f610122565b005b34801561007d57600080fd5b506100986004803603810190610093919061240c565b6102f8565b005b3480156100a657600080fd5b506100c160048036038101906100bc91906125de565b610516565b005b3480156100cf57600080fd5b506100ea60048036038101906100e5919061265e565b6105ec565b005b3480156100f857600080fd5b506101016106a2565b60405161010f9291906126b3565b60405180910390f35b610120610794565b005b600080600001600001905060008160003373ffffffffffffffffffffffffffffffffffffffff1673ffffffffffffffffffffffffffffffffffffffff16815260200190815260200160002054905060008111156102f4576000736b175474e89094c44da98b954eedeac495271d0f90508073ffffffffffffffffffffffffffffffffffffffff1663095ea7b330846040518363ffffffff1660e01b81526004016101cd92919061271d565b602060405180830381600087803b1580156101e757600080fd5b505af11580156101fb573d6000803e3d6000fd5b505050506040513d601f19601f8201168201806040525081019061021f919061277e565b508073ffffffffffffffffffffffffffffffffffffffff1663a9059cbb33846040518363ffffffff1660e01b815260040161025b92919061271d565b602060405180830381600087803b15801561027557600080fd5b505af1158015610289573d6000803e3d6000fd5b505050506040513d601f19601f820116820180604052508101906102ad919061277e565b5060008360003373ffffffffffffffffffffffffffffffffffffffff1673ffffffffffffffffffffffffffffffffffffffff16815260200190815260200160002081905550505b5050565b61030760006007018383610c16565b60008060000160000160003373ffffffffffffffffffffffffffffffffffffffff1673ffffffffffffffffffffffffffffffffffffffff1681526020019081526020016000205490506064811015610394576040517f08c379a000000000000000000000000000000000000000000000000000000000815260040161038b90612808565b60405180910390fd5b60006103a08484610cf8565b905060006103ae8585610e10565b90506103ef6040518060400160405280600e81526020017f4c6f636b696e6720746f74616c3a000000000000000000000000000000000000815250826113f0565b6103fd60006002018261148c565b61040b60008001833361152d565b60008060070160020160003373ffffffffffffffffffffffffffffffffffffffff1673ffffffffffffffffffffffffffffffffffffffff168152602001908152602001600020905061045e81878761167e565b81816002018190555061046f6117a5565b816001018190555033600060070160030160008360010154815260200190815260200160002060006101000a81548173ffffffffffffffffffffffffffffffffffffffff021916908373ffffffffffffffffffffffffffffffffffffffff1602179055507f887b2d0e97d4f3ab19562a888ca35d5b3491d3596cc76190631c13cfcb09df8781600101546040516105069190612828565b60405180910390a1505050505050565b600060070160000160000160089054906101000a900473ffffffffffffffffffffffffffffffffffffffff1673ffffffffffffffffffffffffffffffffffffffff163373ffffffffffffffffffffffffffffffffffffffff16146105de5733600060070160000160000160089054906101000a900473ffffffffffffffffffffffffffffffffffffffff166040517f1cf993f40000000000000000000000000000000000000000000000000000000081526004016105d5929190612843565b60405180910390fd5b6105e88282611941565b5050565b6105f4611fc1565b600080600701600001905081600001602081019061061291906128ac565b8160000160006101000a81548167ffffffffffffffff021916908367ffffffffffffffff16021790555081602001602081019061064f9190612905565b8160000160086101000a81548173ffffffffffffffffffffffffffffffffffffffff021916908373ffffffffffffffffffffffffffffffffffffffff160217905550816040013581600101819055505050565b600080600073773616e4d11a78f511299002da57a0a94577f1f4905060008173ffffffffffffffffffffffffffffffffffffffff1663feaf968c6040518163ffffffff1660e01b815260040160a06040518083038186803b15801561070657600080fd5b505afa15801561071a573d6000803e3d6000fd5b505050506040513d601f19601f8201168201806040525081019061073e91906129b5565b5050509150506000800160000160003373ffffffffffffffffffffffffffffffffffffffff1673ffffffffffffffffffffffffffffffffffffffff16815260200190815260200160002054819350935050509091565b600073c02aaa39b223fe8d0a0e5c4f27ead9083c756cc290508073ffffffffffffffffffffffffffffffffffffffff1663d0e30db0346040518263ffffffff1660e01b81526004016000604051808303818588803b1580156107f557600080fd5b505af1158015610809573d6000803e3d6000fd5b50505050506000737a250d5630b4cf539739df2c5dacb4c659f2488d90508173ffffffffffffffffffffffffffffffffffffffff1663095ea7b382346040518363ffffffff1660e01b815260040161086292919061271d565b602060405180830381600087803b15801561087c57600080fd5b505af1158015610890573d6000803e3d6000fd5b505050506040513d601f19601f820116820180604052508101906108b4919061277e565b506060600267ffffffffffffffff8111156108d2576108d16124a0565b5b6040519080825280602002602001820160405280156109005781602001602082028036833780820191505090505b50905073c02aaa39b223fe8d0a0e5c4f27ead9083c756cc28160008151811061092c5761092b612a30565b5b602002602001019073ffffffffffffffffffffffffffffffffffffffff16908173ffffffffffffffffffffffffffffffffffffffff1681525050736b175474e89094c44da98b954eedeac495271d0f8160018151811061098f5761098e612a30565b5b602002602001019073ffffffffffffffffffffffffffffffffffffffff16908173ffffffffffffffffffffffffffffffffffffffff168152505060008273ffffffffffffffffffffffffffffffffffffffff166338ed17393460018530426040518663ffffffff1660e01b8152600401610a0d959493929190612b62565b600060405180830381600087803b158015610a2757600080fd5b505af1158015610a3b573d6000803e3d6000fd5b505050506040513d6000823e3d601f19601f82011682018060405250810190610a649190612c53565b9050600081600181518110610a7c57610a7b612a30565b5b602002602001015190506000662386f26fc1000082610a9b9190612cfa565b90506000662386f26fc1000082610ab29190612d2b565b83610abd9190612d85565b9050816000800160000160003373ffffffffffffffffffffffffffffffffffffffff1673ffffffffffffffffffffffffffffffffffffffff1681526020019081526020016000206000828254610b139190612db9565b92505081905550806000600b016000828254610b2f9190612db9565b9250508190555050505050505050565b6000610b4961205c565b905060008160030160009054906101000a900473ffffffffffffffffffffffffffffffffffffffff169050828260030160006101000a81548173ffffffffffffffffffffffffffffffffffffffff021916908373ffffffffffffffffffffffffffffffffffffffff1602179055508273ffffffffffffffffffffffffffffffffffffffff168173ffffffffffffffffffffffffffffffffffffffff167f8be0079c531659141344cd1fd0a4f28419497f9722a3daafe3b4186f6b6457e060405160405180910390a3505050565b600082829050118015610c2d5750600a8282905011155b610c6c576040517f08c379a0000000000000000000000000000000000000000000000000000000008152600401610c6390612e5b565b60405180910390fd5b60008360020160003373ffffffffffffffffffffffffffffffffffffffff1673ffffffffffffffffffffffffffffffffffffffff1681526020019081526020016000206001015414610cf3576040517f08c379a0000000000000000000000000000000000000000000000000000000008152600401610cea90612eed565b60405180910390fd5b505050565b6000805b83839050811015610e095736848483818110610d1b57610d1a612a30565b5b9050606002019050806000013583610d339190612db9565b925073__$8f978581c91560e6666447aae607650362$__633935e423826020016020810190610d629190612f46565b836040016020810190610d759190612f46565b846040016020810190610d889190612f46565b6040518463ffffffff1660e01b8152600401610da693929190612f82565b60206040518083038186803b158015610dbe57600080fd5b505af4158015610dd2573d6000803e3d6000fd5b505050506040513d601f19601f82011682018060405250810190610df69190612fce565b505080610e0290612ffb565b9050610cfc565b5092915050565b600080604051806101c00160405280600060ff168152602001602360ff168152602001601160ff168152602001600b60ff168152602001600860ff168152602001600660ff168152602001600560ff168152602001600260ff168152602001600260ff168152602001600160ff168152602001600160ff168152602001600160ff168152602001600160ff168152602001601160ff1681525090506000600e67ffffffffffffffff811115610ec857610ec76124a0565b5b604051908082528060200260200182016040528015610ef65781602001602082028036833780820191505090505b509050600085859050905060005b818110156113785736878783818110610f2057610f1f612a30565b5b90506060020190506103e881600001351115610f71576040517f08c379a0000000000000000000000000000000000000000000000000000000008152600401610f68906130b6565b60405180910390fd5b6000816020016020810190610f869190612f46565b905060018160ff161415610fe257610fbd85600181518110610fab57610faa612a30565b5b60200260200101518360000135612089565b85600181518110610fd157610fd0612a30565b5b602002602001018181525050611365565b60028160ff1614156110275781600001358560028151811061100757611006612a30565b5b6020026020010181815161101b9190612db9565b91508181525050611364565b60038160ff1614156110815761105c8560038151811061104a57611049612a30565b5b60200260200101518360000135612089565b856003815181106110705761106f612a30565b5b602002602001018181525050611363565b60048160ff1614156110c6578160000135856004815181106110a6576110a5612a30565b5b602002602001018181516110ba9190612db9565b91508181525050611362565b60058160ff16141561110b578160000135856005815181106110eb576110ea612a30565b5b602002602001018181516110ff9190612db9565b91508181525050611361565b60068160ff161415611150578160000135856006815181106111305761112f612a30565b5b602002602001018181516111449190612db9565b91508181525050611360565b60078160ff1614156111aa576111858560078151811061117357611172612a30565b5b60200260200101518360000135612089565b8560078151811061119957611198612a30565b5b60200260200101818152505061135f565b60088160ff161415611204576111df856008815181106111cd576111cc612a30565b5b60200260200101518360000135612089565b856008815181106111f3576111f2612a30565b5b60200260200101818152505061135e565b60098160ff1614156112495781600001358560098151811061122957611228612a30565b5b6020026020010181815161123d9190612db9565b9150818152505061135d565b600a8160ff16141561128e57816000013585600a8151811061126e5761126d612a30565b5b602002602001018181516112829190612db9565b9150818152505061135c565b600b8160ff1614156112d357816000013585600b815181106112b3576112b2612a30565b5b602002602001018181516112c79190612db9565b9150818152505061135b565b600c8160ff16141561131857816000013585600c815181106112f8576112f7612a30565b5b6020026020010181815161130c9190612db9565b9150818152505061135a565b600c8160ff16141561135957816000013585600c8151811061133d5761133c612a30565b5b602002602001018181516113519190612db9565b915081815250505b5b5b5b5b5b5b5b5b5b5b5b5b50508061137190612ffb565b9050610f04565b506000600190505b600d81116113e6578381600e811061139b5761139a612a30565b5b602002015160ff168382815181106113b6576113b5612a30565b5b60200260200101516113c89190612d2b565b856113d39190612db9565b9450806113df90612ffb565b9050611380565b5050505092915050565b611488828260405160240161140692919061314d565b6040516020818303038152906040527fb60e72cc000000000000000000000000000000000000000000000000000000007bffffffffffffffffffffffffffffffffffffffffffffffffffffffff19166020820180517bffffffffffffffffffffffffffffffffffffffffffffffffffffffff83818316178352505050506120a3565b5050565b6000620f42408261149d9190612d2b565b905080836000015410156114e6576040517f08c379a00000000000000000000000000000000000000000000000000000000081526004016114dd906131c9565b60405180910390fd5b808360000160008282546114fa9190612d85565b9250508190555060648261150e9190612d2b565b8360010160008282546115219190612db9565b92505081905550505050565b600060648361153c9190612d2b565b905060008460000160008473ffffffffffffffffffffffffffffffffffffffff1673ffffffffffffffffffffffffffffffffffffffff168152602001908152602001600020549050818110156115c7576040517f08c379a00000000000000000000000000000000000000000000000000000000081526004016115be90613235565b60405180910390fd5b818560010160008573ffffffffffffffffffffffffffffffffffffffff1673ffffffffffffffffffffffffffffffffffffffff16815260200190815260200160002060008282546116189190612db9565b92505081905550818560000160008573ffffffffffffffffffffffffffffffffffffffff1673ffffffffffffffffffffffffffffffffffffffff16815260200190815260200160002060008282546116709190612d85565b925050819055505050505050565b60005b8282905081101561179f57368383838181106116a05761169f612a30565b5b90506060020190506116b06122cf565b81600001358160000181815250508160400160208101906116d19190612f46565b816040019060ff16908160ff16815250508160200160208101906116f59190612f46565b816020019060ff16908160ff1681525050856000018190806001815401808255809150506001900390600052602060002090600302016000909190919091506000820151816000015560208201518160010160006101000a81548160ff021916908360ff16021790555060408201518160010160016101000a81548160ff021916908360ff16021790555060608201518160020155505050508061179890612ffb565b9050611681565b50505050565b600080620f424090506000600390506000600190506000806007016000019050600073ffffffffffffffffffffffffffffffffffffffff168160000160089054906101000a900473ffffffffffffffffffffffffffffffffffffffff1673ffffffffffffffffffffffffffffffffffffffff161415611859576040517f08c379a0000000000000000000000000000000000000000000000000000000008152600401611850906132a1565b60405180910390fd5b60008160000160089054906101000a900473ffffffffffffffffffffffffffffffffffffffff16905060008173ffffffffffffffffffffffffffffffffffffffff16635d3b1d3084600101548560000160009054906101000a900467ffffffffffffffff16888a896040518663ffffffff1660e01b81526004016118e1959493929190613325565b602060405180830381600087803b1580156118fb57600080fd5b505af115801561190f573d6000803e3d6000fd5b505050506040513d601f19601f820116820180604052508101906119339190613378565b905080965050505050505090565b7fc48d2d1748b2821a893b7befc23c0d3d5ff0cb9fdce850ceac00fabfa006da7960405160405180910390a1600060268260008151811061198557611984612a30565b5b602002602001015161199791906133a5565b905060008114156119a757602690505b60008190507f2ed2b3b354a7ae8bd419c4cfa7a0aef256e89ba340aa7e00a6dbee5f2f01087884846000815181106119e2576119e1612a30565b5b6020026020010151846040516119fa939291906133d6565b60405180910390a1600080600701600301600086815260200190815260200160002060009054906101000a900473ffffffffffffffffffffffffffffffffffffffff169050600073ffffffffffffffffffffffffffffffffffffffff168173ffffffffffffffffffffffffffffffffffffffff161415611ab4577f412fdfca1794c4516d51034490f02b3616c75acf5d768ee0f69afc2a069cb1526000604051611aa4919061341c565b60405180910390a1505050611fbd565b6000600701600301600086815260200190815260200160002060006101000a81549073ffffffffffffffffffffffffffffffffffffffff02191690557f412fdfca1794c4516d51034490f02b3616c75acf5d768ee0f69afc2a069cb1526001604051611b20919061341c565b60405180910390a160008060070160020160008373ffffffffffffffffffffffffffffffffffffffff1673ffffffffffffffffffffffffffffffffffffffff16815260200190815260200160002060405180606001604052908160008201805480602002602001604051908101604052809291908181526020016000905b82821015611c1e5783829060005260206000209060030201604051806080016040529081600082015481526020016001820160009054906101000a900460ff1660ff1660ff1681526020016001820160019054906101000a900460ff1660ff1660ff16815260200160028201548152505081526020019060010190611b9e565b50505050815260200160018201548152602001600282015481525050905085816020015114611c88577fbce44f9f6b3e64fd0bcfb36638906a2a5015d46474aa67486fd7a1c0036562526000604051611c77919061341c565b60405180910390a150505050611fbd565b7fbce44f9f6b3e64fd0bcfb36638906a2a5015d46474aa67486fd7a1c0036562526001604051611cb8919061341c565b60405180910390a1600060070160020160008373ffffffffffffffffffffffffffffffffffffffff1673ffffffffffffffffffffffffffffffffffffffff16815260200190815260200160002060008082016000611d1691906122fd565b60018201600090556002820160009055505060008060008360000151519050611d3d612321565b60005b82811015611e7e57600086600001518281518110611d6157611d60612a30565b5b60200260200101519050806000015186611d7b9190612db9565b9550600073__$8f978581c91560e6666447aae607650362$__633935e423836020015184604001518d6040518463ffffffff1660e01b8152600401611dc293929190612f82565b60206040518083038186803b158015611dda57600080fd5b505af4158015611dee573d6000803e3d6000fd5b505050506040513d601f19601f82011682018060405250810190611e129190612fce565b60ff1690506000811115611e6b576000818360000151611e329190612d2b565b90508087611e409190612db9565b965080836060018181525050808585600a8110611e6057611e5f612a30565b5b602002018181525050505b505080611e7790612ffb565b9050611d40565b50611e91600060020186604001516120cc565b611e9f600080018588612126565b60008490506000841115611f2357606484611eba9190612d2b565b6000800160000160008973ffffffffffffffffffffffffffffffffffffffff1673ffffffffffffffffffffffffffffffffffffffff1681526020019081526020016000206000828254611f0d9190612db9565b925050819055508381611f209190613437565b90505b6000811215611f4557611f40600082611f3b906134cb565b61218f565b611f5b565b6000811315611f5a57611f59600082612233565b5b5b7fae30dbbe54c9bdd5a7d9ada12e5bdf2666243e7a15e840e99d4360300988d5fa8b8b600081518110611f9157611f90612a30565b5b60200260200101518b85604051611fab94939291906135bf565b60405180910390a15050505050505050505b5050565b611fc961205c565b60030160009054906101000a900473ffffffffffffffffffffffffffffffffffffffff1673ffffffffffffffffffffffffffffffffffffffff163373ffffffffffffffffffffffffffffffffffffffff161461205a576040517f08c379a000000000000000000000000000000000000000000000000000000000815260040161205190613677565b60405180910390fd5b565b6000807fec2e1d18880eab0fa99cf138ce95db1d80287501a0d954892af33d430f009c4190508091505090565b600081831015612099578161209b565b825b905092915050565b60008151905060006a636f6e736f6c652e6c6f679050602083016000808483855afa5050505050565b6000620f4240826120dd9190612d2b565b9050808360000160008282546120f39190612db9565b925050819055506064826121079190612d2b565b83600101600082825461211a9190612d85565b92505081905550505050565b6064826121339190612d2b565b8360010160008373ffffffffffffffffffffffffffffffffffffffff1673ffffffffffffffffffffffffffffffffffffffff16815260200190815260200160002060008282546121839190612d85565b92505081905550505050565b6000600390506000612710670de0b6b3a764000084846121af9190612d2b565b6121b99190612d2b565b6121c39190612cfa565b90508084600b0160008282546121d99190612db9565b92505081905550600064e8d4a51000826121f39190612cfa565b620f4240856122029190612d2b565b61220c9190612db9565b9050808560020160000160008282546122259190612d85565b925050819055505050505050565b6000601a90506000670de0b6b3a76400008361224f9190612d2b565b9050600061271082846122629190612d2b565b61226c9190612cfa565b90508085600b0160008282546122829190612db9565b92505081905550600064e8d4a51000828461229d9190612d85565b6122a79190612cfa565b9050808660020160000160008282546122c09190612db9565b92505081905550505050505050565b604051806080016040528060008152602001600060ff168152602001600060ff168152602001600081525090565b508054600082556003029060005260206000209081019061231e9190612344565b50565b604051806101400160405280600a90602082028036833780820191505090505090565b5b8082111561238f576000808201600090556001820160006101000a81549060ff02191690556001820160016101000a81549060ff0219169055600282016000905550600301612345565b5090565b6000604051905090565b600080fd5b600080fd5b600080fd5b600080fd5b600080fd5b60008083601f8401126123cc576123cb6123a7565b5b8235905067ffffffffffffffff8111156123e9576123e86123ac565b5b602083019150836060820283011115612405576124046123b1565b5b9250929050565b600080602083850312156124235761242261239d565b5b600083013567ffffffffffffffff811115612441576124406123a2565b5b61244d858286016123b6565b92509250509250929050565b6000819050919050565b61246c81612459565b811461247757600080fd5b50565b60008135905061248981612463565b92915050565b6000601f19601f8301169050919050565b7f4e487b7100000000000000000000000000000000000000000000000000000000600052604160045260246000fd5b6124d88261248f565b810181811067ffffffffffffffff821117156124f7576124f66124a0565b5b80604052505050565b600061250a612393565b905061251682826124cf565b919050565b600067ffffffffffffffff821115612536576125356124a0565b5b602082029050602081019050919050565b600061255a6125558461251b565b612500565b9050808382526020820190506020840283018581111561257d5761257c6123b1565b5b835b818110156125a65780612592888261247a565b84526020840193505060208101905061257f565b5050509392505050565b600082601f8301126125c5576125c46123a7565b5b81356125d5848260208601612547565b91505092915050565b600080604083850312156125f5576125f461239d565b5b60006126038582860161247a565b925050602083013567ffffffffffffffff811115612624576126236123a2565b5b612630858286016125b0565b9150509250929050565b600080fd5b6000606082840312156126555761265461263a565b5b81905092915050565b6000606082840312156126745761267361239d565b5b60006126828482850161263f565b91505092915050565b61269481612459565b82525050565b6000819050919050565b6126ad8161269a565b82525050565b60006040820190506126c8600083018561268b565b6126d560208301846126a4565b9392505050565b600073ffffffffffffffffffffffffffffffffffffffff82169050919050565b6000612707826126dc565b9050919050565b612717816126fc565b82525050565b6000604082019050612732600083018561270e565b61273f602083018461268b565b9392505050565b60008115159050919050565b61275b81612746565b811461276657600080fd5b50565b60008151905061277881612752565b92915050565b6000602082840312156127945761279361239d565b5b60006127a284828501612769565b91505092915050565b600082825260208201905092915050565b7f42616c616e636520697320656d70747900000000000000000000000000000000600082015250565b60006127f26010836127ab565b91506127fd826127bc565b602082019050919050565b60006020820190508181036000830152612821816127e5565b9050919050565b600060208201905061283d600083018461268b565b92915050565b6000604082019050612858600083018561270e565b612865602083018461270e565b9392505050565b600067ffffffffffffffff82169050919050565b6128898161286c565b811461289457600080fd5b50565b6000813590506128a681612880565b92915050565b6000602082840312156128c2576128c161239d565b5b60006128d084828501612897565b91505092915050565b6128e2816126fc565b81146128ed57600080fd5b50565b6000813590506128ff816128d9565b92915050565b60006020828403121561291b5761291a61239d565b5b6000612929848285016128f0565b91505092915050565b600069ffffffffffffffffffff82169050919050565b61295181612932565b811461295c57600080fd5b50565b60008151905061296e81612948565b92915050565b61297d8161269a565b811461298857600080fd5b50565b60008151905061299a81612974565b92915050565b6000815190506129af81612463565b92915050565b600080600080600060a086880312156129d1576129d061239d565b5b60006129df8882890161295f565b95505060206129f08882890161298b565b9450506040612a01888289016129a0565b9350506060612a12888289016129a0565b9250506080612a238882890161295f565b9150509295509295909350565b7f4e487b7100000000000000000000000000000000000000000000000000000000600052603260045260246000fd5b6000819050919050565b6000819050919050565b6000612a8e612a89612a8484612a5f565b612a69565b612459565b9050919050565b612a9e81612a73565b82525050565b600081519050919050565b600082825260208201905092915050565b6000819050602082019050919050565b612ad9816126fc565b82525050565b6000612aeb8383612ad0565b60208301905092915050565b6000602082019050919050565b6000612b0f82612aa4565b612b198185612aaf565b9350612b2483612ac0565b8060005b83811015612b55578151612b3c8882612adf565b9750612b4783612af7565b925050600181019050612b28565b5085935050505092915050565b600060a082019050612b77600083018861268b565b612b846020830187612a95565b8181036040830152612b968186612b04565b9050612ba5606083018561270e565b612bb2608083018461268b565b9695505050505050565b6000612bcf612bca8461251b565b612500565b90508083825260208201905060208402830185811115612bf257612bf16123b1565b5b835b81811015612c1b5780612c0788826129a0565b845260208401935050602081019050612bf4565b5050509392505050565b600082601f830112612c3a57612c396123a7565b5b8151612c4a848260208601612bbc565b91505092915050565b600060208284031215612c6957612c6861239d565b5b600082015167ffffffffffffffff811115612c8757612c866123a2565b5b612c9384828501612c25565b91505092915050565b7f4e487b7100000000000000000000000000000000000000000000000000000000600052601260045260246000fd5b7f4e487b7100000000000000000000000000000000000000000000000000000000600052601160045260246000fd5b6000612d0582612459565b9150612d1083612459565b925082612d2057612d1f612c9c565b5b828204905092915050565b6000612d3682612459565b9150612d4183612459565b9250817fffffffffffffffffffffffffffffffffffffffffffffffffffffffffffffffff0483118215151615612d7a57612d79612ccb565b5b828202905092915050565b6000612d9082612459565b9150612d9b83612459565b925082821015612dae57612dad612ccb565b5b828203905092915050565b6000612dc482612459565b9150612dcf83612459565b9250827fffffffffffffffffffffffffffffffffffffffffffffffffffffffffffffffff03821115612e0457612e03612ccb565b5b828201905092915050565b7f546f6f206d616e79206265747300000000000000000000000000000000000000600082015250565b6000612e45600d836127ab565b9150612e5082612e0f565b602082019050919050565b60006020820190508181036000830152612e7481612e38565b9050919050565b7f526f756c65747465206973206c61756e636865642e204e6f206d6f726520626560008201527f74732e0000000000000000000000000000000000000000000000000000000000602082015250565b6000612ed76023836127ab565b9150612ee282612e7b565b604082019050919050565b60006020820190508181036000830152612f0681612eca565b9050919050565b600060ff82169050919050565b612f2381612f0d565b8114612f2e57600080fd5b50565b600081359050612f4081612f1a565b92915050565b600060208284031215612f5c57612f5b61239d565b5b6000612f6a84828501612f31565b91505092915050565b612f7c81612f0d565b82525050565b6000606082019050612f976000830186612f73565b612fa46020830185612f73565b612fb16040830184612f73565b949350505050565b600081519050612fc881612f1a565b92915050565b600060208284031215612fe457612fe361239d565b5b6000612ff284828501612fb9565b91505092915050565b600061300682612459565b91507fffffffffffffffffffffffffffffffffffffffffffffffffffffffffffffffff82141561303957613038612ccb565b5b600182019050919050565b7f426574206f6e2073696e676c6520706f736974696f6e2065786365656473203160008201527f3030300000000000000000000000000000000000000000000000000000000000602082015250565b60006130a06023836127ab565b91506130ab82613044565b604082019050919050565b600060208201905081810360008301526130cf81613093565b9050919050565b600081519050919050565b60005b838110156130ff5780820151818401526020810190506130e4565b8381111561310e576000848401525b50505050565b600061311f826130d6565b61312981856127ab565b93506131398185602086016130e1565b6131428161248f565b840191505092915050565b600060408201905081810360008301526131678185613114565b9050613176602083018461268b565b9392505050565b7f486f7573652062616c616e636520697320696e73756666696369656e74000000600082015250565b60006131b3601d836127ab565b91506131be8261317d565b602082019050919050565b600060208201905081810360008301526131e2816131a6565b9050919050565b7f42616c616e636520697320696e73756666696369656e74000000000000000000600082015250565b600061321f6017836127ab565b915061322a826131e9565b602082019050919050565b6000602082019050818103600083015261324e81613212565b9050919050565b7f767266496e666f206e6f74207365740000000000000000000000000000000000600082015250565b600061328b600f836127ab565b915061329682613255565b602082019050919050565b600060208201905081810360008301526132ba8161327e565b9050919050565b6000819050919050565b6132d4816132c1565b82525050565b6132e38161286c565b82525050565b600061ffff82169050919050565b613300816132e9565b82525050565b600063ffffffff82169050919050565b61331f81613306565b82525050565b600060a08201905061333a60008301886132cb565b61334760208301876132da565b61335460408301866132f7565b6133616060830185613316565b61336e6080830184613316565b9695505050505050565b60006020828403121561338e5761338d61239d565b5b600061339c848285016129a0565b91505092915050565b60006133b082612459565b91506133bb83612459565b9250826133cb576133ca612c9c565b5b828206905092915050565b60006060820190506133eb600083018661268b565b6133f8602083018561268b565b613405604083018461268b565b949350505050565b61341681612746565b82525050565b6000602082019050613431600083018461340d565b92915050565b60006134428261269a565b915061344d8361269a565b9250827f80000000000000000000000000000000000000000000000000000000000000000182126000841215161561348857613487612ccb565b5b827f7fffffffffffffffffffffffffffffffffffffffffffffffffffffffffffffff0182136000841216156134c0576134bf612ccb565b5b828203905092915050565b60006134d68261269a565b91507f800000000000000000000000000000000000000000000000000000000000000082141561350957613508612ccb565b5b816000039050919050565b6000600a9050919050565b600081905092915050565b6000819050919050565b61353d81612459565b82525050565b600061354f8383613534565b60208301905092915050565b6000602082019050919050565b61357181613514565b61357b818461351f565b92506135868261352a565b8060005b838110156135b757815161359e8782613543565b96506135a98361355b565b92505060018101905061358a565b505050505050565b60006101a0820190506135d5600083018761268b565b6135e2602083018661268b565b6135ef604083018561268b565b6135fc6060830184613568565b95945050505050565b7f4c69624469616d6f6e643a204d75737420626520636f6e7472616374206f776e60008201527f6572000000000000000000000000000000000000000000000000000000000000602082015250565b60006136616022836127ab565b915061366c82613605565b604082019050919050565b6000602082019050818103600083015261369081613654565b905091905056fea2646970667358221220d0d887e752be1267f0e5ce0cea638b69fb60614464f7765543a3d4f491faee3e64736f6c63430008090033",
  "linkReferences": {
    "contracts/libraries/roulette/LibRulette.sol": {
      "LibRulette": [
        {
          "length": 20,
          "start": 3713
        },
        {
          "length": 20,
          "start": 7883
        }
      ]
    }
  },
  "deployedLinkReferences": {
    "contracts/libraries/roulette/LibRulette.sol": {
      "LibRulette": [
        {
          "length": 20,
          "start": 3383
        },
        {
          "length": 20,
          "start": 7553
        }
      ]
    }
  }
}