{
  "_format": "hh-sol-artifact-1",
  "contractName": "PlayersFacet",
  "sourceName": "contracts/PlayersFacet.sol",
  "abi": [
    {
      "inputs": [],
      "stateMutability": "nonpayable",
      "type": "constructor"
    },
    {
      "anonymous": false,
      "inputs": [
        {
          "indexed": false,
          "internalType": "bool",
          "name": "",
          "type": "bool"
        }
      ],
      "name": "RouletteLaunchOfPlayerFound",
      "type": "event"
    },
    {
      "anonymous": false,
      "inputs": [
        {
          "indexed": false,
          "internalType": "uint256",
          "name": "requestId",
          "type": "uint256"
        }
      ],
      "name": "RouletteLaunched",
      "type": "event"
    },
    {
      "anonymous": false,
      "inputs": [
        {
          "indexed": false,
          "internalType": "uint256",
          "name": "requestId",
          "type": "uint256"
        },
        {
          "indexed": false,
          "internalType": "uint256",
          "name": "randomWord",
          "type": "uint256"
        },
        {
          "indexed": false,
          "internalType": "uint256",
          "name": "resultNum",
          "type": "uint256"
        }
      ],
      "name": "RouletteStopped",
      "type": "event"
    },
    {
      "anonymous": false,
      "inputs": [
        {
          "indexed": false,
          "internalType": "uint256",
          "name": "requestId",
          "type": "uint256"
        },
        {
          "indexed": false,
          "internalType": "uint256",
          "name": "randomWord",
          "type": "uint256"
        },
        {
          "indexed": false,
          "internalType": "uint256",
          "name": "resultNum",
          "type": "uint256"
        },
        {
          "indexed": false,
          "internalType": "uint256[10]",
          "name": "winByPosition",
          "type": "uint256[10]"
        }
      ],
      "name": "RouletteStoppedPrizeInfo",
      "type": "event"
    },
    {
      "anonymous": false,
      "inputs": [
        {
          "indexed": false,
          "internalType": "bool",
          "name": "",
          "type": "bool"
        }
      ],
      "name": "RouletteStoppedRequestIdRecognized",
      "type": "event"
    },
    {
      "anonymous": false,
      "inputs": [],
      "name": "RouletteStoppedVRFCallReceived",
      "type": "event"
    },
    {
      "inputs": [],
      "name": "checkPlayerBalance",
      "outputs": [
        {
          "internalType": "uint256",
          "name": "",
          "type": "uint256"
        },
        {
          "internalType": "int256",
          "name": "",
          "type": "int256"
        }
      ],
      "stateMutability": "view",
      "type": "function"
    },
    {
      "inputs": [],
      "name": "depositETH",
      "outputs": [],
      "stateMutability": "payable",
      "type": "function"
    },
    {
      "inputs": [
        {
          "components": [
            {
              "internalType": "uint256",
              "name": "amount",
              "type": "uint256"
            },
            {
              "internalType": "uint8",
              "name": "betType",
              "type": "uint8"
            },
            {
              "internalType": "uint8",
              "name": "betDet",
              "type": "uint8"
            }
          ],
          "internalType": "struct BetPointPrm[]",
          "name": "betPoints",
          "type": "tuple[]"
        }
      ],
      "name": "placeBet",
      "outputs": [],
      "stateMutability": "nonpayable",
      "type": "function"
    },
    {
      "inputs": [],
      "name": "withdrawDAI",
      "outputs": [],
      "stateMutability": "nonpayable",
      "type": "function"
    }
  ],
  "bytecode": "0x608060405234801561001057600080fd5b506100243361002960201b6103ce1760201c565b610133565b600061003961010660201b60201c565b905060008160030160009054906101000a900473ffffffffffffffffffffffffffffffffffffffff169050828260030160006101000a81548173ffffffffffffffffffffffffffffffffffffffff021916908373ffffffffffffffffffffffffffffffffffffffff1602179055508273ffffffffffffffffffffffffffffffffffffffff168173ffffffffffffffffffffffffffffffffffffffff167f8be0079c531659141344cd1fd0a4f28419497f9722a3daafe3b4186f6b6457e060405160405180910390a3505050565b6000807fec2e1d18880eab0fa99cf138ce95db1d80287501a0d954892af33d430f009c4190508091505090565b611c9480620001436000396000f3fe60806040526004361061003f5760003560e01c8063020bcc9e146100445780630a7187491461005b578063cce1130714610084578063f6326fb3146100b0575b600080fd5b34801561005057600080fd5b506100596100ba565b005b34801561006757600080fd5b50610082600480360381019061007d91906112dd565b6100bc565b005b34801561009057600080fd5b506100996102da565b6040516100a792919061135c565b60405180910390f35b6100b86103cc565b005b565b6100cb600060070183836104a5565b60008060000160000160003373ffffffffffffffffffffffffffffffffffffffff1673ffffffffffffffffffffffffffffffffffffffff1681526020019081526020016000205490506064811015610158576040517f08c379a000000000000000000000000000000000000000000000000000000000815260040161014f906113e2565b60405180910390fd5b60006101648484610587565b90506000610172858561069f565b90506101b36040518060400160405280600e81526020017f4c6f636b696e6720746f74616c3a00000000000000000000000000000000000081525082610c7f565b6101c1600060020182610d1b565b6101cf600080018333610dbc565b60008060070160020160003373ffffffffffffffffffffffffffffffffffffffff1673ffffffffffffffffffffffffffffffffffffffff1681526020019081526020016000209050610222818787610f0d565b818160020181905550610233611034565b816001018190555033600060070160030160008360010154815260200190815260200160002060006101000a81548173ffffffffffffffffffffffffffffffffffffffff021916908373ffffffffffffffffffffffffffffffffffffffff1602179055507f887b2d0e97d4f3ab19562a888ca35d5b3491d3596cc76190631c13cfcb09df8781600101546040516102ca9190611402565b60405180910390a1505050505050565b600080600073d0d5e3db44de05e9f294bb0a3beeaf030de24ada905060008173ffffffffffffffffffffffffffffffffffffffff1663feaf968c6040518163ffffffff1660e01b815260040160a06040518083038186803b15801561033e57600080fd5b505afa158015610352573d6000803e3d6000fd5b505050506040513d601f19601f8201168201806040525081019061037691906114b7565b5050509150506000800160000160003373ffffffffffffffffffffffffffffffffffffffff1673ffffffffffffffffffffffffffffffffffffffff16815260200190815260200160002054819350935050509091565b565b60006103d86111d0565b905060008160030160009054906101000a900473ffffffffffffffffffffffffffffffffffffffff169050828260030160006101000a81548173ffffffffffffffffffffffffffffffffffffffff021916908373ffffffffffffffffffffffffffffffffffffffff1602179055508273ffffffffffffffffffffffffffffffffffffffff168173ffffffffffffffffffffffffffffffffffffffff167f8be0079c531659141344cd1fd0a4f28419497f9722a3daafe3b4186f6b6457e060405160405180910390a3505050565b6000828290501180156104bc5750600a8282905011155b6104fb576040517f08c379a00000000000000000000000000000000000000000000000000000000081526004016104f29061157e565b60405180910390fd5b60008360020160003373ffffffffffffffffffffffffffffffffffffffff1673ffffffffffffffffffffffffffffffffffffffff1681526020019081526020016000206001015414610582576040517f08c379a000000000000000000000000000000000000000000000000000000000815260040161057990611610565b60405180910390fd5b505050565b6000805b8383905081101561069857368484838181106105aa576105a9611630565b5b90506060020190508060000135836105c2919061168e565b925073__$8f978581c91560e6666447aae607650362$__633935e4238260200160208101906105f1919061171d565b836040016020810190610604919061171d565b846040016020810190610617919061171d565b6040518463ffffffff1660e01b815260040161063593929190611759565b60206040518083038186803b15801561064d57600080fd5b505af4158015610661573d6000803e3d6000fd5b505050506040513d601f19601f8201168201806040525081019061068591906117a5565b505080610691906117d2565b905061058b565b5092915050565b600080604051806101c00160405280600060ff168152602001602360ff168152602001601160ff168152602001600b60ff168152602001600860ff168152602001600660ff168152602001600560ff168152602001600260ff168152602001600260ff168152602001600160ff168152602001600160ff168152602001600160ff168152602001600160ff168152602001601160ff1681525090506000600e67ffffffffffffffff8111156107575761075661181b565b5b6040519080825280602002602001820160405280156107855781602001602082028036833780820191505090505b509050600085859050905060005b81811015610c0757368787838181106107af576107ae611630565b5b90506060020190506103e881600001351115610800576040517f08c379a00000000000000000000000000000000000000000000000000000000081526004016107f7906118bc565b60405180910390fd5b6000816020016020810190610815919061171d565b905060018160ff1614156108715761084c8560018151811061083a57610839611630565b5b602002602001015183600001356111fd565b856001815181106108605761085f611630565b5b602002602001018181525050610bf4565b60028160ff1614156108b65781600001358560028151811061089657610895611630565b5b602002602001018181516108aa919061168e565b91508181525050610bf3565b60038160ff161415610910576108eb856003815181106108d9576108d8611630565b5b602002602001015183600001356111fd565b856003815181106108ff576108fe611630565b5b602002602001018181525050610bf2565b60048160ff1614156109555781600001358560048151811061093557610934611630565b5b60200260200101818151610949919061168e565b91508181525050610bf1565b60058160ff16141561099a5781600001358560058151811061097a57610979611630565b5b6020026020010181815161098e919061168e565b91508181525050610bf0565b60068160ff1614156109df578160000135856006815181106109bf576109be611630565b5b602002602001018181516109d3919061168e565b91508181525050610bef565b60078160ff161415610a3957610a1485600781518110610a0257610a01611630565b5b602002602001015183600001356111fd565b85600781518110610a2857610a27611630565b5b602002602001018181525050610bee565b60088160ff161415610a9357610a6e85600881518110610a5c57610a5b611630565b5b602002602001015183600001356111fd565b85600881518110610a8257610a81611630565b5b602002602001018181525050610bed565b60098160ff161415610ad857816000013585600981518110610ab857610ab7611630565b5b60200260200101818151610acc919061168e565b91508181525050610bec565b600a8160ff161415610b1d57816000013585600a81518110610afd57610afc611630565b5b60200260200101818151610b11919061168e565b91508181525050610beb565b600b8160ff161415610b6257816000013585600b81518110610b4257610b41611630565b5b60200260200101818151610b56919061168e565b91508181525050610bea565b600c8160ff161415610ba757816000013585600c81518110610b8757610b86611630565b5b60200260200101818151610b9b919061168e565b91508181525050610be9565b600c8160ff161415610be857816000013585600c81518110610bcc57610bcb611630565b5b60200260200101818151610be0919061168e565b915081815250505b5b5b5b5b5b5b5b5b5b5b5b5b505080610c00906117d2565b9050610793565b506000600190505b600d8111610c75578381600e8110610c2a57610c29611630565b5b602002015160ff16838281518110610c4557610c44611630565b5b6020026020010151610c5791906118dc565b85610c62919061168e565b945080610c6e906117d2565b9050610c0f565b5050505092915050565b610d178282604051602401610c959291906119be565b6040516020818303038152906040527fb60e72cc000000000000000000000000000000000000000000000000000000007bffffffffffffffffffffffffffffffffffffffffffffffffffffffff19166020820180517bffffffffffffffffffffffffffffffffffffffffffffffffffffffff8381831617835250505050611217565b5050565b6000620f424082610d2c91906118dc565b90508083600001541015610d75576040517f08c379a0000000000000000000000000000000000000000000000000000000008152600401610d6c90611a3a565b60405180910390fd5b80836000016000828254610d899190611a5a565b92505081905550606481610d9d91906118dc565b836001016000828254610db0919061168e565b92505081905550505050565b6000606483610dcb91906118dc565b905060008460000160008473ffffffffffffffffffffffffffffffffffffffff1673ffffffffffffffffffffffffffffffffffffffff16815260200190815260200160002054905081811015610e56576040517f08c379a0000000000000000000000000000000000000000000000000000000008152600401610e4d90611ada565b60405180910390fd5b818560010160008573ffffffffffffffffffffffffffffffffffffffff1673ffffffffffffffffffffffffffffffffffffffff1681526020019081526020016000206000828254610ea7919061168e565b92505081905550818560000160008573ffffffffffffffffffffffffffffffffffffffff1673ffffffffffffffffffffffffffffffffffffffff1681526020019081526020016000206000828254610eff9190611a5a565b925050819055505050505050565b60005b8282905081101561102e5736838383818110610f2f57610f2e611630565b5b9050606002019050610f3f611240565b8160000135816000018181525050816040016020810190610f60919061171d565b816040019060ff16908160ff1681525050816020016020810190610f84919061171d565b816020019060ff16908160ff1681525050856000018190806001815401808255809150506001900390600052602060002090600302016000909190919091506000820151816000015560208201518160010160006101000a81548160ff021916908360ff16021790555060408201518160010160016101000a81548160ff021916908360ff160217905550606082015181600201555050505080611027906117d2565b9050610f10565b50505050565b600080620f424090506000600390506000600190506000806007016000019050600073ffffffffffffffffffffffffffffffffffffffff168160000160089054906101000a900473ffffffffffffffffffffffffffffffffffffffff1673ffffffffffffffffffffffffffffffffffffffff1614156110e8576040517f08c379a00000000000000000000000000000000000000000000000000000000081526004016110df90611b46565b60405180910390fd5b60008160000160089054906101000a900473ffffffffffffffffffffffffffffffffffffffff16905060008173ffffffffffffffffffffffffffffffffffffffff16635d3b1d3084600101548560000160009054906101000a900467ffffffffffffffff16888a896040518663ffffffff1660e01b8152600401611170959493929190611bde565b602060405180830381600087803b15801561118a57600080fd5b505af115801561119e573d6000803e3d6000fd5b505050506040513d601f19601f820116820180604052508101906111c29190611c31565b905080965050505050505090565b6000807fec2e1d18880eab0fa99cf138ce95db1d80287501a0d954892af33d430f009c4190508091505090565b60008183101561120d578161120f565b825b905092915050565b60008151905060006a636f6e736f6c652e6c6f679050602083016000808483855afa5050505050565b604051806080016040528060008152602001600060ff168152602001600060ff168152602001600081525090565b600080fd5b600080fd5b600080fd5b600080fd5b600080fd5b60008083601f84011261129d5761129c611278565b5b8235905067ffffffffffffffff8111156112ba576112b961127d565b5b6020830191508360608202830111156112d6576112d5611282565b5b9250929050565b600080602083850312156112f4576112f361126e565b5b600083013567ffffffffffffffff81111561131257611311611273565b5b61131e85828601611287565b92509250509250929050565b6000819050919050565b61133d8161132a565b82525050565b6000819050919050565b61135681611343565b82525050565b60006040820190506113716000830185611334565b61137e602083018461134d565b9392505050565b600082825260208201905092915050565b7f42616c616e636520697320656d70747900000000000000000000000000000000600082015250565b60006113cc601083611385565b91506113d782611396565b602082019050919050565b600060208201905081810360008301526113fb816113bf565b9050919050565b60006020820190506114176000830184611334565b92915050565b600069ffffffffffffffffffff82169050919050565b61143c8161141d565b811461144757600080fd5b50565b60008151905061145981611433565b92915050565b61146881611343565b811461147357600080fd5b50565b6000815190506114858161145f565b92915050565b6114948161132a565b811461149f57600080fd5b50565b6000815190506114b18161148b565b92915050565b600080600080600060a086880312156114d3576114d261126e565b5b60006114e18882890161144a565b95505060206114f288828901611476565b9450506040611503888289016114a2565b9350506060611514888289016114a2565b92505060806115258882890161144a565b9150509295509295909350565b7f546f6f206d616e79206265747300000000000000000000000000000000000000600082015250565b6000611568600d83611385565b915061157382611532565b602082019050919050565b600060208201905081810360008301526115978161155b565b9050919050565b7f526f756c65747465206973206c61756e636865642e204e6f206d6f726520626560008201527f74732e0000000000000000000000000000000000000000000000000000000000602082015250565b60006115fa602383611385565b91506116058261159e565b604082019050919050565b60006020820190508181036000830152611629816115ed565b9050919050565b7f4e487b7100000000000000000000000000000000000000000000000000000000600052603260045260246000fd5b7f4e487b7100000000000000000000000000000000000000000000000000000000600052601160045260246000fd5b60006116998261132a565b91506116a48361132a565b9250827fffffffffffffffffffffffffffffffffffffffffffffffffffffffffffffffff038211156116d9576116d861165f565b5b828201905092915050565b600060ff82169050919050565b6116fa816116e4565b811461170557600080fd5b50565b600081359050611717816116f1565b92915050565b6000602082840312156117335761173261126e565b5b600061174184828501611708565b91505092915050565b611753816116e4565b82525050565b600060608201905061176e600083018661174a565b61177b602083018561174a565b611788604083018461174a565b949350505050565b60008151905061179f816116f1565b92915050565b6000602082840312156117bb576117ba61126e565b5b60006117c984828501611790565b91505092915050565b60006117dd8261132a565b91507fffffffffffffffffffffffffffffffffffffffffffffffffffffffffffffffff8214156118105761180f61165f565b5b600182019050919050565b7f4e487b7100000000000000000000000000000000000000000000000000000000600052604160045260246000fd5b7f426574206f6e2073696e676c6520706f736974696f6e2065786365656473203160008201527f3030300000000000000000000000000000000000000000000000000000000000602082015250565b60006118a6602383611385565b91506118b18261184a565b604082019050919050565b600060208201905081810360008301526118d581611899565b9050919050565b60006118e78261132a565b91506118f28361132a565b9250817fffffffffffffffffffffffffffffffffffffffffffffffffffffffffffffffff048311821515161561192b5761192a61165f565b5b828202905092915050565b600081519050919050565b60005b8381101561195f578082015181840152602081019050611944565b8381111561196e576000848401525b50505050565b6000601f19601f8301169050919050565b600061199082611936565b61199a8185611385565b93506119aa818560208601611941565b6119b381611974565b840191505092915050565b600060408201905081810360008301526119d88185611985565b90506119e76020830184611334565b9392505050565b7f486f7573652062616c616e636520697320696e73756666696369656e74000000600082015250565b6000611a24601d83611385565b9150611a2f826119ee565b602082019050919050565b60006020820190508181036000830152611a5381611a17565b9050919050565b6000611a658261132a565b9150611a708361132a565b925082821015611a8357611a8261165f565b5b828203905092915050565b7f42616c616e636520697320696e73756666696369656e74000000000000000000600082015250565b6000611ac4601783611385565b9150611acf82611a8e565b602082019050919050565b60006020820190508181036000830152611af381611ab7565b9050919050565b7f767266496e666f206e6f74207365740000000000000000000000000000000000600082015250565b6000611b30600f83611385565b9150611b3b82611afa565b602082019050919050565b60006020820190508181036000830152611b5f81611b23565b9050919050565b6000819050919050565b611b7981611b66565b82525050565b600067ffffffffffffffff82169050919050565b611b9c81611b7f565b82525050565b600061ffff82169050919050565b611bb981611ba2565b82525050565b600063ffffffff82169050919050565b611bd881611bbf565b82525050565b600060a082019050611bf36000830188611b70565b611c006020830187611b93565b611c0d6040830186611bb0565b611c1a6060830185611bcf565b611c276080830184611bcf565b9695505050505050565b600060208284031215611c4757611c4661126e565b5b6000611c55848285016114a2565b9150509291505056fea26469706673582212207c0e4a98ae1cfef8d76c2fee9830dedfc55e5e6be324c0da880425ed6181871964736f6c63430008090033",
  "linkReferences": {
    "contracts/libraries/roulette/LibRulette.sol": {
      "LibRulette": [
        {
          "length": 20,
          "start": 1801
        }
      ]
    }
  },
  "deployedLinkReferences": {
    "contracts/libraries/roulette/LibRulette.sol": {
      "LibRulette": [
        {
          "length": 20,
          "start": 1478
        }
      ]
    }
  }
}