{
  "_format": "hh-sol-artifact-1",
  "contractName": "PlayersFacet",
  "sourceName": "contracts/PlayersFacet.sol",
  "abi": [
    {
      "inputs": [],
      "stateMutability": "nonpayable",
      "type": "constructor"
    },
    {
      "inputs": [
        {
          "internalType": "address",
          "name": "have",
          "type": "address"
        },
        {
          "internalType": "address",
          "name": "want",
          "type": "address"
        }
      ],
      "name": "OnlyCoordinatorCanFulfill",
      "type": "error"
    },
    {
      "anonymous": false,
      "inputs": [
        {
          "indexed": false,
          "internalType": "bool",
          "name": "",
          "type": "bool"
        }
      ],
      "name": "RouletteLaunchOfPlayerFound",
      "type": "event"
    },
    {
      "anonymous": false,
      "inputs": [
        {
          "indexed": false,
          "internalType": "uint256",
          "name": "requestId",
          "type": "uint256"
        }
      ],
      "name": "RouletteLaunched",
      "type": "event"
    },
    {
      "anonymous": false,
      "inputs": [
        {
          "indexed": false,
          "internalType": "uint256",
          "name": "requestId",
          "type": "uint256"
        },
        {
          "indexed": false,
          "internalType": "uint256",
          "name": "randomWord",
          "type": "uint256"
        },
        {
          "indexed": false,
          "internalType": "uint256",
          "name": "resultNum",
          "type": "uint256"
        }
      ],
      "name": "RouletteStopped",
      "type": "event"
    },
    {
      "anonymous": false,
      "inputs": [
        {
          "indexed": false,
          "internalType": "uint256",
          "name": "requestId",
          "type": "uint256"
        },
        {
          "indexed": false,
          "internalType": "uint256",
          "name": "randomWord",
          "type": "uint256"
        },
        {
          "indexed": false,
          "internalType": "uint256",
          "name": "resultNum",
          "type": "uint256"
        },
        {
          "indexed": false,
          "internalType": "uint256[10]",
          "name": "winByPosition",
          "type": "uint256[10]"
        }
      ],
      "name": "RouletteStoppedPrizeInfo",
      "type": "event"
    },
    {
      "anonymous": false,
      "inputs": [
        {
          "indexed": false,
          "internalType": "bool",
          "name": "",
          "type": "bool"
        }
      ],
      "name": "RouletteStoppedRequestIdRecognized",
      "type": "event"
    },
    {
      "anonymous": false,
      "inputs": [],
      "name": "RouletteStoppedVRFCallReceived",
      "type": "event"
    },
    {
      "inputs": [],
      "name": "checkPlayerBalance",
      "outputs": [
        {
          "internalType": "uint256",
          "name": "",
          "type": "uint256"
        },
        {
          "internalType": "int256",
          "name": "",
          "type": "int256"
        }
      ],
      "stateMutability": "view",
      "type": "function"
    },
    {
      "inputs": [],
      "name": "depositETH",
      "outputs": [],
      "stateMutability": "payable",
      "type": "function"
    },
    {
      "inputs": [
        {
          "components": [
            {
              "internalType": "uint256",
              "name": "amount",
              "type": "uint256"
            },
            {
              "internalType": "uint8",
              "name": "betType",
              "type": "uint8"
            },
            {
              "internalType": "uint8",
              "name": "betDet",
              "type": "uint8"
            }
          ],
          "internalType": "struct BetPointPrm[]",
          "name": "betPoints",
          "type": "tuple[]"
        }
      ],
      "name": "placeBet",
      "outputs": [],
      "stateMutability": "nonpayable",
      "type": "function"
    },
    {
      "inputs": [
        {
          "internalType": "uint256",
          "name": "requestId",
          "type": "uint256"
        },
        {
          "internalType": "uint256[]",
          "name": "randomWords",
          "type": "uint256[]"
        }
      ],
      "name": "rawFulfillRandomWords",
      "outputs": [],
      "stateMutability": "nonpayable",
      "type": "function"
    },
    {
      "inputs": [
        {
          "components": [
            {
              "internalType": "uint64",
              "name": "subscriptionId",
              "type": "uint64"
            },
            {
              "internalType": "address",
              "name": "vrfCoordinatorAddress",
              "type": "address"
            },
            {
              "internalType": "bytes32",
              "name": "keyHash",
              "type": "bytes32"
            }
          ],
          "internalType": "struct VrfInfoStruct",
          "name": "_vrfInfo",
          "type": "tuple"
        }
      ],
      "name": "setVrfInfo",
      "outputs": [],
      "stateMutability": "nonpayable",
      "type": "function"
    },
    {
      "inputs": [],
      "name": "withdrawDAI",
      "outputs": [],
      "stateMutability": "nonpayable",
      "type": "function"
    }
  ],
  "bytecode": "0x60806040523480156200001157600080fd5b5062000028336200002e60201b62000b511760201c565b6200013a565b6000620000406200010d60201b60201c565b905060008160030160009054906101000a900473ffffffffffffffffffffffffffffffffffffffff169050828260030160006101000a81548173ffffffffffffffffffffffffffffffffffffffff021916908373ffffffffffffffffffffffffffffffffffffffff1602179055508273ffffffffffffffffffffffffffffffffffffffff168173ffffffffffffffffffffffffffffffffffffffff167f8be0079c531659141344cd1fd0a4f28419497f9722a3daafe3b4186f6b6457e060405160405180910390a3505050565b6000807fec2e1d18880eab0fa99cf138ce95db1d80287501a0d954892af33d430f009c4190508091505090565b6136df806200014a6000396000f3fe6080604052600436106100555760003560e01c8063020bcc9e1461005a5780630a718749146100715780631fe543e31461009a57806325c555d1146100c3578063cce11307146100ec578063f6326fb314610118575b600080fd5b34801561006657600080fd5b5061006f610122565b005b34801561007d57600080fd5b506100986004803603810190610093919061241e565b61030a565b005b3480156100a657600080fd5b506100c160048036038101906100bc91906125f0565b610528565b005b3480156100cf57600080fd5b506100ea60048036038101906100e59190612670565b6105fe565b005b3480156100f857600080fd5b506101016106b4565b60405161010f9291906126c5565b60405180910390f35b6101206107a6565b005b60008060000160000190506000662386f26fc100008260003373ffffffffffffffffffffffffffffffffffffffff1673ffffffffffffffffffffffffffffffffffffffff16815260200190815260200160002054610180919061271d565b90506000811115610306576000736b175474e89094c44da98b954eedeac495271d0f90508073ffffffffffffffffffffffffffffffffffffffff1663095ea7b330846040518363ffffffff1660e01b81526004016101df9291906127b8565b602060405180830381600087803b1580156101f957600080fd5b505af115801561020d573d6000803e3d6000fd5b505050506040513d601f19601f820116820180604052508101906102319190612819565b508073ffffffffffffffffffffffffffffffffffffffff1663a9059cbb33846040518363ffffffff1660e01b815260040161026d9291906127b8565b602060405180830381600087803b15801561028757600080fd5b505af115801561029b573d6000803e3d6000fd5b505050506040513d601f19601f820116820180604052508101906102bf9190612819565b5060008360003373ffffffffffffffffffffffffffffffffffffffff1673ffffffffffffffffffffffffffffffffffffffff16815260200190815260200160002081905550505b5050565b61031960006007018383610c28565b60008060000160000160003373ffffffffffffffffffffffffffffffffffffffff1673ffffffffffffffffffffffffffffffffffffffff16815260200190815260200160002054905060648110156103a6576040517f08c379a000000000000000000000000000000000000000000000000000000000815260040161039d906128a3565b60405180910390fd5b60006103b28484610d0a565b905060006103c08585610e22565b90506104016040518060400160405280600e81526020017f4c6f636b696e6720746f74616c3a00000000000000000000000000000000000081525082611402565b61040f60006002018261149e565b61041d60008001833361153f565b60008060070160020160003373ffffffffffffffffffffffffffffffffffffffff1673ffffffffffffffffffffffffffffffffffffffff1681526020019081526020016000209050610470818787611690565b8181600201819055506104816117b7565b816001018190555033600060070160030160008360010154815260200190815260200160002060006101000a81548173ffffffffffffffffffffffffffffffffffffffff021916908373ffffffffffffffffffffffffffffffffffffffff1602179055507f887b2d0e97d4f3ab19562a888ca35d5b3491d3596cc76190631c13cfcb09df87816001015460405161051891906128c3565b60405180910390a1505050505050565b600060070160000160000160089054906101000a900473ffffffffffffffffffffffffffffffffffffffff1673ffffffffffffffffffffffffffffffffffffffff163373ffffffffffffffffffffffffffffffffffffffff16146105f05733600060070160000160000160089054906101000a900473ffffffffffffffffffffffffffffffffffffffff166040517f1cf993f40000000000000000000000000000000000000000000000000000000081526004016105e79291906128de565b60405180910390fd5b6105fa8282611953565b5050565b610606611fd3565b60008060070160000190508160000160208101906106249190612947565b8160000160006101000a81548167ffffffffffffffff021916908367ffffffffffffffff16021790555081602001602081019061066191906129a0565b8160000160086101000a81548173ffffffffffffffffffffffffffffffffffffffff021916908373ffffffffffffffffffffffffffffffffffffffff160217905550816040013581600101819055505050565b600080600073773616e4d11a78f511299002da57a0a94577f1f4905060008173ffffffffffffffffffffffffffffffffffffffff1663feaf968c6040518163ffffffff1660e01b815260040160a06040518083038186803b15801561071857600080fd5b505afa15801561072c573d6000803e3d6000fd5b505050506040513d601f19601f820116820180604052508101906107509190612a50565b5050509150506000800160000160003373ffffffffffffffffffffffffffffffffffffffff1673ffffffffffffffffffffffffffffffffffffffff16815260200190815260200160002054819350935050509091565b600073c02aaa39b223fe8d0a0e5c4f27ead9083c756cc290508073ffffffffffffffffffffffffffffffffffffffff1663d0e30db0346040518263ffffffff1660e01b81526004016000604051808303818588803b15801561080757600080fd5b505af115801561081b573d6000803e3d6000fd5b50505050506000737a250d5630b4cf539739df2c5dacb4c659f2488d90508173ffffffffffffffffffffffffffffffffffffffff1663095ea7b382346040518363ffffffff1660e01b81526004016108749291906127b8565b602060405180830381600087803b15801561088e57600080fd5b505af11580156108a2573d6000803e3d6000fd5b505050506040513d601f19601f820116820180604052508101906108c69190612819565b506060600267ffffffffffffffff8111156108e4576108e36124b2565b5b6040519080825280602002602001820160405280156109125781602001602082028036833780820191505090505b50905073c02aaa39b223fe8d0a0e5c4f27ead9083c756cc28160008151811061093e5761093d612acb565b5b602002602001019073ffffffffffffffffffffffffffffffffffffffff16908173ffffffffffffffffffffffffffffffffffffffff1681525050736b175474e89094c44da98b954eedeac495271d0f816001815181106109a1576109a0612acb565b5b602002602001019073ffffffffffffffffffffffffffffffffffffffff16908173ffffffffffffffffffffffffffffffffffffffff168152505060008273ffffffffffffffffffffffffffffffffffffffff166338ed17393460018530426040518663ffffffff1660e01b8152600401610a1f959493929190612bfd565b600060405180830381600087803b158015610a3957600080fd5b505af1158015610a4d573d6000803e3d6000fd5b505050506040513d6000823e3d601f19601f82011682018060405250810190610a769190612cee565b9050600081600181518110610a8e57610a8d612acb565b5b602002602001015190506000662386f26fc1000082610aad9190612d66565b90506000662386f26fc1000082610ac4919061271d565b83610acf9190612d97565b9050816000800160000160003373ffffffffffffffffffffffffffffffffffffffff1673ffffffffffffffffffffffffffffffffffffffff1681526020019081526020016000206000828254610b259190612dcb565b92505081905550806000600b016000828254610b419190612dcb565b9250508190555050505050505050565b6000610b5b61206e565b905060008160030160009054906101000a900473ffffffffffffffffffffffffffffffffffffffff169050828260030160006101000a81548173ffffffffffffffffffffffffffffffffffffffff021916908373ffffffffffffffffffffffffffffffffffffffff1602179055508273ffffffffffffffffffffffffffffffffffffffff168173ffffffffffffffffffffffffffffffffffffffff167f8be0079c531659141344cd1fd0a4f28419497f9722a3daafe3b4186f6b6457e060405160405180910390a3505050565b600082829050118015610c3f5750600a8282905011155b610c7e576040517f08c379a0000000000000000000000000000000000000000000000000000000008152600401610c7590612e6d565b60405180910390fd5b60008360020160003373ffffffffffffffffffffffffffffffffffffffff1673ffffffffffffffffffffffffffffffffffffffff1681526020019081526020016000206001015414610d05576040517f08c379a0000000000000000000000000000000000000000000000000000000008152600401610cfc90612eff565b60405180910390fd5b505050565b6000805b83839050811015610e1b5736848483818110610d2d57610d2c612acb565b5b9050606002019050806000013583610d459190612dcb565b925073__$8f978581c91560e6666447aae607650362$__633935e423826020016020810190610d749190612f58565b836040016020810190610d879190612f58565b846040016020810190610d9a9190612f58565b6040518463ffffffff1660e01b8152600401610db893929190612f94565b60206040518083038186803b158015610dd057600080fd5b505af4158015610de4573d6000803e3d6000fd5b505050506040513d601f19601f82011682018060405250810190610e089190612fe0565b505080610e149061300d565b9050610d0e565b5092915050565b600080604051806101c00160405280600060ff168152602001602360ff168152602001601160ff168152602001600b60ff168152602001600860ff168152602001600660ff168152602001600560ff168152602001600260ff168152602001600260ff168152602001600160ff168152602001600160ff168152602001600160ff168152602001600160ff168152602001601160ff1681525090506000600e67ffffffffffffffff811115610eda57610ed96124b2565b5b604051908082528060200260200182016040528015610f085781602001602082028036833780820191505090505b509050600085859050905060005b8181101561138a5736878783818110610f3257610f31612acb565b5b90506060020190506103e881600001351115610f83576040517f08c379a0000000000000000000000000000000000000000000000000000000008152600401610f7a906130c8565b60405180910390fd5b6000816020016020810190610f989190612f58565b905060018160ff161415610ff457610fcf85600181518110610fbd57610fbc612acb565b5b6020026020010151836000013561209b565b85600181518110610fe357610fe2612acb565b5b602002602001018181525050611377565b60028160ff1614156110395781600001358560028151811061101957611018612acb565b5b6020026020010181815161102d9190612dcb565b91508181525050611376565b60038160ff1614156110935761106e8560038151811061105c5761105b612acb565b5b6020026020010151836000013561209b565b8560038151811061108257611081612acb565b5b602002602001018181525050611375565b60048160ff1614156110d8578160000135856004815181106110b8576110b7612acb565b5b602002602001018181516110cc9190612dcb565b91508181525050611374565b60058160ff16141561111d578160000135856005815181106110fd576110fc612acb565b5b602002602001018181516111119190612dcb565b91508181525050611373565b60068160ff1614156111625781600001358560068151811061114257611141612acb565b5b602002602001018181516111569190612dcb565b91508181525050611372565b60078160ff1614156111bc576111978560078151811061118557611184612acb565b5b6020026020010151836000013561209b565b856007815181106111ab576111aa612acb565b5b602002602001018181525050611371565b60088160ff161415611216576111f1856008815181106111df576111de612acb565b5b6020026020010151836000013561209b565b8560088151811061120557611204612acb565b5b602002602001018181525050611370565b60098160ff16141561125b5781600001358560098151811061123b5761123a612acb565b5b6020026020010181815161124f9190612dcb565b9150818152505061136f565b600a8160ff1614156112a057816000013585600a815181106112805761127f612acb565b5b602002602001018181516112949190612dcb565b9150818152505061136e565b600b8160ff1614156112e557816000013585600b815181106112c5576112c4612acb565b5b602002602001018181516112d99190612dcb565b9150818152505061136d565b600c8160ff16141561132a57816000013585600c8151811061130a57611309612acb565b5b6020026020010181815161131e9190612dcb565b9150818152505061136c565b600c8160ff16141561136b57816000013585600c8151811061134f5761134e612acb565b5b602002602001018181516113639190612dcb565b915081815250505b5b5b5b5b5b5b5b5b5b5b5b5b5050806113839061300d565b9050610f16565b506000600190505b600d81116113f8578381600e81106113ad576113ac612acb565b5b602002015160ff168382815181106113c8576113c7612acb565b5b60200260200101516113da919061271d565b856113e59190612dcb565b9450806113f19061300d565b9050611392565b5050505092915050565b61149a828260405160240161141892919061315f565b6040516020818303038152906040527fb60e72cc000000000000000000000000000000000000000000000000000000007bffffffffffffffffffffffffffffffffffffffffffffffffffffffff19166020820180517bffffffffffffffffffffffffffffffffffffffffffffffffffffffff83818316178352505050506120b5565b5050565b6000620f4240826114af919061271d565b905080836000015410156114f8576040517f08c379a00000000000000000000000000000000000000000000000000000000081526004016114ef906131db565b60405180910390fd5b8083600001600082825461150c9190612d97565b92505081905550606482611520919061271d565b8360010160008282546115339190612dcb565b92505081905550505050565b600060648361154e919061271d565b905060008460000160008473ffffffffffffffffffffffffffffffffffffffff1673ffffffffffffffffffffffffffffffffffffffff168152602001908152602001600020549050818110156115d9576040517f08c379a00000000000000000000000000000000000000000000000000000000081526004016115d090613247565b60405180910390fd5b818560010160008573ffffffffffffffffffffffffffffffffffffffff1673ffffffffffffffffffffffffffffffffffffffff168152602001908152602001600020600082825461162a9190612dcb565b92505081905550818560000160008573ffffffffffffffffffffffffffffffffffffffff1673ffffffffffffffffffffffffffffffffffffffff16815260200190815260200160002060008282546116829190612d97565b925050819055505050505050565b60005b828290508110156117b157368383838181106116b2576116b1612acb565b5b90506060020190506116c26122e1565b81600001358160000181815250508160400160208101906116e39190612f58565b816040019060ff16908160ff16815250508160200160208101906117079190612f58565b816020019060ff16908160ff1681525050856000018190806001815401808255809150506001900390600052602060002090600302016000909190919091506000820151816000015560208201518160010160006101000a81548160ff021916908360ff16021790555060408201518160010160016101000a81548160ff021916908360ff1602179055506060820151816002015550505050806117aa9061300d565b9050611693565b50505050565b600080620f424090506000600390506000600190506000806007016000019050600073ffffffffffffffffffffffffffffffffffffffff168160000160089054906101000a900473ffffffffffffffffffffffffffffffffffffffff1673ffffffffffffffffffffffffffffffffffffffff16141561186b576040517f08c379a0000000000000000000000000000000000000000000000000000000008152600401611862906132b3565b60405180910390fd5b60008160000160089054906101000a900473ffffffffffffffffffffffffffffffffffffffff16905060008173ffffffffffffffffffffffffffffffffffffffff16635d3b1d3084600101548560000160009054906101000a900467ffffffffffffffff16888a896040518663ffffffff1660e01b81526004016118f3959493929190613337565b602060405180830381600087803b15801561190d57600080fd5b505af1158015611921573d6000803e3d6000fd5b505050506040513d601f19601f82011682018060405250810190611945919061338a565b905080965050505050505090565b7fc48d2d1748b2821a893b7befc23c0d3d5ff0cb9fdce850ceac00fabfa006da7960405160405180910390a1600060268260008151811061199757611996612acb565b5b60200260200101516119a991906133b7565b905060008114156119b957602690505b60008190507f2ed2b3b354a7ae8bd419c4cfa7a0aef256e89ba340aa7e00a6dbee5f2f01087884846000815181106119f4576119f3612acb565b5b602002602001015184604051611a0c939291906133e8565b60405180910390a1600080600701600301600086815260200190815260200160002060009054906101000a900473ffffffffffffffffffffffffffffffffffffffff169050600073ffffffffffffffffffffffffffffffffffffffff168173ffffffffffffffffffffffffffffffffffffffff161415611ac6577f412fdfca1794c4516d51034490f02b3616c75acf5d768ee0f69afc2a069cb1526000604051611ab6919061342e565b60405180910390a1505050611fcf565b6000600701600301600086815260200190815260200160002060006101000a81549073ffffffffffffffffffffffffffffffffffffffff02191690557f412fdfca1794c4516d51034490f02b3616c75acf5d768ee0f69afc2a069cb1526001604051611b32919061342e565b60405180910390a160008060070160020160008373ffffffffffffffffffffffffffffffffffffffff1673ffffffffffffffffffffffffffffffffffffffff16815260200190815260200160002060405180606001604052908160008201805480602002602001604051908101604052809291908181526020016000905b82821015611c305783829060005260206000209060030201604051806080016040529081600082015481526020016001820160009054906101000a900460ff1660ff1660ff1681526020016001820160019054906101000a900460ff1660ff1660ff16815260200160028201548152505081526020019060010190611bb0565b50505050815260200160018201548152602001600282015481525050905085816020015114611c9a577fbce44f9f6b3e64fd0bcfb36638906a2a5015d46474aa67486fd7a1c0036562526000604051611c89919061342e565b60405180910390a150505050611fcf565b7fbce44f9f6b3e64fd0bcfb36638906a2a5015d46474aa67486fd7a1c0036562526001604051611cca919061342e565b60405180910390a1600060070160020160008373ffffffffffffffffffffffffffffffffffffffff1673ffffffffffffffffffffffffffffffffffffffff16815260200190815260200160002060008082016000611d28919061230f565b60018201600090556002820160009055505060008060008360000151519050611d4f612333565b60005b82811015611e9057600086600001518281518110611d7357611d72612acb565b5b60200260200101519050806000015186611d8d9190612dcb565b9550600073__$8f978581c91560e6666447aae607650362$__633935e423836020015184604001518d6040518463ffffffff1660e01b8152600401611dd493929190612f94565b60206040518083038186803b158015611dec57600080fd5b505af4158015611e00573d6000803e3d6000fd5b505050506040513d601f19601f82011682018060405250810190611e249190612fe0565b60ff1690506000811115611e7d576000818360000151611e44919061271d565b90508087611e529190612dcb565b965080836060018181525050808585600a8110611e7257611e71612acb565b5b602002018181525050505b505080611e899061300d565b9050611d52565b50611ea3600060020186604001516120de565b611eb1600080018588612138565b60008490506000841115611f3557606484611ecc919061271d565b6000800160000160008973ffffffffffffffffffffffffffffffffffffffff1673ffffffffffffffffffffffffffffffffffffffff1681526020019081526020016000206000828254611f1f9190612dcb565b925050819055508381611f329190613449565b90505b6000811215611f5757611f52600082611f4d906134dd565b6121a1565b611f6d565b6000811315611f6c57611f6b600082612245565b5b5b7fae30dbbe54c9bdd5a7d9ada12e5bdf2666243e7a15e840e99d4360300988d5fa8b8b600081518110611fa357611fa2612acb565b5b60200260200101518b85604051611fbd94939291906135d1565b60405180910390a15050505050505050505b5050565b611fdb61206e565b60030160009054906101000a900473ffffffffffffffffffffffffffffffffffffffff1673ffffffffffffffffffffffffffffffffffffffff163373ffffffffffffffffffffffffffffffffffffffff161461206c576040517f08c379a000000000000000000000000000000000000000000000000000000000815260040161206390613689565b60405180910390fd5b565b6000807fec2e1d18880eab0fa99cf138ce95db1d80287501a0d954892af33d430f009c4190508091505090565b6000818310156120ab57816120ad565b825b905092915050565b60008151905060006a636f6e736f6c652e6c6f679050602083016000808483855afa5050505050565b6000620f4240826120ef919061271d565b9050808360000160008282546121059190612dcb565b92505081905550606482612119919061271d565b83600101600082825461212c9190612d97565b92505081905550505050565b606482612145919061271d565b8360010160008373ffffffffffffffffffffffffffffffffffffffff1673ffffffffffffffffffffffffffffffffffffffff16815260200190815260200160002060008282546121959190612d97565b92505081905550505050565b6000600390506000612710670de0b6b3a764000084846121c1919061271d565b6121cb919061271d565b6121d59190612d66565b90508084600b0160008282546121eb9190612dcb565b92505081905550600064e8d4a51000826122059190612d66565b620f424085612214919061271d565b61221e9190612dcb565b9050808560020160000160008282546122379190612d97565b925050819055505050505050565b6000601a90506000670de0b6b3a764000083612261919061271d565b905060006127108284612274919061271d565b61227e9190612d66565b90508085600b0160008282546122949190612dcb565b92505081905550600064e8d4a5100082846122af9190612d97565b6122b99190612d66565b9050808660020160000160008282546122d29190612dcb565b92505081905550505050505050565b604051806080016040528060008152602001600060ff168152602001600060ff168152602001600081525090565b50805460008255600302906000526020600020908101906123309190612356565b50565b604051806101400160405280600a90602082028036833780820191505090505090565b5b808211156123a1576000808201600090556001820160006101000a81549060ff02191690556001820160016101000a81549060ff0219169055600282016000905550600301612357565b5090565b6000604051905090565b600080fd5b600080fd5b600080fd5b600080fd5b600080fd5b60008083601f8401126123de576123dd6123b9565b5b8235905067ffffffffffffffff8111156123fb576123fa6123be565b5b602083019150836060820283011115612417576124166123c3565b5b9250929050565b60008060208385031215612435576124346123af565b5b600083013567ffffffffffffffff811115612453576124526123b4565b5b61245f858286016123c8565b92509250509250929050565b6000819050919050565b61247e8161246b565b811461248957600080fd5b50565b60008135905061249b81612475565b92915050565b6000601f19601f8301169050919050565b7f4e487b7100000000000000000000000000000000000000000000000000000000600052604160045260246000fd5b6124ea826124a1565b810181811067ffffffffffffffff82111715612509576125086124b2565b5b80604052505050565b600061251c6123a5565b905061252882826124e1565b919050565b600067ffffffffffffffff821115612548576125476124b2565b5b602082029050602081019050919050565b600061256c6125678461252d565b612512565b9050808382526020820190506020840283018581111561258f5761258e6123c3565b5b835b818110156125b857806125a4888261248c565b845260208401935050602081019050612591565b5050509392505050565b600082601f8301126125d7576125d66123b9565b5b81356125e7848260208601612559565b91505092915050565b60008060408385031215612607576126066123af565b5b60006126158582860161248c565b925050602083013567ffffffffffffffff811115612636576126356123b4565b5b612642858286016125c2565b9150509250929050565b600080fd5b6000606082840312156126675761266661264c565b5b81905092915050565b600060608284031215612686576126856123af565b5b600061269484828501612651565b91505092915050565b6126a68161246b565b82525050565b6000819050919050565b6126bf816126ac565b82525050565b60006040820190506126da600083018561269d565b6126e760208301846126b6565b9392505050565b7f4e487b7100000000000000000000000000000000000000000000000000000000600052601160045260246000fd5b60006127288261246b565b91506127338361246b565b9250817fffffffffffffffffffffffffffffffffffffffffffffffffffffffffffffffff048311821515161561276c5761276b6126ee565b5b828202905092915050565b600073ffffffffffffffffffffffffffffffffffffffff82169050919050565b60006127a282612777565b9050919050565b6127b281612797565b82525050565b60006040820190506127cd60008301856127a9565b6127da602083018461269d565b9392505050565b60008115159050919050565b6127f6816127e1565b811461280157600080fd5b50565b600081519050612813816127ed565b92915050565b60006020828403121561282f5761282e6123af565b5b600061283d84828501612804565b91505092915050565b600082825260208201905092915050565b7f42616c616e636520697320656d70747900000000000000000000000000000000600082015250565b600061288d601083612846565b915061289882612857565b602082019050919050565b600060208201905081810360008301526128bc81612880565b9050919050565b60006020820190506128d8600083018461269d565b92915050565b60006040820190506128f360008301856127a9565b61290060208301846127a9565b9392505050565b600067ffffffffffffffff82169050919050565b61292481612907565b811461292f57600080fd5b50565b6000813590506129418161291b565b92915050565b60006020828403121561295d5761295c6123af565b5b600061296b84828501612932565b91505092915050565b61297d81612797565b811461298857600080fd5b50565b60008135905061299a81612974565b92915050565b6000602082840312156129b6576129b56123af565b5b60006129c48482850161298b565b91505092915050565b600069ffffffffffffffffffff82169050919050565b6129ec816129cd565b81146129f757600080fd5b50565b600081519050612a09816129e3565b92915050565b612a18816126ac565b8114612a2357600080fd5b50565b600081519050612a3581612a0f565b92915050565b600081519050612a4a81612475565b92915050565b600080600080600060a08688031215612a6c57612a6b6123af565b5b6000612a7a888289016129fa565b9550506020612a8b88828901612a26565b9450506040612a9c88828901612a3b565b9350506060612aad88828901612a3b565b9250506080612abe888289016129fa565b9150509295509295909350565b7f4e487b7100000000000000000000000000000000000000000000000000000000600052603260045260246000fd5b6000819050919050565b6000819050919050565b6000612b29612b24612b1f84612afa565b612b04565b61246b565b9050919050565b612b3981612b0e565b82525050565b600081519050919050565b600082825260208201905092915050565b6000819050602082019050919050565b612b7481612797565b82525050565b6000612b868383612b6b565b60208301905092915050565b6000602082019050919050565b6000612baa82612b3f565b612bb48185612b4a565b9350612bbf83612b5b565b8060005b83811015612bf0578151612bd78882612b7a565b9750612be283612b92565b925050600181019050612bc3565b5085935050505092915050565b600060a082019050612c12600083018861269d565b612c1f6020830187612b30565b8181036040830152612c318186612b9f565b9050612c4060608301856127a9565b612c4d608083018461269d565b9695505050505050565b6000612c6a612c658461252d565b612512565b90508083825260208201905060208402830185811115612c8d57612c8c6123c3565b5b835b81811015612cb65780612ca28882612a3b565b845260208401935050602081019050612c8f565b5050509392505050565b600082601f830112612cd557612cd46123b9565b5b8151612ce5848260208601612c57565b91505092915050565b600060208284031215612d0457612d036123af565b5b600082015167ffffffffffffffff811115612d2257612d216123b4565b5b612d2e84828501612cc0565b91505092915050565b7f4e487b7100000000000000000000000000000000000000000000000000000000600052601260045260246000fd5b6000612d718261246b565b9150612d7c8361246b565b925082612d8c57612d8b612d37565b5b828204905092915050565b6000612da28261246b565b9150612dad8361246b565b925082821015612dc057612dbf6126ee565b5b828203905092915050565b6000612dd68261246b565b9150612de18361246b565b9250827fffffffffffffffffffffffffffffffffffffffffffffffffffffffffffffffff03821115612e1657612e156126ee565b5b828201905092915050565b7f546f6f206d616e79206265747300000000000000000000000000000000000000600082015250565b6000612e57600d83612846565b9150612e6282612e21565b602082019050919050565b60006020820190508181036000830152612e8681612e4a565b9050919050565b7f526f756c65747465206973206c61756e636865642e204e6f206d6f726520626560008201527f74732e0000000000000000000000000000000000000000000000000000000000602082015250565b6000612ee9602383612846565b9150612ef482612e8d565b604082019050919050565b60006020820190508181036000830152612f1881612edc565b9050919050565b600060ff82169050919050565b612f3581612f1f565b8114612f4057600080fd5b50565b600081359050612f5281612f2c565b92915050565b600060208284031215612f6e57612f6d6123af565b5b6000612f7c84828501612f43565b91505092915050565b612f8e81612f1f565b82525050565b6000606082019050612fa96000830186612f85565b612fb66020830185612f85565b612fc36040830184612f85565b949350505050565b600081519050612fda81612f2c565b92915050565b600060208284031215612ff657612ff56123af565b5b600061300484828501612fcb565b91505092915050565b60006130188261246b565b91507fffffffffffffffffffffffffffffffffffffffffffffffffffffffffffffffff82141561304b5761304a6126ee565b5b600182019050919050565b7f426574206f6e2073696e676c6520706f736974696f6e2065786365656473203160008201527f3030300000000000000000000000000000000000000000000000000000000000602082015250565b60006130b2602383612846565b91506130bd82613056565b604082019050919050565b600060208201905081810360008301526130e1816130a5565b9050919050565b600081519050919050565b60005b838110156131115780820151818401526020810190506130f6565b83811115613120576000848401525b50505050565b6000613131826130e8565b61313b8185612846565b935061314b8185602086016130f3565b613154816124a1565b840191505092915050565b600060408201905081810360008301526131798185613126565b9050613188602083018461269d565b9392505050565b7f486f7573652062616c616e636520697320696e73756666696369656e74000000600082015250565b60006131c5601d83612846565b91506131d08261318f565b602082019050919050565b600060208201905081810360008301526131f4816131b8565b9050919050565b7f42616c616e636520697320696e73756666696369656e74000000000000000000600082015250565b6000613231601783612846565b915061323c826131fb565b602082019050919050565b6000602082019050818103600083015261326081613224565b9050919050565b7f767266496e666f206e6f74207365740000000000000000000000000000000000600082015250565b600061329d600f83612846565b91506132a882613267565b602082019050919050565b600060208201905081810360008301526132cc81613290565b9050919050565b6000819050919050565b6132e6816132d3565b82525050565b6132f581612907565b82525050565b600061ffff82169050919050565b613312816132fb565b82525050565b600063ffffffff82169050919050565b61333181613318565b82525050565b600060a08201905061334c60008301886132dd565b61335960208301876132ec565b6133666040830186613309565b6133736060830185613328565b6133806080830184613328565b9695505050505050565b6000602082840312156133a05761339f6123af565b5b60006133ae84828501612a3b565b91505092915050565b60006133c28261246b565b91506133cd8361246b565b9250826133dd576133dc612d37565b5b828206905092915050565b60006060820190506133fd600083018661269d565b61340a602083018561269d565b613417604083018461269d565b949350505050565b613428816127e1565b82525050565b6000602082019050613443600083018461341f565b92915050565b6000613454826126ac565b915061345f836126ac565b9250827f80000000000000000000000000000000000000000000000000000000000000000182126000841215161561349a576134996126ee565b5b827f7fffffffffffffffffffffffffffffffffffffffffffffffffffffffffffffff0182136000841216156134d2576134d16126ee565b5b828203905092915050565b60006134e8826126ac565b91507f800000000000000000000000000000000000000000000000000000000000000082141561351b5761351a6126ee565b5b816000039050919050565b6000600a9050919050565b600081905092915050565b6000819050919050565b61354f8161246b565b82525050565b60006135618383613546565b60208301905092915050565b6000602082019050919050565b61358381613526565b61358d8184613531565b92506135988261353c565b8060005b838110156135c95781516135b08782613555565b96506135bb8361356d565b92505060018101905061359c565b505050505050565b60006101a0820190506135e7600083018761269d565b6135f4602083018661269d565b613601604083018561269d565b61360e606083018461357a565b95945050505050565b7f4c69624469616d6f6e643a204d75737420626520636f6e7472616374206f776e60008201527f6572000000000000000000000000000000000000000000000000000000000000602082015250565b6000613673602283612846565b915061367e82613617565b604082019050919050565b600060208201905081810360008301526136a281613666565b905091905056fea2646970667358221220e8c859145243235fa192d8527c851626f81f445052f1694291d1a312b08a302964736f6c63430008090033",
  "linkReferences": {
    "contracts/libraries/roulette/LibRulette.sol": {
      "LibRulette": [
        {
          "length": 20,
          "start": 3731
        },
        {
          "length": 20,
          "start": 7901
        }
      ]
    }
  },
  "deployedLinkReferences": {
    "contracts/libraries/roulette/LibRulette.sol": {
      "LibRulette": [
        {
          "length": 20,
          "start": 3401
        },
        {
          "length": 20,
          "start": 7571
        }
      ]
    }
  }
}