{
  "_format": "hh-sol-artifact-1",
  "contractName": "PlayersFacet",
  "sourceName": "contracts/PlayersFacet.sol",
  "abi": [
    {
      "inputs": [],
      "stateMutability": "nonpayable",
      "type": "constructor"
    },
    {
      "inputs": [
        {
          "internalType": "address",
          "name": "have",
          "type": "address"
        },
        {
          "internalType": "address",
          "name": "want",
          "type": "address"
        }
      ],
      "name": "OnlyCoordinatorCanFulfill",
      "type": "error"
    },
    {
      "anonymous": false,
      "inputs": [
        {
          "indexed": false,
          "internalType": "bool",
          "name": "",
          "type": "bool"
        }
      ],
      "name": "RouletteLaunchOfPlayerFound",
      "type": "event"
    },
    {
      "anonymous": false,
      "inputs": [
        {
          "indexed": false,
          "internalType": "uint256",
          "name": "requestId",
          "type": "uint256"
        }
      ],
      "name": "RouletteLaunched",
      "type": "event"
    },
    {
      "anonymous": false,
      "inputs": [
        {
          "indexed": false,
          "internalType": "uint256",
          "name": "requestId",
          "type": "uint256"
        },
        {
          "indexed": false,
          "internalType": "uint256",
          "name": "randomWord",
          "type": "uint256"
        },
        {
          "indexed": false,
          "internalType": "uint256",
          "name": "resultNum",
          "type": "uint256"
        }
      ],
      "name": "RouletteStopped",
      "type": "event"
    },
    {
      "anonymous": false,
      "inputs": [
        {
          "indexed": false,
          "internalType": "uint256",
          "name": "requestId",
          "type": "uint256"
        },
        {
          "indexed": false,
          "internalType": "uint256",
          "name": "randomWord",
          "type": "uint256"
        },
        {
          "indexed": false,
          "internalType": "uint256",
          "name": "resultNum",
          "type": "uint256"
        },
        {
          "indexed": false,
          "internalType": "uint256[10]",
          "name": "winByPosition",
          "type": "uint256[10]"
        }
      ],
      "name": "RouletteStoppedPrizeInfo",
      "type": "event"
    },
    {
      "anonymous": false,
      "inputs": [
        {
          "indexed": false,
          "internalType": "bool",
          "name": "",
          "type": "bool"
        }
      ],
      "name": "RouletteStoppedRequestIdRecognized",
      "type": "event"
    },
    {
      "anonymous": false,
      "inputs": [],
      "name": "RouletteStoppedVRFCallReceived",
      "type": "event"
    },
    {
      "inputs": [],
      "name": "checkPlayerBalance",
      "outputs": [
        {
          "internalType": "uint256",
          "name": "",
          "type": "uint256"
        },
        {
          "internalType": "int256",
          "name": "",
          "type": "int256"
        }
      ],
      "stateMutability": "view",
      "type": "function"
    },
    {
      "inputs": [],
      "name": "depositETH",
      "outputs": [],
      "stateMutability": "payable",
      "type": "function"
    },
    {
      "inputs": [
        {
          "components": [
            {
              "internalType": "uint256",
              "name": "amount",
              "type": "uint256"
            },
            {
              "internalType": "uint8",
              "name": "betType",
              "type": "uint8"
            },
            {
              "internalType": "uint8",
              "name": "betDet",
              "type": "uint8"
            }
          ],
          "internalType": "struct BetPointPrm[]",
          "name": "betPoints",
          "type": "tuple[]"
        }
      ],
      "name": "placeBet",
      "outputs": [],
      "stateMutability": "nonpayable",
      "type": "function"
    },
    {
      "inputs": [
        {
          "internalType": "uint256",
          "name": "requestId",
          "type": "uint256"
        },
        {
          "internalType": "uint256[]",
          "name": "randomWords",
          "type": "uint256[]"
        }
      ],
      "name": "rawFulfillRandomWords",
      "outputs": [],
      "stateMutability": "nonpayable",
      "type": "function"
    },
    {
      "inputs": [
        {
          "components": [
            {
              "internalType": "uint64",
              "name": "subscriptionId",
              "type": "uint64"
            },
            {
              "internalType": "address",
              "name": "vrfCoordinatorAddress",
              "type": "address"
            },
            {
              "internalType": "bytes32",
              "name": "keyHash",
              "type": "bytes32"
            }
          ],
          "internalType": "struct VrfInfoStruct",
          "name": "_vrfInfo",
          "type": "tuple"
        }
      ],
      "name": "setVrfInfo",
      "outputs": [],
      "stateMutability": "nonpayable",
      "type": "function"
    },
    {
      "inputs": [],
      "name": "subscribe",
      "outputs": [],
      "stateMutability": "nonpayable",
      "type": "function"
    },
    {
      "inputs": [],
      "name": "withdrawDAI",
      "outputs": [],
      "stateMutability": "nonpayable",
      "type": "function"
    }
  ],
  "bytecode": "0x60a06040523480156200001157600080fd5b50737a1bac17ccc5b313516c5e16fb24f7659aa5ebed8073ffffffffffffffffffffffffffffffffffffffff1660808173ffffffffffffffffffffffffffffffffffffffff16815250505062000072336200007860201b620010ab1760201c565b62000184565b60006200008a6200015760201b60201c565b905060008160030160009054906101000a900473ffffffffffffffffffffffffffffffffffffffff169050828260030160006101000a81548173ffffffffffffffffffffffffffffffffffffffff021916908373ffffffffffffffffffffffffffffffffffffffff1602179055508273ffffffffffffffffffffffffffffffffffffffff168173ffffffffffffffffffffffffffffffffffffffff167f8be0079c531659141344cd1fd0a4f28419497f9722a3daafe3b4186f6b6457e060405160405180910390a3505050565b6000807fec2e1d18880eab0fa99cf138ce95db1d80287501a0d954892af33d430f009c4190508091505090565b608051614192620001a76000396000818161055c01526105b001526141926000f3fe6080604052600436106100705760003560e01c806325c555d11161004e57806325c555d1146100de5780638f449a0514610107578063cce113071461011e578063f6326fb31461014a57610070565b8063020bcc9e146100755780630a7187491461008c5780631fe543e3146100b5575b600080fd5b34801561008157600080fd5b5061008a610154565b005b34801561009857600080fd5b506100b360048036038101906100ae9190612ba7565b61033c565b005b3480156100c157600080fd5b506100dc60048036038101906100d79190612d79565b61055a565b005b3480156100ea57600080fd5b5061010560048036038101906101009190612df9565b61061a565b005b34801561011357600080fd5b5061011c6106d0565b005b34801561012a57600080fd5b50610133610c0e565b604051610141929190612e4e565b60405180910390f35b610152610d00565b005b60008060000160000190506000662386f26fc100008260003373ffffffffffffffffffffffffffffffffffffffff1673ffffffffffffffffffffffffffffffffffffffff168152602001908152602001600020546101b29190612ea6565b9050600081111561033857600073e6b8a5cf854791412c1f6efc7caf629f5df1c74790508073ffffffffffffffffffffffffffffffffffffffff1663095ea7b330846040518363ffffffff1660e01b8152600401610211929190612f41565b602060405180830381600087803b15801561022b57600080fd5b505af115801561023f573d6000803e3d6000fd5b505050506040513d601f19601f820116820180604052508101906102639190612fa2565b508073ffffffffffffffffffffffffffffffffffffffff1663a9059cbb33846040518363ffffffff1660e01b815260040161029f929190612f41565b602060405180830381600087803b1580156102b957600080fd5b505af11580156102cd573d6000803e3d6000fd5b505050506040513d601f19601f820116820180604052508101906102f19190612fa2565b5060008360003373ffffffffffffffffffffffffffffffffffffffff1673ffffffffffffffffffffffffffffffffffffffff16815260200190815260200160002081905550505b5050565b61034b60006007018383611182565b60008060000160000160003373ffffffffffffffffffffffffffffffffffffffff1673ffffffffffffffffffffffffffffffffffffffff16815260200190815260200160002054905060648110156103d8576040517f08c379a00000000000000000000000000000000000000000000000000000000081526004016103cf9061302c565b60405180910390fd5b60006103e48484611264565b905060006103f2858561137c565b90506104336040518060400160405280600e81526020017f4c6f636b696e6720746f74616c3a0000000000000000000000000000000000008152508261195c565b6104416000600201826119f8565b61044f600080018333611a99565b60008060070160020160003373ffffffffffffffffffffffffffffffffffffffff1673ffffffffffffffffffffffffffffffffffffffff16815260200190815260200160002090506104a2818787611bea565b8181600201819055506104b3611d11565b816001018190555033600060070160030160008360010154815260200190815260200160002060006101000a81548173ffffffffffffffffffffffffffffffffffffffff021916908373ffffffffffffffffffffffffffffffffffffffff1602179055507f887b2d0e97d4f3ab19562a888ca35d5b3491d3596cc76190631c13cfcb09df87816001015460405161054a919061304c565b60405180910390a1505050505050565b7f000000000000000000000000000000000000000000000000000000000000000073ffffffffffffffffffffffffffffffffffffffff163373ffffffffffffffffffffffffffffffffffffffff161461060c57337f00000000000000000000000000000000000000000000000000000000000000006040517f1cf993f4000000000000000000000000000000000000000000000000000000008152600401610603929190613067565b60405180910390fd5b6106168282611ead565b5050565b610622612588565b600080600701600001905081600001602081019061064091906130d0565b8160000160006101000a81548167ffffffffffffffff021916908367ffffffffffffffff16021790555081602001602081019061067d9190613129565b8160000160086101000a81548173ffffffffffffffffffffffffffffffffffffffff021916908373ffffffffffffffffffffffffffffffffffffffff160217905550816040013581600101819055505050565b6000737a1bac17ccc5b313516c5e16fb24f7659aa5ebed905060008060070160000190508173ffffffffffffffffffffffffffffffffffffffff1663a21a23e46040518163ffffffff1660e01b8152600401602060405180830381600087803b15801561073c57600080fd5b505af1158015610750573d6000803e3d6000fd5b505050506040513d601f19601f82011682018060405250810190610774919061316b565b8160000160006101000a81548167ffffffffffffffff021916908367ffffffffffffffff1602179055508173ffffffffffffffffffffffffffffffffffffffff16637341c10c8260000160009054906101000a900467ffffffffffffffff16306040518363ffffffff1660e01b81526004016107f19291906131a7565b600060405180830381600087803b15801561080b57600080fd5b505af115801561081f573d6000803e3d6000fd5b505050506108846040518060400160405280600f81526020017f537562736372697074696f6e20696400000000000000000000000000000000008152508260000160009054906101000a900467ffffffffffffffff1667ffffffffffffffff1661195c565b6108c36040518060400160405280600d81526020017f436f6e73756d657220616464720000000000000000000000000000000000000081525030612623565b600073326c977e6efc84e512bb9c30f76e30c160ed06fb905060008173ffffffffffffffffffffffffffffffffffffffff166370a08231306040518263ffffffff1660e01b815260040161091791906131d0565b60206040518083038186803b15801561092f57600080fd5b505afa158015610943573d6000803e3d6000fd5b505050506040513d601f19601f820116820180604052508101906109679190613200565b90506109a86040518060400160405280600b81526020017f6c696e6b42616c616e63650000000000000000000000000000000000000000008152508261195c565b60008114156109ec576040517f08c379a00000000000000000000000000000000000000000000000000000000081526004016109e390613279565b60405180910390fd5b8173ffffffffffffffffffffffffffffffffffffffff16634000aea085838660000160009054906101000a900467ffffffffffffffff16604051602001610a339190613299565b6040516020818303038152906040526040518463ffffffff1660e01b8152600401610a609392919061333c565b602060405180830381600087803b158015610a7a57600080fd5b505af1158015610a8e573d6000803e3d6000fd5b505050506040513d601f19601f82011682018060405250810190610ab29190612fa2565b50610af16040518060400160405280601681526020017f52657175657374696e67206e756d6265722e2e2e2e2e000000000000000000008152506126bf565b60008473ffffffffffffffffffffffffffffffffffffffff16635d3b1d307f4b09e658ed251bcafeebbc69400383d49f344ace09b9576fe248bb02c003fe9f60001b8660000160009054906101000a900467ffffffffffffffff166003620f424060016040518663ffffffff1660e01b8152600401610b7495949392919061346c565b602060405180830381600087803b158015610b8e57600080fd5b505af1158015610ba2573d6000803e3d6000fd5b505050506040513d601f19601f82011682018060405250810190610bc69190613200565b9050610c076040518060400160405280601681526020017f52657175657374696e67206e756d6265722e2e2e2e2e000000000000000000008152508261195c565b5050505050565b600080600073d0d5e3db44de05e9f294bb0a3beeaf030de24ada905060008173ffffffffffffffffffffffffffffffffffffffff1663feaf968c6040518163ffffffff1660e01b815260040160a06040518083038186803b158015610c7257600080fd5b505afa158015610c86573d6000803e3d6000fd5b505050506040513d601f19601f82011682018060405250810190610caa919061352d565b5050509150506000800160000160003373ffffffffffffffffffffffffffffffffffffffff1673ffffffffffffffffffffffffffffffffffffffff16815260200190815260200160002054819350935050509091565b6000739c3c9283d3e44854697cd22d3faa240cfb03288990508073ffffffffffffffffffffffffffffffffffffffff1663d0e30db0346040518263ffffffff1660e01b81526004016000604051808303818588803b158015610d6157600080fd5b505af1158015610d75573d6000803e3d6000fd5b50505050506000737a250d5630b4cf539739df2c5dacb4c659f2488d90508173ffffffffffffffffffffffffffffffffffffffff1663095ea7b382346040518363ffffffff1660e01b8152600401610dce929190612f41565b602060405180830381600087803b158015610de857600080fd5b505af1158015610dfc573d6000803e3d6000fd5b505050506040513d601f19601f82011682018060405250810190610e209190612fa2565b506060600267ffffffffffffffff811115610e3e57610e3d612c3b565b5b604051908082528060200260200182016040528015610e6c5781602001602082028036833780820191505090505b509050739c3c9283d3e44854697cd22d3faa240cfb03288981600081518110610e9857610e976135a8565b5b602002602001019073ffffffffffffffffffffffffffffffffffffffff16908173ffffffffffffffffffffffffffffffffffffffff168152505073e6b8a5cf854791412c1f6efc7caf629f5df1c74781600181518110610efb57610efa6135a8565b5b602002602001019073ffffffffffffffffffffffffffffffffffffffff16908173ffffffffffffffffffffffffffffffffffffffff168152505060008273ffffffffffffffffffffffffffffffffffffffff166338ed17393460018530426040518663ffffffff1660e01b8152600401610f799594939291906136c6565b600060405180830381600087803b158015610f9357600080fd5b505af1158015610fa7573d6000803e3d6000fd5b505050506040513d6000823e3d601f19601f82011682018060405250810190610fd091906137b7565b9050600081600181518110610fe857610fe76135a8565b5b602002602001015190506000662386f26fc1000082611007919061382f565b90506000662386f26fc100008261101e9190612ea6565b836110299190613860565b9050816000800160000160003373ffffffffffffffffffffffffffffffffffffffff1673ffffffffffffffffffffffffffffffffffffffff168152602001908152602001600020600082825461107f9190613894565b92505081905550806000600b01600082825461109b9190613894565b9250508190555050505050505050565b60006110b5612758565b905060008160030160009054906101000a900473ffffffffffffffffffffffffffffffffffffffff169050828260030160006101000a81548173ffffffffffffffffffffffffffffffffffffffff021916908373ffffffffffffffffffffffffffffffffffffffff1602179055508273ffffffffffffffffffffffffffffffffffffffff168173ffffffffffffffffffffffffffffffffffffffff167f8be0079c531659141344cd1fd0a4f28419497f9722a3daafe3b4186f6b6457e060405160405180910390a3505050565b6000828290501180156111995750600a8282905011155b6111d8576040517f08c379a00000000000000000000000000000000000000000000000000000000081526004016111cf90613936565b60405180910390fd5b60008360020160003373ffffffffffffffffffffffffffffffffffffffff1673ffffffffffffffffffffffffffffffffffffffff168152602001908152602001600020600101541461125f576040517f08c379a0000000000000000000000000000000000000000000000000000000008152600401611256906139c8565b60405180910390fd5b505050565b6000805b838390508110156113755736848483818110611287576112866135a8565b5b905060600201905080600001358361129f9190613894565b925073__$8f978581c91560e6666447aae607650362$__633935e4238260200160208101906112ce9190613a21565b8360400160208101906112e19190613a21565b8460400160208101906112f49190613a21565b6040518463ffffffff1660e01b815260040161131293929190613a5d565b60206040518083038186803b15801561132a57600080fd5b505af415801561133e573d6000803e3d6000fd5b505050506040513d601f19601f820116820180604052508101906113629190613aa9565b50508061136e90613ad6565b9050611268565b5092915050565b600080604051806101c00160405280600060ff168152602001602360ff168152602001601160ff168152602001600b60ff168152602001600860ff168152602001600660ff168152602001600560ff168152602001600260ff168152602001600260ff168152602001600160ff168152602001600160ff168152602001600160ff168152602001600160ff168152602001601160ff1681525090506000600e67ffffffffffffffff81111561143457611433612c3b565b5b6040519080825280602002602001820160405280156114625781602001602082028036833780820191505090505b509050600085859050905060005b818110156118e4573687878381811061148c5761148b6135a8565b5b90506060020190506103e8816000013511156114dd576040517f08c379a00000000000000000000000000000000000000000000000000000000081526004016114d490613b91565b60405180910390fd5b60008160200160208101906114f29190613a21565b905060018160ff16141561154e5761152985600181518110611517576115166135a8565b5b60200260200101518360000135612785565b8560018151811061153d5761153c6135a8565b5b6020026020010181815250506118d1565b60028160ff16141561159357816000013585600281518110611573576115726135a8565b5b602002602001018181516115879190613894565b915081815250506118d0565b60038160ff1614156115ed576115c8856003815181106115b6576115b56135a8565b5b60200260200101518360000135612785565b856003815181106115dc576115db6135a8565b5b6020026020010181815250506118cf565b60048160ff16141561163257816000013585600481518110611612576116116135a8565b5b602002602001018181516116269190613894565b915081815250506118ce565b60058160ff16141561167757816000013585600581518110611657576116566135a8565b5b6020026020010181815161166b9190613894565b915081815250506118cd565b60068160ff1614156116bc5781600001358560068151811061169c5761169b6135a8565b5b602002602001018181516116b09190613894565b915081815250506118cc565b60078160ff161415611716576116f1856007815181106116df576116de6135a8565b5b60200260200101518360000135612785565b85600781518110611705576117046135a8565b5b6020026020010181815250506118cb565b60088160ff1614156117705761174b85600881518110611739576117386135a8565b5b60200260200101518360000135612785565b8560088151811061175f5761175e6135a8565b5b6020026020010181815250506118ca565b60098160ff1614156117b557816000013585600981518110611795576117946135a8565b5b602002602001018181516117a99190613894565b915081815250506118c9565b600a8160ff1614156117fa57816000013585600a815181106117da576117d96135a8565b5b602002602001018181516117ee9190613894565b915081815250506118c8565b600b8160ff16141561183f57816000013585600b8151811061181f5761181e6135a8565b5b602002602001018181516118339190613894565b915081815250506118c7565b600c8160ff16141561188457816000013585600c81518110611864576118636135a8565b5b602002602001018181516118789190613894565b915081815250506118c6565b600c8160ff1614156118c557816000013585600c815181106118a9576118a86135a8565b5b602002602001018181516118bd9190613894565b915081815250505b5b5b5b5b5b5b5b5b5b5b5b5b5050806118dd90613ad6565b9050611470565b506000600190505b600d8111611952578381600e8110611907576119066135a8565b5b602002015160ff16838281518110611922576119216135a8565b5b60200260200101516119349190612ea6565b8561193f9190613894565b94508061194b90613ad6565b90506118ec565b5050505092915050565b6119f48282604051602401611972929190613bf5565b6040516020818303038152906040527fb60e72cc000000000000000000000000000000000000000000000000000000007bffffffffffffffffffffffffffffffffffffffffffffffffffffffff19166020820180517bffffffffffffffffffffffffffffffffffffffffffffffffffffffff838183161783525050505061279f565b5050565b6000620f424082611a099190612ea6565b90508083600001541015611a52576040517f08c379a0000000000000000000000000000000000000000000000000000000008152600401611a4990613c71565b60405180910390fd5b80836000016000828254611a669190613860565b92505081905550606482611a7a9190612ea6565b836001016000828254611a8d9190613894565b92505081905550505050565b6000606483611aa89190612ea6565b905060008460000160008473ffffffffffffffffffffffffffffffffffffffff1673ffffffffffffffffffffffffffffffffffffffff16815260200190815260200160002054905081811015611b33576040517f08c379a0000000000000000000000000000000000000000000000000000000008152600401611b2a90613cdd565b60405180910390fd5b818560010160008573ffffffffffffffffffffffffffffffffffffffff1673ffffffffffffffffffffffffffffffffffffffff1681526020019081526020016000206000828254611b849190613894565b92505081905550818560000160008573ffffffffffffffffffffffffffffffffffffffff1673ffffffffffffffffffffffffffffffffffffffff1681526020019081526020016000206000828254611bdc9190613860565b925050819055505050505050565b60005b82829050811015611d0b5736838383818110611c0c57611c0b6135a8565b5b9050606002019050611c1c612a6a565b8160000135816000018181525050816040016020810190611c3d9190613a21565b816040019060ff16908160ff1681525050816020016020810190611c619190613a21565b816020019060ff16908160ff1681525050856000018190806001815401808255809150506001900390600052602060002090600302016000909190919091506000820151816000015560208201518160010160006101000a81548160ff021916908360ff16021790555060408201518160010160016101000a81548160ff021916908360ff160217905550606082015181600201555050505080611d0490613ad6565b9050611bed565b50505050565b600080620f424090506000600390506000600190506000806007016000019050600073ffffffffffffffffffffffffffffffffffffffff168160000160089054906101000a900473ffffffffffffffffffffffffffffffffffffffff1673ffffffffffffffffffffffffffffffffffffffff161415611dc5576040517f08c379a0000000000000000000000000000000000000000000000000000000008152600401611dbc90613d49565b60405180910390fd5b60008160000160089054906101000a900473ffffffffffffffffffffffffffffffffffffffff16905060008173ffffffffffffffffffffffffffffffffffffffff16635d3b1d3084600101548560000160009054906101000a900467ffffffffffffffff16888a896040518663ffffffff1660e01b8152600401611e4d959493929190613d87565b602060405180830381600087803b158015611e6757600080fd5b505af1158015611e7b573d6000803e3d6000fd5b505050506040513d601f19601f82011682018060405250810190611e9f9190613200565b905080965050505050505090565b611f086040518060400160405280601281526020017f66756c66696c6c52616e646f6d576f72647300000000000000000000000000008152508383600081518110611efb57611efa6135a8565b5b60200260200101516127c8565b7fc48d2d1748b2821a893b7befc23c0d3d5ff0cb9fdce850ceac00fabfa006da7960405160405180910390a16000602682600081518110611f4c57611f4b6135a8565b5b6020026020010151611f5e9190613dda565b90506000811415611f6e57602690505b60008190507f2ed2b3b354a7ae8bd419c4cfa7a0aef256e89ba340aa7e00a6dbee5f2f0108788484600081518110611fa957611fa86135a8565b5b602002602001015184604051611fc193929190613e0b565b60405180910390a1600080600701600301600086815260200190815260200160002060009054906101000a900473ffffffffffffffffffffffffffffffffffffffff169050600073ffffffffffffffffffffffffffffffffffffffff168173ffffffffffffffffffffffffffffffffffffffff16141561207b577f412fdfca1794c4516d51034490f02b3616c75acf5d768ee0f69afc2a069cb152600060405161206b9190613e51565b60405180910390a1505050612584565b6000600701600301600086815260200190815260200160002060006101000a81549073ffffffffffffffffffffffffffffffffffffffff02191690557f412fdfca1794c4516d51034490f02b3616c75acf5d768ee0f69afc2a069cb15260016040516120e79190613e51565b60405180910390a160008060070160020160008373ffffffffffffffffffffffffffffffffffffffff1673ffffffffffffffffffffffffffffffffffffffff16815260200190815260200160002060405180606001604052908160008201805480602002602001604051908101604052809291908181526020016000905b828210156121e55783829060005260206000209060030201604051806080016040529081600082015481526020016001820160009054906101000a900460ff1660ff1660ff1681526020016001820160019054906101000a900460ff1660ff1660ff16815260200160028201548152505081526020019060010190612165565b5050505081526020016001820154815260200160028201548152505090508581602001511461224f577fbce44f9f6b3e64fd0bcfb36638906a2a5015d46474aa67486fd7a1c003656252600060405161223e9190613e51565b60405180910390a150505050612584565b7fbce44f9f6b3e64fd0bcfb36638906a2a5015d46474aa67486fd7a1c003656252600160405161227f9190613e51565b60405180910390a1600060070160020160008373ffffffffffffffffffffffffffffffffffffffff1673ffffffffffffffffffffffffffffffffffffffff168152602001908152602001600020600080820160006122dd9190612a98565b60018201600090556002820160009055505060008060008360000151519050612304612abc565b60005b8281101561244557600086600001518281518110612328576123276135a8565b5b602002602001015190508060000151866123429190613894565b9550600073__$8f978581c91560e6666447aae607650362$__633935e423836020015184604001518d6040518463ffffffff1660e01b815260040161238993929190613a5d565b60206040518083038186803b1580156123a157600080fd5b505af41580156123b5573d6000803e3d6000fd5b505050506040513d601f19601f820116820180604052508101906123d99190613aa9565b60ff16905060008111156124325760008183600001516123f99190612ea6565b905080876124079190613894565b965080836060018181525050808585600a8110612427576124266135a8565b5b602002018181525050505b50508061243e90613ad6565b9050612307565b5061245860006002018660400151612867565b6124666000800185886128c1565b600084905060008411156124ea576064846124819190612ea6565b6000800160000160008973ffffffffffffffffffffffffffffffffffffffff1673ffffffffffffffffffffffffffffffffffffffff16815260200190815260200160002060008282546124d49190613894565b9250508190555083816124e79190613e6c565b90505b600081121561250c5761250760008261250290613f00565b61292a565b612522565b6000811315612521576125206000826129ce565b5b5b7fae30dbbe54c9bdd5a7d9ada12e5bdf2666243e7a15e840e99d4360300988d5fa8b8b600081518110612558576125576135a8565b5b60200260200101518b856040516125729493929190613ff4565b60405180910390a15050505050505050505b5050565b612590612758565b60030160009054906101000a900473ffffffffffffffffffffffffffffffffffffffff1673ffffffffffffffffffffffffffffffffffffffff163373ffffffffffffffffffffffffffffffffffffffff1614612621576040517f08c379a0000000000000000000000000000000000000000000000000000000008152600401612618906140ac565b60405180910390fd5b565b6126bb82826040516024016126399291906140cc565b6040516020818303038152906040527f319af333000000000000000000000000000000000000000000000000000000007bffffffffffffffffffffffffffffffffffffffffffffffffffffffff19166020820180517bffffffffffffffffffffffffffffffffffffffffffffffffffffffff838183161783525050505061279f565b5050565b612755816040516024016126d391906140fc565b6040516020818303038152906040527f41304fac000000000000000000000000000000000000000000000000000000007bffffffffffffffffffffffffffffffffffffffffffffffffffffffff19166020820180517bffffffffffffffffffffffffffffffffffffffffffffffffffffffff838183161783525050505061279f565b50565b6000807fec2e1d18880eab0fa99cf138ce95db1d80287501a0d954892af33d430f009c4190508091505090565b6000818310156127955781612797565b825b905092915050565b60008151905060006a636f6e736f6c652e6c6f679050602083016000808483855afa5050505050565b6128628383836040516024016127e09392919061411e565b6040516020818303038152906040527fca47c4eb000000000000000000000000000000000000000000000000000000007bffffffffffffffffffffffffffffffffffffffffffffffffffffffff19166020820180517bffffffffffffffffffffffffffffffffffffffffffffffffffffffff838183161783525050505061279f565b505050565b6000620f4240826128789190612ea6565b90508083600001600082825461288e9190613894565b925050819055506064826128a29190612ea6565b8360010160008282546128b59190613860565b92505081905550505050565b6064826128ce9190612ea6565b8360010160008373ffffffffffffffffffffffffffffffffffffffff1673ffffffffffffffffffffffffffffffffffffffff168152602001908152602001600020600082825461291e9190613860565b92505081905550505050565b6000600390506000612710670de0b6b3a7640000848461294a9190612ea6565b6129549190612ea6565b61295e919061382f565b90508084600b0160008282546129749190613894565b92505081905550600064e8d4a510008261298e919061382f565b620f42408561299d9190612ea6565b6129a79190613894565b9050808560020160000160008282546129c09190613860565b925050819055505050505050565b6000601a90506000670de0b6b3a7640000836129ea9190612ea6565b9050600061271082846129fd9190612ea6565b612a07919061382f565b90508085600b016000828254612a1d9190613894565b92505081905550600064e8d4a510008284612a389190613860565b612a42919061382f565b905080866002016000016000828254612a5b9190613894565b92505081905550505050505050565b604051806080016040528060008152602001600060ff168152602001600060ff168152602001600081525090565b5080546000825560030290600052602060002090810190612ab99190612adf565b50565b604051806101400160405280600a90602082028036833780820191505090505090565b5b80821115612b2a576000808201600090556001820160006101000a81549060ff02191690556001820160016101000a81549060ff0219169055600282016000905550600301612ae0565b5090565b6000604051905090565b600080fd5b600080fd5b600080fd5b600080fd5b600080fd5b60008083601f840112612b6757612b66612b42565b5b8235905067ffffffffffffffff811115612b8457612b83612b47565b5b602083019150836060820283011115612ba057612b9f612b4c565b5b9250929050565b60008060208385031215612bbe57612bbd612b38565b5b600083013567ffffffffffffffff811115612bdc57612bdb612b3d565b5b612be885828601612b51565b92509250509250929050565b6000819050919050565b612c0781612bf4565b8114612c1257600080fd5b50565b600081359050612c2481612bfe565b92915050565b6000601f19601f8301169050919050565b7f4e487b7100000000000000000000000000000000000000000000000000000000600052604160045260246000fd5b612c7382612c2a565b810181811067ffffffffffffffff82111715612c9257612c91612c3b565b5b80604052505050565b6000612ca5612b2e565b9050612cb18282612c6a565b919050565b600067ffffffffffffffff821115612cd157612cd0612c3b565b5b602082029050602081019050919050565b6000612cf5612cf084612cb6565b612c9b565b90508083825260208201905060208402830185811115612d1857612d17612b4c565b5b835b81811015612d415780612d2d8882612c15565b845260208401935050602081019050612d1a565b5050509392505050565b600082601f830112612d6057612d5f612b42565b5b8135612d70848260208601612ce2565b91505092915050565b60008060408385031215612d9057612d8f612b38565b5b6000612d9e85828601612c15565b925050602083013567ffffffffffffffff811115612dbf57612dbe612b3d565b5b612dcb85828601612d4b565b9150509250929050565b600080fd5b600060608284031215612df057612def612dd5565b5b81905092915050565b600060608284031215612e0f57612e0e612b38565b5b6000612e1d84828501612dda565b91505092915050565b612e2f81612bf4565b82525050565b6000819050919050565b612e4881612e35565b82525050565b6000604082019050612e636000830185612e26565b612e706020830184612e3f565b9392505050565b7f4e487b7100000000000000000000000000000000000000000000000000000000600052601160045260246000fd5b6000612eb182612bf4565b9150612ebc83612bf4565b9250817fffffffffffffffffffffffffffffffffffffffffffffffffffffffffffffffff0483118215151615612ef557612ef4612e77565b5b828202905092915050565b600073ffffffffffffffffffffffffffffffffffffffff82169050919050565b6000612f2b82612f00565b9050919050565b612f3b81612f20565b82525050565b6000604082019050612f566000830185612f32565b612f636020830184612e26565b9392505050565b60008115159050919050565b612f7f81612f6a565b8114612f8a57600080fd5b50565b600081519050612f9c81612f76565b92915050565b600060208284031215612fb857612fb7612b38565b5b6000612fc684828501612f8d565b91505092915050565b600082825260208201905092915050565b7f42616c616e636520697320656d70747900000000000000000000000000000000600082015250565b6000613016601083612fcf565b915061302182612fe0565b602082019050919050565b6000602082019050818103600083015261304581613009565b9050919050565b60006020820190506130616000830184612e26565b92915050565b600060408201905061307c6000830185612f32565b6130896020830184612f32565b9392505050565b600067ffffffffffffffff82169050919050565b6130ad81613090565b81146130b857600080fd5b50565b6000813590506130ca816130a4565b92915050565b6000602082840312156130e6576130e5612b38565b5b60006130f4848285016130bb565b91505092915050565b61310681612f20565b811461311157600080fd5b50565b600081359050613123816130fd565b92915050565b60006020828403121561313f5761313e612b38565b5b600061314d84828501613114565b91505092915050565b600081519050613165816130a4565b92915050565b60006020828403121561318157613180612b38565b5b600061318f84828501613156565b91505092915050565b6131a181613090565b82525050565b60006040820190506131bc6000830185613198565b6131c96020830184612f32565b9392505050565b60006020820190506131e56000830184612f32565b92915050565b6000815190506131fa81612bfe565b92915050565b60006020828403121561321657613215612b38565b5b6000613224848285016131eb565b91505092915050565b7f5472616e73666572206d6520736f6d65204c494e4b20746f6b656e7300000000600082015250565b6000613263601c83612fcf565b915061326e8261322d565b602082019050919050565b6000602082019050818103600083015261329281613256565b9050919050565b60006020820190506132ae6000830184613198565b92915050565b600081519050919050565b600082825260208201905092915050565b60005b838110156132ee5780820151818401526020810190506132d3565b838111156132fd576000848401525b50505050565b600061330e826132b4565b61331881856132bf565b93506133288185602086016132d0565b61333181612c2a565b840191505092915050565b60006060820190506133516000830186612f32565b61335e6020830185612e26565b81810360408301526133708184613303565b9050949350505050565b6000819050919050565b61338d8161337a565b82525050565b6000819050919050565b600061ffff82169050919050565b6000819050919050565b60006133d06133cb6133c684613393565b6133ab565b61339d565b9050919050565b6133e0816133b5565b82525050565b6000819050919050565b600063ffffffff82169050919050565b600061341b613416613411846133e6565b6133ab565b6133f0565b9050919050565b61342b81613400565b82525050565b6000819050919050565b600061345661345161344c84613431565b6133ab565b6133f0565b9050919050565b6134668161343b565b82525050565b600060a0820190506134816000830188613384565b61348e6020830187613198565b61349b60408301866133d7565b6134a86060830185613422565b6134b5608083018461345d565b9695505050505050565b600069ffffffffffffffffffff82169050919050565b6134de816134bf565b81146134e957600080fd5b50565b6000815190506134fb816134d5565b92915050565b61350a81612e35565b811461351557600080fd5b50565b60008151905061352781613501565b92915050565b600080600080600060a0868803121561354957613548612b38565b5b6000613557888289016134ec565b955050602061356888828901613518565b9450506040613579888289016131eb565b935050606061358a888289016131eb565b925050608061359b888289016134ec565b9150509295509295909350565b7f4e487b7100000000000000000000000000000000000000000000000000000000600052603260045260246000fd5b60006135f26135ed6135e884613431565b6133ab565b612bf4565b9050919050565b613602816135d7565b82525050565b600081519050919050565b600082825260208201905092915050565b6000819050602082019050919050565b61363d81612f20565b82525050565b600061364f8383613634565b60208301905092915050565b6000602082019050919050565b600061367382613608565b61367d8185613613565b935061368883613624565b8060005b838110156136b95781516136a08882613643565b97506136ab8361365b565b92505060018101905061368c565b5085935050505092915050565b600060a0820190506136db6000830188612e26565b6136e860208301876135f9565b81810360408301526136fa8186613668565b90506137096060830185612f32565b6137166080830184612e26565b9695505050505050565b600061373361372e84612cb6565b612c9b565b9050808382526020820190506020840283018581111561375657613755612b4c565b5b835b8181101561377f578061376b88826131eb565b845260208401935050602081019050613758565b5050509392505050565b600082601f83011261379e5761379d612b42565b5b81516137ae848260208601613720565b91505092915050565b6000602082840312156137cd576137cc612b38565b5b600082015167ffffffffffffffff8111156137eb576137ea612b3d565b5b6137f784828501613789565b91505092915050565b7f4e487b7100000000000000000000000000000000000000000000000000000000600052601260045260246000fd5b600061383a82612bf4565b915061384583612bf4565b92508261385557613854613800565b5b828204905092915050565b600061386b82612bf4565b915061387683612bf4565b92508282101561388957613888612e77565b5b828203905092915050565b600061389f82612bf4565b91506138aa83612bf4565b9250827fffffffffffffffffffffffffffffffffffffffffffffffffffffffffffffffff038211156138df576138de612e77565b5b828201905092915050565b7f546f6f206d616e79206265747300000000000000000000000000000000000000600082015250565b6000613920600d83612fcf565b915061392b826138ea565b602082019050919050565b6000602082019050818103600083015261394f81613913565b9050919050565b7f526f756c65747465206973206c61756e636865642e204e6f206d6f726520626560008201527f74732e0000000000000000000000000000000000000000000000000000000000602082015250565b60006139b2602383612fcf565b91506139bd82613956565b604082019050919050565b600060208201905081810360008301526139e1816139a5565b9050919050565b600060ff82169050919050565b6139fe816139e8565b8114613a0957600080fd5b50565b600081359050613a1b816139f5565b92915050565b600060208284031215613a3757613a36612b38565b5b6000613a4584828501613a0c565b91505092915050565b613a57816139e8565b82525050565b6000606082019050613a726000830186613a4e565b613a7f6020830185613a4e565b613a8c6040830184613a4e565b949350505050565b600081519050613aa3816139f5565b92915050565b600060208284031215613abf57613abe612b38565b5b6000613acd84828501613a94565b91505092915050565b6000613ae182612bf4565b91507fffffffffffffffffffffffffffffffffffffffffffffffffffffffffffffffff821415613b1457613b13612e77565b5b600182019050919050565b7f426574206f6e2073696e676c6520706f736974696f6e2065786365656473203160008201527f3030300000000000000000000000000000000000000000000000000000000000602082015250565b6000613b7b602383612fcf565b9150613b8682613b1f565b604082019050919050565b60006020820190508181036000830152613baa81613b6e565b9050919050565b600081519050919050565b6000613bc782613bb1565b613bd18185612fcf565b9350613be18185602086016132d0565b613bea81612c2a565b840191505092915050565b60006040820190508181036000830152613c0f8185613bbc565b9050613c1e6020830184612e26565b9392505050565b7f486f7573652062616c616e636520697320696e73756666696369656e74000000600082015250565b6000613c5b601d83612fcf565b9150613c6682613c25565b602082019050919050565b60006020820190508181036000830152613c8a81613c4e565b9050919050565b7f42616c616e636520697320696e73756666696369656e74000000000000000000600082015250565b6000613cc7601783612fcf565b9150613cd282613c91565b602082019050919050565b60006020820190508181036000830152613cf681613cba565b9050919050565b7f767266496e666f206e6f74207365740000000000000000000000000000000000600082015250565b6000613d33600f83612fcf565b9150613d3e82613cfd565b602082019050919050565b60006020820190508181036000830152613d6281613d26565b9050919050565b613d728161339d565b82525050565b613d81816133f0565b82525050565b600060a082019050613d9c6000830188613384565b613da96020830187613198565b613db66040830186613d69565b613dc36060830185613d78565b613dd06080830184613d78565b9695505050505050565b6000613de582612bf4565b9150613df083612bf4565b925082613e0057613dff613800565b5b828206905092915050565b6000606082019050613e206000830186612e26565b613e2d6020830185612e26565b613e3a6040830184612e26565b949350505050565b613e4b81612f6a565b82525050565b6000602082019050613e666000830184613e42565b92915050565b6000613e7782612e35565b9150613e8283612e35565b9250827f800000000000000000000000000000000000000000000000000000000000000001821260008412151615613ebd57613ebc612e77565b5b827f7fffffffffffffffffffffffffffffffffffffffffffffffffffffffffffffff018213600084121615613ef557613ef4612e77565b5b828203905092915050565b6000613f0b82612e35565b91507f8000000000000000000000000000000000000000000000000000000000000000821415613f3e57613f3d612e77565b5b816000039050919050565b6000600a9050919050565b600081905092915050565b6000819050919050565b613f7281612bf4565b82525050565b6000613f848383613f69565b60208301905092915050565b6000602082019050919050565b613fa681613f49565b613fb08184613f54565b9250613fbb82613f5f565b8060005b83811015613fec578151613fd38782613f78565b9650613fde83613f90565b925050600181019050613fbf565b505050505050565b60006101a08201905061400a6000830187612e26565b6140176020830186612e26565b6140246040830185612e26565b6140316060830184613f9d565b95945050505050565b7f4c69624469616d6f6e643a204d75737420626520636f6e7472616374206f776e60008201527f6572000000000000000000000000000000000000000000000000000000000000602082015250565b6000614096602283612fcf565b91506140a18261403a565b604082019050919050565b600060208201905081810360008301526140c581614089565b9050919050565b600060408201905081810360008301526140e68185613bbc565b90506140f56020830184612f32565b9392505050565b600060208201905081810360008301526141168184613bbc565b905092915050565b600060608201905081810360008301526141388186613bbc565b90506141476020830185612e26565b6141546040830184612e26565b94935050505056fea2646970667358221220fbe4a1ffdd48c861c61b0a76b6d02e685ceff334df6ff2a229ff0600e5d216d564736f6c63430008090033",
  "linkReferences": {
    "contracts/libraries/roulette/LibRulette.sol": {
      "LibRulette": [
        {
          "length": 20,
          "start": 5194
        },
        {
          "length": 20,
          "start": 9455
        }
      ]
    }
  },
  "deployedLinkReferences": {
    "contracts/libraries/roulette/LibRulette.sol": {
      "LibRulette": [
        {
          "length": 20,
          "start": 4771
        },
        {
          "length": 20,
          "start": 9032
        }
      ]
    }
  }
}