{
  "_format": "hh-sol-artifact-1",
  "contractName": "PlayersFacet",
  "sourceName": "contracts/PlayersFacet.sol",
  "abi": [
    {
      "inputs": [],
      "stateMutability": "nonpayable",
      "type": "constructor"
    },
    {
      "inputs": [],
      "name": "checkPlayerBalance",
      "outputs": [
        {
          "internalType": "uint256",
          "name": "playerBalance",
          "type": "uint256"
        },
        {
          "internalType": "int256",
          "name": "priceInStable",
          "type": "int256"
        }
      ],
      "stateMutability": "view",
      "type": "function"
    },
    {
      "inputs": [],
      "name": "depositToCashier",
      "outputs": [],
      "stateMutability": "payable",
      "type": "function"
    },
    {
      "inputs": [],
      "name": "withdrawPlayerBalance",
      "outputs": [],
      "stateMutability": "nonpayable",
      "type": "function"
    }
  ],
  "bytecode": "0x608060405234801561001057600080fd5b506100243361002960201b6103d21760201c565b610133565b600061003961010660201b60201c565b905060008160030160009054906101000a900473ffffffffffffffffffffffffffffffffffffffff169050828260030160006101000a81548173ffffffffffffffffffffffffffffffffffffffff021916908373ffffffffffffffffffffffffffffffffffffffff1602179055508273ffffffffffffffffffffffffffffffffffffffff168173ffffffffffffffffffffffffffffffffffffffff167f8be0079c531659141344cd1fd0a4f28419497f9722a3daafe3b4186f6b6457e060405160405180910390a3505050565b6000807fec2e1d18880eab0fa99cf138ce95db1d80287501a0d954892af33d430f009c4190508091505090565b610881806101426000396000f3fe6080604052600436106100345760003560e01c8063cce1130714610039578063d325101a14610065578063e1fa43361461007c575b600080fd5b34801561004557600080fd5b5061004e610086565b60405161005c929190610508565b60405180910390f35b34801561007157600080fd5b5061007a610178565b005b61008461036f565b005b600080600073d0d5e3db44de05e9f294bb0a3beeaf030de24ada905060008173ffffffffffffffffffffffffffffffffffffffff1663feaf968c6040518163ffffffff1660e01b815260040160a06040518083038186803b1580156100ea57600080fd5b505afa1580156100fe573d6000803e3d6000fd5b505050506040513d601f19601f8201168201806040525081019061012291906105d0565b5050509150506000800160000160003373ffffffffffffffffffffffffffffffffffffffff1673ffffffffffffffffffffffffffffffffffffffff16815260200190815260200160002054819350935050509091565b6000600c0160009054906101000a900460ff16156101cb576040517f08c379a00000000000000000000000000000000000000000000000000000000081526004016101c2906106a8565b60405180910390fd5b60016000600c0160006101000a81548160ff021916908315150217905550600080600001600001905060008160003373ffffffffffffffffffffffffffffffffffffffff1673ffffffffffffffffffffffffffffffffffffffff1681526020019081526020016000205490506000811161027a576040517f08c379a000000000000000000000000000000000000000000000000000000000815260040161027190610714565b60405180910390fd5b478111156102bd576040517f08c379a00000000000000000000000000000000000000000000000000000000081526004016102b4906107a6565b60405180910390fd5b60008060000160000160003373ffffffffffffffffffffffffffffffffffffffff1673ffffffffffffffffffffffffffffffffffffffff168152602001908152602001600020819055503373ffffffffffffffffffffffffffffffffffffffff166108fc829081150290604051600060405180830381858888f1935050505015801561034d573d6000803e3d6000fd5b505050600080600c0160006101000a81548160ff021916908315150217905550565b6000349050806000800160000160003373ffffffffffffffffffffffffffffffffffffffff1673ffffffffffffffffffffffffffffffffffffffff16815260200190815260200160002060008282546103c891906107f5565b9250508190555050565b60006103dc6104a9565b905060008160030160009054906101000a900473ffffffffffffffffffffffffffffffffffffffff169050828260030160006101000a81548173ffffffffffffffffffffffffffffffffffffffff021916908373ffffffffffffffffffffffffffffffffffffffff1602179055508273ffffffffffffffffffffffffffffffffffffffff168173ffffffffffffffffffffffffffffffffffffffff167f8be0079c531659141344cd1fd0a4f28419497f9722a3daafe3b4186f6b6457e060405160405180910390a3505050565b6000807fec2e1d18880eab0fa99cf138ce95db1d80287501a0d954892af33d430f009c4190508091505090565b6000819050919050565b6104e9816104d6565b82525050565b6000819050919050565b610502816104ef565b82525050565b600060408201905061051d60008301856104e0565b61052a60208301846104f9565b9392505050565b600080fd5b600069ffffffffffffffffffff82169050919050565b61055581610536565b811461056057600080fd5b50565b6000815190506105728161054c565b92915050565b610581816104ef565b811461058c57600080fd5b50565b60008151905061059e81610578565b92915050565b6105ad816104d6565b81146105b857600080fd5b50565b6000815190506105ca816105a4565b92915050565b600080600080600060a086880312156105ec576105eb610531565b5b60006105fa88828901610563565b955050602061060b8882890161058f565b945050604061061c888289016105bb565b935050606061062d888289016105bb565b925050608061063e88828901610563565b9150509295509295909350565b600082825260208201905092915050565b7f4e6f2072652d656e7472616e6379000000000000000000000000000000000000600082015250565b6000610692600e8361064b565b915061069d8261065c565b602082019050919050565b600060208201905081810360008301526106c181610685565b9050919050565b7f596f75722062616c616e636520697a205a45524f000000000000000000000000600082015250565b60006106fe60148361064b565b9150610709826106c8565b602082019050919050565b6000602082019050818103600083015261072d816106f1565b9050919050565b7f42616c616e6365206973206c657373207468616e20706c6174666f726d20686160008201527f7300000000000000000000000000000000000000000000000000000000000000602082015250565b600061079060218361064b565b915061079b82610734565b604082019050919050565b600060208201905081810360008301526107bf81610783565b9050919050565b7f4e487b7100000000000000000000000000000000000000000000000000000000600052601160045260246000fd5b6000610800826104d6565b915061080b836104d6565b9250827fffffffffffffffffffffffffffffffffffffffffffffffffffffffffffffffff038211156108405761083f6107c6565b5b82820190509291505056fea264697066735822122048db377d2d72fc87714fd001659d9ca0a1865ebfa18ee0395845beba619b237064736f6c63430008090033",
  "linkReferences": {},
  "deployedLinkReferences": {}
}