{
  "_format": "hh-sol-artifact-1",
  "contractName": "RouletteFacet",
  "sourceName": "contracts/RouletteFacet.sol",
  "abi": [
    {
      "inputs": [
        {
          "internalType": "address",
          "name": "have",
          "type": "address"
        },
        {
          "internalType": "address",
          "name": "want",
          "type": "address"
        }
      ],
      "name": "OnlyCoordinatorCanFulfill",
      "type": "error"
    },
    {
      "anonymous": false,
      "inputs": [
        {
          "indexed": true,
          "internalType": "uint256",
          "name": "requestId",
          "type": "uint256"
        }
      ],
      "name": "RouletteLaunchOfPlayerFound",
      "type": "event"
    },
    {
      "anonymous": false,
      "inputs": [
        {
          "indexed": true,
          "internalType": "uint256",
          "name": "requestId",
          "type": "uint256"
        }
      ],
      "name": "RouletteLaunchOfPlayerNotFound",
      "type": "event"
    },
    {
      "anonymous": false,
      "inputs": [
        {
          "indexed": true,
          "internalType": "address",
          "name": "sender",
          "type": "address"
        },
        {
          "indexed": false,
          "internalType": "uint256",
          "name": "requestId",
          "type": "uint256"
        }
      ],
      "name": "RouletteLaunched",
      "type": "event"
    },
    {
      "anonymous": false,
      "inputs": [
        {
          "indexed": true,
          "internalType": "address",
          "name": "sender",
          "type": "address"
        },
        {
          "indexed": true,
          "internalType": "uint256",
          "name": "requestId",
          "type": "uint256"
        },
        {
          "indexed": false,
          "internalType": "uint256",
          "name": "randomWord",
          "type": "uint256"
        },
        {
          "indexed": false,
          "internalType": "uint256",
          "name": "resultNum",
          "type": "uint256"
        }
      ],
      "name": "RouletteStopped",
      "type": "event"
    },
    {
      "anonymous": false,
      "inputs": [
        {
          "indexed": true,
          "internalType": "address",
          "name": "sender",
          "type": "address"
        },
        {
          "indexed": true,
          "internalType": "uint256",
          "name": "requestId",
          "type": "uint256"
        },
        {
          "indexed": false,
          "internalType": "uint256",
          "name": "randomWord",
          "type": "uint256"
        },
        {
          "indexed": false,
          "internalType": "uint256",
          "name": "resultNum",
          "type": "uint256"
        },
        {
          "indexed": false,
          "internalType": "uint256[10]",
          "name": "winByPosition",
          "type": "uint256[10]"
        }
      ],
      "name": "RouletteStoppedPrizeInfo",
      "type": "event"
    },
    {
      "anonymous": false,
      "inputs": [
        {
          "indexed": true,
          "internalType": "uint256",
          "name": "requestId",
          "type": "uint256"
        }
      ],
      "name": "RouletteStoppedRequestIdNotRecognized",
      "type": "event"
    },
    {
      "anonymous": false,
      "inputs": [
        {
          "indexed": true,
          "internalType": "uint256",
          "name": "requestId",
          "type": "uint256"
        }
      ],
      "name": "RouletteStoppedRequestIdRecognized",
      "type": "event"
    },
    {
      "anonymous": false,
      "inputs": [
        {
          "indexed": true,
          "internalType": "uint256",
          "name": "requestId",
          "type": "uint256"
        }
      ],
      "name": "RouletteStoppedVRFCallReceived",
      "type": "event"
    },
    {
      "inputs": [],
      "name": "getLog",
      "outputs": [
        {
          "internalType": "uint256[]",
          "name": "content",
          "type": "uint256[]"
        }
      ],
      "stateMutability": "view",
      "type": "function"
    },
    {
      "inputs": [],
      "name": "getLogCount",
      "outputs": [
        {
          "internalType": "uint256",
          "name": "",
          "type": "uint256"
        }
      ],
      "stateMutability": "view",
      "type": "function"
    },
    {
      "inputs": [],
      "name": "getReqID",
      "outputs": [
        {
          "internalType": "uint256",
          "name": "",
          "type": "uint256"
        }
      ],
      "stateMutability": "view",
      "type": "function"
    },
    {
      "inputs": [],
      "name": "getRnd",
      "outputs": [
        {
          "internalType": "uint256",
          "name": "",
          "type": "uint256"
        }
      ],
      "stateMutability": "view",
      "type": "function"
    },
    {
      "inputs": [
        {
          "components": [
            {
              "internalType": "uint256",
              "name": "amount",
              "type": "uint256"
            },
            {
              "internalType": "uint8",
              "name": "betType",
              "type": "uint8"
            },
            {
              "internalType": "uint8",
              "name": "betDet",
              "type": "uint8"
            }
          ],
          "internalType": "struct BetPointPrm[]",
          "name": "betPoints",
          "type": "tuple[]"
        },
        {
          "internalType": "uint256",
          "name": "s_requestId",
          "type": "uint256"
        }
      ],
      "name": "placeBet",
      "outputs": [],
      "stateMutability": "nonpayable",
      "type": "function"
    },
    {
      "inputs": [
        {
          "internalType": "uint256",
          "name": "requestId",
          "type": "uint256"
        },
        {
          "internalType": "uint256[]",
          "name": "randomWords",
          "type": "uint256[]"
        }
      ],
      "name": "rawFulfillRandomWords",
      "outputs": [],
      "stateMutability": "nonpayable",
      "type": "function"
    },
    {
      "inputs": [],
      "name": "resetRoulette",
      "outputs": [],
      "stateMutability": "nonpayable",
      "type": "function"
    },
    {
      "inputs": [],
      "name": "restAll",
      "outputs": [],
      "stateMutability": "nonpayable",
      "type": "function"
    },
    {
      "inputs": [
        {
          "internalType": "uint256",
          "name": "requestId",
          "type": "uint256"
        },
        {
          "internalType": "uint256[]",
          "name": "randomWords",
          "type": "uint256[]"
        }
      ],
      "name": "testFulfillRandomWords",
      "outputs": [],
      "stateMutability": "nonpayable",
      "type": "function"
    },
    {
      "inputs": [],
      "name": "testGetAmounts",
      "outputs": [
        {
          "internalType": "uint256",
          "name": "houseLocked",
          "type": "uint256"
        },
        {
          "internalType": "uint256",
          "name": "playerLocked",
          "type": "uint256"
        },
        {
          "internalType": "uint256",
          "name": "requestId",
          "type": "uint256"
        },
        {
          "internalType": "uint256",
          "name": "playerBalance",
          "type": "uint256"
        },
        {
          "internalType": "uint256",
          "name": "stakerPercent",
          "type": "uint256"
        },
        {
          "internalType": "uint256",
          "name": "houseBalance",
          "type": "uint256"
        },
        {
          "internalType": "uint256",
          "name": "platformBalance",
          "type": "uint256"
        }
      ],
      "stateMutability": "view",
      "type": "function"
    }
  ],
  "bytecode": "0x608060405234801561001057600080fd5b50613739806100206000396000f3fe608060405234801561001057600080fd5b506004361061009e5760003560e01c8063618033db11610066578063618033db14610127578063691db5ce1461014557806384fe382c1461014f578063909e4ab61461016d578063a3be3d5d1461018b5761009e565b806302c4d72b146100a35780630936bdf9146100bf5780631fe543e3146100c95780632fcd1bef146100e557806345748aee14610109575b600080fd5b6100bd60048036038101906100b89190612ac8565b6101a7565b005b6100c76101b5565b005b6100e360048036038101906100de9190612ac8565b6102cc565b005b6100ed610374565b6040516101009796959493929190612b33565b60405180910390f35b6101116104c6565b60405161011e9190612ba2565b60405180910390f35b61012f610512565b60405161013c9190612ba2565b60405180910390f35b61014d610521565b005b6101576105d2565b6040516101649190612ba2565b60405180910390f35b61017561066c565b6040516101829190612c7b565b60405180910390f35b6101a560048036038101906101a09190612cf8565b6106c7565b005b6101b182826108d7565b5050565b60008060090160000160003373ffffffffffffffffffffffffffffffffffffffff1673ffffffffffffffffffffffffffffffffffffffff16815260200190815260200160002081905550600060090160000160003373ffffffffffffffffffffffffffffffffffffffff1673ffffffffffffffffffffffffffffffffffffffff16815260200190815260200160002060009055600060070160000160003373ffffffffffffffffffffffffffffffffffffffff1673ffffffffffffffffffffffffffffffffffffffff1681526020019081526020016000206000808201600061029e9190612802565b6001820160009055600282016000905550506102bd60006002016114ea565b6102ca6000800133611524565b565b737a1bac17ccc5b313516c5e16fb24f7659aa5ebed73ffffffffffffffffffffffffffffffffffffffff163373ffffffffffffffffffffffffffffffffffffffff16146103665733737a1bac17ccc5b313516c5e16fb24f7659aa5ebed6040517f1cf993f400000000000000000000000000000000000000000000000000000000815260040161035d929190612d99565b60405180910390fd5b61037082826108d7565b5050565b600080600080600080600080600201600101546000800160010160003373ffffffffffffffffffffffffffffffffffffffff1673ffffffffffffffffffffffffffffffffffffffff16815260200190815260200160002054600060070160000160003373ffffffffffffffffffffffffffffffffffffffff1673ffffffffffffffffffffffffffffffffffffffff168152602001908152602001600020600101546000800160000160003373ffffffffffffffffffffffffffffffffffffffff1673ffffffffffffffffffffffffffffffffffffffff16815260200190815260200160002054600060020160020160003373ffffffffffffffffffffffffffffffffffffffff1673ffffffffffffffffffffffffffffffffffffffff168152602001908152602001600020546000600201600001546000600b0154965096509650965096509650965090919293949596565b60008060090160000160003373ffffffffffffffffffffffffffffffffffffffff1673ffffffffffffffffffffffffffffffffffffffff16815260200190815260200160002054905090565b600080600d0180549050905090565b6000806002820160008082016000905560018201600090556004820160006105499190612826565b5050600b820160009055600c820160006101000a81549060ff0219169055600d820160006105779190612847565b50506000600201600080820160009055600182016000905560048201600061059f9190612826565b50506000600b01600090556000600c0160006101000a81549060ff02191690556000600d0160006105d09190612847565b565b600080600060090160000160003373ffffffffffffffffffffffffffffffffffffffff1673ffffffffffffffffffffffffffffffffffffffff16815260200190815260200160002054905060008114156106315761014d915050610669565b600080600901600101600083815260200190815260200160002054905060008114156106635761014e92505050610669565b80925050505b90565b60606000600d018054806020026020016040519081016040528092919081815260200182805480156106bd57602002820191906000526020600020905b8154815260200190600101908083116106a9575b5050505050905090565b6000600d0160006106d89190612847565b6106e06101b5565b6106ef60006007018484611653565b60008060000160000160003373ffffffffffffffffffffffffffffffffffffffff1673ffffffffffffffffffffffffffffffffffffffff168152602001908152602001600020549050600061074382611735565b90506001811015610789576040517f08c379a000000000000000000000000000000000000000000000000000000000815260040161078090612e1f565b60405180910390fd5b6000610795868661175f565b905060006107a38787611877565b905060006107b082611e57565b90506107f16040518060400160405280600e81526020017f4c6f636b696e6720746f74616c3a00000000000000000000000000000000000081525082611e81565b6107ff600060020182611f1d565b6108156000800161080f85611e57565b33611f9e565b60008060070160000160003373ffffffffffffffffffffffffffffffffffffffff1673ffffffffffffffffffffffffffffffffffffffff1681526020019081526020016000209050610868818a8a6120dd565b81816002018190555061087a87612204565b3373ffffffffffffffffffffffffffffffffffffffff167f56bad987203040263213ff4b4e88e6efb7fa622924bbcb51a873eb20d61a0d9582600101546040516108c49190612ba2565b60405180910390a2505050505050505050565b6000600d016103eb90806001815401808255809150506001900390600052602060002001600090919091909150556000600d0182908060018154018082558091505060019003906000526020600020016000909190919091505561098c6040518060400160405280601281526020017f66756c66696c6c52616e646f6d576f7264730000000000000000000000000000815250838360008151811061097f5761097e612e3f565b5b602002602001015161242d565b817ff8dd92562b4186574d9e574b5fb5d958f373bc02a5bed7fe3d01de0775b0418760405160405180910390a2600060016026836000815181106109d3576109d2612e3f565b5b60200260200101516109e59190612e9d565b6109ef9190612efd565b90506000819050600080600701600101600086815260200190815260200160002060009054906101000a900473ffffffffffffffffffffffffffffffffffffffff169050848173ffffffffffffffffffffffffffffffffffffffff167f3bb008cb082e9dcf41f3e1d3b953de1c276987c3ff5af3ef213f7d9eccba71e386600081518110610a8057610a7f612e3f565b5b602002602001015186604051610a97929190612f53565b60405180910390a36000600d016103ec90806001815401808255809150506001900390600052602060002001600090919091909150556000600d018173ffffffffffffffffffffffffffffffffffffffff169080600181540180825580915050600190039060005260206000200160009091909190915055600073ffffffffffffffffffffffffffffffffffffffff168173ffffffffffffffffffffffffffffffffffffffff161415610ba7576000600d016103ee9080600181540180825580915050600190039060005260206000200160009091909190915055847fef123904750424f1cccd4a860a2f1a42afe8379eee408a0eaf5972fb374558d460405160405180910390a25050506114e6565b6000600d016103ef90806001815401808255809150506001900390600052602060002001600090919091909150556000600701600101600086815260200190815260200160002060006101000a81549073ffffffffffffffffffffffffffffffffffffffff0219169055847f7cb1bd65d6d81c6731c6c0283d460ab0700f2ec7c7a77e8bfb140c57f1e1ed3760405160405180910390a260008060070160000160008373ffffffffffffffffffffffffffffffffffffffff1673ffffffffffffffffffffffffffffffffffffffff16815260200190815260200160002060405180606001604052908160008201805480602002602001604051908101604052809291908181526020016000905b82821015610d345783829060005260206000209060030201604051806080016040529081600082015481526020016001820160009054906101000a900460ff1660ff1660ff1681526020016001820160019054906101000a900460ff1660ff1660ff16815260200160028201548152505081526020019060010190610cb4565b5050505081526020016001820154815260200160028201548152505090506000600d016103f0908060018154018082558091505060019003906000526020600020016000909190919091505585816020015114610e1f576000600d016103f190806001815401808255809150506001900390600052602060002001600090919091909150556000600d0181602001519080600181540180825580915050600190039060005260206000200160009091909190915055857f1f08b772be7771010dc33fcfd8c6530805792b661ea53556bca41ca77542527560405160405180910390a2505050506114e6565b6000600d016103f29080600181540180825580915050600190039060005260206000200160009091909190915055857f47990474c17076e639971a8356cb41f19f98673a42ddad39f797262d59f837d260405160405180910390a260008060070160000160008473ffffffffffffffffffffffffffffffffffffffff1673ffffffffffffffffffffffffffffffffffffffff1681526020019081526020016000206001018190555084600081518110610edb57610eda612e3f565b5b60200260200101516000600901600101600088815260200190815260200160002081905550600060070160000160008373ffffffffffffffffffffffffffffffffffffffff1673ffffffffffffffffffffffffffffffffffffffff16815260200190815260200160002060008082016000610f569190612802565b60018201600090556002820160009055505060008060008360000151519050610f7d612868565b6000600d016103f3908060018154018082558091505060019003906000526020600020016000909190919091505560005b828110156110ec57600086600001518281518110610fcf57610fce612e3f565b5b60200260200101519050806000015186610fe99190612efd565b9550600073__$8f978581c91560e6666447aae607650362$__633935e423836020015184604001518d6040518463ffffffff1660e01b815260040161103093929190612f98565b60206040518083038186803b15801561104857600080fd5b505af415801561105c573d6000803e3d6000fd5b505050506040513d601f19601f820116820180604052508101906110809190612ffb565b60ff16905060008111156110d95760008183600001516110a09190613028565b905080876110ae9190612efd565b965080836060018181525050808585600a81106110ce576110cd612e3f565b5b602002018181525050505b5050806110e590613082565b9050610fae565b506000600d016103f4908060018154018082558091505060019003906000526020600020016000909190919091505561112d600060020186604001516124cc565b6111436000800161113d86611e57565b88612506565b6000600d016103f5908060018154018082558091505060019003906000526020600020016000909190919091505560008490506000841115611326576000600d016103f690806001815401808255809150506001900390600052602060002001600090919091909150556112316040518060400160405280600b81526020017f506c617965722077696e73000000000000000000000000000000000000000000815250856000800160000160008b73ffffffffffffffffffffffffffffffffffffffff1673ffffffffffffffffffffffffffffffffffffffff1681526020019081526020016000205461242d565b61123a84611e57565b6000800160000160008973ffffffffffffffffffffffffffffffffffffffff1673ffffffffffffffffffffffffffffffffffffffff168152602001908152602001600020600082825461128d9190612efd565b925050819055506113176040518060400160405280600f81526020017f557064617465642062616c616e636500000000000000000000000000000000008152506000800160000160008a73ffffffffffffffffffffffffffffffffffffffff1673ffffffffffffffffffffffffffffffffffffffff16815260200190815260200160002054611e81565b838161132391906130d5565b90505b6000600d016103f7908060018154018082558091505060019003906000526020600020016000909190919091505560008112156113f4576000600d016103f890806001815401808255809150506001900390600052602060002001600090919091909150556113d36040518060400160405280600c81526020017f7061794469666643686970730000000000000000000000000000000000000000815250826113ce90613169565b611e81565b6113ef60006113ea836113e590613169565b611e57565b612563565b611440565b600081131561143f576000600d016103f9908060018154018082558091505060019003906000526020600020016000909190919091505561143e600061143983611e57565b612676565b5b5b8a8773ffffffffffffffffffffffffffffffffffffffff167f52ec67ad6cc03c0a2a4dad0590a2527268bad8f950265d6623b929919b0f5d8f8c60008151811061148d5761148c612e3f565b5b60200260200101518c866040516114a693929190613236565b60405180910390a36000600d016103fa90806001815401808255809150506001900390600052602060002001600090919091909150555050505050505050505b5050565b60008160010154111561152157806001015481600001600082825461150f9190612efd565b92505081905550600081600101819055505b50565b60008260010160008373ffffffffffffffffffffffffffffffffffffffff1673ffffffffffffffffffffffffffffffffffffffff16815260200190815260200160002054111561164f578160010160008273ffffffffffffffffffffffffffffffffffffffff1673ffffffffffffffffffffffffffffffffffffffff168152602001908152602001600020548260000160008373ffffffffffffffffffffffffffffffffffffffff1673ffffffffffffffffffffffffffffffffffffffff16815260200190815260200160002060008282546116009190612efd565b9250508190555060008260010160008373ffffffffffffffffffffffffffffffffffffffff1673ffffffffffffffffffffffffffffffffffffffff168152602001908152602001600020819055505b5050565b60008282905011801561166a5750600a8282905011155b6116a9576040517f08c379a00000000000000000000000000000000000000000000000000000000081526004016116a0906132ba565b60405180910390fd5b60008360000160003373ffffffffffffffffffffffffffffffffffffffff1673ffffffffffffffffffffffffffffffffffffffff1681526020019081526020016000206001015414611730576040517f08c379a00000000000000000000000000000000000000000000000000000000081526004016117279061334c565b60405180910390fd5b505050565b6000670de0b6b3a76400006103e88361174e9190613028565b611758919061336c565b9050919050565b6000805b83839050811015611870573684848381811061178257611781612e3f565b5b905060600201905080600001358361179a9190612efd565b925073__$8f978581c91560e6666447aae607650362$__633935e4238260200160208101906117c991906133b2565b8360400160208101906117dc91906133b2565b8460400160208101906117ef91906133b2565b6040518463ffffffff1660e01b815260040161180d93929190612f98565b60206040518083038186803b15801561182557600080fd5b505af4158015611839573d6000803e3d6000fd5b505050506040513d601f19601f8201168201806040525081019061185d9190612ffb565b50508061186990613082565b9050611763565b5092915050565b600080604051806101c00160405280600060ff168152602001602360ff168152602001601160ff168152602001600b60ff168152602001600860ff168152602001600660ff168152602001600560ff168152602001600260ff168152602001600260ff168152602001600160ff168152602001600160ff168152602001600160ff168152602001600160ff168152602001601160ff1681525090506000600e67ffffffffffffffff81111561192f5761192e612985565b5b60405190808252806020026020018201604052801561195d5781602001602082028036833780820191505090505b509050600085859050905060005b81811015611ddf573687878381811061198757611986612e3f565b5b90506060020190506103e8816000013511156119d8576040517f08c379a00000000000000000000000000000000000000000000000000000000081526004016119cf90613451565b60405180910390fd5b60008160200160208101906119ed91906133b2565b905060018160ff161415611a4957611a2485600181518110611a1257611a11612e3f565b5b60200260200101518360000135612723565b85600181518110611a3857611a37612e3f565b5b602002602001018181525050611dcc565b60028160ff161415611a8e57816000013585600281518110611a6e57611a6d612e3f565b5b60200260200101818151611a829190612efd565b91508181525050611dcb565b60038160ff161415611ae857611ac385600381518110611ab157611ab0612e3f565b5b60200260200101518360000135612723565b85600381518110611ad757611ad6612e3f565b5b602002602001018181525050611dca565b60048160ff161415611b2d57816000013585600481518110611b0d57611b0c612e3f565b5b60200260200101818151611b219190612efd565b91508181525050611dc9565b60058160ff161415611b7257816000013585600581518110611b5257611b51612e3f565b5b60200260200101818151611b669190612efd565b91508181525050611dc8565b60068160ff161415611bb757816000013585600681518110611b9757611b96612e3f565b5b60200260200101818151611bab9190612efd565b91508181525050611dc7565b60078160ff161415611c1157611bec85600781518110611bda57611bd9612e3f565b5b60200260200101518360000135612723565b85600781518110611c0057611bff612e3f565b5b602002602001018181525050611dc6565b60088160ff161415611c6b57611c4685600881518110611c3457611c33612e3f565b5b60200260200101518360000135612723565b85600881518110611c5a57611c59612e3f565b5b602002602001018181525050611dc5565b60098160ff161415611cb057816000013585600981518110611c9057611c8f612e3f565b5b60200260200101818151611ca49190612efd565b91508181525050611dc4565b600a8160ff161415611cf557816000013585600a81518110611cd557611cd4612e3f565b5b60200260200101818151611ce99190612efd565b91508181525050611dc3565b600b8160ff161415611d3a57816000013585600b81518110611d1a57611d19612e3f565b5b60200260200101818151611d2e9190612efd565b91508181525050611dc2565b600c8160ff161415611d7f57816000013585600c81518110611d5f57611d5e612e3f565b5b60200260200101818151611d739190612efd565b91508181525050611dc1565b600c8160ff161415611dc057816000013585600c81518110611da457611da3612e3f565b5b60200260200101818151611db89190612efd565b915081815250505b5b5b5b5b5b5b5b5b5b5b5b5b505080611dd890613082565b905061196b565b506000600190505b600d8111611e4d578381600e8110611e0257611e01612e3f565b5b602002015160ff16838281518110611e1d57611e1c612e3f565b5b6020026020010151611e2f9190613028565b85611e3a9190612efd565b945080611e4690613082565b9050611de7565b5050505092915050565b60006103e8670de0b6b3a764000083611e709190613028565b611e7a919061336c565b9050919050565b611f198282604051602401611e979291906134e8565b6040516020818303038152906040527fb60e72cc000000000000000000000000000000000000000000000000000000007bffffffffffffffffffffffffffffffffffffffffffffffffffffffff19166020820180517bffffffffffffffffffffffffffffffffffffffffffffffffffffffff838183161783525050505061273d565b5050565b8082600001541015611f64576040517f08c379a0000000000000000000000000000000000000000000000000000000008152600401611f5b90613564565b60405180910390fd5b80826000016000828254611f789190613584565b9250508190555080826001016000828254611f939190612efd565b925050819055505050565b60008360000160008373ffffffffffffffffffffffffffffffffffffffff1673ffffffffffffffffffffffffffffffffffffffff16815260200190815260200160002054905082811015612027576040517f08c379a000000000000000000000000000000000000000000000000000000000815260040161201e90612e1f565b60405180910390fd5b828460010160008473ffffffffffffffffffffffffffffffffffffffff1673ffffffffffffffffffffffffffffffffffffffff16815260200190815260200160002060008282546120789190612efd565b92505081905550828460000160008473ffffffffffffffffffffffffffffffffffffffff1673ffffffffffffffffffffffffffffffffffffffff16815260200190815260200160002060008282546120d09190613584565b9250508190555050505050565b60005b828290508110156121fe57368383838181106120ff576120fe612e3f565b5b905060600201905061210f61288b565b816000013581600001818152505081604001602081019061213091906133b2565b816040019060ff16908160ff168152505081602001602081019061215491906133b2565b816020019060ff16908160ff1681525050856000018190806001815401808255809150506001900390600052602060002090600302016000909190919091506000820151816000015560208201518160010160006101000a81548160ff021916908360ff16021790555060408201518160010160016101000a81548160ff021916908360ff1602179055506060820151816002015550505050806121f790613082565b90506120e0565b50505050565b60008114156122e157737a1bac17ccc5b313516c5e16fb24f7659aa5ebed73ffffffffffffffffffffffffffffffffffffffff16635d3b1d307f4b09e658ed251bcafeebbc69400383d49f344ace09b9576fe248bb02c003fe9f60001b61088e6003620dbba060016040518663ffffffff1660e01b815260040161228c959493929190613630565b602060405180830381600087803b1580156122a657600080fd5b505af11580156122ba573d6000803e3d6000fd5b505050506040513d601f19601f820116820180604052508101906122de9190613698565b90505b6000600d016103e890806001815401808255809150506001900390600052602060002001600090919091909150556000600d0181908060018154018082558091505060019003906000526020600020016000909190919091505580600060090160000160003373ffffffffffffffffffffffffffffffffffffffff1673ffffffffffffffffffffffffffffffffffffffff16815260200190815260200160002081905550336000600701600101600083815260200190815260200160002060006101000a81548173ffffffffffffffffffffffffffffffffffffffff021916908373ffffffffffffffffffffffffffffffffffffffff16021790555080600060070160000160003373ffffffffffffffffffffffffffffffffffffffff1673ffffffffffffffffffffffffffffffffffffffff1681526020019081526020016000206001018190555050565b6124c7838383604051602401612445939291906136c5565b6040516020818303038152906040527fca47c4eb000000000000000000000000000000000000000000000000000000007bffffffffffffffffffffffffffffffffffffffffffffffffffffffff19166020820180517bffffffffffffffffffffffffffffffffffffffffffffffffffffffff838183161783525050505061273d565b505050565b808260000160008282546124e09190612efd565b92505081905550808260010160008282546124fb9190613584565b925050819055505050565b818360010160008373ffffffffffffffffffffffffffffffffffffffff1673ffffffffffffffffffffffffffffffffffffffff16815260200190815260200160002060008282546125579190613584565b92505081905550505050565b6000600390506000612710838361257a9190613028565b612584919061336c565b90508084600b01600082825461259a9190612efd565b92505081905550600081846125af9190612efd565b90506125f06040518060400160405280600a81526020017f706179446966664574680000000000000000000000000000000000000000000081525085611e81565b61262f6040518060400160405280600c81526020017f6f7572436f6d697373696f6e000000000000000000000000000000000000000081525083611e81565b612640856002016000015482612766565b808560020160000160008282546126579190613584565b9250508190555061266f856002016000015482612766565b5050505050565b6000601a90506000612710838361268d9190613028565b612697919061336c565b90508084600b0160008282546126ad9190612efd565b925050819055506126f46040518060400160405280600f81526020017f486f756973652072656365697665730000000000000000000000000000000000815250848361242d565b80836127009190613584565b8460020160000160008282546127169190612efd565b9250508190555050505050565b6000818310156127335781612735565b825b905092915050565b60008151905060006a636f6e736f6c652e6c6f679050602083016000808483855afa5050505050565b6127fe828260405160240161277c929190612f53565b6040516020818303038152906040527ff666715a000000000000000000000000000000000000000000000000000000007bffffffffffffffffffffffffffffffffffffffffffffffffffffffff19166020820180517bffffffffffffffffffffffffffffffffffffffffffffffffffffffff838183161783525050505061273d565b5050565b508054600082556003029060005260206000209081019061282391906128b9565b50565b50805460008255906000526020600020908101906128449190612908565b50565b50805460008255906000526020600020908101906128659190612908565b50565b604051806101400160405280600a90602082028036833780820191505090505090565b604051806080016040528060008152602001600060ff168152602001600060ff168152602001600081525090565b5b80821115612904576000808201600090556001820160006101000a81549060ff02191690556001820160016101000a81549060ff02191690556002820160009055506003016128ba565b5090565b5b80821115612921576000816000905550600101612909565b5090565b6000604051905090565b600080fd5b600080fd5b6000819050919050565b61294c81612939565b811461295757600080fd5b50565b60008135905061296981612943565b92915050565b600080fd5b6000601f19601f8301169050919050565b7f4e487b7100000000000000000000000000000000000000000000000000000000600052604160045260246000fd5b6129bd82612974565b810181811067ffffffffffffffff821117156129dc576129db612985565b5b80604052505050565b60006129ef612925565b90506129fb82826129b4565b919050565b600067ffffffffffffffff821115612a1b57612a1a612985565b5b602082029050602081019050919050565b600080fd5b6000612a44612a3f84612a00565b6129e5565b90508083825260208201905060208402830185811115612a6757612a66612a2c565b5b835b81811015612a905780612a7c888261295a565b845260208401935050602081019050612a69565b5050509392505050565b600082601f830112612aaf57612aae61296f565b5b8135612abf848260208601612a31565b91505092915050565b60008060408385031215612adf57612ade61292f565b5b6000612aed8582860161295a565b925050602083013567ffffffffffffffff811115612b0e57612b0d612934565b5b612b1a85828601612a9a565b9150509250929050565b612b2d81612939565b82525050565b600060e082019050612b48600083018a612b24565b612b556020830189612b24565b612b626040830188612b24565b612b6f6060830187612b24565b612b7c6080830186612b24565b612b8960a0830185612b24565b612b9660c0830184612b24565b98975050505050505050565b6000602082019050612bb76000830184612b24565b92915050565b600081519050919050565b600082825260208201905092915050565b6000819050602082019050919050565b612bf281612939565b82525050565b6000612c048383612be9565b60208301905092915050565b6000602082019050919050565b6000612c2882612bbd565b612c328185612bc8565b9350612c3d83612bd9565b8060005b83811015612c6e578151612c558882612bf8565b9750612c6083612c10565b925050600181019050612c41565b5085935050505092915050565b60006020820190508181036000830152612c958184612c1d565b905092915050565b600080fd5b60008083601f840112612cb857612cb761296f565b5b8235905067ffffffffffffffff811115612cd557612cd4612c9d565b5b602083019150836060820283011115612cf157612cf0612a2c565b5b9250929050565b600080600060408486031215612d1157612d1061292f565b5b600084013567ffffffffffffffff811115612d2f57612d2e612934565b5b612d3b86828701612ca2565b93509350506020612d4e8682870161295a565b9150509250925092565b600073ffffffffffffffffffffffffffffffffffffffff82169050919050565b6000612d8382612d58565b9050919050565b612d9381612d78565b82525050565b6000604082019050612dae6000830185612d8a565b612dbb6020830184612d8a565b9392505050565b600082825260208201905092915050565b7f42616c616e636520697320696e73756666696369656e74000000000000000000600082015250565b6000612e09601783612dc2565b9150612e1482612dd3565b602082019050919050565b60006020820190508181036000830152612e3881612dfc565b9050919050565b7f4e487b7100000000000000000000000000000000000000000000000000000000600052603260045260246000fd5b7f4e487b7100000000000000000000000000000000000000000000000000000000600052601260045260246000fd5b6000612ea882612939565b9150612eb383612939565b925082612ec357612ec2612e6e565b5b828206905092915050565b7f4e487b7100000000000000000000000000000000000000000000000000000000600052601160045260246000fd5b6000612f0882612939565b9150612f1383612939565b9250827fffffffffffffffffffffffffffffffffffffffffffffffffffffffffffffffff03821115612f4857612f47612ece565b5b828201905092915050565b6000604082019050612f686000830185612b24565b612f756020830184612b24565b9392505050565b600060ff82169050919050565b612f9281612f7c565b82525050565b6000606082019050612fad6000830186612f89565b612fba6020830185612f89565b612fc76040830184612f89565b949350505050565b612fd881612f7c565b8114612fe357600080fd5b50565b600081519050612ff581612fcf565b92915050565b6000602082840312156130115761301061292f565b5b600061301f84828501612fe6565b91505092915050565b600061303382612939565b915061303e83612939565b9250817fffffffffffffffffffffffffffffffffffffffffffffffffffffffffffffffff048311821515161561307757613076612ece565b5b828202905092915050565b600061308d82612939565b91507fffffffffffffffffffffffffffffffffffffffffffffffffffffffffffffffff8214156130c0576130bf612ece565b5b600182019050919050565b6000819050919050565b60006130e0826130cb565b91506130eb836130cb565b9250827f80000000000000000000000000000000000000000000000000000000000000000182126000841215161561312657613125612ece565b5b827f7fffffffffffffffffffffffffffffffffffffffffffffffffffffffffffffff01821360008412161561315e5761315d612ece565b5b828203905092915050565b6000613174826130cb565b91507f80000000000000000000000000000000000000000000000000000000000000008214156131a7576131a6612ece565b5b816000039050919050565b6000600a9050919050565b600081905092915050565b6000819050919050565b6000602082019050919050565b6131e8816131b2565b6131f281846131bd565b92506131fd826131c8565b8060005b8381101561322e5781516132158782612bf8565b9650613220836131d2565b925050600181019050613201565b505050505050565b60006101808201905061324c6000830186612b24565b6132596020830185612b24565b61326660408301846131df565b949350505050565b7f546f6f206d616e79206265747300000000000000000000000000000000000000600082015250565b60006132a4600d83612dc2565b91506132af8261326e565b602082019050919050565b600060208201905081810360008301526132d381613297565b9050919050565b7f526f756c65747465206973206c61756e636865642e204e6f206d6f726520626560008201527f74732e0000000000000000000000000000000000000000000000000000000000602082015250565b6000613336602383612dc2565b9150613341826132da565b604082019050919050565b6000602082019050818103600083015261336581613329565b9050919050565b600061337782612939565b915061338283612939565b92508261339257613391612e6e565b5b828204905092915050565b6000813590506133ac81612fcf565b92915050565b6000602082840312156133c8576133c761292f565b5b60006133d68482850161339d565b91505092915050565b7f426574206f6e2073696e676c6520706f736974696f6e2065786365656473203160008201527f3030300000000000000000000000000000000000000000000000000000000000602082015250565b600061343b602383612dc2565b9150613446826133df565b604082019050919050565b6000602082019050818103600083015261346a8161342e565b9050919050565b600081519050919050565b60005b8381101561349a57808201518184015260208101905061347f565b838111156134a9576000848401525b50505050565b60006134ba82613471565b6134c48185612dc2565b93506134d481856020860161347c565b6134dd81612974565b840191505092915050565b6000604082019050818103600083015261350281856134af565b90506135116020830184612b24565b9392505050565b7f486f7573652062616c616e636520697320696e73756666696369656e74000000600082015250565b600061354e601d83612dc2565b915061355982613518565b602082019050919050565b6000602082019050818103600083015261357d81613541565b9050919050565b600061358f82612939565b915061359a83612939565b9250828210156135ad576135ac612ece565b5b828203905092915050565b6000819050919050565b6135cb816135b8565b82525050565b600067ffffffffffffffff82169050919050565b6135ee816135d1565b82525050565b600061ffff82169050919050565b61360b816135f4565b82525050565b600063ffffffff82169050919050565b61362a81613611565b82525050565b600060a08201905061364560008301886135c2565b61365260208301876135e5565b61365f6040830186613602565b61366c6060830185613621565b6136796080830184613621565b9695505050505050565b60008151905061369281612943565b92915050565b6000602082840312156136ae576136ad61292f565b5b60006136bc84828501613683565b91505092915050565b600060608201905081810360008301526136df81866134af565b90506136ee6020830185612b24565b6136fb6040830184612b24565b94935050505056fea26469706673582212207ed481b0f7a15da9ec2a064db82b8ef67a203c4bc186f553e73a1c81d1cdfef064736f6c63430008090033",
  "linkReferences": {
    "contracts/libraries/roulette/LibRulette.sol": {
      "LibRulette": [
        {
          "length": 20,
          "start": 4111
        },
        {
          "length": 20,
          "start": 6078
        }
      ]
    }
  },
  "deployedLinkReferences": {
    "contracts/libraries/roulette/LibRulette.sol": {
      "LibRulette": [
        {
          "length": 20,
          "start": 4079
        },
        {
          "length": 20,
          "start": 6046
        }
      ]
    }
  }
}