{
  "_format": "hh-sol-artifact-1",
  "contractName": "RouletteFacet",
  "sourceName": "contracts/RouletteFacet.sol",
  "abi": [
    {
      "inputs": [
        {
          "internalType": "address",
          "name": "have",
          "type": "address"
        },
        {
          "internalType": "address",
          "name": "want",
          "type": "address"
        }
      ],
      "name": "OnlyCoordinatorCanFulfill",
      "type": "error"
    },
    {
      "anonymous": false,
      "inputs": [
        {
          "indexed": true,
          "internalType": "uint256",
          "name": "requestId",
          "type": "uint256"
        }
      ],
      "name": "RouletteLaunchOfPlayerFound",
      "type": "event"
    },
    {
      "anonymous": false,
      "inputs": [
        {
          "indexed": true,
          "internalType": "uint256",
          "name": "requestId",
          "type": "uint256"
        }
      ],
      "name": "RouletteLaunchOfPlayerNotFound",
      "type": "event"
    },
    {
      "anonymous": false,
      "inputs": [
        {
          "indexed": true,
          "internalType": "address",
          "name": "sender",
          "type": "address"
        },
        {
          "indexed": false,
          "internalType": "uint256",
          "name": "requestId",
          "type": "uint256"
        }
      ],
      "name": "RouletteLaunched",
      "type": "event"
    },
    {
      "anonymous": false,
      "inputs": [
        {
          "indexed": true,
          "internalType": "address",
          "name": "sender",
          "type": "address"
        },
        {
          "indexed": true,
          "internalType": "uint256",
          "name": "requestId",
          "type": "uint256"
        },
        {
          "indexed": false,
          "internalType": "uint256",
          "name": "randomWord",
          "type": "uint256"
        },
        {
          "indexed": false,
          "internalType": "uint256",
          "name": "resultNum",
          "type": "uint256"
        }
      ],
      "name": "RouletteStopped",
      "type": "event"
    },
    {
      "anonymous": false,
      "inputs": [
        {
          "indexed": true,
          "internalType": "address",
          "name": "sender",
          "type": "address"
        },
        {
          "indexed": true,
          "internalType": "uint256",
          "name": "requestId",
          "type": "uint256"
        },
        {
          "indexed": false,
          "internalType": "uint256",
          "name": "randomWord",
          "type": "uint256"
        },
        {
          "indexed": false,
          "internalType": "uint256",
          "name": "resultNum",
          "type": "uint256"
        },
        {
          "indexed": false,
          "internalType": "uint256[10]",
          "name": "winByPosition",
          "type": "uint256[10]"
        }
      ],
      "name": "RouletteStoppedPrizeInfo",
      "type": "event"
    },
    {
      "anonymous": false,
      "inputs": [
        {
          "indexed": true,
          "internalType": "uint256",
          "name": "requestId",
          "type": "uint256"
        }
      ],
      "name": "RouletteStoppedRequestIdNotRecognized",
      "type": "event"
    },
    {
      "anonymous": false,
      "inputs": [
        {
          "indexed": true,
          "internalType": "uint256",
          "name": "requestId",
          "type": "uint256"
        }
      ],
      "name": "RouletteStoppedRequestIdRecognized",
      "type": "event"
    },
    {
      "anonymous": false,
      "inputs": [
        {
          "indexed": true,
          "internalType": "uint256",
          "name": "requestId",
          "type": "uint256"
        }
      ],
      "name": "RouletteStoppedVRFCallReceived",
      "type": "event"
    },
    {
      "inputs": [],
      "name": "getReqID",
      "outputs": [
        {
          "internalType": "uint256",
          "name": "",
          "type": "uint256"
        }
      ],
      "stateMutability": "view",
      "type": "function"
    },
    {
      "inputs": [],
      "name": "getRnd",
      "outputs": [
        {
          "internalType": "uint256",
          "name": "",
          "type": "uint256"
        }
      ],
      "stateMutability": "view",
      "type": "function"
    },
    {
      "inputs": [
        {
          "components": [
            {
              "internalType": "uint256",
              "name": "amount",
              "type": "uint256"
            },
            {
              "internalType": "uint8",
              "name": "betType",
              "type": "uint8"
            },
            {
              "internalType": "uint8",
              "name": "betDet",
              "type": "uint8"
            }
          ],
          "internalType": "struct BetPointPrm[]",
          "name": "betPoints",
          "type": "tuple[]"
        },
        {
          "internalType": "uint256",
          "name": "s_requestId",
          "type": "uint256"
        }
      ],
      "name": "placeBet",
      "outputs": [],
      "stateMutability": "nonpayable",
      "type": "function"
    },
    {
      "inputs": [
        {
          "internalType": "uint256",
          "name": "requestId",
          "type": "uint256"
        },
        {
          "internalType": "uint256[]",
          "name": "randomWords",
          "type": "uint256[]"
        }
      ],
      "name": "rawFulfillRandomWords",
      "outputs": [],
      "stateMutability": "nonpayable",
      "type": "function"
    },
    {
      "inputs": [
        {
          "internalType": "uint256",
          "name": "requestId",
          "type": "uint256"
        },
        {
          "internalType": "uint256[]",
          "name": "randomWords",
          "type": "uint256[]"
        }
      ],
      "name": "testFulfillRandomWords",
      "outputs": [],
      "stateMutability": "nonpayable",
      "type": "function"
    },
    {
      "inputs": [],
      "name": "testGetAmounts",
      "outputs": [
        {
          "internalType": "uint256",
          "name": "houseLocked",
          "type": "uint256"
        },
        {
          "internalType": "uint256",
          "name": "playerLocked",
          "type": "uint256"
        },
        {
          "internalType": "uint256",
          "name": "requestId",
          "type": "uint256"
        },
        {
          "internalType": "uint256",
          "name": "playerBalance",
          "type": "uint256"
        },
        {
          "internalType": "uint256",
          "name": "houseBalance",
          "type": "uint256"
        },
        {
          "internalType": "uint256",
          "name": "platformBalance",
          "type": "uint256"
        }
      ],
      "stateMutability": "view",
      "type": "function"
    }
  ],
  "bytecode": "0x608060405234801561001057600080fd5b50612e1e806100206000396000f3fe608060405234801561001057600080fd5b50600436106100625760003560e01c806302c4d72b146100675780631fe543e3146100835780632fcd1bef1461009f57806345748aee146100c257806384fe382c146100e0578063a3be3d5d146100fe575b600080fd5b610081600480360381019061007c91906121e2565b61011a565b005b61009d600480360381019061009891906121e2565b610130565b005b6100a76101d8565b6040516100b99695949392919061224d565b60405180910390f35b6100ca6102e0565b6040516100d791906122ae565b60405180910390f35b6100e861032c565b6040516100f591906122ae565b60405180910390f35b61011860048036038101906101139190612324565b6103c6565b005b61012261057e565b61012c8282610619565b5050565b737a1bac17ccc5b313516c5e16fb24f7659aa5ebed73ffffffffffffffffffffffffffffffffffffffff163373ffffffffffffffffffffffffffffffffffffffff16146101ca5733737a1bac17ccc5b313516c5e16fb24f7659aa5ebed6040517f1cf993f40000000000000000000000000000000000000000000000000000000081526004016101c19291906123c5565b60405180910390fd5b6101d48282610619565b5050565b6000806000806000806000600201600101546000800160010160003373ffffffffffffffffffffffffffffffffffffffff1673ffffffffffffffffffffffffffffffffffffffff16815260200190815260200160002054600060050160000160003373ffffffffffffffffffffffffffffffffffffffff1673ffffffffffffffffffffffffffffffffffffffff168152602001908152602001600020600101546000800160000160003373ffffffffffffffffffffffffffffffffffffffff1673ffffffffffffffffffffffffffffffffffffffff16815260200190815260200160002054600060020160000154600060090154955095509550955095509550909192939495565b60008060070160000160003373ffffffffffffffffffffffffffffffffffffffff1673ffffffffffffffffffffffffffffffffffffffff16815260200190815260200160002054905090565b600080600060070160000160003373ffffffffffffffffffffffffffffffffffffffff1673ffffffffffffffffffffffffffffffffffffffff168152602001908152602001600020549050600081141561038b5761014d9150506103c3565b600080600701600101600083815260200190815260200160002054905060008114156103bd5761014e925050506103c3565b80925050505b90565b6103d560006005018484610e39565b60008060000160000160003373ffffffffffffffffffffffffffffffffffffffff1673ffffffffffffffffffffffffffffffffffffffff168152602001908152602001600020549050600061042982610f1b565b9050600181101561046f576040517f08c379a00000000000000000000000000000000000000000000000000000000081526004016104669061244b565b60405180910390fd5b600061047b8686610f45565b90506000610489878761105d565b905060006104968261163d565b90506104a6600060020182611667565b6104bc600080016104b68561163d565b336116e8565b60008060050160000160003373ffffffffffffffffffffffffffffffffffffffff1673ffffffffffffffffffffffffffffffffffffffff168152602001908152602001600020905061050f818a8a611827565b8181600201819055506105218761194e565b3373ffffffffffffffffffffffffffffffffffffffff167f56bad987203040263213ff4b4e88e6efb7fa622924bbcb51a873eb20d61a0d95826001015460405161056b91906122ae565b60405180910390a2505050505050505050565b610586611b1d565b60030160009054906101000a900473ffffffffffffffffffffffffffffffffffffffff1673ffffffffffffffffffffffffffffffffffffffff163373ffffffffffffffffffffffffffffffffffffffff1614610617576040517f08c379a000000000000000000000000000000000000000000000000000000000815260040161060e906124dd565b60405180910390fd5b565b817ff8dd92562b4186574d9e574b5fb5d958f373bc02a5bed7fe3d01de0775b0418760405160405180910390a2600060016026836000815181106106605761065f6124fd565b5b6020026020010151610672919061255b565b61067c91906125bb565b90506000819050600080600501600101600086815260200190815260200160002060009054906101000a900473ffffffffffffffffffffffffffffffffffffffff169050848173ffffffffffffffffffffffffffffffffffffffff167f3bb008cb082e9dcf41f3e1d3b953de1c276987c3ff5af3ef213f7d9eccba71e38660008151811061070d5761070c6124fd565b5b602002602001015186604051610724929190612611565b60405180910390a3600073ffffffffffffffffffffffffffffffffffffffff168173ffffffffffffffffffffffffffffffffffffffff16141561079657847fef123904750424f1cccd4a860a2f1a42afe8379eee408a0eaf5972fb374558d460405160405180910390a2505050610e35565b6000600501600101600086815260200190815260200160002060006101000a81549073ffffffffffffffffffffffffffffffffffffffff0219169055847f7cb1bd65d6d81c6731c6c0283d460ab0700f2ec7c7a77e8bfb140c57f1e1ed3760405160405180910390a260008060050160000160008373ffffffffffffffffffffffffffffffffffffffff1673ffffffffffffffffffffffffffffffffffffffff16815260200190815260200160002060405180606001604052908160008201805480602002602001604051908101604052809291908181526020016000905b828210156108f55783829060005260206000209060030201604051806080016040529081600082015481526020016001820160009054906101000a900460ff1660ff1660ff1681526020016001820160019054906101000a900460ff1660ff1660ff16815260200160028201548152505081526020019060010190610875565b5050505081526020016001820154815260200160028201548152505090508581602001511461095457857f1f08b772be7771010dc33fcfd8c6530805792b661ea53556bca41ca77542527560405160405180910390a250505050610e35565b857f47990474c17076e639971a8356cb41f19f98673a42ddad39f797262d59f837d260405160405180910390a260008060050160000160008473ffffffffffffffffffffffffffffffffffffffff1673ffffffffffffffffffffffffffffffffffffffff16815260200190815260200160002060010181905550846000815181106109e2576109e16124fd565b5b60200260200101516000600701600101600088815260200190815260200160002081905550600060050160000160008373ffffffffffffffffffffffffffffffffffffffff1673ffffffffffffffffffffffffffffffffffffffff16815260200190815260200160002060008082016000610a5d9190611f7b565b60018201600090556002820160009055505060008060008360000151519050610a84611f9f565b60005b82811015610bc557600086600001518281518110610aa857610aa76124fd565b5b60200260200101519050806000015186610ac291906125bb565b9550600073__$8f978581c91560e6666447aae607650362$__633935e423836020015184604001518d6040518463ffffffff1660e01b8152600401610b0993929190612656565b60206040518083038186803b158015610b2157600080fd5b505af4158015610b35573d6000803e3d6000fd5b505050506040513d601f19601f82011682018060405250810190610b5991906126b9565b60ff1690506000811115610bb2576000818360000151610b7991906126e6565b90508087610b8791906125bb565b965080836060018181525050808585600a8110610ba757610ba66124fd565b5b602002018181525050505b505080610bbe90612740565b9050610a87565b50610bd860006002018660400151611b4a565b610bee60008001610be88661163d565b88611b84565b60008490506000841115610d7557610c806040518060400160405280600b81526020017f506c617965722077696e73000000000000000000000000000000000000000000815250856000800160000160008b73ffffffffffffffffffffffffffffffffffffffff1673ffffffffffffffffffffffffffffffffffffffff16815260200190815260200160002054611be1565b610c898461163d565b6000800160000160008973ffffffffffffffffffffffffffffffffffffffff1673ffffffffffffffffffffffffffffffffffffffff1681526020019081526020016000206000828254610cdc91906125bb565b92505081905550610d666040518060400160405280600f81526020017f557064617465642062616c616e636500000000000000000000000000000000008152506000800160000160008a73ffffffffffffffffffffffffffffffffffffffff1673ffffffffffffffffffffffffffffffffffffffff16815260200190815260200160002054611c80565b8381610d729190612793565b90505b6000811215610d9f57610d9a6000610d9583610d9090612827565b61163d565b611d1c565b610dbd565b6000811315610dbc57610dbb6000610db68361163d565b611e2f565b5b5b8a8773ffffffffffffffffffffffffffffffffffffffff167f52ec67ad6cc03c0a2a4dad0590a2527268bad8f950265d6623b929919b0f5d8f8c600081518110610e0a57610e096124fd565b5b60200260200101518c86604051610e239392919061291b565b60405180910390a35050505050505050505b5050565b600082829050118015610e505750600a8282905011155b610e8f576040517f08c379a0000000000000000000000000000000000000000000000000000000008152600401610e869061299f565b60405180910390fd5b60008360000160003373ffffffffffffffffffffffffffffffffffffffff1673ffffffffffffffffffffffffffffffffffffffff1681526020019081526020016000206001015414610f16576040517f08c379a0000000000000000000000000000000000000000000000000000000008152600401610f0d90612a31565b60405180910390fd5b505050565b6000670de0b6b3a76400006103e883610f3491906126e6565b610f3e9190612a51565b9050919050565b6000805b838390508110156110565736848483818110610f6857610f676124fd565b5b9050606002019050806000013583610f8091906125bb565b925073__$8f978581c91560e6666447aae607650362$__633935e423826020016020810190610faf9190612a97565b836040016020810190610fc29190612a97565b846040016020810190610fd59190612a97565b6040518463ffffffff1660e01b8152600401610ff393929190612656565b60206040518083038186803b15801561100b57600080fd5b505af415801561101f573d6000803e3d6000fd5b505050506040513d601f19601f8201168201806040525081019061104391906126b9565b50508061104f90612740565b9050610f49565b5092915050565b600080604051806101c00160405280600060ff168152602001602360ff168152602001601160ff168152602001600b60ff168152602001600860ff168152602001600660ff168152602001600560ff168152602001600260ff168152602001600260ff168152602001600160ff168152602001600160ff168152602001600160ff168152602001600160ff168152602001601160ff1681525090506000600e67ffffffffffffffff8111156111155761111461209f565b5b6040519080825280602002602001820160405280156111435781602001602082028036833780820191505090505b509050600085859050905060005b818110156115c5573687878381811061116d5761116c6124fd565b5b90506060020190506103e8816000013511156111be576040517f08c379a00000000000000000000000000000000000000000000000000000000081526004016111b590612b36565b60405180910390fd5b60008160200160208101906111d39190612a97565b905060018160ff16141561122f5761120a856001815181106111f8576111f76124fd565b5b60200260200101518360000135611e9c565b8560018151811061121e5761121d6124fd565b5b6020026020010181815250506115b2565b60028160ff16141561127457816000013585600281518110611254576112536124fd565b5b6020026020010181815161126891906125bb565b915081815250506115b1565b60038160ff1614156112ce576112a985600381518110611297576112966124fd565b5b60200260200101518360000135611e9c565b856003815181106112bd576112bc6124fd565b5b6020026020010181815250506115b0565b60048160ff161415611313578160000135856004815181106112f3576112f26124fd565b5b6020026020010181815161130791906125bb565b915081815250506115af565b60058160ff16141561135857816000013585600581518110611338576113376124fd565b5b6020026020010181815161134c91906125bb565b915081815250506115ae565b60068160ff16141561139d5781600001358560068151811061137d5761137c6124fd565b5b6020026020010181815161139191906125bb565b915081815250506115ad565b60078160ff1614156113f7576113d2856007815181106113c0576113bf6124fd565b5b60200260200101518360000135611e9c565b856007815181106113e6576113e56124fd565b5b6020026020010181815250506115ac565b60088160ff1614156114515761142c8560088151811061141a576114196124fd565b5b60200260200101518360000135611e9c565b856008815181106114405761143f6124fd565b5b6020026020010181815250506115ab565b60098160ff16141561149657816000013585600981518110611476576114756124fd565b5b6020026020010181815161148a91906125bb565b915081815250506115aa565b600a8160ff1614156114db57816000013585600a815181106114bb576114ba6124fd565b5b602002602001018181516114cf91906125bb565b915081815250506115a9565b600b8160ff16141561152057816000013585600b81518110611500576114ff6124fd565b5b6020026020010181815161151491906125bb565b915081815250506115a8565b600c8160ff16141561156557816000013585600c81518110611545576115446124fd565b5b6020026020010181815161155991906125bb565b915081815250506115a7565b600c8160ff1614156115a657816000013585600c8151811061158a576115896124fd565b5b6020026020010181815161159e91906125bb565b915081815250505b5b5b5b5b5b5b5b5b5b5b5b5b5050806115be90612740565b9050611151565b506000600190505b600d8111611633578381600e81106115e8576115e76124fd565b5b602002015160ff16838281518110611603576116026124fd565b5b602002602001015161161591906126e6565b8561162091906125bb565b94508061162c90612740565b90506115cd565b5050505092915050565b60006103e8670de0b6b3a76400008361165691906126e6565b6116609190612a51565b9050919050565b80826000015410156116ae576040517f08c379a00000000000000000000000000000000000000000000000000000000081526004016116a590612ba2565b60405180910390fd5b808260000160008282546116c29190612bc2565b92505081905550808260010160008282546116dd91906125bb565b925050819055505050565b60008360000160008373ffffffffffffffffffffffffffffffffffffffff1673ffffffffffffffffffffffffffffffffffffffff16815260200190815260200160002054905082811015611771576040517f08c379a00000000000000000000000000000000000000000000000000000000081526004016117689061244b565b60405180910390fd5b828460010160008473ffffffffffffffffffffffffffffffffffffffff1673ffffffffffffffffffffffffffffffffffffffff16815260200190815260200160002060008282546117c291906125bb565b92505081905550828460000160008473ffffffffffffffffffffffffffffffffffffffff1673ffffffffffffffffffffffffffffffffffffffff168152602001908152602001600020600082825461181a9190612bc2565b9250508190555050505050565b60005b828290508110156119485736838383818110611849576118486124fd565b5b9050606002019050611859611fc2565b816000013581600001818152505081604001602081019061187a9190612a97565b816040019060ff16908160ff168152505081602001602081019061189e9190612a97565b816020019060ff16908160ff1681525050856000018190806001815401808255809150506001900390600052602060002090600302016000909190919091506000820151816000015560208201518160010160006101000a81548160ff021916908360ff16021790555060408201518160010160016101000a81548160ff021916908360ff16021790555060608201518160020155505050508061194190612740565b905061182a565b50505050565b6000811415611a2b57737a1bac17ccc5b313516c5e16fb24f7659aa5ebed73ffffffffffffffffffffffffffffffffffffffff16635d3b1d307f4b09e658ed251bcafeebbc69400383d49f344ace09b9576fe248bb02c003fe9f60001b61088e6003620dbba060016040518663ffffffff1660e01b81526004016119d6959493929190612c6e565b602060405180830381600087803b1580156119f057600080fd5b505af1158015611a04573d6000803e3d6000fd5b505050506040513d601f19601f82011682018060405250810190611a289190612cd6565b90505b80600060070160000160003373ffffffffffffffffffffffffffffffffffffffff1673ffffffffffffffffffffffffffffffffffffffff16815260200190815260200160002081905550336000600501600101600083815260200190815260200160002060006101000a81548173ffffffffffffffffffffffffffffffffffffffff021916908373ffffffffffffffffffffffffffffffffffffffff16021790555080600060050160000160003373ffffffffffffffffffffffffffffffffffffffff1673ffffffffffffffffffffffffffffffffffffffff1681526020019081526020016000206001018190555050565b6000807fec2e1d18880eab0fa99cf138ce95db1d80287501a0d954892af33d430f009c4190508091505090565b80826000016000828254611b5e91906125bb565b9250508190555080826001016000828254611b799190612bc2565b925050819055505050565b818360010160008373ffffffffffffffffffffffffffffffffffffffff1673ffffffffffffffffffffffffffffffffffffffff1681526020019081526020016000206000828254611bd59190612bc2565b92505081905550505050565b611c7b838383604051602401611bf993929190612d7a565b6040516020818303038152906040527fca47c4eb000000000000000000000000000000000000000000000000000000007bffffffffffffffffffffffffffffffffffffffffffffffffffffffff19166020820180517bffffffffffffffffffffffffffffffffffffffffffffffffffffffff8381831617835250505050611eb6565b505050565b611d188282604051602401611c96929190612db8565b6040516020818303038152906040527fb60e72cc000000000000000000000000000000000000000000000000000000007bffffffffffffffffffffffffffffffffffffffffffffffffffffffff19166020820180517bffffffffffffffffffffffffffffffffffffffffffffffffffffffff8381831617835250505050611eb6565b5050565b60006003905060006127108383611d3391906126e6565b611d3d9190612a51565b905080846009016000828254611d5391906125bb565b9250508190555060008184611d6891906125bb565b9050611da96040518060400160405280600a81526020017f706179446966664574680000000000000000000000000000000000000000000081525085611c80565b611de86040518060400160405280600c81526020017f6f7572436f6d697373696f6e000000000000000000000000000000000000000081525083611c80565b611df9856002016000015482611edf565b80856002016000016000828254611e109190612bc2565b92505081905550611e28856002016000015482611edf565b5050505050565b6000601a905060006127108383611e4691906126e6565b611e509190612a51565b905080846009016000828254611e6691906125bb565b925050819055508083611e799190612bc2565b846002016000016000828254611e8f91906125bb565b9250508190555050505050565b600081831015611eac5781611eae565b825b905092915050565b60008151905060006a636f6e736f6c652e6c6f679050602083016000808483855afa5050505050565b611f778282604051602401611ef5929190612611565b6040516020818303038152906040527ff666715a000000000000000000000000000000000000000000000000000000007bffffffffffffffffffffffffffffffffffffffffffffffffffffffff19166020820180517bffffffffffffffffffffffffffffffffffffffffffffffffffffffff8381831617835250505050611eb6565b5050565b5080546000825560030290600052602060002090810190611f9c9190611ff0565b50565b604051806101400160405280600a90602082028036833780820191505090505090565b604051806080016040528060008152602001600060ff168152602001600060ff168152602001600081525090565b5b8082111561203b576000808201600090556001820160006101000a81549060ff02191690556001820160016101000a81549060ff0219169055600282016000905550600301611ff1565b5090565b6000604051905090565b600080fd5b600080fd5b6000819050919050565b61206681612053565b811461207157600080fd5b50565b6000813590506120838161205d565b92915050565b600080fd5b6000601f19601f8301169050919050565b7f4e487b7100000000000000000000000000000000000000000000000000000000600052604160045260246000fd5b6120d78261208e565b810181811067ffffffffffffffff821117156120f6576120f561209f565b5b80604052505050565b600061210961203f565b905061211582826120ce565b919050565b600067ffffffffffffffff8211156121355761213461209f565b5b602082029050602081019050919050565b600080fd5b600061215e6121598461211a565b6120ff565b9050808382526020820190506020840283018581111561218157612180612146565b5b835b818110156121aa57806121968882612074565b845260208401935050602081019050612183565b5050509392505050565b600082601f8301126121c9576121c8612089565b5b81356121d984826020860161214b565b91505092915050565b600080604083850312156121f9576121f8612049565b5b600061220785828601612074565b925050602083013567ffffffffffffffff8111156122285761222761204e565b5b612234858286016121b4565b9150509250929050565b61224781612053565b82525050565b600060c082019050612262600083018961223e565b61226f602083018861223e565b61227c604083018761223e565b612289606083018661223e565b612296608083018561223e565b6122a360a083018461223e565b979650505050505050565b60006020820190506122c3600083018461223e565b92915050565b600080fd5b60008083601f8401126122e4576122e3612089565b5b8235905067ffffffffffffffff811115612301576123006122c9565b5b60208301915083606082028301111561231d5761231c612146565b5b9250929050565b60008060006040848603121561233d5761233c612049565b5b600084013567ffffffffffffffff81111561235b5761235a61204e565b5b612367868287016122ce565b9350935050602061237a86828701612074565b9150509250925092565b600073ffffffffffffffffffffffffffffffffffffffff82169050919050565b60006123af82612384565b9050919050565b6123bf816123a4565b82525050565b60006040820190506123da60008301856123b6565b6123e760208301846123b6565b9392505050565b600082825260208201905092915050565b7f42616c616e636520697320696e73756666696369656e74000000000000000000600082015250565b60006124356017836123ee565b9150612440826123ff565b602082019050919050565b6000602082019050818103600083015261246481612428565b9050919050565b7f4c69624469616d6f6e643a204d75737420626520636f6e7472616374206f776e60008201527f6572000000000000000000000000000000000000000000000000000000000000602082015250565b60006124c76022836123ee565b91506124d28261246b565b604082019050919050565b600060208201905081810360008301526124f6816124ba565b9050919050565b7f4e487b7100000000000000000000000000000000000000000000000000000000600052603260045260246000fd5b7f4e487b7100000000000000000000000000000000000000000000000000000000600052601260045260246000fd5b600061256682612053565b915061257183612053565b9250826125815761258061252c565b5b828206905092915050565b7f4e487b7100000000000000000000000000000000000000000000000000000000600052601160045260246000fd5b60006125c682612053565b91506125d183612053565b9250827fffffffffffffffffffffffffffffffffffffffffffffffffffffffffffffffff038211156126065761260561258c565b5b828201905092915050565b6000604082019050612626600083018561223e565b612633602083018461223e565b9392505050565b600060ff82169050919050565b6126508161263a565b82525050565b600060608201905061266b6000830186612647565b6126786020830185612647565b6126856040830184612647565b949350505050565b6126968161263a565b81146126a157600080fd5b50565b6000815190506126b38161268d565b92915050565b6000602082840312156126cf576126ce612049565b5b60006126dd848285016126a4565b91505092915050565b60006126f182612053565b91506126fc83612053565b9250817fffffffffffffffffffffffffffffffffffffffffffffffffffffffffffffffff04831182151516156127355761273461258c565b5b828202905092915050565b600061274b82612053565b91507fffffffffffffffffffffffffffffffffffffffffffffffffffffffffffffffff82141561277e5761277d61258c565b5b600182019050919050565b6000819050919050565b600061279e82612789565b91506127a983612789565b9250827f8000000000000000000000000000000000000000000000000000000000000000018212600084121516156127e4576127e361258c565b5b827f7fffffffffffffffffffffffffffffffffffffffffffffffffffffffffffffff01821360008412161561281c5761281b61258c565b5b828203905092915050565b600061283282612789565b91507f80000000000000000000000000000000000000000000000000000000000000008214156128655761286461258c565b5b816000039050919050565b6000600a9050919050565b600081905092915050565b6000819050919050565b61289981612053565b82525050565b60006128ab8383612890565b60208301905092915050565b6000602082019050919050565b6128cd81612870565b6128d7818461287b565b92506128e282612886565b8060005b838110156129135781516128fa878261289f565b9650612905836128b7565b9250506001810190506128e6565b505050505050565b600061018082019050612931600083018661223e565b61293e602083018561223e565b61294b60408301846128c4565b949350505050565b7f546f6f206d616e79206265747300000000000000000000000000000000000000600082015250565b6000612989600d836123ee565b915061299482612953565b602082019050919050565b600060208201905081810360008301526129b88161297c565b9050919050565b7f526f756c65747465206973206c61756e636865642e204e6f206d6f726520626560008201527f74732e0000000000000000000000000000000000000000000000000000000000602082015250565b6000612a1b6023836123ee565b9150612a26826129bf565b604082019050919050565b60006020820190508181036000830152612a4a81612a0e565b9050919050565b6000612a5c82612053565b9150612a6783612053565b925082612a7757612a7661252c565b5b828204905092915050565b600081359050612a918161268d565b92915050565b600060208284031215612aad57612aac612049565b5b6000612abb84828501612a82565b91505092915050565b7f426574206f6e2073696e676c6520706f736974696f6e2065786365656473203160008201527f3030300000000000000000000000000000000000000000000000000000000000602082015250565b6000612b206023836123ee565b9150612b2b82612ac4565b604082019050919050565b60006020820190508181036000830152612b4f81612b13565b9050919050565b7f486f7573652062616c616e636520697320696e73756666696369656e74000000600082015250565b6000612b8c601d836123ee565b9150612b9782612b56565b602082019050919050565b60006020820190508181036000830152612bbb81612b7f565b9050919050565b6000612bcd82612053565b9150612bd883612053565b925082821015612beb57612bea61258c565b5b828203905092915050565b6000819050919050565b612c0981612bf6565b82525050565b600067ffffffffffffffff82169050919050565b612c2c81612c0f565b82525050565b600061ffff82169050919050565b612c4981612c32565b82525050565b600063ffffffff82169050919050565b612c6881612c4f565b82525050565b600060a082019050612c836000830188612c00565b612c906020830187612c23565b612c9d6040830186612c40565b612caa6060830185612c5f565b612cb76080830184612c5f565b9695505050505050565b600081519050612cd08161205d565b92915050565b600060208284031215612cec57612ceb612049565b5b6000612cfa84828501612cc1565b91505092915050565b600081519050919050565b60005b83811015612d2c578082015181840152602081019050612d11565b83811115612d3b576000848401525b50505050565b6000612d4c82612d03565b612d5681856123ee565b9350612d66818560208601612d0e565b612d6f8161208e565b840191505092915050565b60006060820190508181036000830152612d948186612d41565b9050612da3602083018561223e565b612db0604083018461223e565b949350505050565b60006040820190508181036000830152612dd28185612d41565b9050612de1602083018461223e565b939250505056fea2646970667358221220bbf899f9310892917461e316fdbfb73ad83fd7e2b7b25a9c0877b186be5ca42964736f6c63430008090033",
  "linkReferences": {
    "contracts/libraries/roulette/LibRulette.sol": {
      "LibRulette": [
        {
          "length": 20,
          "start": 2792
        },
        {
          "length": 20,
          "start": 4004
        }
      ]
    }
  },
  "deployedLinkReferences": {
    "contracts/libraries/roulette/LibRulette.sol": {
      "LibRulette": [
        {
          "length": 20,
          "start": 2760
        },
        {
          "length": 20,
          "start": 3972
        }
      ]
    }
  }
}