{
  "_format": "hh-sol-artifact-1",
  "contractName": "RouletteFacet",
  "sourceName": "contracts/RouletteFacet.sol",
  "abi": [
    {
      "inputs": [
        {
          "internalType": "address",
          "name": "have",
          "type": "address"
        },
        {
          "internalType": "address",
          "name": "want",
          "type": "address"
        }
      ],
      "name": "OnlyCoordinatorCanFulfill",
      "type": "error"
    },
    {
      "anonymous": false,
      "inputs": [
        {
          "indexed": false,
          "internalType": "bool",
          "name": "",
          "type": "bool"
        }
      ],
      "name": "RouletteLaunchOfPlayerFound",
      "type": "event"
    },
    {
      "anonymous": false,
      "inputs": [
        {
          "indexed": false,
          "internalType": "uint256",
          "name": "requestId",
          "type": "uint256"
        }
      ],
      "name": "RouletteLaunched",
      "type": "event"
    },
    {
      "anonymous": false,
      "inputs": [
        {
          "indexed": false,
          "internalType": "uint256",
          "name": "requestId",
          "type": "uint256"
        },
        {
          "indexed": false,
          "internalType": "uint256",
          "name": "randomWord",
          "type": "uint256"
        },
        {
          "indexed": false,
          "internalType": "uint256",
          "name": "resultNum",
          "type": "uint256"
        }
      ],
      "name": "RouletteStopped",
      "type": "event"
    },
    {
      "anonymous": false,
      "inputs": [
        {
          "indexed": false,
          "internalType": "uint256",
          "name": "requestId",
          "type": "uint256"
        },
        {
          "indexed": false,
          "internalType": "uint256",
          "name": "randomWord",
          "type": "uint256"
        },
        {
          "indexed": false,
          "internalType": "uint256",
          "name": "resultNum",
          "type": "uint256"
        },
        {
          "indexed": false,
          "internalType": "uint256[10]",
          "name": "winByPosition",
          "type": "uint256[10]"
        }
      ],
      "name": "RouletteStoppedPrizeInfo",
      "type": "event"
    },
    {
      "anonymous": false,
      "inputs": [
        {
          "indexed": false,
          "internalType": "bool",
          "name": "",
          "type": "bool"
        }
      ],
      "name": "RouletteStoppedRequestIdRecognized",
      "type": "event"
    },
    {
      "anonymous": false,
      "inputs": [],
      "name": "RouletteStoppedVRFCallReceived",
      "type": "event"
    },
    {
      "inputs": [],
      "name": "getReqID",
      "outputs": [
        {
          "internalType": "uint256",
          "name": "",
          "type": "uint256"
        }
      ],
      "stateMutability": "view",
      "type": "function"
    },
    {
      "inputs": [],
      "name": "getRnd",
      "outputs": [
        {
          "internalType": "uint256",
          "name": "",
          "type": "uint256"
        }
      ],
      "stateMutability": "view",
      "type": "function"
    },
    {
      "inputs": [
        {
          "components": [
            {
              "internalType": "uint256",
              "name": "amount",
              "type": "uint256"
            },
            {
              "internalType": "uint8",
              "name": "betType",
              "type": "uint8"
            },
            {
              "internalType": "uint8",
              "name": "betDet",
              "type": "uint8"
            }
          ],
          "internalType": "struct BetPointPrm[]",
          "name": "betPoints",
          "type": "tuple[]"
        }
      ],
      "name": "placeBet",
      "outputs": [],
      "stateMutability": "nonpayable",
      "type": "function"
    },
    {
      "inputs": [
        {
          "internalType": "uint256",
          "name": "requestId",
          "type": "uint256"
        },
        {
          "internalType": "uint256[]",
          "name": "randomWords",
          "type": "uint256[]"
        }
      ],
      "name": "rawFulfillRandomWords",
      "outputs": [],
      "stateMutability": "nonpayable",
      "type": "function"
    },
    {
      "inputs": [],
      "name": "requestRandomWords",
      "outputs": [],
      "stateMutability": "nonpayable",
      "type": "function"
    },
    {
      "inputs": [],
      "name": "test1",
      "outputs": [],
      "stateMutability": "nonpayable",
      "type": "function"
    }
  ],
  "bytecode": "0x608060405234801561001057600080fd5b50612b19806100206000396000f3fe608060405234801561001057600080fd5b50600436106100625760003560e01c80630a718749146100675780631fe543e31461008357806345748aee1461009f5780636b59084d146100bd57806384fe382c146100c7578063e0c86289146100e5575b600080fd5b610081600480360381019061007c9190611d05565b6100ef565b005b61009d60048036038101906100989190611ed7565b6102ee565b005b6100a7610396565b6040516100b49190611f42565b60405180910390f35b6100c56103e2565b005b6100cf6104c4565b6040516100dc9190611f42565b60405180910390f35b6100ed61055e565b005b6100fe600060070183836106d8565b60008060000160000160003373ffffffffffffffffffffffffffffffffffffffff1673ffffffffffffffffffffffffffffffffffffffff168152602001908152602001600020549050600066038d7ea4c680006103e88361015f9190611f8c565b6101699190612015565b905060018110156101af576040517f08c379a00000000000000000000000000000000000000000000000000000000081526004016101a6906120a3565b60405180910390fd5b60006101bb85856107ba565b905060006101c986866108d2565b905060006103e8826101db9190612015565b905061021c6040518060400160405280600e81526020017f4c6f636b696e6720746f74616c3a00000000000000000000000000000000000081525082610eb2565b61022a600060020182610f4e565b610245600080016103e88561023f9190612015565b33610fcf565b60008060070160000160003373ffffffffffffffffffffffffffffffffffffffff1673ffffffffffffffffffffffffffffffffffffffff168152602001908152602001600020905061029881898961110e565b8181600201819055506102a961055e565b7f887b2d0e97d4f3ab19562a888ca35d5b3491d3596cc76190631c13cfcb09df8781600101546040516102dc9190611f42565b60405180910390a15050505050505050565b737a1bac17ccc5b313516c5e16fb24f7659aa5ebed73ffffffffffffffffffffffffffffffffffffffff163373ffffffffffffffffffffffffffffffffffffffff16146103885733737a1bac17ccc5b313516c5e16fb24f7659aa5ebed6040517f1cf993f400000000000000000000000000000000000000000000000000000000815260040161037f929190612104565b60405180910390fd5b6103928282611235565b5050565b60008060090160000160003373ffffffffffffffffffffffffffffffffffffffff1673ffffffffffffffffffffffffffffffffffffffff16815260200190815260200160002054905090565b7f887b2d0e97d4f3ab19562a888ca35d5b3491d3596cc76190631c13cfcb09df8760016040516104129190612172565b60405180910390a17f887b2d0e97d4f3ab19562a888ca35d5b3491d3596cc76190631c13cfcb09df87600260405161044a91906121c8565b60405180910390a17f887b2d0e97d4f3ab19562a888ca35d5b3491d3596cc76190631c13cfcb09df876003604051610482919061221e565b60405180910390a17f887b2d0e97d4f3ab19562a888ca35d5b3491d3596cc76190631c13cfcb09df8760046040516104ba9190612274565b60405180910390a1565b600080600060090160000160003373ffffffffffffffffffffffffffffffffffffffff1673ffffffffffffffffffffffffffffffffffffffff16815260200190815260200160002054905060008114156105235761014d91505061055b565b600080600901600101600083815260200190815260200160002054905060008114156105555761014e9250505061055b565b80925050505b90565b6000737a1bac17ccc5b313516c5e16fb24f7659aa5ebed73ffffffffffffffffffffffffffffffffffffffff16635d3b1d307f4b09e658ed251bcafeebbc69400383d49f344ace09b9576fe248bb02c003fe9f60001b61088e6003620186a060016040518663ffffffff1660e01b81526004016105df959493929190612307565b602060405180830381600087803b1580156105f957600080fd5b505af115801561060d573d6000803e3d6000fd5b505050506040513d601f19601f82011682018060405250810190610631919061236f565b905080600060090160000160003373ffffffffffffffffffffffffffffffffffffffff1673ffffffffffffffffffffffffffffffffffffffff16815260200190815260200160002081905550336000600701600101600083815260200190815260200160002060006101000a81548173ffffffffffffffffffffffffffffffffffffffff021916908373ffffffffffffffffffffffffffffffffffffffff16021790555050565b6000828290501180156106ef5750600a8282905011155b61072e576040517f08c379a0000000000000000000000000000000000000000000000000000000008152600401610725906123e8565b60405180910390fd5b60008360000160003373ffffffffffffffffffffffffffffffffffffffff1673ffffffffffffffffffffffffffffffffffffffff16815260200190815260200160002060010154146107b5576040517f08c379a00000000000000000000000000000000000000000000000000000000081526004016107ac9061247a565b60405180910390fd5b505050565b6000805b838390508110156108cb57368484838181106107dd576107dc61249a565b5b90506060020190508060000135836107f591906124c9565b925073__$8f978581c91560e6666447aae607650362$__633935e4238260200160208101906108249190612558565b8360400160208101906108379190612558565b84604001602081019061084a9190612558565b6040518463ffffffff1660e01b815260040161086893929190612594565b60206040518083038186803b15801561088057600080fd5b505af4158015610894573d6000803e3d6000fd5b505050506040513d601f19601f820116820180604052508101906108b891906125e0565b5050806108c49061260d565b90506107be565b5092915050565b600080604051806101c00160405280600060ff168152602001602360ff168152602001601160ff168152602001600b60ff168152602001600860ff168152602001600660ff168152602001600560ff168152602001600260ff168152602001600260ff168152602001600160ff168152602001600160ff168152602001600160ff168152602001600160ff168152602001601160ff1681525090506000600e67ffffffffffffffff81111561098a57610989611d99565b5b6040519080825280602002602001820160405280156109b85781602001602082028036833780820191505090505b509050600085859050905060005b81811015610e3a57368787838181106109e2576109e161249a565b5b90506060020190506103e881600001351115610a33576040517f08c379a0000000000000000000000000000000000000000000000000000000008152600401610a2a906126c8565b60405180910390fd5b6000816020016020810190610a489190612558565b905060018160ff161415610aa457610a7f85600181518110610a6d57610a6c61249a565b5b6020026020010151836000013561196f565b85600181518110610a9357610a9261249a565b5b602002602001018181525050610e27565b60028160ff161415610ae957816000013585600281518110610ac957610ac861249a565b5b60200260200101818151610add91906124c9565b91508181525050610e26565b60038160ff161415610b4357610b1e85600381518110610b0c57610b0b61249a565b5b6020026020010151836000013561196f565b85600381518110610b3257610b3161249a565b5b602002602001018181525050610e25565b60048160ff161415610b8857816000013585600481518110610b6857610b6761249a565b5b60200260200101818151610b7c91906124c9565b91508181525050610e24565b60058160ff161415610bcd57816000013585600581518110610bad57610bac61249a565b5b60200260200101818151610bc191906124c9565b91508181525050610e23565b60068160ff161415610c1257816000013585600681518110610bf257610bf161249a565b5b60200260200101818151610c0691906124c9565b91508181525050610e22565b60078160ff161415610c6c57610c4785600781518110610c3557610c3461249a565b5b6020026020010151836000013561196f565b85600781518110610c5b57610c5a61249a565b5b602002602001018181525050610e21565b60088160ff161415610cc657610ca185600881518110610c8f57610c8e61249a565b5b6020026020010151836000013561196f565b85600881518110610cb557610cb461249a565b5b602002602001018181525050610e20565b60098160ff161415610d0b57816000013585600981518110610ceb57610cea61249a565b5b60200260200101818151610cff91906124c9565b91508181525050610e1f565b600a8160ff161415610d5057816000013585600a81518110610d3057610d2f61249a565b5b60200260200101818151610d4491906124c9565b91508181525050610e1e565b600b8160ff161415610d9557816000013585600b81518110610d7557610d7461249a565b5b60200260200101818151610d8991906124c9565b91508181525050610e1d565b600c8160ff161415610dda57816000013585600c81518110610dba57610db961249a565b5b60200260200101818151610dce91906124c9565b91508181525050610e1c565b600c8160ff161415610e1b57816000013585600c81518110610dff57610dfe61249a565b5b60200260200101818151610e1391906124c9565b915081815250505b5b5b5b5b5b5b5b5b5b5b5b5b505080610e339061260d565b90506109c6565b506000600190505b600d8111610ea8578381600e8110610e5d57610e5c61249a565b5b602002015160ff16838281518110610e7857610e7761249a565b5b6020026020010151610e8a9190611f8c565b85610e9591906124c9565b945080610ea19061260d565b9050610e42565b5050505092915050565b610f4a8282604051602401610ec892919061275f565b6040516020818303038152906040527fb60e72cc000000000000000000000000000000000000000000000000000000007bffffffffffffffffffffffffffffffffffffffffffffffffffffffff19166020820180517bffffffffffffffffffffffffffffffffffffffffffffffffffffffff8381831617835250505050611989565b5050565b8082600001541015610f95576040517f08c379a0000000000000000000000000000000000000000000000000000000008152600401610f8c906127db565b60405180910390fd5b80826000016000828254610fa991906127fb565b9250508190555080826001016000828254610fc491906124c9565b925050819055505050565b60008360000160008373ffffffffffffffffffffffffffffffffffffffff1673ffffffffffffffffffffffffffffffffffffffff16815260200190815260200160002054905082811015611058576040517f08c379a000000000000000000000000000000000000000000000000000000000815260040161104f906120a3565b60405180910390fd5b828460010160008473ffffffffffffffffffffffffffffffffffffffff1673ffffffffffffffffffffffffffffffffffffffff16815260200190815260200160002060008282546110a991906124c9565b92505081905550828460000160008473ffffffffffffffffffffffffffffffffffffffff1673ffffffffffffffffffffffffffffffffffffffff168152602001908152602001600020600082825461110191906127fb565b9250508190555050505050565b60005b8282905081101561122f57368383838181106111305761112f61249a565b5b9050606002019050611140611bc8565b81600001358160000181815250508160400160208101906111619190612558565b816040019060ff16908160ff16815250508160200160208101906111859190612558565b816020019060ff16908160ff1681525050856000018190806001815401808255809150506001900390600052602060002090600302016000909190919091506000820151816000015560208201518160010160006101000a81548160ff021916908360ff16021790555060408201518160010160016101000a81548160ff021916908360ff1602179055506060820151816002015550505050806112289061260d565b9050611111565b50505050565b806000815181106112495761124861249a565b5b602002602001015160006009016001016000848152602001908152602001600020819055506112c96040518060400160405280601281526020017f66756c66696c6c52616e646f6d576f726473000000000000000000000000000081525083836000815181106112bc576112bb61249a565b5b60200260200101516119b2565b7fc48d2d1748b2821a893b7befc23c0d3d5ff0cb9fdce850ceac00fabfa006da7960405160405180910390a16000600160268360008151811061130f5761130e61249a565b5b6020026020010151611321919061282f565b61132b91906124c9565b905060008190507f2ed2b3b354a7ae8bd419c4cfa7a0aef256e89ba340aa7e00a6dbee5f2f01087884846000815181106113685761136761249a565b5b60200260200101518460405161138093929190612860565b60405180910390a1600080600701600101600086815260200190815260200160002060009054906101000a900473ffffffffffffffffffffffffffffffffffffffff169050600073ffffffffffffffffffffffffffffffffffffffff168173ffffffffffffffffffffffffffffffffffffffff16141561143a577f412fdfca1794c4516d51034490f02b3616c75acf5d768ee0f69afc2a069cb152600060405161142a91906128b2565b60405180910390a150505061196b565b6000600701600101600086815260200190815260200160002060006101000a81549073ffffffffffffffffffffffffffffffffffffffff02191690557f412fdfca1794c4516d51034490f02b3616c75acf5d768ee0f69afc2a069cb15260016040516114a691906128b2565b60405180910390a160008060070160000160008373ffffffffffffffffffffffffffffffffffffffff1673ffffffffffffffffffffffffffffffffffffffff16815260200190815260200160002060405180606001604052908160008201805480602002602001604051908101604052809291908181526020016000905b828210156115a45783829060005260206000209060030201604051806080016040529081600082015481526020016001820160009054906101000a900460ff1660ff1660ff1681526020016001820160019054906101000a900460ff1660ff1660ff16815260200160028201548152505081526020019060010190611524565b5050505081526020016001820154815260200160028201548152505090508581602001511461160e577fbce44f9f6b3e64fd0bcfb36638906a2a5015d46474aa67486fd7a1c00365625260006040516115fd91906128b2565b60405180910390a15050505061196b565b7fbce44f9f6b3e64fd0bcfb36638906a2a5015d46474aa67486fd7a1c003656252600160405161163e91906128b2565b60405180910390a1600060070160000160008373ffffffffffffffffffffffffffffffffffffffff1673ffffffffffffffffffffffffffffffffffffffff1681526020019081526020016000206000808201600061169c9190611bf6565b600182016000905560028201600090555050600080600083600001515190506116c3611c1a565b60005b82811015611804576000866000015182815181106116e7576116e661249a565b5b6020026020010151905080600001518661170191906124c9565b9550600073__$8f978581c91560e6666447aae607650362$__633935e423836020015184604001518d6040518463ffffffff1660e01b815260040161174893929190612594565b60206040518083038186803b15801561176057600080fd5b505af4158015611774573d6000803e3d6000fd5b505050506040513d601f19601f8201168201806040525081019061179891906125e0565b60ff16905060008111156117f15760008183600001516117b89190611f8c565b905080876117c691906124c9565b965080836060018181525050808585600a81106117e6576117e561249a565b5b602002018181525050505b5050806117fd9061260d565b90506116c6565b5061181760006002018660400151611a51565b611832600080016103e88661182c9190612015565b88611a8b565b600084905060008411156118b7576103e88461184e9190612015565b6000800160000160008973ffffffffffffffffffffffffffffffffffffffff1673ffffffffffffffffffffffffffffffffffffffff16815260200190815260200160002060008282546118a191906124c9565b9250508190555083816118b491906128d7565b90505b60008112156118e6576118e160006103e8836118d29061296b565b6118dc9190612015565b611ae8565b611909565b60008113156119085761190760006103e8836119029190612015565b611b5b565b5b5b7fae30dbbe54c9bdd5a7d9ada12e5bdf2666243e7a15e840e99d4360300988d5fa8b8b60008151811061193f5761193e61249a565b5b60200260200101518b856040516119599493929190612a5f565b60405180910390a15050505050505050505b5050565b60008183101561197f5781611981565b825b905092915050565b60008151905060006a636f6e736f6c652e6c6f679050602083016000808483855afa5050505050565b611a4c8383836040516024016119ca93929190612aa5565b6040516020818303038152906040527fca47c4eb000000000000000000000000000000000000000000000000000000007bffffffffffffffffffffffffffffffffffffffffffffffffffffffff19166020820180517bffffffffffffffffffffffffffffffffffffffffffffffffffffffff8381831617835250505050611989565b505050565b80826000016000828254611a6591906124c9565b9250508190555080826001016000828254611a8091906127fb565b925050819055505050565b818360010160008373ffffffffffffffffffffffffffffffffffffffff1673ffffffffffffffffffffffffffffffffffffffff1681526020019081526020016000206000828254611adc91906127fb565b92505081905550505050565b60006003905060006127108383611aff9190611f8c565b611b099190612015565b90508084600b016000828254611b1f91906124c9565b9250508190555060008184611b3491906124c9565b905080856002016000016000828254611b4d91906127fb565b925050819055505050505050565b6000601a905060006127108383611b729190611f8c565b611b7c9190612015565b90508084600b016000828254611b9291906124c9565b925050819055508083611ba591906127fb565b846002016000016000828254611bbb91906124c9565b9250508190555050505050565b604051806080016040528060008152602001600060ff168152602001600060ff168152602001600081525090565b5080546000825560030290600052602060002090810190611c179190611c3d565b50565b604051806101400160405280600a90602082028036833780820191505090505090565b5b80821115611c88576000808201600090556001820160006101000a81549060ff02191690556001820160016101000a81549060ff0219169055600282016000905550600301611c3e565b5090565b6000604051905090565b600080fd5b600080fd5b600080fd5b600080fd5b600080fd5b60008083601f840112611cc557611cc4611ca0565b5b8235905067ffffffffffffffff811115611ce257611ce1611ca5565b5b602083019150836060820283011115611cfe57611cfd611caa565b5b9250929050565b60008060208385031215611d1c57611d1b611c96565b5b600083013567ffffffffffffffff811115611d3a57611d39611c9b565b5b611d4685828601611caf565b92509250509250929050565b6000819050919050565b611d6581611d52565b8114611d7057600080fd5b50565b600081359050611d8281611d5c565b92915050565b6000601f19601f8301169050919050565b7f4e487b7100000000000000000000000000000000000000000000000000000000600052604160045260246000fd5b611dd182611d88565b810181811067ffffffffffffffff82111715611df057611def611d99565b5b80604052505050565b6000611e03611c8c565b9050611e0f8282611dc8565b919050565b600067ffffffffffffffff821115611e2f57611e2e611d99565b5b602082029050602081019050919050565b6000611e53611e4e84611e14565b611df9565b90508083825260208201905060208402830185811115611e7657611e75611caa565b5b835b81811015611e9f5780611e8b8882611d73565b845260208401935050602081019050611e78565b5050509392505050565b600082601f830112611ebe57611ebd611ca0565b5b8135611ece848260208601611e40565b91505092915050565b60008060408385031215611eee57611eed611c96565b5b6000611efc85828601611d73565b925050602083013567ffffffffffffffff811115611f1d57611f1c611c9b565b5b611f2985828601611ea9565b9150509250929050565b611f3c81611d52565b82525050565b6000602082019050611f576000830184611f33565b92915050565b7f4e487b7100000000000000000000000000000000000000000000000000000000600052601160045260246000fd5b6000611f9782611d52565b9150611fa283611d52565b9250817fffffffffffffffffffffffffffffffffffffffffffffffffffffffffffffffff0483118215151615611fdb57611fda611f5d565b5b828202905092915050565b7f4e487b7100000000000000000000000000000000000000000000000000000000600052601260045260246000fd5b600061202082611d52565b915061202b83611d52565b92508261203b5761203a611fe6565b5b828204905092915050565b600082825260208201905092915050565b7f42616c616e636520697320696e73756666696369656e74000000000000000000600082015250565b600061208d601783612046565b915061209882612057565b602082019050919050565b600060208201905081810360008301526120bc81612080565b9050919050565b600073ffffffffffffffffffffffffffffffffffffffff82169050919050565b60006120ee826120c3565b9050919050565b6120fe816120e3565b82525050565b600060408201905061211960008301856120f5565b61212660208301846120f5565b9392505050565b6000819050919050565b6000819050919050565b600061215c6121576121528461212d565b612137565b611d52565b9050919050565b61216c81612141565b82525050565b60006020820190506121876000830184612163565b92915050565b6000819050919050565b60006121b26121ad6121a88461218d565b612137565b611d52565b9050919050565b6121c281612197565b82525050565b60006020820190506121dd60008301846121b9565b92915050565b6000819050919050565b60006122086122036121fe846121e3565b612137565b611d52565b9050919050565b612218816121ed565b82525050565b6000602082019050612233600083018461220f565b92915050565b6000819050919050565b600061225e61225961225484612239565b612137565b611d52565b9050919050565b61226e81612243565b82525050565b60006020820190506122896000830184612265565b92915050565b6000819050919050565b6122a28161228f565b82525050565b600067ffffffffffffffff82169050919050565b6122c5816122a8565b82525050565b600061ffff82169050919050565b6122e2816122cb565b82525050565b600063ffffffff82169050919050565b612301816122e8565b82525050565b600060a08201905061231c6000830188612299565b61232960208301876122bc565b61233660408301866122d9565b61234360608301856122f8565b61235060808301846122f8565b9695505050505050565b60008151905061236981611d5c565b92915050565b60006020828403121561238557612384611c96565b5b60006123938482850161235a565b91505092915050565b7f546f6f206d616e79206265747300000000000000000000000000000000000000600082015250565b60006123d2600d83612046565b91506123dd8261239c565b602082019050919050565b60006020820190508181036000830152612401816123c5565b9050919050565b7f526f756c65747465206973206c61756e636865642e204e6f206d6f726520626560008201527f74732e0000000000000000000000000000000000000000000000000000000000602082015250565b6000612464602383612046565b915061246f82612408565b604082019050919050565b6000602082019050818103600083015261249381612457565b9050919050565b7f4e487b7100000000000000000000000000000000000000000000000000000000600052603260045260246000fd5b60006124d482611d52565b91506124df83611d52565b9250827fffffffffffffffffffffffffffffffffffffffffffffffffffffffffffffffff0382111561251457612513611f5d565b5b828201905092915050565b600060ff82169050919050565b6125358161251f565b811461254057600080fd5b50565b6000813590506125528161252c565b92915050565b60006020828403121561256e5761256d611c96565b5b600061257c84828501612543565b91505092915050565b61258e8161251f565b82525050565b60006060820190506125a96000830186612585565b6125b66020830185612585565b6125c36040830184612585565b949350505050565b6000815190506125da8161252c565b92915050565b6000602082840312156125f6576125f5611c96565b5b6000612604848285016125cb565b91505092915050565b600061261882611d52565b91507fffffffffffffffffffffffffffffffffffffffffffffffffffffffffffffffff82141561264b5761264a611f5d565b5b600182019050919050565b7f426574206f6e2073696e676c6520706f736974696f6e2065786365656473203160008201527f3030300000000000000000000000000000000000000000000000000000000000602082015250565b60006126b2602383612046565b91506126bd82612656565b604082019050919050565b600060208201905081810360008301526126e1816126a5565b9050919050565b600081519050919050565b60005b838110156127115780820151818401526020810190506126f6565b83811115612720576000848401525b50505050565b6000612731826126e8565b61273b8185612046565b935061274b8185602086016126f3565b61275481611d88565b840191505092915050565b600060408201905081810360008301526127798185612726565b90506127886020830184611f33565b9392505050565b7f486f7573652062616c616e636520697320696e73756666696369656e74000000600082015250565b60006127c5601d83612046565b91506127d08261278f565b602082019050919050565b600060208201905081810360008301526127f4816127b8565b9050919050565b600061280682611d52565b915061281183611d52565b92508282101561282457612823611f5d565b5b828203905092915050565b600061283a82611d52565b915061284583611d52565b92508261285557612854611fe6565b5b828206905092915050565b60006060820190506128756000830186611f33565b6128826020830185611f33565b61288f6040830184611f33565b949350505050565b60008115159050919050565b6128ac81612897565b82525050565b60006020820190506128c760008301846128a3565b92915050565b6000819050919050565b60006128e2826128cd565b91506128ed836128cd565b9250827f80000000000000000000000000000000000000000000000000000000000000000182126000841215161561292857612927611f5d565b5b827f7fffffffffffffffffffffffffffffffffffffffffffffffffffffffffffffff0182136000841216156129605761295f611f5d565b5b828203905092915050565b6000612976826128cd565b91507f80000000000000000000000000000000000000000000000000000000000000008214156129a9576129a8611f5d565b5b816000039050919050565b6000600a9050919050565b600081905092915050565b6000819050919050565b6129dd81611d52565b82525050565b60006129ef83836129d4565b60208301905092915050565b6000602082019050919050565b612a11816129b4565b612a1b81846129bf565b9250612a26826129ca565b8060005b83811015612a57578151612a3e87826129e3565b9650612a49836129fb565b925050600181019050612a2a565b505050505050565b60006101a082019050612a756000830187611f33565b612a826020830186611f33565b612a8f6040830185611f33565b612a9c6060830184612a08565b95945050505050565b60006060820190508181036000830152612abf8186612726565b9050612ace6020830185611f33565b612adb6040830184611f33565b94935050505056fea26469706673582212207fdf30ca10ce2775597276e0c41fffe7a3a64b1eb1eafb10dbfdadd4c39a6e3764736f6c63430008090033",
  "linkReferences": {
    "contracts/libraries/roulette/LibRulette.sol": {
      "LibRulette": [
        {
          "length": 20,
          "start": 2073
        },
        {
          "length": 20,
          "start": 5927
        }
      ]
    }
  },
  "deployedLinkReferences": {
    "contracts/libraries/roulette/LibRulette.sol": {
      "LibRulette": [
        {
          "length": 20,
          "start": 2041
        },
        {
          "length": 20,
          "start": 5895
        }
      ]
    }
  }
}