{
  "_format": "hh-sol-artifact-1",
  "contractName": "RouletteFacet",
  "sourceName": "contracts/RouletteFacet.sol",
  "abi": [
    {
      "inputs": [
        {
          "internalType": "address",
          "name": "have",
          "type": "address"
        },
        {
          "internalType": "address",
          "name": "want",
          "type": "address"
        }
      ],
      "name": "OnlyCoordinatorCanFulfill",
      "type": "error"
    },
    {
      "anonymous": false,
      "inputs": [
        {
          "indexed": false,
          "internalType": "bool",
          "name": "",
          "type": "bool"
        }
      ],
      "name": "RouletteLaunchOfPlayerFound",
      "type": "event"
    },
    {
      "anonymous": false,
      "inputs": [
        {
          "indexed": false,
          "internalType": "uint256",
          "name": "requestId",
          "type": "uint256"
        }
      ],
      "name": "RouletteLaunched",
      "type": "event"
    },
    {
      "anonymous": false,
      "inputs": [
        {
          "indexed": false,
          "internalType": "uint256",
          "name": "requestId",
          "type": "uint256"
        },
        {
          "indexed": false,
          "internalType": "uint256",
          "name": "randomWord",
          "type": "uint256"
        },
        {
          "indexed": false,
          "internalType": "uint256",
          "name": "resultNum",
          "type": "uint256"
        }
      ],
      "name": "RouletteStopped",
      "type": "event"
    },
    {
      "anonymous": false,
      "inputs": [
        {
          "indexed": false,
          "internalType": "uint256",
          "name": "requestId",
          "type": "uint256"
        },
        {
          "indexed": false,
          "internalType": "uint256",
          "name": "randomWord",
          "type": "uint256"
        },
        {
          "indexed": false,
          "internalType": "uint256",
          "name": "resultNum",
          "type": "uint256"
        },
        {
          "indexed": false,
          "internalType": "uint256[10]",
          "name": "winByPosition",
          "type": "uint256[10]"
        }
      ],
      "name": "RouletteStoppedPrizeInfo",
      "type": "event"
    },
    {
      "anonymous": false,
      "inputs": [
        {
          "indexed": false,
          "internalType": "bool",
          "name": "",
          "type": "bool"
        }
      ],
      "name": "RouletteStoppedRequestIdRecognized",
      "type": "event"
    },
    {
      "anonymous": false,
      "inputs": [],
      "name": "RouletteStoppedVRFCallReceived",
      "type": "event"
    },
    {
      "inputs": [],
      "name": "getReqID",
      "outputs": [
        {
          "internalType": "uint256",
          "name": "",
          "type": "uint256"
        }
      ],
      "stateMutability": "view",
      "type": "function"
    },
    {
      "inputs": [],
      "name": "getRnd",
      "outputs": [
        {
          "internalType": "uint256",
          "name": "",
          "type": "uint256"
        }
      ],
      "stateMutability": "view",
      "type": "function"
    },
    {
      "inputs": [
        {
          "components": [
            {
              "internalType": "uint256",
              "name": "amount",
              "type": "uint256"
            },
            {
              "internalType": "uint8",
              "name": "betType",
              "type": "uint8"
            },
            {
              "internalType": "uint8",
              "name": "betDet",
              "type": "uint8"
            }
          ],
          "internalType": "struct BetPointPrm[]",
          "name": "betPoints",
          "type": "tuple[]"
        }
      ],
      "name": "placeBet",
      "outputs": [],
      "stateMutability": "nonpayable",
      "type": "function"
    },
    {
      "inputs": [
        {
          "internalType": "uint256",
          "name": "requestId",
          "type": "uint256"
        },
        {
          "internalType": "uint256[]",
          "name": "randomWords",
          "type": "uint256[]"
        }
      ],
      "name": "rawFulfillRandomWords",
      "outputs": [],
      "stateMutability": "nonpayable",
      "type": "function"
    },
    {
      "inputs": [],
      "name": "requestRandomWords",
      "outputs": [],
      "stateMutability": "nonpayable",
      "type": "function"
    },
    {
      "inputs": [],
      "name": "resetRoulette",
      "outputs": [],
      "stateMutability": "nonpayable",
      "type": "function"
    }
  ],
  "bytecode": "0x608060405234801561001057600080fd5b50612b41806100206000396000f3fe608060405234801561001057600080fd5b50600436106100625760003560e01c80630936bdf9146100675780630a718749146100715780631fe543e31461008d57806345748aee146100a957806384fe382c146100c7578063e0c86289146100e5575b600080fd5b61006f6100ef565b005b61008b60048036038101906100869190611e8f565b6101bd565b005b6100a760048036038101906100a29190612061565b61039b565b005b6100b1610443565b6040516100be91906120cc565b60405180910390f35b6100cf61048f565b6040516100dc91906120cc565b60405180910390f35b6100ed610529565b005b60008060090160000160003373ffffffffffffffffffffffffffffffffffffffff1673ffffffffffffffffffffffffffffffffffffffff16815260200190815260200160002081905550600060070160000160003373ffffffffffffffffffffffffffffffffffffffff1673ffffffffffffffffffffffffffffffffffffffff1681526020019081526020016000206000808201600061018f9190611d52565b6001820160009055600282016000905550506101ae60006002016106f0565b6101bb600080013361072a565b565b6101cc60006007018383610859565b60008060000160000160003373ffffffffffffffffffffffffffffffffffffffff1673ffffffffffffffffffffffffffffffffffffffff16815260200190815260200160002054905060006102208261093b565b90506001811015610266576040517f08c379a000000000000000000000000000000000000000000000000000000000815260040161025d90612144565b60405180910390fd5b60006102728585610965565b905060006102808686610a7d565b9050600061028d8261105d565b90506102ce6040518060400160405280600e81526020017f4c6f636b696e6720746f74616c3a00000000000000000000000000000000000081525082611087565b6102dc600060020182611123565b6102f2600080016102ec8561105d565b336111a4565b60008060070160000160003373ffffffffffffffffffffffffffffffffffffffff1673ffffffffffffffffffffffffffffffffffffffff16815260200190815260200160002090506103458189896112e3565b818160020181905550610356610529565b7f887b2d0e97d4f3ab19562a888ca35d5b3491d3596cc76190631c13cfcb09df87816001015460405161038991906120cc565b60405180910390a15050505050505050565b737a1bac17ccc5b313516c5e16fb24f7659aa5ebed73ffffffffffffffffffffffffffffffffffffffff163373ffffffffffffffffffffffffffffffffffffffff16146104355733737a1bac17ccc5b313516c5e16fb24f7659aa5ebed6040517f1cf993f400000000000000000000000000000000000000000000000000000000815260040161042c9291906121a5565b60405180910390fd5b61043f828261140a565b5050565b60008060090160000160003373ffffffffffffffffffffffffffffffffffffffff1673ffffffffffffffffffffffffffffffffffffffff16815260200190815260200160002054905090565b600080600060090160000160003373ffffffffffffffffffffffffffffffffffffffff1673ffffffffffffffffffffffffffffffffffffffff16815260200190815260200160002054905060008114156104ee5761014d915050610526565b600080600901600101600083815260200190815260200160002054905060008114156105205761014e92505050610526565b80925050505b90565b6000737a1bac17ccc5b313516c5e16fb24f7659aa5ebed73ffffffffffffffffffffffffffffffffffffffff16635d3b1d307f4b09e658ed251bcafeebbc69400383d49f344ace09b9576fe248bb02c003fe9f60001b61088e6003620186a060016040518663ffffffff1660e01b81526004016105aa959493929190612246565b602060405180830381600087803b1580156105c457600080fd5b505af11580156105d8573d6000803e3d6000fd5b505050506040513d601f19601f820116820180604052508101906105fc91906122ae565b905080600060090160000160003373ffffffffffffffffffffffffffffffffffffffff1673ffffffffffffffffffffffffffffffffffffffff16815260200190815260200160002081905550336000600701600101600083815260200190815260200160002060006101000a81548173ffffffffffffffffffffffffffffffffffffffff021916908373ffffffffffffffffffffffffffffffffffffffff16021790555080600060070160000160003373ffffffffffffffffffffffffffffffffffffffff1673ffffffffffffffffffffffffffffffffffffffff1681526020019081526020016000206001018190555050565b600081600101541115610727578060010154816000016000828254610715919061230a565b92505081905550600081600101819055505b50565b60008260010160008373ffffffffffffffffffffffffffffffffffffffff1673ffffffffffffffffffffffffffffffffffffffff168152602001908152602001600020541115610855578160010160008273ffffffffffffffffffffffffffffffffffffffff1673ffffffffffffffffffffffffffffffffffffffff168152602001908152602001600020548260000160008373ffffffffffffffffffffffffffffffffffffffff1673ffffffffffffffffffffffffffffffffffffffff1681526020019081526020016000206000828254610806919061230a565b9250508190555060008260010160008373ffffffffffffffffffffffffffffffffffffffff1673ffffffffffffffffffffffffffffffffffffffff168152602001908152602001600020819055505b5050565b6000828290501180156108705750600a8282905011155b6108af576040517f08c379a00000000000000000000000000000000000000000000000000000000081526004016108a6906123ac565b60405180910390fd5b60008360000160003373ffffffffffffffffffffffffffffffffffffffff1673ffffffffffffffffffffffffffffffffffffffff1681526020019081526020016000206001015414610936576040517f08c379a000000000000000000000000000000000000000000000000000000000815260040161092d9061243e565b60405180910390fd5b505050565b6000670de0b6b3a76400006103e883610954919061245e565b61095e91906124e7565b9050919050565b6000805b83839050811015610a76573684848381811061098857610987612518565b5b90506060020190508060000135836109a0919061230a565b925073__$8f978581c91560e6666447aae607650362$__633935e4238260200160208101906109cf9190612580565b8360400160208101906109e29190612580565b8460400160208101906109f59190612580565b6040518463ffffffff1660e01b8152600401610a13939291906125bc565b60206040518083038186803b158015610a2b57600080fd5b505af4158015610a3f573d6000803e3d6000fd5b505050506040513d601f19601f82011682018060405250810190610a639190612608565b505080610a6f90612635565b9050610969565b5092915050565b600080604051806101c00160405280600060ff168152602001602360ff168152602001601160ff168152602001600b60ff168152602001600860ff168152602001600660ff168152602001600560ff168152602001600260ff168152602001600260ff168152602001600160ff168152602001600160ff168152602001600160ff168152602001600160ff168152602001601160ff1681525090506000600e67ffffffffffffffff811115610b3557610b34611f23565b5b604051908082528060200260200182016040528015610b635781602001602082028036833780820191505090505b509050600085859050905060005b81811015610fe55736878783818110610b8d57610b8c612518565b5b90506060020190506103e881600001351115610bde576040517f08c379a0000000000000000000000000000000000000000000000000000000008152600401610bd5906126f0565b60405180910390fd5b6000816020016020810190610bf39190612580565b905060018160ff161415610c4f57610c2a85600181518110610c1857610c17612518565b5b60200260200101518360000135611af9565b85600181518110610c3e57610c3d612518565b5b602002602001018181525050610fd2565b60028160ff161415610c9457816000013585600281518110610c7457610c73612518565b5b60200260200101818151610c88919061230a565b91508181525050610fd1565b60038160ff161415610cee57610cc985600381518110610cb757610cb6612518565b5b60200260200101518360000135611af9565b85600381518110610cdd57610cdc612518565b5b602002602001018181525050610fd0565b60048160ff161415610d3357816000013585600481518110610d1357610d12612518565b5b60200260200101818151610d27919061230a565b91508181525050610fcf565b60058160ff161415610d7857816000013585600581518110610d5857610d57612518565b5b60200260200101818151610d6c919061230a565b91508181525050610fce565b60068160ff161415610dbd57816000013585600681518110610d9d57610d9c612518565b5b60200260200101818151610db1919061230a565b91508181525050610fcd565b60078160ff161415610e1757610df285600781518110610de057610ddf612518565b5b60200260200101518360000135611af9565b85600781518110610e0657610e05612518565b5b602002602001018181525050610fcc565b60088160ff161415610e7157610e4c85600881518110610e3a57610e39612518565b5b60200260200101518360000135611af9565b85600881518110610e6057610e5f612518565b5b602002602001018181525050610fcb565b60098160ff161415610eb657816000013585600981518110610e9657610e95612518565b5b60200260200101818151610eaa919061230a565b91508181525050610fca565b600a8160ff161415610efb57816000013585600a81518110610edb57610eda612518565b5b60200260200101818151610eef919061230a565b91508181525050610fc9565b600b8160ff161415610f4057816000013585600b81518110610f2057610f1f612518565b5b60200260200101818151610f34919061230a565b91508181525050610fc8565b600c8160ff161415610f8557816000013585600c81518110610f6557610f64612518565b5b60200260200101818151610f79919061230a565b91508181525050610fc7565b600c8160ff161415610fc657816000013585600c81518110610faa57610fa9612518565b5b60200260200101818151610fbe919061230a565b915081815250505b5b5b5b5b5b5b5b5b5b5b5b5b505080610fde90612635565b9050610b71565b506000600190505b600d8111611053578381600e811061100857611007612518565b5b602002015160ff1683828151811061102357611022612518565b5b6020026020010151611035919061245e565b85611040919061230a565b94508061104c90612635565b9050610fed565b5050505092915050565b60006103e8670de0b6b3a764000083611076919061245e565b61108091906124e7565b9050919050565b61111f828260405160240161109d929190612787565b6040516020818303038152906040527fb60e72cc000000000000000000000000000000000000000000000000000000007bffffffffffffffffffffffffffffffffffffffffffffffffffffffff19166020820180517bffffffffffffffffffffffffffffffffffffffffffffffffffffffff8381831617835250505050611b13565b5050565b808260000154101561116a576040517f08c379a000000000000000000000000000000000000000000000000000000000815260040161116190612803565b60405180910390fd5b8082600001600082825461117e9190612823565b9250508190555080826001016000828254611199919061230a565b925050819055505050565b60008360000160008373ffffffffffffffffffffffffffffffffffffffff1673ffffffffffffffffffffffffffffffffffffffff1681526020019081526020016000205490508281101561122d576040517f08c379a000000000000000000000000000000000000000000000000000000000815260040161122490612144565b60405180910390fd5b828460010160008473ffffffffffffffffffffffffffffffffffffffff1673ffffffffffffffffffffffffffffffffffffffff168152602001908152602001600020600082825461127e919061230a565b92505081905550828460000160008473ffffffffffffffffffffffffffffffffffffffff1673ffffffffffffffffffffffffffffffffffffffff16815260200190815260200160002060008282546112d69190612823565b9250508190555050505050565b60005b82829050811015611404573683838381811061130557611304612518565b5b9050606002019050611315611d76565b81600001358160000181815250508160400160208101906113369190612580565b816040019060ff16908160ff168152505081602001602081019061135a9190612580565b816020019060ff16908160ff1681525050856000018190806001815401808255809150506001900390600052602060002090600302016000909190919091506000820151816000015560208201518160010160006101000a81548160ff021916908360ff16021790555060408201518160010160016101000a81548160ff021916908360ff1602179055506060820151816002015550505050806113fd90612635565b90506112e6565b50505050565b8060008151811061141e5761141d612518565b5b6020026020010151600060090160010160008481526020019081526020016000208190555061149e6040518060400160405280601281526020017f66756c66696c6c52616e646f6d576f7264730000000000000000000000000000815250838360008151811061149157611490612518565b5b6020026020010151611b3c565b7fc48d2d1748b2821a893b7befc23c0d3d5ff0cb9fdce850ceac00fabfa006da7960405160405180910390a1600060016026836000815181106114e4576114e3612518565b5b60200260200101516114f69190612857565b611500919061230a565b905060008190507f2ed2b3b354a7ae8bd419c4cfa7a0aef256e89ba340aa7e00a6dbee5f2f010878848460008151811061153d5761153c612518565b5b60200260200101518460405161155593929190612888565b60405180910390a1600080600701600101600086815260200190815260200160002060009054906101000a900473ffffffffffffffffffffffffffffffffffffffff169050600073ffffffffffffffffffffffffffffffffffffffff168173ffffffffffffffffffffffffffffffffffffffff16141561160f577f412fdfca1794c4516d51034490f02b3616c75acf5d768ee0f69afc2a069cb15260006040516115ff91906128da565b60405180910390a1505050611af5565b6000600701600101600086815260200190815260200160002060006101000a81549073ffffffffffffffffffffffffffffffffffffffff02191690557f412fdfca1794c4516d51034490f02b3616c75acf5d768ee0f69afc2a069cb152600160405161167b91906128da565b60405180910390a160008060070160000160008373ffffffffffffffffffffffffffffffffffffffff1673ffffffffffffffffffffffffffffffffffffffff16815260200190815260200160002060405180606001604052908160008201805480602002602001604051908101604052809291908181526020016000905b828210156117795783829060005260206000209060030201604051806080016040529081600082015481526020016001820160009054906101000a900460ff1660ff1660ff1681526020016001820160019054906101000a900460ff1660ff1660ff168152602001600282015481525050815260200190600101906116f9565b50505050815260200160018201548152602001600282015481525050905060008060070160000160008473ffffffffffffffffffffffffffffffffffffffff1673ffffffffffffffffffffffffffffffffffffffff16815260200190815260200160002060010181905550600060070160000160008373ffffffffffffffffffffffffffffffffffffffff1673ffffffffffffffffffffffffffffffffffffffff1681526020019081526020016000206000808201600061183a9190611d52565b60018201600090556002820160009055505060008060008360000151519050611861611da4565b60005b828110156119a25760008660000151828151811061188557611884612518565b5b6020026020010151905080600001518661189f919061230a565b9550600073__$8f978581c91560e6666447aae607650362$__633935e423836020015184604001518d6040518463ffffffff1660e01b81526004016118e6939291906125bc565b60206040518083038186803b1580156118fe57600080fd5b505af4158015611912573d6000803e3d6000fd5b505050506040513d601f19601f820116820180604052508101906119369190612608565b60ff169050600081111561198f576000818360000151611956919061245e565b90508087611964919061230a565b965080836060018181525050808585600a811061198457611983612518565b5b602002018181525050505b50508061199b90612635565b9050611864565b506119b560006002018660400151611bdb565b6119cb600080016119c58661105d565b88611c15565b60008490506000841115611a4b576119e28461105d565b6000800160000160008973ffffffffffffffffffffffffffffffffffffffff1673ffffffffffffffffffffffffffffffffffffffff1681526020019081526020016000206000828254611a35919061230a565b925050819055508381611a4891906128ff565b90505b6000811215611a7557611a706000611a6b83611a6690612993565b61105d565b611c72565b611a93565b6000811315611a9257611a916000611a8c8361105d565b611ce5565b5b5b7fae30dbbe54c9bdd5a7d9ada12e5bdf2666243e7a15e840e99d4360300988d5fa8b8b600081518110611ac957611ac8612518565b5b60200260200101518b85604051611ae39493929190612a87565b60405180910390a15050505050505050505b5050565b600081831015611b095781611b0b565b825b905092915050565b60008151905060006a636f6e736f6c652e6c6f679050602083016000808483855afa5050505050565b611bd6838383604051602401611b5493929190612acd565b6040516020818303038152906040527fca47c4eb000000000000000000000000000000000000000000000000000000007bffffffffffffffffffffffffffffffffffffffffffffffffffffffff19166020820180517bffffffffffffffffffffffffffffffffffffffffffffffffffffffff8381831617835250505050611b13565b505050565b80826000016000828254611bef919061230a565b9250508190555080826001016000828254611c0a9190612823565b925050819055505050565b818360010160008373ffffffffffffffffffffffffffffffffffffffff1673ffffffffffffffffffffffffffffffffffffffff1681526020019081526020016000206000828254611c669190612823565b92505081905550505050565b60006003905060006127108383611c89919061245e565b611c9391906124e7565b90508084600b016000828254611ca9919061230a565b9250508190555060008184611cbe919061230a565b905080856002016000016000828254611cd79190612823565b925050819055505050505050565b6000601a905060006127108383611cfc919061245e565b611d0691906124e7565b90508084600b016000828254611d1c919061230a565b925050819055508083611d2f9190612823565b846002016000016000828254611d45919061230a565b9250508190555050505050565b5080546000825560030290600052602060002090810190611d739190611dc7565b50565b604051806080016040528060008152602001600060ff168152602001600060ff168152602001600081525090565b604051806101400160405280600a90602082028036833780820191505090505090565b5b80821115611e12576000808201600090556001820160006101000a81549060ff02191690556001820160016101000a81549060ff0219169055600282016000905550600301611dc8565b5090565b6000604051905090565b600080fd5b600080fd5b600080fd5b600080fd5b600080fd5b60008083601f840112611e4f57611e4e611e2a565b5b8235905067ffffffffffffffff811115611e6c57611e6b611e2f565b5b602083019150836060820283011115611e8857611e87611e34565b5b9250929050565b60008060208385031215611ea657611ea5611e20565b5b600083013567ffffffffffffffff811115611ec457611ec3611e25565b5b611ed085828601611e39565b92509250509250929050565b6000819050919050565b611eef81611edc565b8114611efa57600080fd5b50565b600081359050611f0c81611ee6565b92915050565b6000601f19601f8301169050919050565b7f4e487b7100000000000000000000000000000000000000000000000000000000600052604160045260246000fd5b611f5b82611f12565b810181811067ffffffffffffffff82111715611f7a57611f79611f23565b5b80604052505050565b6000611f8d611e16565b9050611f998282611f52565b919050565b600067ffffffffffffffff821115611fb957611fb8611f23565b5b602082029050602081019050919050565b6000611fdd611fd884611f9e565b611f83565b9050808382526020820190506020840283018581111561200057611fff611e34565b5b835b8181101561202957806120158882611efd565b845260208401935050602081019050612002565b5050509392505050565b600082601f83011261204857612047611e2a565b5b8135612058848260208601611fca565b91505092915050565b6000806040838503121561207857612077611e20565b5b600061208685828601611efd565b925050602083013567ffffffffffffffff8111156120a7576120a6611e25565b5b6120b385828601612033565b9150509250929050565b6120c681611edc565b82525050565b60006020820190506120e160008301846120bd565b92915050565b600082825260208201905092915050565b7f42616c616e636520697320696e73756666696369656e74000000000000000000600082015250565b600061212e6017836120e7565b9150612139826120f8565b602082019050919050565b6000602082019050818103600083015261215d81612121565b9050919050565b600073ffffffffffffffffffffffffffffffffffffffff82169050919050565b600061218f82612164565b9050919050565b61219f81612184565b82525050565b60006040820190506121ba6000830185612196565b6121c76020830184612196565b9392505050565b6000819050919050565b6121e1816121ce565b82525050565b600067ffffffffffffffff82169050919050565b612204816121e7565b82525050565b600061ffff82169050919050565b6122218161220a565b82525050565b600063ffffffff82169050919050565b61224081612227565b82525050565b600060a08201905061225b60008301886121d8565b61226860208301876121fb565b6122756040830186612218565b6122826060830185612237565b61228f6080830184612237565b9695505050505050565b6000815190506122a881611ee6565b92915050565b6000602082840312156122c4576122c3611e20565b5b60006122d284828501612299565b91505092915050565b7f4e487b7100000000000000000000000000000000000000000000000000000000600052601160045260246000fd5b600061231582611edc565b915061232083611edc565b9250827fffffffffffffffffffffffffffffffffffffffffffffffffffffffffffffffff03821115612355576123546122db565b5b828201905092915050565b7f546f6f206d616e79206265747300000000000000000000000000000000000000600082015250565b6000612396600d836120e7565b91506123a182612360565b602082019050919050565b600060208201905081810360008301526123c581612389565b9050919050565b7f526f756c65747465206973206c61756e636865642e204e6f206d6f726520626560008201527f74732e0000000000000000000000000000000000000000000000000000000000602082015250565b60006124286023836120e7565b9150612433826123cc565b604082019050919050565b600060208201905081810360008301526124578161241b565b9050919050565b600061246982611edc565b915061247483611edc565b9250817fffffffffffffffffffffffffffffffffffffffffffffffffffffffffffffffff04831182151516156124ad576124ac6122db565b5b828202905092915050565b7f4e487b7100000000000000000000000000000000000000000000000000000000600052601260045260246000fd5b60006124f282611edc565b91506124fd83611edc565b92508261250d5761250c6124b8565b5b828204905092915050565b7f4e487b7100000000000000000000000000000000000000000000000000000000600052603260045260246000fd5b600060ff82169050919050565b61255d81612547565b811461256857600080fd5b50565b60008135905061257a81612554565b92915050565b60006020828403121561259657612595611e20565b5b60006125a48482850161256b565b91505092915050565b6125b681612547565b82525050565b60006060820190506125d160008301866125ad565b6125de60208301856125ad565b6125eb60408301846125ad565b949350505050565b60008151905061260281612554565b92915050565b60006020828403121561261e5761261d611e20565b5b600061262c848285016125f3565b91505092915050565b600061264082611edc565b91507fffffffffffffffffffffffffffffffffffffffffffffffffffffffffffffffff821415612673576126726122db565b5b600182019050919050565b7f426574206f6e2073696e676c6520706f736974696f6e2065786365656473203160008201527f3030300000000000000000000000000000000000000000000000000000000000602082015250565b60006126da6023836120e7565b91506126e58261267e565b604082019050919050565b60006020820190508181036000830152612709816126cd565b9050919050565b600081519050919050565b60005b8381101561273957808201518184015260208101905061271e565b83811115612748576000848401525b50505050565b600061275982612710565b61276381856120e7565b935061277381856020860161271b565b61277c81611f12565b840191505092915050565b600060408201905081810360008301526127a1818561274e565b90506127b060208301846120bd565b9392505050565b7f486f7573652062616c616e636520697320696e73756666696369656e74000000600082015250565b60006127ed601d836120e7565b91506127f8826127b7565b602082019050919050565b6000602082019050818103600083015261281c816127e0565b9050919050565b600061282e82611edc565b915061283983611edc565b92508282101561284c5761284b6122db565b5b828203905092915050565b600061286282611edc565b915061286d83611edc565b92508261287d5761287c6124b8565b5b828206905092915050565b600060608201905061289d60008301866120bd565b6128aa60208301856120bd565b6128b760408301846120bd565b949350505050565b60008115159050919050565b6128d4816128bf565b82525050565b60006020820190506128ef60008301846128cb565b92915050565b6000819050919050565b600061290a826128f5565b9150612915836128f5565b9250827f8000000000000000000000000000000000000000000000000000000000000000018212600084121516156129505761294f6122db565b5b827f7fffffffffffffffffffffffffffffffffffffffffffffffffffffffffffffff018213600084121615612988576129876122db565b5b828203905092915050565b600061299e826128f5565b91507f80000000000000000000000000000000000000000000000000000000000000008214156129d1576129d06122db565b5b816000039050919050565b6000600a9050919050565b600081905092915050565b6000819050919050565b612a0581611edc565b82525050565b6000612a1783836129fc565b60208301905092915050565b6000602082019050919050565b612a39816129dc565b612a4381846129e7565b9250612a4e826129f2565b8060005b83811015612a7f578151612a668782612a0b565b9650612a7183612a23565b925050600181019050612a52565b505050505050565b60006101a082019050612a9d60008301876120bd565b612aaa60208301866120bd565b612ab760408301856120bd565b612ac46060830184612a30565b95945050505050565b60006060820190508181036000830152612ae7818661274e565b9050612af660208301856120bd565b612b0360408301846120bd565b94935050505056fea26469706673582212202f428e25c4e17047a8d5afb6ba241bad2c2ce2054e991896380851652ecc47d864736f6c63430008090033",
  "linkReferences": {
    "contracts/libraries/roulette/LibRulette.sol": {
      "LibRulette": [
        {
          "length": 20,
          "start": 2500
        },
        {
          "length": 20,
          "start": 6341
        }
      ]
    }
  },
  "deployedLinkReferences": {
    "contracts/libraries/roulette/LibRulette.sol": {
      "LibRulette": [
        {
          "length": 20,
          "start": 2468
        },
        {
          "length": 20,
          "start": 6309
        }
      ]
    }
  }
}