{
  "_format": "hh-sol-artifact-1",
  "contractName": "RouletteFacet",
  "sourceName": "contracts/RouletteFacet.sol",
  "abi": [
    {
      "inputs": [
        {
          "internalType": "address",
          "name": "have",
          "type": "address"
        },
        {
          "internalType": "address",
          "name": "want",
          "type": "address"
        }
      ],
      "name": "OnlyCoordinatorCanFulfill",
      "type": "error"
    },
    {
      "anonymous": false,
      "inputs": [],
      "name": "RouletteLaunchOfPlayerFound",
      "type": "event"
    },
    {
      "anonymous": false,
      "inputs": [],
      "name": "RouletteLaunchOfPlayerNotFound",
      "type": "event"
    },
    {
      "anonymous": false,
      "inputs": [
        {
          "indexed": false,
          "internalType": "uint256",
          "name": "requestId",
          "type": "uint256"
        }
      ],
      "name": "RouletteLaunched",
      "type": "event"
    },
    {
      "anonymous": false,
      "inputs": [
        {
          "indexed": false,
          "internalType": "uint256",
          "name": "requestId",
          "type": "uint256"
        },
        {
          "indexed": false,
          "internalType": "uint256",
          "name": "randomWord",
          "type": "uint256"
        },
        {
          "indexed": false,
          "internalType": "uint256",
          "name": "resultNum",
          "type": "uint256"
        }
      ],
      "name": "RouletteStopped",
      "type": "event"
    },
    {
      "anonymous": false,
      "inputs": [
        {
          "indexed": false,
          "internalType": "uint256",
          "name": "requestId",
          "type": "uint256"
        },
        {
          "indexed": false,
          "internalType": "uint256",
          "name": "randomWord",
          "type": "uint256"
        },
        {
          "indexed": false,
          "internalType": "uint256",
          "name": "resultNum",
          "type": "uint256"
        },
        {
          "indexed": false,
          "internalType": "uint256[10]",
          "name": "winByPosition",
          "type": "uint256[10]"
        }
      ],
      "name": "RouletteStoppedPrizeInfo",
      "type": "event"
    },
    {
      "anonymous": false,
      "inputs": [],
      "name": "RouletteStoppedRequestIdNotRecognized",
      "type": "event"
    },
    {
      "anonymous": false,
      "inputs": [],
      "name": "RouletteStoppedRequestIdRecognized",
      "type": "event"
    },
    {
      "anonymous": false,
      "inputs": [],
      "name": "RouletteStoppedVRFCallReceived",
      "type": "event"
    },
    {
      "inputs": [],
      "name": "getLog",
      "outputs": [
        {
          "internalType": "uint256[]",
          "name": "content",
          "type": "uint256[]"
        }
      ],
      "stateMutability": "view",
      "type": "function"
    },
    {
      "inputs": [],
      "name": "getLogCount",
      "outputs": [
        {
          "internalType": "uint256",
          "name": "",
          "type": "uint256"
        }
      ],
      "stateMutability": "view",
      "type": "function"
    },
    {
      "inputs": [],
      "name": "getReqID",
      "outputs": [
        {
          "internalType": "uint256",
          "name": "",
          "type": "uint256"
        }
      ],
      "stateMutability": "view",
      "type": "function"
    },
    {
      "inputs": [],
      "name": "getRnd",
      "outputs": [
        {
          "internalType": "uint256",
          "name": "",
          "type": "uint256"
        }
      ],
      "stateMutability": "view",
      "type": "function"
    },
    {
      "inputs": [
        {
          "components": [
            {
              "internalType": "uint256",
              "name": "amount",
              "type": "uint256"
            },
            {
              "internalType": "uint8",
              "name": "betType",
              "type": "uint8"
            },
            {
              "internalType": "uint8",
              "name": "betDet",
              "type": "uint8"
            }
          ],
          "internalType": "struct BetPointPrm[]",
          "name": "betPoints",
          "type": "tuple[]"
        },
        {
          "internalType": "uint256",
          "name": "s_requestId",
          "type": "uint256"
        }
      ],
      "name": "placeBet",
      "outputs": [],
      "stateMutability": "nonpayable",
      "type": "function"
    },
    {
      "inputs": [
        {
          "internalType": "uint256",
          "name": "requestId",
          "type": "uint256"
        },
        {
          "internalType": "uint256[]",
          "name": "randomWords",
          "type": "uint256[]"
        }
      ],
      "name": "rawFulfillRandomWords",
      "outputs": [],
      "stateMutability": "nonpayable",
      "type": "function"
    },
    {
      "inputs": [],
      "name": "resetRoulette",
      "outputs": [],
      "stateMutability": "nonpayable",
      "type": "function"
    },
    {
      "inputs": [],
      "name": "restAll",
      "outputs": [],
      "stateMutability": "nonpayable",
      "type": "function"
    },
    {
      "inputs": [
        {
          "internalType": "uint256",
          "name": "requestId",
          "type": "uint256"
        },
        {
          "internalType": "uint256[]",
          "name": "randomWords",
          "type": "uint256[]"
        }
      ],
      "name": "testFulfillRandomWords",
      "outputs": [],
      "stateMutability": "nonpayable",
      "type": "function"
    },
    {
      "inputs": [],
      "name": "testGetAmounts",
      "outputs": [
        {
          "internalType": "uint256",
          "name": "houseLocked",
          "type": "uint256"
        },
        {
          "internalType": "uint256",
          "name": "playerLocked",
          "type": "uint256"
        },
        {
          "internalType": "uint256",
          "name": "requestId",
          "type": "uint256"
        },
        {
          "internalType": "uint256",
          "name": "playerBalance",
          "type": "uint256"
        },
        {
          "internalType": "uint256",
          "name": "stakerPercent",
          "type": "uint256"
        },
        {
          "internalType": "uint256",
          "name": "houseBalance",
          "type": "uint256"
        },
        {
          "internalType": "uint256",
          "name": "platformBalance",
          "type": "uint256"
        }
      ],
      "stateMutability": "view",
      "type": "function"
    }
  ],
  "bytecode": "0x608060405234801561001057600080fd5b50613736806100206000396000f3fe608060405234801561001057600080fd5b506004361061009e5760003560e01c8063618033db11610066578063618033db14610127578063691db5ce1461014557806384fe382c1461014f578063909e4ab61461016d578063a3be3d5d1461018b5761009e565b806302c4d72b146100a35780630936bdf9146100bf5780631fe543e3146100c95780632fcd1bef146100e557806345748aee14610109575b600080fd5b6100bd60048036038101906100b89190612a80565b6101a7565b005b6100c76101b5565b005b6100e360048036038101906100de9190612a80565b6102cc565b005b6100ed610374565b6040516101009796959493929190612aeb565b60405180910390f35b6101116104c6565b60405161011e9190612b5a565b60405180910390f35b61012f610512565b60405161013c9190612b5a565b60405180910390f35b61014d610521565b005b6101576105d2565b6040516101649190612b5a565b60405180910390f35b61017561066c565b6040516101829190612c33565b60405180910390f35b6101a560048036038101906101a09190612cb0565b6106c7565b005b6101b182826108c0565b5050565b60008060090160000160003373ffffffffffffffffffffffffffffffffffffffff1673ffffffffffffffffffffffffffffffffffffffff16815260200190815260200160002081905550600060090160000160003373ffffffffffffffffffffffffffffffffffffffff1673ffffffffffffffffffffffffffffffffffffffff16815260200190815260200160002060009055600060070160000160003373ffffffffffffffffffffffffffffffffffffffff1673ffffffffffffffffffffffffffffffffffffffff1681526020019081526020016000206000808201600061029e91906127ba565b6001820160009055600282016000905550506102bd60006002016114a2565b6102ca60008001336114dc565b565b737a1bac17ccc5b313516c5e16fb24f7659aa5ebed73ffffffffffffffffffffffffffffffffffffffff163373ffffffffffffffffffffffffffffffffffffffff16146103665733737a1bac17ccc5b313516c5e16fb24f7659aa5ebed6040517f1cf993f400000000000000000000000000000000000000000000000000000000815260040161035d929190612d51565b60405180910390fd5b61037082826108c0565b5050565b600080600080600080600080600201600101546000800160010160003373ffffffffffffffffffffffffffffffffffffffff1673ffffffffffffffffffffffffffffffffffffffff16815260200190815260200160002054600060070160000160003373ffffffffffffffffffffffffffffffffffffffff1673ffffffffffffffffffffffffffffffffffffffff168152602001908152602001600020600101546000800160000160003373ffffffffffffffffffffffffffffffffffffffff1673ffffffffffffffffffffffffffffffffffffffff16815260200190815260200160002054600060020160020160003373ffffffffffffffffffffffffffffffffffffffff1673ffffffffffffffffffffffffffffffffffffffff168152602001908152602001600020546000600201600001546000600b0154965096509650965096509650965090919293949596565b60008060090160000160003373ffffffffffffffffffffffffffffffffffffffff1673ffffffffffffffffffffffffffffffffffffffff16815260200190815260200160002054905090565b600080600d0180549050905090565b60008060028201600080820160009055600182016000905560048201600061054991906127de565b5050600b820160009055600c820160006101000a81549060ff0219169055600d8201600061057791906127ff565b50506000600201600080820160009055600182016000905560048201600061059f91906127de565b50506000600b01600090556000600c0160006101000a81549060ff02191690556000600d0160006105d091906127ff565b565b600080600060090160000160003373ffffffffffffffffffffffffffffffffffffffff1673ffffffffffffffffffffffffffffffffffffffff16815260200190815260200160002054905060008114156106315761014d915050610669565b600080600901600101600083815260200190815260200160002054905060008114156106635761014e92505050610669565b80925050505b90565b60606000600d018054806020026020016040519081016040528092919081815260200182805480156106bd57602002820191906000526020600020905b8154815260200190600101908083116106a9575b5050505050905090565b6000600d0160006106d891906127ff565b6106e06101b5565b6106ef6000600701848461160b565b60008060000160000160003373ffffffffffffffffffffffffffffffffffffffff1673ffffffffffffffffffffffffffffffffffffffff1681526020019081526020016000205490506000610743826116ed565b90506001811015610789576040517f08c379a000000000000000000000000000000000000000000000000000000000815260040161078090612dd7565b60405180910390fd5b60006107958686611717565b905060006107a3878761182f565b905060006107b082611e0f565b90506107f16040518060400160405280600e81526020017f4c6f636b696e6720746f74616c3a00000000000000000000000000000000000081525082611e39565b6107ff600060020182611ed5565b6108156000800161080f85611e0f565b33611f56565b60008060070160000160003373ffffffffffffffffffffffffffffffffffffffff1673ffffffffffffffffffffffffffffffffffffffff1681526020019081526020016000209050610868818a8a612095565b81816002018190555061087a876121bc565b7f887b2d0e97d4f3ab19562a888ca35d5b3491d3596cc76190631c13cfcb09df8781600101546040516108ad9190612b5a565b60405180910390a1505050505050505050565b6000600d016103eb90806001815401808255809150506001900390600052602060002001600090919091909150556000600d018290806001815401808255809150506001900390600052602060002001600090919091909150556109756040518060400160405280601281526020017f66756c66696c6c52616e646f6d576f7264730000000000000000000000000000815250838360008151811061096857610967612df7565b5b60200260200101516123e5565b7fc48d2d1748b2821a893b7befc23c0d3d5ff0cb9fdce850ceac00fabfa006da7960405160405180910390a1600060016026836000815181106109bb576109ba612df7565b5b60200260200101516109cd9190612e55565b6109d79190612eb5565b905060008190507f2ed2b3b354a7ae8bd419c4cfa7a0aef256e89ba340aa7e00a6dbee5f2f0108788484600081518110610a1457610a13612df7565b5b602002602001015184604051610a2c93929190612f0b565b60405180910390a1600080600701600101600086815260200190815260200160002060009054906101000a900473ffffffffffffffffffffffffffffffffffffffff1690506000600d016103ec90806001815401808255809150506001900390600052602060002001600090919091909150556000600d018173ffffffffffffffffffffffffffffffffffffffff169080600181540180825580915050600190039060005260206000200160009091909190915055600073ffffffffffffffffffffffffffffffffffffffff168173ffffffffffffffffffffffffffffffffffffffff161415610b78576000600d016103ee90806001815401808255809150506001900390600052602060002001600090919091909150557f91b33ed809ae17e795a2e03f1d39bd1ca8f4f282ac4b97ed031f04a23f7ef20460405160405180910390a150505061149e565b6000600d016103ef90806001815401808255809150506001900390600052602060002001600090919091909150556000600701600101600086815260200190815260200160002060006101000a81549073ffffffffffffffffffffffffffffffffffffffff02191690557fa6ea449d0f957c3ae9f63e2cbc3a87c2d910a45aa9d4526945ee5219bf3737bc60405160405180910390a160008060070160000160008373ffffffffffffffffffffffffffffffffffffffff1673ffffffffffffffffffffffffffffffffffffffff16815260200190815260200160002060405180606001604052908160008201805480602002602001604051908101604052809291908181526020016000905b82821015610d045783829060005260206000209060030201604051806080016040529081600082015481526020016001820160009054906101000a900460ff1660ff1660ff1681526020016001820160019054906101000a900460ff1660ff1660ff16815260200160028201548152505081526020019060010190610c84565b5050505081526020016001820154815260200160028201548152505090506000600d016103f0908060018154018082558091505060019003906000526020600020016000909190919091505585816020015114610dee576000600d016103f190806001815401808255809150506001900390600052602060002001600090919091909150556000600d01816020015190806001815401808255809150506001900390600052602060002001600090919091909150557fc0148cca8fbf3edb5495f54cceb4ca5a51a53e83a6c19074660257b3b1015a2e60405160405180910390a15050505061149e565b6000600d016103f290806001815401808255809150506001900390600052602060002001600090919091909150557f7f9b349a24fce912d4fd1cb660332e6612762a023dea5fa111c385497e84494160405160405180910390a160008060070160000160008473ffffffffffffffffffffffffffffffffffffffff1673ffffffffffffffffffffffffffffffffffffffff1681526020019081526020016000206001018190555084600081518110610ea957610ea8612df7565b5b60200260200101516000600901600101600088815260200190815260200160002081905550600060070160000160008373ffffffffffffffffffffffffffffffffffffffff1673ffffffffffffffffffffffffffffffffffffffff16815260200190815260200160002060008082016000610f2491906127ba565b60018201600090556002820160009055505060008060008360000151519050610f4b612820565b6000600d016103f3908060018154018082558091505060019003906000526020600020016000909190919091505560005b828110156110ba57600086600001518281518110610f9d57610f9c612df7565b5b60200260200101519050806000015186610fb79190612eb5565b9550600073__$8f978581c91560e6666447aae607650362$__633935e423836020015184604001518d6040518463ffffffff1660e01b8152600401610ffe93929190612f5e565b60206040518083038186803b15801561101657600080fd5b505af415801561102a573d6000803e3d6000fd5b505050506040513d601f19601f8201168201806040525081019061104e9190612fc1565b60ff16905060008111156110a757600081836000015161106e9190612fee565b9050808761107c9190612eb5565b965080836060018181525050808585600a811061109c5761109b612df7565b5b602002018181525050505b5050806110b390613048565b9050610f7c565b506000600d016103f490806001815401808255809150506001900390600052602060002001600090919091909150556110fb60006002018660400151612484565b6111116000800161110b86611e0f565b886124be565b6000600d016103f59080600181540180825580915050600190039060005260206000200160009091909190915055600084905060008411156112f4576000600d016103f690806001815401808255809150506001900390600052602060002001600090919091909150556111ff6040518060400160405280600b81526020017f506c617965722077696e73000000000000000000000000000000000000000000815250856000800160000160008b73ffffffffffffffffffffffffffffffffffffffff1673ffffffffffffffffffffffffffffffffffffffff168152602001908152602001600020546123e5565b61120884611e0f565b6000800160000160008973ffffffffffffffffffffffffffffffffffffffff1673ffffffffffffffffffffffffffffffffffffffff168152602001908152602001600020600082825461125b9190612eb5565b925050819055506112e56040518060400160405280600f81526020017f557064617465642062616c616e636500000000000000000000000000000000008152506000800160000160008a73ffffffffffffffffffffffffffffffffffffffff1673ffffffffffffffffffffffffffffffffffffffff16815260200190815260200160002054611e39565b83816112f1919061309b565b90505b6000600d016103f7908060018154018082558091505060019003906000526020600020016000909190919091505560008112156113c2576000600d016103f890806001815401808255809150506001900390600052602060002001600090919091909150556113a16040518060400160405280600c81526020017f70617944696666436869707300000000000000000000000000000000000000008152508261139c9061312f565b611e39565b6113bd60006113b8836113b39061312f565b611e0f565b61251b565b61140e565b600081131561140d576000600d016103f9908060018154018082558091505060019003906000526020600020016000909190919091505561140c600061140783611e0f565b61262e565b5b5b7fae30dbbe54c9bdd5a7d9ada12e5bdf2666243e7a15e840e99d4360300988d5fa8b8b60008151811061144457611443612df7565b5b60200260200101518b8560405161145e94939291906131fc565b60405180910390a16000600d016103fa90806001815401808255809150506001900390600052602060002001600090919091909150555050505050505050505b5050565b6000816001015411156114d95780600101548160000160008282546114c79190612eb5565b92505081905550600081600101819055505b50565b60008260010160008373ffffffffffffffffffffffffffffffffffffffff1673ffffffffffffffffffffffffffffffffffffffff168152602001908152602001600020541115611607578160010160008273ffffffffffffffffffffffffffffffffffffffff1673ffffffffffffffffffffffffffffffffffffffff168152602001908152602001600020548260000160008373ffffffffffffffffffffffffffffffffffffffff1673ffffffffffffffffffffffffffffffffffffffff16815260200190815260200160002060008282546115b89190612eb5565b9250508190555060008260010160008373ffffffffffffffffffffffffffffffffffffffff1673ffffffffffffffffffffffffffffffffffffffff168152602001908152602001600020819055505b5050565b6000828290501180156116225750600a8282905011155b611661576040517f08c379a00000000000000000000000000000000000000000000000000000000081526004016116589061328e565b60405180910390fd5b60008360000160003373ffffffffffffffffffffffffffffffffffffffff1673ffffffffffffffffffffffffffffffffffffffff16815260200190815260200160002060010154146116e8576040517f08c379a00000000000000000000000000000000000000000000000000000000081526004016116df90613320565b60405180910390fd5b505050565b6000670de0b6b3a76400006103e8836117069190612fee565b6117109190613340565b9050919050565b6000805b83839050811015611828573684848381811061173a57611739612df7565b5b90506060020190508060000135836117529190612eb5565b925073__$8f978581c91560e6666447aae607650362$__633935e4238260200160208101906117819190613386565b8360400160208101906117949190613386565b8460400160208101906117a79190613386565b6040518463ffffffff1660e01b81526004016117c593929190612f5e565b60206040518083038186803b1580156117dd57600080fd5b505af41580156117f1573d6000803e3d6000fd5b505050506040513d601f19601f820116820180604052508101906118159190612fc1565b50508061182190613048565b905061171b565b5092915050565b600080604051806101c00160405280600060ff168152602001602360ff168152602001601160ff168152602001600b60ff168152602001600860ff168152602001600660ff168152602001600560ff168152602001600260ff168152602001600260ff168152602001600160ff168152602001600160ff168152602001600160ff168152602001600160ff168152602001601160ff1681525090506000600e67ffffffffffffffff8111156118e7576118e661293d565b5b6040519080825280602002602001820160405280156119155781602001602082028036833780820191505090505b509050600085859050905060005b81811015611d97573687878381811061193f5761193e612df7565b5b90506060020190506103e881600001351115611990576040517f08c379a000000000000000000000000000000000000000000000000000000000815260040161198790613425565b60405180910390fd5b60008160200160208101906119a59190613386565b905060018160ff161415611a01576119dc856001815181106119ca576119c9612df7565b5b602002602001015183600001356126db565b856001815181106119f0576119ef612df7565b5b602002602001018181525050611d84565b60028160ff161415611a4657816000013585600281518110611a2657611a25612df7565b5b60200260200101818151611a3a9190612eb5565b91508181525050611d83565b60038160ff161415611aa057611a7b85600381518110611a6957611a68612df7565b5b602002602001015183600001356126db565b85600381518110611a8f57611a8e612df7565b5b602002602001018181525050611d82565b60048160ff161415611ae557816000013585600481518110611ac557611ac4612df7565b5b60200260200101818151611ad99190612eb5565b91508181525050611d81565b60058160ff161415611b2a57816000013585600581518110611b0a57611b09612df7565b5b60200260200101818151611b1e9190612eb5565b91508181525050611d80565b60068160ff161415611b6f57816000013585600681518110611b4f57611b4e612df7565b5b60200260200101818151611b639190612eb5565b91508181525050611d7f565b60078160ff161415611bc957611ba485600781518110611b9257611b91612df7565b5b602002602001015183600001356126db565b85600781518110611bb857611bb7612df7565b5b602002602001018181525050611d7e565b60088160ff161415611c2357611bfe85600881518110611bec57611beb612df7565b5b602002602001015183600001356126db565b85600881518110611c1257611c11612df7565b5b602002602001018181525050611d7d565b60098160ff161415611c6857816000013585600981518110611c4857611c47612df7565b5b60200260200101818151611c5c9190612eb5565b91508181525050611d7c565b600a8160ff161415611cad57816000013585600a81518110611c8d57611c8c612df7565b5b60200260200101818151611ca19190612eb5565b91508181525050611d7b565b600b8160ff161415611cf257816000013585600b81518110611cd257611cd1612df7565b5b60200260200101818151611ce69190612eb5565b91508181525050611d7a565b600c8160ff161415611d3757816000013585600c81518110611d1757611d16612df7565b5b60200260200101818151611d2b9190612eb5565b91508181525050611d79565b600c8160ff161415611d7857816000013585600c81518110611d5c57611d5b612df7565b5b60200260200101818151611d709190612eb5565b915081815250505b5b5b5b5b5b5b5b5b5b5b5b5b505080611d9090613048565b9050611923565b506000600190505b600d8111611e05578381600e8110611dba57611db9612df7565b5b602002015160ff16838281518110611dd557611dd4612df7565b5b6020026020010151611de79190612fee565b85611df29190612eb5565b945080611dfe90613048565b9050611d9f565b5050505092915050565b60006103e8670de0b6b3a764000083611e289190612fee565b611e329190613340565b9050919050565b611ed18282604051602401611e4f9291906134bc565b6040516020818303038152906040527fb60e72cc000000000000000000000000000000000000000000000000000000007bffffffffffffffffffffffffffffffffffffffffffffffffffffffff19166020820180517bffffffffffffffffffffffffffffffffffffffffffffffffffffffff83818316178352505050506126f5565b5050565b8082600001541015611f1c576040517f08c379a0000000000000000000000000000000000000000000000000000000008152600401611f1390613538565b60405180910390fd5b80826000016000828254611f309190613558565b9250508190555080826001016000828254611f4b9190612eb5565b925050819055505050565b60008360000160008373ffffffffffffffffffffffffffffffffffffffff1673ffffffffffffffffffffffffffffffffffffffff16815260200190815260200160002054905082811015611fdf576040517f08c379a0000000000000000000000000000000000000000000000000000000008152600401611fd690612dd7565b60405180910390fd5b828460010160008473ffffffffffffffffffffffffffffffffffffffff1673ffffffffffffffffffffffffffffffffffffffff16815260200190815260200160002060008282546120309190612eb5565b92505081905550828460000160008473ffffffffffffffffffffffffffffffffffffffff1673ffffffffffffffffffffffffffffffffffffffff16815260200190815260200160002060008282546120889190613558565b9250508190555050505050565b60005b828290508110156121b657368383838181106120b7576120b6612df7565b5b90506060020190506120c7612843565b81600001358160000181815250508160400160208101906120e89190613386565b816040019060ff16908160ff168152505081602001602081019061210c9190613386565b816020019060ff16908160ff1681525050856000018190806001815401808255809150506001900390600052602060002090600302016000909190919091506000820151816000015560208201518160010160006101000a81548160ff021916908360ff16021790555060408201518160010160016101000a81548160ff021916908360ff1602179055506060820151816002015550505050806121af90613048565b9050612098565b50505050565b600081141561229957737a1bac17ccc5b313516c5e16fb24f7659aa5ebed73ffffffffffffffffffffffffffffffffffffffff16635d3b1d307f4b09e658ed251bcafeebbc69400383d49f344ace09b9576fe248bb02c003fe9f60001b61088e6003620dbba060016040518663ffffffff1660e01b8152600401612244959493929190613604565b602060405180830381600087803b15801561225e57600080fd5b505af1158015612272573d6000803e3d6000fd5b505050506040513d601f19601f82011682018060405250810190612296919061366c565b90505b6000600d016103e890806001815401808255809150506001900390600052602060002001600090919091909150556000600d0181908060018154018082558091505060019003906000526020600020016000909190919091505580600060090160000160003373ffffffffffffffffffffffffffffffffffffffff1673ffffffffffffffffffffffffffffffffffffffff16815260200190815260200160002081905550336000600701600101600083815260200190815260200160002060006101000a81548173ffffffffffffffffffffffffffffffffffffffff021916908373ffffffffffffffffffffffffffffffffffffffff16021790555080600060070160000160003373ffffffffffffffffffffffffffffffffffffffff1673ffffffffffffffffffffffffffffffffffffffff1681526020019081526020016000206001018190555050565b61247f8383836040516024016123fd93929190613699565b6040516020818303038152906040527fca47c4eb000000000000000000000000000000000000000000000000000000007bffffffffffffffffffffffffffffffffffffffffffffffffffffffff19166020820180517bffffffffffffffffffffffffffffffffffffffffffffffffffffffff83818316178352505050506126f5565b505050565b808260000160008282546124989190612eb5565b92505081905550808260010160008282546124b39190613558565b925050819055505050565b818360010160008373ffffffffffffffffffffffffffffffffffffffff1673ffffffffffffffffffffffffffffffffffffffff168152602001908152602001600020600082825461250f9190613558565b92505081905550505050565b600060039050600061271083836125329190612fee565b61253c9190613340565b90508084600b0160008282546125529190612eb5565b92505081905550600081846125679190612eb5565b90506125a86040518060400160405280600a81526020017f706179446966664574680000000000000000000000000000000000000000000081525085611e39565b6125e76040518060400160405280600c81526020017f6f7572436f6d697373696f6e000000000000000000000000000000000000000081525083611e39565b6125f885600201600001548261271e565b8085600201600001600082825461260f9190613558565b9250508190555061262785600201600001548261271e565b5050505050565b6000601a9050600061271083836126459190612fee565b61264f9190613340565b90508084600b0160008282546126659190612eb5565b925050819055506126ac6040518060400160405280600f81526020017f486f75697365207265636569766573000000000000000000000000000000000081525084836123e5565b80836126b89190613558565b8460020160000160008282546126ce9190612eb5565b9250508190555050505050565b6000818310156126eb57816126ed565b825b905092915050565b60008151905060006a636f6e736f6c652e6c6f679050602083016000808483855afa5050505050565b6127b682826040516024016127349291906136d7565b6040516020818303038152906040527ff666715a000000000000000000000000000000000000000000000000000000007bffffffffffffffffffffffffffffffffffffffffffffffffffffffff19166020820180517bffffffffffffffffffffffffffffffffffffffffffffffffffffffff83818316178352505050506126f5565b5050565b50805460008255600302906000526020600020908101906127db9190612871565b50565b50805460008255906000526020600020908101906127fc91906128c0565b50565b508054600082559060005260206000209081019061281d91906128c0565b50565b604051806101400160405280600a90602082028036833780820191505090505090565b604051806080016040528060008152602001600060ff168152602001600060ff168152602001600081525090565b5b808211156128bc576000808201600090556001820160006101000a81549060ff02191690556001820160016101000a81549060ff0219169055600282016000905550600301612872565b5090565b5b808211156128d95760008160009055506001016128c1565b5090565b6000604051905090565b600080fd5b600080fd5b6000819050919050565b612904816128f1565b811461290f57600080fd5b50565b600081359050612921816128fb565b92915050565b600080fd5b6000601f19601f8301169050919050565b7f4e487b7100000000000000000000000000000000000000000000000000000000600052604160045260246000fd5b6129758261292c565b810181811067ffffffffffffffff821117156129945761299361293d565b5b80604052505050565b60006129a76128dd565b90506129b3828261296c565b919050565b600067ffffffffffffffff8211156129d3576129d261293d565b5b602082029050602081019050919050565b600080fd5b60006129fc6129f7846129b8565b61299d565b90508083825260208201905060208402830185811115612a1f57612a1e6129e4565b5b835b81811015612a485780612a348882612912565b845260208401935050602081019050612a21565b5050509392505050565b600082601f830112612a6757612a66612927565b5b8135612a778482602086016129e9565b91505092915050565b60008060408385031215612a9757612a966128e7565b5b6000612aa585828601612912565b925050602083013567ffffffffffffffff811115612ac657612ac56128ec565b5b612ad285828601612a52565b9150509250929050565b612ae5816128f1565b82525050565b600060e082019050612b00600083018a612adc565b612b0d6020830189612adc565b612b1a6040830188612adc565b612b276060830187612adc565b612b346080830186612adc565b612b4160a0830185612adc565b612b4e60c0830184612adc565b98975050505050505050565b6000602082019050612b6f6000830184612adc565b92915050565b600081519050919050565b600082825260208201905092915050565b6000819050602082019050919050565b612baa816128f1565b82525050565b6000612bbc8383612ba1565b60208301905092915050565b6000602082019050919050565b6000612be082612b75565b612bea8185612b80565b9350612bf583612b91565b8060005b83811015612c26578151612c0d8882612bb0565b9750612c1883612bc8565b925050600181019050612bf9565b5085935050505092915050565b60006020820190508181036000830152612c4d8184612bd5565b905092915050565b600080fd5b60008083601f840112612c7057612c6f612927565b5b8235905067ffffffffffffffff811115612c8d57612c8c612c55565b5b602083019150836060820283011115612ca957612ca86129e4565b5b9250929050565b600080600060408486031215612cc957612cc86128e7565b5b600084013567ffffffffffffffff811115612ce757612ce66128ec565b5b612cf386828701612c5a565b93509350506020612d0686828701612912565b9150509250925092565b600073ffffffffffffffffffffffffffffffffffffffff82169050919050565b6000612d3b82612d10565b9050919050565b612d4b81612d30565b82525050565b6000604082019050612d666000830185612d42565b612d736020830184612d42565b9392505050565b600082825260208201905092915050565b7f42616c616e636520697320696e73756666696369656e74000000000000000000600082015250565b6000612dc1601783612d7a565b9150612dcc82612d8b565b602082019050919050565b60006020820190508181036000830152612df081612db4565b9050919050565b7f4e487b7100000000000000000000000000000000000000000000000000000000600052603260045260246000fd5b7f4e487b7100000000000000000000000000000000000000000000000000000000600052601260045260246000fd5b6000612e60826128f1565b9150612e6b836128f1565b925082612e7b57612e7a612e26565b5b828206905092915050565b7f4e487b7100000000000000000000000000000000000000000000000000000000600052601160045260246000fd5b6000612ec0826128f1565b9150612ecb836128f1565b9250827fffffffffffffffffffffffffffffffffffffffffffffffffffffffffffffffff03821115612f0057612eff612e86565b5b828201905092915050565b6000606082019050612f206000830186612adc565b612f2d6020830185612adc565b612f3a6040830184612adc565b949350505050565b600060ff82169050919050565b612f5881612f42565b82525050565b6000606082019050612f736000830186612f4f565b612f806020830185612f4f565b612f8d6040830184612f4f565b949350505050565b612f9e81612f42565b8114612fa957600080fd5b50565b600081519050612fbb81612f95565b92915050565b600060208284031215612fd757612fd66128e7565b5b6000612fe584828501612fac565b91505092915050565b6000612ff9826128f1565b9150613004836128f1565b9250817fffffffffffffffffffffffffffffffffffffffffffffffffffffffffffffffff048311821515161561303d5761303c612e86565b5b828202905092915050565b6000613053826128f1565b91507fffffffffffffffffffffffffffffffffffffffffffffffffffffffffffffffff82141561308657613085612e86565b5b600182019050919050565b6000819050919050565b60006130a682613091565b91506130b183613091565b9250827f8000000000000000000000000000000000000000000000000000000000000000018212600084121516156130ec576130eb612e86565b5b827f7fffffffffffffffffffffffffffffffffffffffffffffffffffffffffffffff01821360008412161561312457613123612e86565b5b828203905092915050565b600061313a82613091565b91507f800000000000000000000000000000000000000000000000000000000000000082141561316d5761316c612e86565b5b816000039050919050565b6000600a9050919050565b600081905092915050565b6000819050919050565b6000602082019050919050565b6131ae81613178565b6131b88184613183565b92506131c38261318e565b8060005b838110156131f45781516131db8782612bb0565b96506131e683613198565b9250506001810190506131c7565b505050505050565b60006101a0820190506132126000830187612adc565b61321f6020830186612adc565b61322c6040830185612adc565b61323960608301846131a5565b95945050505050565b7f546f6f206d616e79206265747300000000000000000000000000000000000000600082015250565b6000613278600d83612d7a565b915061328382613242565b602082019050919050565b600060208201905081810360008301526132a78161326b565b9050919050565b7f526f756c65747465206973206c61756e636865642e204e6f206d6f726520626560008201527f74732e0000000000000000000000000000000000000000000000000000000000602082015250565b600061330a602383612d7a565b9150613315826132ae565b604082019050919050565b60006020820190508181036000830152613339816132fd565b9050919050565b600061334b826128f1565b9150613356836128f1565b92508261336657613365612e26565b5b828204905092915050565b60008135905061338081612f95565b92915050565b60006020828403121561339c5761339b6128e7565b5b60006133aa84828501613371565b91505092915050565b7f426574206f6e2073696e676c6520706f736974696f6e2065786365656473203160008201527f3030300000000000000000000000000000000000000000000000000000000000602082015250565b600061340f602383612d7a565b915061341a826133b3565b604082019050919050565b6000602082019050818103600083015261343e81613402565b9050919050565b600081519050919050565b60005b8381101561346e578082015181840152602081019050613453565b8381111561347d576000848401525b50505050565b600061348e82613445565b6134988185612d7a565b93506134a8818560208601613450565b6134b18161292c565b840191505092915050565b600060408201905081810360008301526134d68185613483565b90506134e56020830184612adc565b9392505050565b7f486f7573652062616c616e636520697320696e73756666696369656e74000000600082015250565b6000613522601d83612d7a565b915061352d826134ec565b602082019050919050565b6000602082019050818103600083015261355181613515565b9050919050565b6000613563826128f1565b915061356e836128f1565b92508282101561358157613580612e86565b5b828203905092915050565b6000819050919050565b61359f8161358c565b82525050565b600067ffffffffffffffff82169050919050565b6135c2816135a5565b82525050565b600061ffff82169050919050565b6135df816135c8565b82525050565b600063ffffffff82169050919050565b6135fe816135e5565b82525050565b600060a0820190506136196000830188613596565b61362660208301876135b9565b61363360408301866135d6565b61364060608301856135f5565b61364d60808301846135f5565b9695505050505050565b600081519050613666816128fb565b92915050565b600060208284031215613682576136816128e7565b5b600061369084828501613657565b91505092915050565b600060608201905081810360008301526136b38186613483565b90506136c26020830185612adc565b6136cf6040830184612adc565b949350505050565b60006040820190506136ec6000830185612adc565b6136f96020830184612adc565b939250505056fea2646970667358221220dac28887a3acd312988013a4942a03999f55774d0fff866cde16cb7d4ab27e4b64736f6c63430008090033",
  "linkReferences": {
    "contracts/libraries/roulette/LibRulette.sol": {
      "LibRulette": [
        {
          "length": 20,
          "start": 4061
        },
        {
          "length": 20,
          "start": 6006
        }
      ]
    }
  },
  "deployedLinkReferences": {
    "contracts/libraries/roulette/LibRulette.sol": {
      "LibRulette": [
        {
          "length": 20,
          "start": 4029
        },
        {
          "length": 20,
          "start": 5974
        }
      ]
    }
  }
}