{
  "_format": "hh-sol-artifact-1",
  "contractName": "RouletteFacet",
  "sourceName": "contracts/RouletteFacet.sol",
  "abi": [
    {
      "inputs": [
        {
          "internalType": "address",
          "name": "have",
          "type": "address"
        },
        {
          "internalType": "address",
          "name": "want",
          "type": "address"
        }
      ],
      "name": "OnlyCoordinatorCanFulfill",
      "type": "error"
    },
    {
      "anonymous": false,
      "inputs": [
        {
          "indexed": true,
          "internalType": "uint256",
          "name": "requestId",
          "type": "uint256"
        }
      ],
      "name": "RouletteLaunchOfPlayerFound",
      "type": "event"
    },
    {
      "anonymous": false,
      "inputs": [
        {
          "indexed": true,
          "internalType": "uint256",
          "name": "requestId",
          "type": "uint256"
        }
      ],
      "name": "RouletteLaunchOfPlayerNotFound",
      "type": "event"
    },
    {
      "anonymous": false,
      "inputs": [
        {
          "indexed": true,
          "internalType": "address",
          "name": "sender",
          "type": "address"
        },
        {
          "indexed": false,
          "internalType": "uint256",
          "name": "requestId",
          "type": "uint256"
        }
      ],
      "name": "RouletteLaunched",
      "type": "event"
    },
    {
      "anonymous": false,
      "inputs": [
        {
          "indexed": true,
          "internalType": "address",
          "name": "sender",
          "type": "address"
        },
        {
          "indexed": true,
          "internalType": "uint256",
          "name": "requestId",
          "type": "uint256"
        },
        {
          "indexed": false,
          "internalType": "uint256",
          "name": "randomWord",
          "type": "uint256"
        },
        {
          "indexed": false,
          "internalType": "uint256",
          "name": "resultNum",
          "type": "uint256"
        }
      ],
      "name": "RouletteStopped",
      "type": "event"
    },
    {
      "anonymous": false,
      "inputs": [
        {
          "indexed": true,
          "internalType": "address",
          "name": "sender",
          "type": "address"
        },
        {
          "indexed": true,
          "internalType": "uint256",
          "name": "requestId",
          "type": "uint256"
        },
        {
          "indexed": false,
          "internalType": "uint256",
          "name": "randomWord",
          "type": "uint256"
        },
        {
          "indexed": false,
          "internalType": "uint256",
          "name": "resultNum",
          "type": "uint256"
        },
        {
          "indexed": false,
          "internalType": "uint256[10]",
          "name": "winByPosition",
          "type": "uint256[10]"
        }
      ],
      "name": "RouletteStoppedPrizeInfo",
      "type": "event"
    },
    {
      "anonymous": false,
      "inputs": [
        {
          "indexed": true,
          "internalType": "uint256",
          "name": "requestId",
          "type": "uint256"
        }
      ],
      "name": "RouletteStoppedRequestIdNotRecognized",
      "type": "event"
    },
    {
      "anonymous": false,
      "inputs": [
        {
          "indexed": true,
          "internalType": "uint256",
          "name": "requestId",
          "type": "uint256"
        }
      ],
      "name": "RouletteStoppedRequestIdRecognized",
      "type": "event"
    },
    {
      "anonymous": false,
      "inputs": [
        {
          "indexed": true,
          "internalType": "uint256",
          "name": "requestId",
          "type": "uint256"
        }
      ],
      "name": "RouletteStoppedVRFCallReceived",
      "type": "event"
    },
    {
      "inputs": [],
      "name": "getReqID",
      "outputs": [
        {
          "internalType": "uint256",
          "name": "",
          "type": "uint256"
        }
      ],
      "stateMutability": "view",
      "type": "function"
    },
    {
      "inputs": [],
      "name": "getRnd",
      "outputs": [
        {
          "internalType": "uint256",
          "name": "",
          "type": "uint256"
        }
      ],
      "stateMutability": "view",
      "type": "function"
    },
    {
      "inputs": [
        {
          "components": [
            {
              "internalType": "uint256",
              "name": "amount",
              "type": "uint256"
            },
            {
              "internalType": "uint8",
              "name": "betType",
              "type": "uint8"
            },
            {
              "internalType": "uint8",
              "name": "betDet",
              "type": "uint8"
            }
          ],
          "internalType": "struct BetPointPrm[]",
          "name": "betPoints",
          "type": "tuple[]"
        },
        {
          "internalType": "uint256",
          "name": "s_requestId",
          "type": "uint256"
        }
      ],
      "name": "placeBet",
      "outputs": [],
      "stateMutability": "nonpayable",
      "type": "function"
    },
    {
      "inputs": [
        {
          "internalType": "uint256",
          "name": "requestId",
          "type": "uint256"
        },
        {
          "internalType": "uint256[]",
          "name": "randomWords",
          "type": "uint256[]"
        }
      ],
      "name": "rawFulfillRandomWords",
      "outputs": [],
      "stateMutability": "nonpayable",
      "type": "function"
    },
    {
      "inputs": [
        {
          "internalType": "uint256",
          "name": "requestId",
          "type": "uint256"
        },
        {
          "internalType": "uint256[]",
          "name": "randomWords",
          "type": "uint256[]"
        }
      ],
      "name": "testFulfillRandomWords",
      "outputs": [],
      "stateMutability": "nonpayable",
      "type": "function"
    },
    {
      "inputs": [],
      "name": "testGetAmounts",
      "outputs": [
        {
          "internalType": "uint256",
          "name": "houseLocked",
          "type": "uint256"
        },
        {
          "internalType": "uint256",
          "name": "playerLocked",
          "type": "uint256"
        },
        {
          "internalType": "uint256",
          "name": "requestId",
          "type": "uint256"
        },
        {
          "internalType": "uint256",
          "name": "playerBalance",
          "type": "uint256"
        },
        {
          "internalType": "uint256",
          "name": "houseBalance",
          "type": "uint256"
        },
        {
          "internalType": "uint256",
          "name": "platformBalance",
          "type": "uint256"
        },
        {
          "internalType": "uint256",
          "name": "revenueBalance",
          "type": "uint256"
        }
      ],
      "stateMutability": "view",
      "type": "function"
    }
  ],
  "bytecode": "0x608060405234801561001057600080fd5b50612f8c806100206000396000f3fe608060405234801561001057600080fd5b50600436106100625760003560e01c806302c4d72b146100675780631fe543e3146100835780632fcd1bef1461009f57806345748aee146100c357806384fe382c146100e1578063a3be3d5d146100ff575b600080fd5b610081600480360381019061007c919061227a565b61011b565b005b61009d6004803603810190610098919061227a565b610131565b005b6100a76101d9565b6040516100ba97969594939291906122e5565b60405180910390f35b6100cb6102ee565b6040516100d89190612354565b60405180910390f35b6100e961033a565b6040516100f69190612354565b60405180910390f35b610119600480360381019061011491906123ca565b6103d4565b005b61012361058c565b61012d8282610627565b5050565b737a1bac17ccc5b313516c5e16fb24f7659aa5ebed73ffffffffffffffffffffffffffffffffffffffff163373ffffffffffffffffffffffffffffffffffffffff16146101cb5733737a1bac17ccc5b313516c5e16fb24f7659aa5ebed6040517f1cf993f40000000000000000000000000000000000000000000000000000000081526004016101c292919061246b565b60405180910390fd5b6101d58282610627565b5050565b600080600080600080600080600201600101546000800160010160003373ffffffffffffffffffffffffffffffffffffffff1673ffffffffffffffffffffffffffffffffffffffff16815260200190815260200160002054600060060160000160003373ffffffffffffffffffffffffffffffffffffffff1673ffffffffffffffffffffffffffffffffffffffff168152602001908152602001600020600101546000800160000160003373ffffffffffffffffffffffffffffffffffffffff1673ffffffffffffffffffffffffffffffffffffffff168152602001908152602001600020546000600201600001546000600a0154600060020160030154965096509650965096509650965090919293949596565b60008060080160000160003373ffffffffffffffffffffffffffffffffffffffff1673ffffffffffffffffffffffffffffffffffffffff16815260200190815260200160002054905090565b600080600060080160000160003373ffffffffffffffffffffffffffffffffffffffff1673ffffffffffffffffffffffffffffffffffffffff16815260200190815260200160002054905060008114156103995761014d9150506103d1565b600080600801600101600083815260200190815260200160002054905060008114156103cb5761014e925050506103d1565b80925050505b90565b6103e360006006018484610f88565b60008060000160000160003373ffffffffffffffffffffffffffffffffffffffff1673ffffffffffffffffffffffffffffffffffffffff16815260200190815260200160002054905060006104378261106a565b9050600181101561047d576040517f08c379a0000000000000000000000000000000000000000000000000000000008152600401610474906124f1565b60405180910390fd5b60006104898686611094565b90506000610497878761119b565b905060006104a48261177b565b90506104b46000600201826117a5565b6104ca600080016104c48561177b565b33611826565b60008060060160000160003373ffffffffffffffffffffffffffffffffffffffff1673ffffffffffffffffffffffffffffffffffffffff168152602001908152602001600020905061051d818a8a611965565b81816002018190555061052f87611a8c565b3373ffffffffffffffffffffffffffffffffffffffff167f56bad987203040263213ff4b4e88e6efb7fa622924bbcb51a873eb20d61a0d9582600101546040516105799190612354565b60405180910390a2505050505050505050565b610594611c5b565b60030160009054906101000a900473ffffffffffffffffffffffffffffffffffffffff1673ffffffffffffffffffffffffffffffffffffffff163373ffffffffffffffffffffffffffffffffffffffff1614610625576040517f08c379a000000000000000000000000000000000000000000000000000000000815260040161061c90612583565b60405180910390fd5b565b817ff8dd92562b4186574d9e574b5fb5d958f373bc02a5bed7fe3d01de0775b0418760405160405180910390a26000600160268360008151811061066e5761066d6125a3565b5b60200260200101516106809190612601565b61068a9190612661565b90506000819050600080600601600101600086815260200190815260200160002060009054906101000a900473ffffffffffffffffffffffffffffffffffffffff169050848173ffffffffffffffffffffffffffffffffffffffff167f3bb008cb082e9dcf41f3e1d3b953de1c276987c3ff5af3ef213f7d9eccba71e38660008151811061071b5761071a6125a3565b5b6020026020010151866040516107329291906126b7565b60405180910390a3600073ffffffffffffffffffffffffffffffffffffffff168173ffffffffffffffffffffffffffffffffffffffff1614156107a457847fef123904750424f1cccd4a860a2f1a42afe8379eee408a0eaf5972fb374558d460405160405180910390a2505050610f84565b6000600601600101600086815260200190815260200160002060006101000a81549073ffffffffffffffffffffffffffffffffffffffff0219169055847f7cb1bd65d6d81c6731c6c0283d460ab0700f2ec7c7a77e8bfb140c57f1e1ed3760405160405180910390a260008060060160000160008373ffffffffffffffffffffffffffffffffffffffff1673ffffffffffffffffffffffffffffffffffffffff16815260200190815260200160002060405180606001604052908160008201805480602002602001604051908101604052809291908181526020016000905b828210156109035783829060005260206000209060030201604051806080016040529081600082015481526020016001820160009054906101000a900460ff1660ff1660ff1681526020016001820160019054906101000a900460ff1660ff1660ff16815260200160028201548152505081526020019060010190610883565b5050505081526020016001820154815260200160028201548152505090508581602001511461096257857f1f08b772be7771010dc33fcfd8c6530805792b661ea53556bca41ca77542527560405160405180910390a250505050610f84565b857f47990474c17076e639971a8356cb41f19f98673a42ddad39f797262d59f837d260405160405180910390a260008060060160000160008473ffffffffffffffffffffffffffffffffffffffff1673ffffffffffffffffffffffffffffffffffffffff16815260200190815260200160002060010181905550846000815181106109f0576109ef6125a3565b5b60200260200101516000600801600101600088815260200190815260200160002081905550600060060160000160008373ffffffffffffffffffffffffffffffffffffffff1673ffffffffffffffffffffffffffffffffffffffff16815260200190815260200160002060008082016000610a6b9190612013565b60018201600090556002820160009055505060008060008360000151519050610a92612037565b60005b82811015610ca457600086600001518281518110610ab657610ab56125a3565b5b60200260200101519050610b0f6040518060400160405280601581526020017f5265766973696e672062657420706f736974696f6e000000000000000000000081525083836020015160ff16846040015160ff16611c88565b806000015186610b1f9190612661565b9550610b646040518060400160405280601181526020017f202e2020746f74616c42657443686970730000000000000000000000000000008152508260000151611d2a565b600073__$8f978581c91560e6666447aae607650362$__633935e423836020015184604001518d6040518463ffffffff1660e01b8152600401610ba9939291906126fc565b60206040518083038186803b158015610bc157600080fd5b505af4158015610bd5573d6000803e3d6000fd5b505050506040513d601f19601f82011682018060405250810190610bf9919061275f565b60ff169050610c3d6040518060400160405280600b81526020017f202e202077696e4661637400000000000000000000000000000000000000000081525082611d2a565b6000811115610c91576000818360000151610c58919061278c565b90508087610c669190612661565b965080836060018181525050808585600a8110610c8657610c856125a3565b5b602002018181525050505b505080610c9d906127e6565b9050610a95565b50610cb760006002018660400151611dc6565b610ccd60008001610cc78661177b565b88611e00565b60008490506000841115610e5457610d5f6040518060400160405280600b81526020017f506c617965722077696e73000000000000000000000000000000000000000000815250856000800160000160008b73ffffffffffffffffffffffffffffffffffffffff1673ffffffffffffffffffffffffffffffffffffffff16815260200190815260200160002054611e5d565b610d688461177b565b6000800160000160008973ffffffffffffffffffffffffffffffffffffffff1673ffffffffffffffffffffffffffffffffffffffff1681526020019081526020016000206000828254610dbb9190612661565b92505081905550610e456040518060400160405280600f81526020017f557064617465642062616c616e636500000000000000000000000000000000008152506000800160000160008a73ffffffffffffffffffffffffffffffffffffffff1673ffffffffffffffffffffffffffffffffffffffff16815260200190815260200160002054611d2a565b8381610e519190612839565b90505b6000811215610e7e57610e796000610e7483610e6f906128cd565b61177b565b611efc565b610e9c565b6000811315610e9b57610e9a6000610e958361177b565b611f1e565b5b5b610f0c6040518060400160405280601881526020017f526f756c6574746553746f707065645072697a65496e666f0000000000000000815250836000600a8110610ee957610ee86125a3565b5b6020020151846001600a8110610f0257610f016125a3565b5b6020020151611e5d565b8a8773ffffffffffffffffffffffffffffffffffffffff167f52ec67ad6cc03c0a2a4dad0590a2527268bad8f950265d6623b929919b0f5d8f8c600081518110610f5957610f586125a3565b5b60200260200101518c86604051610f72939291906129c1565b60405180910390a35050505050505050505b5050565b600082829050118015610f9f5750600a8282905011155b610fde576040517f08c379a0000000000000000000000000000000000000000000000000000000008152600401610fd590612a45565b60405180910390fd5b60008360000160003373ffffffffffffffffffffffffffffffffffffffff1673ffffffffffffffffffffffffffffffffffffffff1681526020019081526020016000206001015414611065576040517f08c379a000000000000000000000000000000000000000000000000000000000815260040161105c90612ad7565b60405180910390fd5b505050565b6000670de0b6b3a76400006103e883611083919061278c565b61108d9190612af7565b9050919050565b6000805b8383905081101561119457368484838181106110b7576110b66125a3565b5b90506060020190508060000135836110cf9190612661565b925073__$8f978581c91560e6666447aae607650362$__633935e4238260200160208101906110fe9190612b3d565b8360400160208101906111119190612b3d565b60016040518463ffffffff1660e01b815260040161113193929190612baf565b60206040518083038186803b15801561114957600080fd5b505af415801561115d573d6000803e3d6000fd5b505050506040513d601f19601f82011682018060405250810190611181919061275f565b50508061118d906127e6565b9050611098565b5092915050565b600080604051806101c00160405280600060ff168152602001602360ff168152602001601160ff168152602001600b60ff168152602001600860ff168152602001600660ff168152602001600560ff168152602001600260ff168152602001600260ff168152602001600160ff168152602001600160ff168152602001600160ff168152602001600160ff168152602001601160ff1681525090506000600e67ffffffffffffffff81111561125357611252612137565b5b6040519080825280602002602001820160405280156112815781602001602082028036833780820191505090505b509050600085859050905060005b8181101561170357368787838181106112ab576112aa6125a3565b5b90506060020190506103e8816000013511156112fc576040517f08c379a00000000000000000000000000000000000000000000000000000000081526004016112f390612c58565b60405180910390fd5b60008160200160208101906113119190612b3d565b905060018160ff16141561136d5761134885600181518110611336576113356125a3565b5b60200260200101518360000135611fd0565b8560018151811061135c5761135b6125a3565b5b6020026020010181815250506116f0565b60028160ff1614156113b257816000013585600281518110611392576113916125a3565b5b602002602001018181516113a69190612661565b915081815250506116ef565b60038160ff16141561140c576113e7856003815181106113d5576113d46125a3565b5b60200260200101518360000135611fd0565b856003815181106113fb576113fa6125a3565b5b6020026020010181815250506116ee565b60048160ff16141561145157816000013585600481518110611431576114306125a3565b5b602002602001018181516114459190612661565b915081815250506116ed565b60058160ff16141561149657816000013585600581518110611476576114756125a3565b5b6020026020010181815161148a9190612661565b915081815250506116ec565b60068160ff1614156114db578160000135856006815181106114bb576114ba6125a3565b5b602002602001018181516114cf9190612661565b915081815250506116eb565b60078160ff16141561153557611510856007815181106114fe576114fd6125a3565b5b60200260200101518360000135611fd0565b85600781518110611524576115236125a3565b5b6020026020010181815250506116ea565b60088160ff16141561158f5761156a85600881518110611558576115576125a3565b5b60200260200101518360000135611fd0565b8560088151811061157e5761157d6125a3565b5b6020026020010181815250506116e9565b60098160ff1614156115d4578160000135856009815181106115b4576115b36125a3565b5b602002602001018181516115c89190612661565b915081815250506116e8565b600a8160ff16141561161957816000013585600a815181106115f9576115f86125a3565b5b6020026020010181815161160d9190612661565b915081815250506116e7565b600b8160ff16141561165e57816000013585600b8151811061163e5761163d6125a3565b5b602002602001018181516116529190612661565b915081815250506116e6565b600c8160ff1614156116a357816000013585600c81518110611683576116826125a3565b5b602002602001018181516116979190612661565b915081815250506116e5565b600c8160ff1614156116e457816000013585600c815181106116c8576116c76125a3565b5b602002602001018181516116dc9190612661565b915081815250505b5b5b5b5b5b5b5b5b5b5b5b5b5050806116fc906127e6565b905061128f565b506000600190505b600d8111611771578381600e8110611726576117256125a3565b5b602002015160ff16838281518110611741576117406125a3565b5b6020026020010151611753919061278c565b8561175e9190612661565b94508061176a906127e6565b905061170b565b5050505092915050565b60006103e8670de0b6b3a764000083611794919061278c565b61179e9190612af7565b9050919050565b80826000015410156117ec576040517f08c379a00000000000000000000000000000000000000000000000000000000081526004016117e390612cc4565b60405180910390fd5b808260000160008282546118009190612ce4565b925050819055508082600101600082825461181b9190612661565b925050819055505050565b60008360000160008373ffffffffffffffffffffffffffffffffffffffff1673ffffffffffffffffffffffffffffffffffffffff168152602001908152602001600020549050828110156118af576040517f08c379a00000000000000000000000000000000000000000000000000000000081526004016118a6906124f1565b60405180910390fd5b828460010160008473ffffffffffffffffffffffffffffffffffffffff1673ffffffffffffffffffffffffffffffffffffffff16815260200190815260200160002060008282546119009190612661565b92505081905550828460000160008473ffffffffffffffffffffffffffffffffffffffff1673ffffffffffffffffffffffffffffffffffffffff16815260200190815260200160002060008282546119589190612ce4565b9250508190555050505050565b60005b82829050811015611a865736838383818110611987576119866125a3565b5b905060600201905061199761205a565b81600001358160000181815250508160400160208101906119b89190612b3d565b816040019060ff16908160ff16815250508160200160208101906119dc9190612b3d565b816020019060ff16908160ff1681525050856000018190806001815401808255809150506001900390600052602060002090600302016000909190919091506000820151816000015560208201518160010160006101000a81548160ff021916908360ff16021790555060408201518160010160016101000a81548160ff021916908360ff160217905550606082015181600201555050505080611a7f906127e6565b9050611968565b50505050565b6000811415611b6957737a1bac17ccc5b313516c5e16fb24f7659aa5ebed73ffffffffffffffffffffffffffffffffffffffff16635d3b1d307f4b09e658ed251bcafeebbc69400383d49f344ace09b9576fe248bb02c003fe9f60001b61088e6003620dbba060016040518663ffffffff1660e01b8152600401611b14959493929190612d90565b602060405180830381600087803b158015611b2e57600080fd5b505af1158015611b42573d6000803e3d6000fd5b505050506040513d601f19601f82011682018060405250810190611b669190612df8565b90505b80600060080160000160003373ffffffffffffffffffffffffffffffffffffffff1673ffffffffffffffffffffffffffffffffffffffff16815260200190815260200160002081905550336000600601600101600083815260200190815260200160002060006101000a81548173ffffffffffffffffffffffffffffffffffffffff021916908373ffffffffffffffffffffffffffffffffffffffff16021790555080600060060160000160003373ffffffffffffffffffffffffffffffffffffffff1673ffffffffffffffffffffffffffffffffffffffff1681526020019081526020016000206001018190555050565b6000807fec2e1d18880eab0fa99cf138ce95db1d80287501a0d954892af33d430f009c4190508091505090565b611d2484848484604051602401611ca29493929190612e9c565b6040516020818303038152906040527fa7a87853000000000000000000000000000000000000000000000000000000007bffffffffffffffffffffffffffffffffffffffffffffffffffffffff19166020820180517bffffffffffffffffffffffffffffffffffffffffffffffffffffffff8381831617835250505050611fea565b50505050565b611dc28282604051602401611d40929190612ee8565b6040516020818303038152906040527fb60e72cc000000000000000000000000000000000000000000000000000000007bffffffffffffffffffffffffffffffffffffffffffffffffffffffff19166020820180517bffffffffffffffffffffffffffffffffffffffffffffffffffffffff8381831617835250505050611fea565b5050565b80826000016000828254611dda9190612661565b9250508190555080826001016000828254611df59190612ce4565b925050819055505050565b818360010160008373ffffffffffffffffffffffffffffffffffffffff1673ffffffffffffffffffffffffffffffffffffffff1681526020019081526020016000206000828254611e519190612ce4565b92505081905550505050565b611ef7838383604051602401611e7593929190612f18565b6040516020818303038152906040527fca47c4eb000000000000000000000000000000000000000000000000000000007bffffffffffffffffffffffffffffffffffffffffffffffffffffffff19166020820180517bffffffffffffffffffffffffffffffffffffffffffffffffffffffff8381831617835250505050611fea565b505050565b80826002016000016000828254611f139190612ce4565b925050819055505050565b8160020160030154826002016000015410611fad5760006064604683611f44919061278c565b611f4e9190612af7565b905080836002016000016000828254611f679190612661565b925050819055508082611f7a9190612ce4565b83600a016000828254611f8d9190612661565b925050819055508260020160000154836002016003018190555050611fcc565b80826002016000016000828254611fc49190612661565b925050819055505b5050565b600081831015611fe05781611fe2565b825b905092915050565b60008151905060006a636f6e736f6c652e6c6f679050602083016000808483855afa5050505050565b50805460008255600302906000526020600020908101906120349190612088565b50565b604051806101400160405280600a90602082028036833780820191505090505090565b604051806080016040528060008152602001600060ff168152602001600060ff168152602001600081525090565b5b808211156120d3576000808201600090556001820160006101000a81549060ff02191690556001820160016101000a81549060ff0219169055600282016000905550600301612089565b5090565b6000604051905090565b600080fd5b600080fd5b6000819050919050565b6120fe816120eb565b811461210957600080fd5b50565b60008135905061211b816120f5565b92915050565b600080fd5b6000601f19601f8301169050919050565b7f4e487b7100000000000000000000000000000000000000000000000000000000600052604160045260246000fd5b61216f82612126565b810181811067ffffffffffffffff8211171561218e5761218d612137565b5b80604052505050565b60006121a16120d7565b90506121ad8282612166565b919050565b600067ffffffffffffffff8211156121cd576121cc612137565b5b602082029050602081019050919050565b600080fd5b60006121f66121f1846121b2565b612197565b90508083825260208201905060208402830185811115612219576122186121de565b5b835b81811015612242578061222e888261210c565b84526020840193505060208101905061221b565b5050509392505050565b600082601f83011261226157612260612121565b5b81356122718482602086016121e3565b91505092915050565b60008060408385031215612291576122906120e1565b5b600061229f8582860161210c565b925050602083013567ffffffffffffffff8111156122c0576122bf6120e6565b5b6122cc8582860161224c565b9150509250929050565b6122df816120eb565b82525050565b600060e0820190506122fa600083018a6122d6565b61230760208301896122d6565b61231460408301886122d6565b61232160608301876122d6565b61232e60808301866122d6565b61233b60a08301856122d6565b61234860c08301846122d6565b98975050505050505050565b600060208201905061236960008301846122d6565b92915050565b600080fd5b60008083601f84011261238a57612389612121565b5b8235905067ffffffffffffffff8111156123a7576123a661236f565b5b6020830191508360608202830111156123c3576123c26121de565b5b9250929050565b6000806000604084860312156123e3576123e26120e1565b5b600084013567ffffffffffffffff811115612401576124006120e6565b5b61240d86828701612374565b935093505060206124208682870161210c565b9150509250925092565b600073ffffffffffffffffffffffffffffffffffffffff82169050919050565b60006124558261242a565b9050919050565b6124658161244a565b82525050565b6000604082019050612480600083018561245c565b61248d602083018461245c565b9392505050565b600082825260208201905092915050565b7f42616c616e636520697320696e73756666696369656e74000000000000000000600082015250565b60006124db601783612494565b91506124e6826124a5565b602082019050919050565b6000602082019050818103600083015261250a816124ce565b9050919050565b7f4c69624469616d6f6e643a204d75737420626520636f6e7472616374206f776e60008201527f6572000000000000000000000000000000000000000000000000000000000000602082015250565b600061256d602283612494565b915061257882612511565b604082019050919050565b6000602082019050818103600083015261259c81612560565b9050919050565b7f4e487b7100000000000000000000000000000000000000000000000000000000600052603260045260246000fd5b7f4e487b7100000000000000000000000000000000000000000000000000000000600052601260045260246000fd5b600061260c826120eb565b9150612617836120eb565b925082612627576126266125d2565b5b828206905092915050565b7f4e487b7100000000000000000000000000000000000000000000000000000000600052601160045260246000fd5b600061266c826120eb565b9150612677836120eb565b9250827fffffffffffffffffffffffffffffffffffffffffffffffffffffffffffffffff038211156126ac576126ab612632565b5b828201905092915050565b60006040820190506126cc60008301856122d6565b6126d960208301846122d6565b9392505050565b600060ff82169050919050565b6126f6816126e0565b82525050565b600060608201905061271160008301866126ed565b61271e60208301856126ed565b61272b60408301846126ed565b949350505050565b61273c816126e0565b811461274757600080fd5b50565b60008151905061275981612733565b92915050565b600060208284031215612775576127746120e1565b5b60006127838482850161274a565b91505092915050565b6000612797826120eb565b91506127a2836120eb565b9250817fffffffffffffffffffffffffffffffffffffffffffffffffffffffffffffffff04831182151516156127db576127da612632565b5b828202905092915050565b60006127f1826120eb565b91507fffffffffffffffffffffffffffffffffffffffffffffffffffffffffffffffff82141561282457612823612632565b5b600182019050919050565b6000819050919050565b60006128448261282f565b915061284f8361282f565b9250827f80000000000000000000000000000000000000000000000000000000000000000182126000841215161561288a57612889612632565b5b827f7fffffffffffffffffffffffffffffffffffffffffffffffffffffffffffffff0182136000841216156128c2576128c1612632565b5b828203905092915050565b60006128d88261282f565b91507f800000000000000000000000000000000000000000000000000000000000000082141561290b5761290a612632565b5b816000039050919050565b6000600a9050919050565b600081905092915050565b6000819050919050565b61293f816120eb565b82525050565b60006129518383612936565b60208301905092915050565b6000602082019050919050565b61297381612916565b61297d8184612921565b92506129888261292c565b8060005b838110156129b95781516129a08782612945565b96506129ab8361295d565b92505060018101905061298c565b505050505050565b6000610180820190506129d760008301866122d6565b6129e460208301856122d6565b6129f1604083018461296a565b949350505050565b7f546f6f206d616e79206265747300000000000000000000000000000000000000600082015250565b6000612a2f600d83612494565b9150612a3a826129f9565b602082019050919050565b60006020820190508181036000830152612a5e81612a22565b9050919050565b7f526f756c65747465206973206c61756e636865642e204e6f206d6f726520626560008201527f74732e0000000000000000000000000000000000000000000000000000000000602082015250565b6000612ac1602383612494565b9150612acc82612a65565b604082019050919050565b60006020820190508181036000830152612af081612ab4565b9050919050565b6000612b02826120eb565b9150612b0d836120eb565b925082612b1d57612b1c6125d2565b5b828204905092915050565b600081359050612b3781612733565b92915050565b600060208284031215612b5357612b526120e1565b5b6000612b6184828501612b28565b91505092915050565b6000819050919050565b6000819050919050565b6000612b99612b94612b8f84612b6a565b612b74565b6126e0565b9050919050565b612ba981612b7e565b82525050565b6000606082019050612bc460008301866126ed565b612bd160208301856126ed565b612bde6040830184612ba0565b949350505050565b7f426574206f6e2073696e676c6520706f736974696f6e2065786365656473203160008201527f3030300000000000000000000000000000000000000000000000000000000000602082015250565b6000612c42602383612494565b9150612c4d82612be6565b604082019050919050565b60006020820190508181036000830152612c7181612c35565b9050919050565b7f486f7573652062616c616e636520697320696e73756666696369656e74000000600082015250565b6000612cae601d83612494565b9150612cb982612c78565b602082019050919050565b60006020820190508181036000830152612cdd81612ca1565b9050919050565b6000612cef826120eb565b9150612cfa836120eb565b925082821015612d0d57612d0c612632565b5b828203905092915050565b6000819050919050565b612d2b81612d18565b82525050565b600067ffffffffffffffff82169050919050565b612d4e81612d31565b82525050565b600061ffff82169050919050565b612d6b81612d54565b82525050565b600063ffffffff82169050919050565b612d8a81612d71565b82525050565b600060a082019050612da56000830188612d22565b612db26020830187612d45565b612dbf6040830186612d62565b612dcc6060830185612d81565b612dd96080830184612d81565b9695505050505050565b600081519050612df2816120f5565b92915050565b600060208284031215612e0e57612e0d6120e1565b5b6000612e1c84828501612de3565b91505092915050565b600081519050919050565b60005b83811015612e4e578082015181840152602081019050612e33565b83811115612e5d576000848401525b50505050565b6000612e6e82612e25565b612e788185612494565b9350612e88818560208601612e30565b612e9181612126565b840191505092915050565b60006080820190508181036000830152612eb68187612e63565b9050612ec560208301866122d6565b612ed260408301856122d6565b612edf60608301846122d6565b95945050505050565b60006040820190508181036000830152612f028185612e63565b9050612f1160208301846122d6565b9392505050565b60006060820190508181036000830152612f328186612e63565b9050612f4160208301856122d6565b612f4e60408301846122d6565b94935050505056fea2646970667358221220ab6c4a1dceea8e426a5b2c82d84a2a6c4d78a71e363c02d807ee8a2798c32e6c64736f6c63430008090033",
  "linkReferences": {
    "contracts/libraries/roulette/LibRulette.sol": {
      "LibRulette": [
        {
          "length": 20,
          "start": 2952
        },
        {
          "length": 20,
          "start": 4339
        }
      ]
    }
  },
  "deployedLinkReferences": {
    "contracts/libraries/roulette/LibRulette.sol": {
      "LibRulette": [
        {
          "length": 20,
          "start": 2920
        },
        {
          "length": 20,
          "start": 4307
        }
      ]
    }
  }
}