{
  "_format": "hh-sol-artifact-1",
  "contractName": "RouletteFacet",
  "sourceName": "contracts/RouletteFacet.sol",
  "abi": [
    {
      "inputs": [
        {
          "internalType": "address",
          "name": "have",
          "type": "address"
        },
        {
          "internalType": "address",
          "name": "want",
          "type": "address"
        }
      ],
      "name": "OnlyCoordinatorCanFulfill",
      "type": "error"
    },
    {
      "anonymous": false,
      "inputs": [
        {
          "indexed": false,
          "internalType": "bool",
          "name": "",
          "type": "bool"
        }
      ],
      "name": "RouletteLaunchOfPlayerFound",
      "type": "event"
    },
    {
      "anonymous": false,
      "inputs": [
        {
          "indexed": false,
          "internalType": "uint256",
          "name": "requestId",
          "type": "uint256"
        }
      ],
      "name": "RouletteLaunched",
      "type": "event"
    },
    {
      "anonymous": false,
      "inputs": [
        {
          "indexed": false,
          "internalType": "uint256",
          "name": "requestId",
          "type": "uint256"
        },
        {
          "indexed": false,
          "internalType": "uint256",
          "name": "randomWord",
          "type": "uint256"
        },
        {
          "indexed": false,
          "internalType": "uint256",
          "name": "resultNum",
          "type": "uint256"
        }
      ],
      "name": "RouletteStopped",
      "type": "event"
    },
    {
      "anonymous": false,
      "inputs": [
        {
          "indexed": false,
          "internalType": "uint256",
          "name": "requestId",
          "type": "uint256"
        },
        {
          "indexed": false,
          "internalType": "uint256",
          "name": "randomWord",
          "type": "uint256"
        },
        {
          "indexed": false,
          "internalType": "uint256",
          "name": "resultNum",
          "type": "uint256"
        },
        {
          "indexed": false,
          "internalType": "uint256[10]",
          "name": "winByPosition",
          "type": "uint256[10]"
        }
      ],
      "name": "RouletteStoppedPrizeInfo",
      "type": "event"
    },
    {
      "anonymous": false,
      "inputs": [
        {
          "indexed": false,
          "internalType": "bool",
          "name": "",
          "type": "bool"
        }
      ],
      "name": "RouletteStoppedRequestIdRecognized",
      "type": "event"
    },
    {
      "anonymous": false,
      "inputs": [],
      "name": "RouletteStoppedVRFCallReceived",
      "type": "event"
    },
    {
      "inputs": [],
      "name": "getReqID",
      "outputs": [
        {
          "internalType": "uint256",
          "name": "",
          "type": "uint256"
        }
      ],
      "stateMutability": "view",
      "type": "function"
    },
    {
      "inputs": [],
      "name": "getRnd",
      "outputs": [
        {
          "internalType": "uint256",
          "name": "",
          "type": "uint256"
        }
      ],
      "stateMutability": "view",
      "type": "function"
    },
    {
      "inputs": [
        {
          "components": [
            {
              "internalType": "uint256",
              "name": "amount",
              "type": "uint256"
            },
            {
              "internalType": "uint8",
              "name": "betType",
              "type": "uint8"
            },
            {
              "internalType": "uint8",
              "name": "betDet",
              "type": "uint8"
            }
          ],
          "internalType": "struct BetPointPrm[]",
          "name": "betPoints",
          "type": "tuple[]"
        }
      ],
      "name": "placeBet",
      "outputs": [],
      "stateMutability": "nonpayable",
      "type": "function"
    },
    {
      "inputs": [
        {
          "internalType": "uint256",
          "name": "requestId",
          "type": "uint256"
        },
        {
          "internalType": "uint256[]",
          "name": "randomWords",
          "type": "uint256[]"
        }
      ],
      "name": "rawFulfillRandomWords",
      "outputs": [],
      "stateMutability": "nonpayable",
      "type": "function"
    },
    {
      "inputs": [],
      "name": "requestRandomWords",
      "outputs": [],
      "stateMutability": "nonpayable",
      "type": "function"
    }
  ],
  "bytecode": "0x608060405234801561001057600080fd5b506128c2806100206000396000f3fe608060405234801561001057600080fd5b50600436106100575760003560e01c80630a7187491461005c5780631fe543e31461007857806345748aee1461009457806384fe382c146100b2578063e0c86289146100d0575b600080fd5b61007660048036038101906100719190611c10565b6100da565b005b610092600480360381019061008d9190611de2565b6102d9565b005b61009c610381565b6040516100a99190611e4d565b60405180910390f35b6100ba6103cd565b6040516100c79190611e4d565b60405180910390f35b6100d8610467565b005b6100e9600060070183836105e1565b60008060000160000160003373ffffffffffffffffffffffffffffffffffffffff1673ffffffffffffffffffffffffffffffffffffffff168152602001908152602001600020549050600066038d7ea4c680006103e88361014a9190611e97565b6101549190611f20565b9050600181101561019a576040517f08c379a000000000000000000000000000000000000000000000000000000000815260040161019190611fae565b60405180910390fd5b60006101a685856106c3565b905060006101b486866107db565b905060006103e8826101c69190611f20565b90506102076040518060400160405280600e81526020017f4c6f636b696e6720746f74616c3a00000000000000000000000000000000000081525082610dbb565b610215600060020182610e57565b610230600080016103e88561022a9190611f20565b33610ed8565b60008060070160000160003373ffffffffffffffffffffffffffffffffffffffff1673ffffffffffffffffffffffffffffffffffffffff1681526020019081526020016000209050610283818989611017565b818160020181905550610294610467565b7f887b2d0e97d4f3ab19562a888ca35d5b3491d3596cc76190631c13cfcb09df8781600101546040516102c79190611e4d565b60405180910390a15050505050505050565b737a1bac17ccc5b313516c5e16fb24f7659aa5ebed73ffffffffffffffffffffffffffffffffffffffff163373ffffffffffffffffffffffffffffffffffffffff16146103735733737a1bac17ccc5b313516c5e16fb24f7659aa5ebed6040517f1cf993f400000000000000000000000000000000000000000000000000000000815260040161036a92919061200f565b60405180910390fd5b61037d828261113e565b5050565b60008060090160000160003373ffffffffffffffffffffffffffffffffffffffff1673ffffffffffffffffffffffffffffffffffffffff16815260200190815260200160002054905090565b600080600060090160000160003373ffffffffffffffffffffffffffffffffffffffff1673ffffffffffffffffffffffffffffffffffffffff168152602001908152602001600020549050600081141561042c5761014d915050610464565b6000806009016001016000838152602001908152602001600020549050600081141561045e5761014e92505050610464565b80925050505b90565b6000737a1bac17ccc5b313516c5e16fb24f7659aa5ebed73ffffffffffffffffffffffffffffffffffffffff16635d3b1d307f4b09e658ed251bcafeebbc69400383d49f344ace09b9576fe248bb02c003fe9f60001b61088e6003620186a060016040518663ffffffff1660e01b81526004016104e89594939291906120b0565b602060405180830381600087803b15801561050257600080fd5b505af1158015610516573d6000803e3d6000fd5b505050506040513d601f19601f8201168201806040525081019061053a9190612118565b905080600060090160000160003373ffffffffffffffffffffffffffffffffffffffff1673ffffffffffffffffffffffffffffffffffffffff16815260200190815260200160002081905550336000600701600101600083815260200190815260200160002060006101000a81548173ffffffffffffffffffffffffffffffffffffffff021916908373ffffffffffffffffffffffffffffffffffffffff16021790555050565b6000828290501180156105f85750600a8282905011155b610637576040517f08c379a000000000000000000000000000000000000000000000000000000000815260040161062e90612191565b60405180910390fd5b60008360000160003373ffffffffffffffffffffffffffffffffffffffff1673ffffffffffffffffffffffffffffffffffffffff16815260200190815260200160002060010154146106be576040517f08c379a00000000000000000000000000000000000000000000000000000000081526004016106b590612223565b60405180910390fd5b505050565b6000805b838390508110156107d457368484838181106106e6576106e5612243565b5b90506060020190508060000135836106fe9190612272565b925073__$8f978581c91560e6666447aae607650362$__633935e42382602001602081019061072d9190612301565b8360400160208101906107409190612301565b8460400160208101906107539190612301565b6040518463ffffffff1660e01b81526004016107719392919061233d565b60206040518083038186803b15801561078957600080fd5b505af415801561079d573d6000803e3d6000fd5b505050506040513d601f19601f820116820180604052508101906107c19190612389565b5050806107cd906123b6565b90506106c7565b5092915050565b600080604051806101c00160405280600060ff168152602001602360ff168152602001601160ff168152602001600b60ff168152602001600860ff168152602001600660ff168152602001600560ff168152602001600260ff168152602001600260ff168152602001600160ff168152602001600160ff168152602001600160ff168152602001600160ff168152602001601160ff1681525090506000600e67ffffffffffffffff81111561089357610892611ca4565b5b6040519080825280602002602001820160405280156108c15781602001602082028036833780820191505090505b509050600085859050905060005b81811015610d4357368787838181106108eb576108ea612243565b5b90506060020190506103e88160000135111561093c576040517f08c379a000000000000000000000000000000000000000000000000000000000815260040161093390612471565b60405180910390fd5b60008160200160208101906109519190612301565b905060018160ff1614156109ad576109888560018151811061097657610975612243565b5b6020026020010151836000013561187a565b8560018151811061099c5761099b612243565b5b602002602001018181525050610d30565b60028160ff1614156109f2578160000135856002815181106109d2576109d1612243565b5b602002602001018181516109e69190612272565b91508181525050610d2f565b60038160ff161415610a4c57610a2785600381518110610a1557610a14612243565b5b6020026020010151836000013561187a565b85600381518110610a3b57610a3a612243565b5b602002602001018181525050610d2e565b60048160ff161415610a9157816000013585600481518110610a7157610a70612243565b5b60200260200101818151610a859190612272565b91508181525050610d2d565b60058160ff161415610ad657816000013585600581518110610ab657610ab5612243565b5b60200260200101818151610aca9190612272565b91508181525050610d2c565b60068160ff161415610b1b57816000013585600681518110610afb57610afa612243565b5b60200260200101818151610b0f9190612272565b91508181525050610d2b565b60078160ff161415610b7557610b5085600781518110610b3e57610b3d612243565b5b6020026020010151836000013561187a565b85600781518110610b6457610b63612243565b5b602002602001018181525050610d2a565b60088160ff161415610bcf57610baa85600881518110610b9857610b97612243565b5b6020026020010151836000013561187a565b85600881518110610bbe57610bbd612243565b5b602002602001018181525050610d29565b60098160ff161415610c1457816000013585600981518110610bf457610bf3612243565b5b60200260200101818151610c089190612272565b91508181525050610d28565b600a8160ff161415610c5957816000013585600a81518110610c3957610c38612243565b5b60200260200101818151610c4d9190612272565b91508181525050610d27565b600b8160ff161415610c9e57816000013585600b81518110610c7e57610c7d612243565b5b60200260200101818151610c929190612272565b91508181525050610d26565b600c8160ff161415610ce357816000013585600c81518110610cc357610cc2612243565b5b60200260200101818151610cd79190612272565b91508181525050610d25565b600c8160ff161415610d2457816000013585600c81518110610d0857610d07612243565b5b60200260200101818151610d1c9190612272565b915081815250505b5b5b5b5b5b5b5b5b5b5b5b5b505080610d3c906123b6565b90506108cf565b506000600190505b600d8111610db1578381600e8110610d6657610d65612243565b5b602002015160ff16838281518110610d8157610d80612243565b5b6020026020010151610d939190611e97565b85610d9e9190612272565b945080610daa906123b6565b9050610d4b565b5050505092915050565b610e538282604051602401610dd1929190612508565b6040516020818303038152906040527fb60e72cc000000000000000000000000000000000000000000000000000000007bffffffffffffffffffffffffffffffffffffffffffffffffffffffff19166020820180517bffffffffffffffffffffffffffffffffffffffffffffffffffffffff8381831617835250505050611894565b5050565b8082600001541015610e9e576040517f08c379a0000000000000000000000000000000000000000000000000000000008152600401610e9590612584565b60405180910390fd5b80826000016000828254610eb291906125a4565b9250508190555080826001016000828254610ecd9190612272565b925050819055505050565b60008360000160008373ffffffffffffffffffffffffffffffffffffffff1673ffffffffffffffffffffffffffffffffffffffff16815260200190815260200160002054905082811015610f61576040517f08c379a0000000000000000000000000000000000000000000000000000000008152600401610f5890611fae565b60405180910390fd5b828460010160008473ffffffffffffffffffffffffffffffffffffffff1673ffffffffffffffffffffffffffffffffffffffff1681526020019081526020016000206000828254610fb29190612272565b92505081905550828460000160008473ffffffffffffffffffffffffffffffffffffffff1673ffffffffffffffffffffffffffffffffffffffff168152602001908152602001600020600082825461100a91906125a4565b9250508190555050505050565b60005b82829050811015611138573683838381811061103957611038612243565b5b9050606002019050611049611ad3565b816000013581600001818152505081604001602081019061106a9190612301565b816040019060ff16908160ff168152505081602001602081019061108e9190612301565b816020019060ff16908160ff1681525050856000018190806001815401808255809150506001900390600052602060002090600302016000909190919091506000820151816000015560208201518160010160006101000a81548160ff021916908360ff16021790555060408201518160010160016101000a81548160ff021916908360ff160217905550606082015181600201555050505080611131906123b6565b905061101a565b50505050565b8060008151811061115257611151612243565b5b602002602001015160006009016001016000848152602001908152602001600020819055506111d26040518060400160405280601281526020017f66756c66696c6c52616e646f6d576f726473000000000000000000000000000081525083836000815181106111c5576111c4612243565b5b60200260200101516118bd565b7fc48d2d1748b2821a893b7befc23c0d3d5ff0cb9fdce850ceac00fabfa006da7960405160405180910390a1600060268260008151811061121657611215612243565b5b602002602001015161122891906125d8565b9050600081141561123857602690505b60008190507f2ed2b3b354a7ae8bd419c4cfa7a0aef256e89ba340aa7e00a6dbee5f2f010878848460008151811061127357611272612243565b5b60200260200101518460405161128b93929190612609565b60405180910390a1600080600701600101600086815260200190815260200160002060009054906101000a900473ffffffffffffffffffffffffffffffffffffffff169050600073ffffffffffffffffffffffffffffffffffffffff168173ffffffffffffffffffffffffffffffffffffffff161415611345577f412fdfca1794c4516d51034490f02b3616c75acf5d768ee0f69afc2a069cb1526000604051611335919061265b565b60405180910390a1505050611876565b6000600701600101600086815260200190815260200160002060006101000a81549073ffffffffffffffffffffffffffffffffffffffff02191690557f412fdfca1794c4516d51034490f02b3616c75acf5d768ee0f69afc2a069cb15260016040516113b1919061265b565b60405180910390a160008060070160000160008373ffffffffffffffffffffffffffffffffffffffff1673ffffffffffffffffffffffffffffffffffffffff16815260200190815260200160002060405180606001604052908160008201805480602002602001604051908101604052809291908181526020016000905b828210156114af5783829060005260206000209060030201604051806080016040529081600082015481526020016001820160009054906101000a900460ff1660ff1660ff1681526020016001820160019054906101000a900460ff1660ff1660ff1681526020016002820154815250508152602001906001019061142f565b50505050815260200160018201548152602001600282015481525050905085816020015114611519577fbce44f9f6b3e64fd0bcfb36638906a2a5015d46474aa67486fd7a1c0036562526000604051611508919061265b565b60405180910390a150505050611876565b7fbce44f9f6b3e64fd0bcfb36638906a2a5015d46474aa67486fd7a1c0036562526001604051611549919061265b565b60405180910390a1600060070160000160008373ffffffffffffffffffffffffffffffffffffffff1673ffffffffffffffffffffffffffffffffffffffff168152602001908152602001600020600080820160006115a79190611b01565b600182016000905560028201600090555050600080600083600001515190506115ce611b25565b60005b8281101561170f576000866000015182815181106115f2576115f1612243565b5b6020026020010151905080600001518661160c9190612272565b9550600073__$8f978581c91560e6666447aae607650362$__633935e423836020015184604001518d6040518463ffffffff1660e01b81526004016116539392919061233d565b60206040518083038186803b15801561166b57600080fd5b505af415801561167f573d6000803e3d6000fd5b505050506040513d601f19601f820116820180604052508101906116a39190612389565b60ff16905060008111156116fc5760008183600001516116c39190611e97565b905080876116d19190612272565b965080836060018181525050808585600a81106116f1576116f0612243565b5b602002018181525050505b505080611708906123b6565b90506115d1565b506117226000600201866040015161195c565b61173d600080016103e8866117379190611f20565b88611996565b600084905060008411156117c2576103e8846117599190611f20565b6000800160000160008973ffffffffffffffffffffffffffffffffffffffff1673ffffffffffffffffffffffffffffffffffffffff16815260200190815260200160002060008282546117ac9190612272565b9250508190555083816117bf9190612680565b90505b60008112156117f1576117ec60006103e8836117dd90612714565b6117e79190611f20565b6119f3565b611814565b60008113156118135761181260006103e88361180d9190611f20565b611a66565b5b5b7fae30dbbe54c9bdd5a7d9ada12e5bdf2666243e7a15e840e99d4360300988d5fa8b8b60008151811061184a57611849612243565b5b60200260200101518b856040516118649493929190612808565b60405180910390a15050505050505050505b5050565b60008183101561188a578161188c565b825b905092915050565b60008151905060006a636f6e736f6c652e6c6f679050602083016000808483855afa5050505050565b6119578383836040516024016118d59392919061284e565b6040516020818303038152906040527fca47c4eb000000000000000000000000000000000000000000000000000000007bffffffffffffffffffffffffffffffffffffffffffffffffffffffff19166020820180517bffffffffffffffffffffffffffffffffffffffffffffffffffffffff8381831617835250505050611894565b505050565b808260000160008282546119709190612272565b925050819055508082600101600082825461198b91906125a4565b925050819055505050565b818360010160008373ffffffffffffffffffffffffffffffffffffffff1673ffffffffffffffffffffffffffffffffffffffff16815260200190815260200160002060008282546119e791906125a4565b92505081905550505050565b60006003905060006127108383611a0a9190611e97565b611a149190611f20565b90508084600b016000828254611a2a9190612272565b9250508190555060008184611a3f9190612272565b905080856002016000016000828254611a5891906125a4565b925050819055505050505050565b6000601a905060006127108383611a7d9190611e97565b611a879190611f20565b90508084600b016000828254611a9d9190612272565b925050819055508083611ab091906125a4565b846002016000016000828254611ac69190612272565b9250508190555050505050565b604051806080016040528060008152602001600060ff168152602001600060ff168152602001600081525090565b5080546000825560030290600052602060002090810190611b229190611b48565b50565b604051806101400160405280600a90602082028036833780820191505090505090565b5b80821115611b93576000808201600090556001820160006101000a81549060ff02191690556001820160016101000a81549060ff0219169055600282016000905550600301611b49565b5090565b6000604051905090565b600080fd5b600080fd5b600080fd5b600080fd5b600080fd5b60008083601f840112611bd057611bcf611bab565b5b8235905067ffffffffffffffff811115611bed57611bec611bb0565b5b602083019150836060820283011115611c0957611c08611bb5565b5b9250929050565b60008060208385031215611c2757611c26611ba1565b5b600083013567ffffffffffffffff811115611c4557611c44611ba6565b5b611c5185828601611bba565b92509250509250929050565b6000819050919050565b611c7081611c5d565b8114611c7b57600080fd5b50565b600081359050611c8d81611c67565b92915050565b6000601f19601f8301169050919050565b7f4e487b7100000000000000000000000000000000000000000000000000000000600052604160045260246000fd5b611cdc82611c93565b810181811067ffffffffffffffff82111715611cfb57611cfa611ca4565b5b80604052505050565b6000611d0e611b97565b9050611d1a8282611cd3565b919050565b600067ffffffffffffffff821115611d3a57611d39611ca4565b5b602082029050602081019050919050565b6000611d5e611d5984611d1f565b611d04565b90508083825260208201905060208402830185811115611d8157611d80611bb5565b5b835b81811015611daa5780611d968882611c7e565b845260208401935050602081019050611d83565b5050509392505050565b600082601f830112611dc957611dc8611bab565b5b8135611dd9848260208601611d4b565b91505092915050565b60008060408385031215611df957611df8611ba1565b5b6000611e0785828601611c7e565b925050602083013567ffffffffffffffff811115611e2857611e27611ba6565b5b611e3485828601611db4565b9150509250929050565b611e4781611c5d565b82525050565b6000602082019050611e626000830184611e3e565b92915050565b7f4e487b7100000000000000000000000000000000000000000000000000000000600052601160045260246000fd5b6000611ea282611c5d565b9150611ead83611c5d565b9250817fffffffffffffffffffffffffffffffffffffffffffffffffffffffffffffffff0483118215151615611ee657611ee5611e68565b5b828202905092915050565b7f4e487b7100000000000000000000000000000000000000000000000000000000600052601260045260246000fd5b6000611f2b82611c5d565b9150611f3683611c5d565b925082611f4657611f45611ef1565b5b828204905092915050565b600082825260208201905092915050565b7f42616c616e636520697320696e73756666696369656e74000000000000000000600082015250565b6000611f98601783611f51565b9150611fa382611f62565b602082019050919050565b60006020820190508181036000830152611fc781611f8b565b9050919050565b600073ffffffffffffffffffffffffffffffffffffffff82169050919050565b6000611ff982611fce565b9050919050565b61200981611fee565b82525050565b60006040820190506120246000830185612000565b6120316020830184612000565b9392505050565b6000819050919050565b61204b81612038565b82525050565b600067ffffffffffffffff82169050919050565b61206e81612051565b82525050565b600061ffff82169050919050565b61208b81612074565b82525050565b600063ffffffff82169050919050565b6120aa81612091565b82525050565b600060a0820190506120c56000830188612042565b6120d26020830187612065565b6120df6040830186612082565b6120ec60608301856120a1565b6120f960808301846120a1565b9695505050505050565b60008151905061211281611c67565b92915050565b60006020828403121561212e5761212d611ba1565b5b600061213c84828501612103565b91505092915050565b7f546f6f206d616e79206265747300000000000000000000000000000000000000600082015250565b600061217b600d83611f51565b915061218682612145565b602082019050919050565b600060208201905081810360008301526121aa8161216e565b9050919050565b7f526f756c65747465206973206c61756e636865642e204e6f206d6f726520626560008201527f74732e0000000000000000000000000000000000000000000000000000000000602082015250565b600061220d602383611f51565b9150612218826121b1565b604082019050919050565b6000602082019050818103600083015261223c81612200565b9050919050565b7f4e487b7100000000000000000000000000000000000000000000000000000000600052603260045260246000fd5b600061227d82611c5d565b915061228883611c5d565b9250827fffffffffffffffffffffffffffffffffffffffffffffffffffffffffffffffff038211156122bd576122bc611e68565b5b828201905092915050565b600060ff82169050919050565b6122de816122c8565b81146122e957600080fd5b50565b6000813590506122fb816122d5565b92915050565b60006020828403121561231757612316611ba1565b5b6000612325848285016122ec565b91505092915050565b612337816122c8565b82525050565b6000606082019050612352600083018661232e565b61235f602083018561232e565b61236c604083018461232e565b949350505050565b600081519050612383816122d5565b92915050565b60006020828403121561239f5761239e611ba1565b5b60006123ad84828501612374565b91505092915050565b60006123c182611c5d565b91507fffffffffffffffffffffffffffffffffffffffffffffffffffffffffffffffff8214156123f4576123f3611e68565b5b600182019050919050565b7f426574206f6e2073696e676c6520706f736974696f6e2065786365656473203160008201527f3030300000000000000000000000000000000000000000000000000000000000602082015250565b600061245b602383611f51565b9150612466826123ff565b604082019050919050565b6000602082019050818103600083015261248a8161244e565b9050919050565b600081519050919050565b60005b838110156124ba57808201518184015260208101905061249f565b838111156124c9576000848401525b50505050565b60006124da82612491565b6124e48185611f51565b93506124f481856020860161249c565b6124fd81611c93565b840191505092915050565b6000604082019050818103600083015261252281856124cf565b90506125316020830184611e3e565b9392505050565b7f486f7573652062616c616e636520697320696e73756666696369656e74000000600082015250565b600061256e601d83611f51565b915061257982612538565b602082019050919050565b6000602082019050818103600083015261259d81612561565b9050919050565b60006125af82611c5d565b91506125ba83611c5d565b9250828210156125cd576125cc611e68565b5b828203905092915050565b60006125e382611c5d565b91506125ee83611c5d565b9250826125fe576125fd611ef1565b5b828206905092915050565b600060608201905061261e6000830186611e3e565b61262b6020830185611e3e565b6126386040830184611e3e565b949350505050565b60008115159050919050565b61265581612640565b82525050565b6000602082019050612670600083018461264c565b92915050565b6000819050919050565b600061268b82612676565b915061269683612676565b9250827f8000000000000000000000000000000000000000000000000000000000000000018212600084121516156126d1576126d0611e68565b5b827f7fffffffffffffffffffffffffffffffffffffffffffffffffffffffffffffff01821360008412161561270957612708611e68565b5b828203905092915050565b600061271f82612676565b91507f800000000000000000000000000000000000000000000000000000000000000082141561275257612751611e68565b5b816000039050919050565b6000600a9050919050565b600081905092915050565b6000819050919050565b61278681611c5d565b82525050565b6000612798838361277d565b60208301905092915050565b6000602082019050919050565b6127ba8161275d565b6127c48184612768565b92506127cf82612773565b8060005b838110156128005781516127e7878261278c565b96506127f2836127a4565b9250506001810190506127d3565b505050505050565b60006101a08201905061281e6000830187611e3e565b61282b6020830186611e3e565b6128386040830185611e3e565b61284560608301846127b1565b95945050505050565b6000606082019050818103600083015261286881866124cf565b90506128776020830185611e3e565b6128846040830184611e3e565b94935050505056fea2646970667358221220a73de8c3ce280edef10e5cf64f69ada455d09530c9c35efd291cf56a690c08d564736f6c63430008090033",
  "linkReferences": {
    "contracts/libraries/roulette/LibRulette.sol": {
      "LibRulette": [
        {
          "length": 20,
          "start": 1826
        },
        {
          "length": 20,
          "start": 5682
        }
      ]
    }
  },
  "deployedLinkReferences": {
    "contracts/libraries/roulette/LibRulette.sol": {
      "LibRulette": [
        {
          "length": 20,
          "start": 1794
        },
        {
          "length": 20,
          "start": 5650
        }
      ]
    }
  }
}