{
  "_format": "hh-sol-artifact-1",
  "contractName": "StakerFacet",
  "sourceName": "contracts/StakerFacet.sol",
  "abi": [
    {
      "inputs": [],
      "stateMutability": "nonpayable",
      "type": "constructor"
    },
    {
      "inputs": [],
      "name": "checkStakerBalance",
      "outputs": [
        {
          "internalType": "uint256",
          "name": "stakerPercent",
          "type": "uint256"
        },
        {
          "internalType": "uint256",
          "name": "newHouseBalance",
          "type": "uint256"
        }
      ],
      "stateMutability": "view",
      "type": "function"
    },
    {
      "inputs": [],
      "name": "stakeETH",
      "outputs": [],
      "stateMutability": "payable",
      "type": "function"
    },
    {
      "inputs": [],
      "name": "withdrawAllStakerDAI",
      "outputs": [],
      "stateMutability": "nonpayable",
      "type": "function"
    }
  ],
  "bytecode": "0x608060405234801561001057600080fd5b506100243361002960201b610a861760201c565b610133565b600061003961010660201b60201c565b905060008160030160009054906101000a900473ffffffffffffffffffffffffffffffffffffffff169050828260030160006101000a81548173ffffffffffffffffffffffffffffffffffffffff021916908373ffffffffffffffffffffffffffffffffffffffff1602179055508273ffffffffffffffffffffffffffffffffffffffff168173ffffffffffffffffffffffffffffffffffffffff167f8be0079c531659141344cd1fd0a4f28419497f9722a3daafe3b4186f6b6457e060405160405180910390a3505050565b6000807fec2e1d18880eab0fa99cf138ce95db1d80287501a0d954892af33d430f009c4190508091505090565b6119f6806101426000396000f3fe6080604052600436106100345760003560e01c806390975f8214610039578063cae8012f14610050578063dceb986d1461007c575b600080fd5b34801561004557600080fd5b5061004e610086565b005b34801561005c57600080fd5b506100656105d3565b6040516100739291906111ac565b60405180910390f35b61008461069d565b005b600060020160030160003373ffffffffffffffffffffffffffffffffffffffff1673ffffffffffffffffffffffffffffffffffffffff16815260200190815260200160002060009054906101000a900460ff16610118576040517f08c379a000000000000000000000000000000000000000000000000000000000815260040161010f90611232565b60405180910390fd5b600080600201600201905060008160003373ffffffffffffffffffffffffffffffffffffffff1673ffffffffffffffffffffffffffffffffffffffff168152602001908152602001600020549050600081116101a9576040517f08c379a00000000000000000000000000000000000000000000000000000000081526004016101a09061129e565b60405180910390fd5b60008060020160000154116101f3576040517f08c379a00000000000000000000000000000000000000000000000000000000081526004016101ea9061130a565b60405180910390fd5b6000806002016000015490506000670de0b6b3a764000083836102169190611359565b61022091906113e2565b9050816000600201600001600082825461023a9190611413565b9250508190555060008060020160000154905060008560003373ffffffffffffffffffffffffffffffffffffffff1673ffffffffffffffffffffffffffffffffffffffff16815260200190815260200160002081905550600080600201600401905060008180549050905060005b818110156104265760008382815481106102c5576102c4611447565b5b9060005260206000200160009054906101000a900473ffffffffffffffffffffffffffffffffffffffff16905060008511156103cf5760008960008373ffffffffffffffffffffffffffffffffffffffff1673ffffffffffffffffffffffffffffffffffffffff1681526020019081526020016000205490506000670de0b6b3a7640000828a6103559190611359565b61035f91906113e2565b9050600087670de0b6b3a7640000836103789190611359565b61038291906113e2565b9050808c60008673ffffffffffffffffffffffffffffffffffffffff1673ffffffffffffffffffffffffffffffffffffffff16815260200190815260200160002081905550505050610414565b60008960008373ffffffffffffffffffffffffffffffffffffffff1673ffffffffffffffffffffffffffffffffffffffff168152602001908152602001600020819055505b508061041f90611476565b90506102a8565b506000841161046a576040517f08c379a00000000000000000000000000000000000000000000000000000000081526004016104619061150b565b60405180910390fd5b60008411156105ca576000736b175474e89094c44da98b954eedeac495271d0f90508073ffffffffffffffffffffffffffffffffffffffff1663095ea7b33064e8d4a51000886104ba9190611359565b6040518363ffffffff1660e01b81526004016104d792919061156c565b602060405180830381600087803b1580156104f157600080fd5b505af1158015610505573d6000803e3d6000fd5b505050506040513d601f19601f8201168201806040525081019061052991906115e1565b508073ffffffffffffffffffffffffffffffffffffffff1663a9059cbb3364e8d4a51000886105589190611359565b6040518363ffffffff1660e01b815260040161057592919061156c565b602060405180830381600087803b15801561058f57600080fd5b505af11580156105a3573d6000803e3d6000fd5b505050506040513d601f19601f820116820180604052508101906105c791906115e1565b50505b50505050505050565b600080600060020160030160003373ffffffffffffffffffffffffffffffffffffffff1673ffffffffffffffffffffffffffffffffffffffff16815260200190815260200160002060009054906101000a900460ff16610640576000806002016000015491509150610699565b60008060020160020190508060003373ffffffffffffffffffffffffffffffffffffffff1673ffffffffffffffffffffffffffffffffffffffff1681526020019081526020016000205460006002016000015492509250505b9091565b600073c02aaa39b223fe8d0a0e5c4f27ead9083c756cc290508073ffffffffffffffffffffffffffffffffffffffff1663d0e30db0346040518263ffffffff1660e01b81526004016000604051808303818588803b1580156106fe57600080fd5b505af1158015610712573d6000803e3d6000fd5b50505050506000737a250d5630b4cf539739df2c5dacb4c659f2488d90508173ffffffffffffffffffffffffffffffffffffffff1663095ea7b382346040518363ffffffff1660e01b815260040161076b92919061156c565b602060405180830381600087803b15801561078557600080fd5b505af1158015610799573d6000803e3d6000fd5b505050506040513d601f19601f820116820180604052508101906107bd91906115e1565b506060600267ffffffffffffffff8111156107db576107da61160e565b5b6040519080825280602002602001820160405280156108095781602001602082028036833780820191505090505b50905073c02aaa39b223fe8d0a0e5c4f27ead9083c756cc28160008151811061083557610834611447565b5b602002602001019073ffffffffffffffffffffffffffffffffffffffff16908173ffffffffffffffffffffffffffffffffffffffff1681525050736b175474e89094c44da98b954eedeac495271d0f8160018151811061089857610897611447565b5b602002602001019073ffffffffffffffffffffffffffffffffffffffff16908173ffffffffffffffffffffffffffffffffffffffff168152505060008273ffffffffffffffffffffffffffffffffffffffff166338ed17393460018530426040518663ffffffff1660e01b8152600401610916959493929190611740565b600060405180830381600087803b15801561093057600080fd5b505af1158015610944573d6000803e3d6000fd5b505050506040513d6000823e3d601f19601f8201168201806040525081019061096d91906118f0565b905060008160018151811061098557610984611447565b5b60200260200101519050600064e8d4a51000826109a291906113e2565b9050600064e8d4a51000826109b79190611359565b836109c29190611413565b905060008060020160000154905082600060020160000160008282546109e89190611939565b92505081905550816000600b016000828254610a049190611939565b92505081905550600060020160030160003373ffffffffffffffffffffffffffffffffffffffff1673ffffffffffffffffffffffffffffffffffffffff16815260200190815260200160002060009054906101000a900460ff16610a7157610a6c8184610b5d565b610a7c565b610a7b8184610e70565b5b5050505050505050565b6000610a90611166565b905060008160030160009054906101000a900473ffffffffffffffffffffffffffffffffffffffff169050828260030160006101000a81548173ffffffffffffffffffffffffffffffffffffffff021916908373ffffffffffffffffffffffffffffffffffffffff1602179055508273ffffffffffffffffffffffffffffffffffffffff168173ffffffffffffffffffffffffffffffffffffffff167f8be0079c531659141344cd1fd0a4f28419497f9722a3daafe3b4186f6b6457e060405160405180910390a3505050565b60008183610b6b9190611939565b90506000806002016004019050600081805490509050600080600201600201905060005b82811015610cf2576000848281548110610bac57610bab611447565b5b9060005260206000200160009054906101000a900473ffffffffffffffffffffffffffffffffffffffff16905060008360008373ffffffffffffffffffffffffffffffffffffffff1673ffffffffffffffffffffffffffffffffffffffff1681526020019081526020016000205490506000620f4240828b610c2e9190611359565b610c3891906113e2565b9050600088620f424083610c4c9190611359565b610c5691906113e2565b90506000600a8a6298968085610c6c9190611359565b610c7691906113e2565b610c80919061198f565b905060058110610c99578180610c9590611476565b9250505b818760008773ffffffffffffffffffffffffffffffffffffffff1673ffffffffffffffffffffffffffffffffffffffff16815260200190815260200160002081905550505050505080610ceb90611476565b9050610b8f565b506000600201600401339080600181540180825580915050600190039060005260206000200160009091909190916101000a81548173ffffffffffffffffffffffffffffffffffffffff021916908373ffffffffffffffffffffffffffffffffffffffff1602179055506001600060020160030160003373ffffffffffffffffffffffffffffffffffffffff1673ffffffffffffffffffffffffffffffffffffffff16815260200190815260200160002060006101000a81548160ff021916908315150217905550600084670de0b6b3a764000087610dd19190611359565b610ddb91906113e2565b90506000600a86678ac7230489e8000089610df69190611359565b610e0091906113e2565b610e0a919061198f565b905060058110610e23578180610e1f90611476565b9250505b818360003373ffffffffffffffffffffffffffffffffffffffff1673ffffffffffffffffffffffffffffffffffffffff168152602001908152602001600020819055505050505050505050565b60008183610e7e9190611939565b90506000806002016004019050600081805490509050600080600201600201905060008160003373ffffffffffffffffffffffffffffffffffffffff1673ffffffffffffffffffffffffffffffffffffffff1681526020019081526020016000205490506000620f42408883610ef49190611359565b610efe91906113e2565b905060005b84811015611066576000868281548110610f2057610f1f611447565b5b9060005260206000200160009054906101000a900473ffffffffffffffffffffffffffffffffffffffff16905060008560008373ffffffffffffffffffffffffffffffffffffffff1673ffffffffffffffffffffffffffffffffffffffff1681526020019081526020016000205490506000620f4240828d610fa29190611359565b610fac91906113e2565b905060008a620f424083610fc09190611359565b610fca91906113e2565b90506000600a8c6298968085610fe09190611359565b610fea91906113e2565b610ff4919061198f565b90506005811061100d57818061100990611476565b9250505b818960008773ffffffffffffffffffffffffffffffffffffffff1673ffffffffffffffffffffffffffffffffffffffff1681526020019081526020016000208190555050505050508061105f90611476565b9050610f03565b50600081662386f26fc100008961107d9190611359565b6110879190611939565b90506000662386f26fc1000088670de0b6b3a7640000846110a89190611359565b6110b291906113e2565b6110bc91906113e2565b90506000600a662386f26fc100008a678ac7230489e80000866110df9190611359565b6110e991906113e2565b6110f391906113e2565b6110fd919061198f565b90506005811061111657818061111290611476565b9250505b818660003373ffffffffffffffffffffffffffffffffffffffff1673ffffffffffffffffffffffffffffffffffffffff168152602001908152602001600020819055505050505050505050505050565b6000807fec2e1d18880eab0fa99cf138ce95db1d80287501a0d954892af33d430f009c4190508091505090565b6000819050919050565b6111a681611193565b82525050565b60006040820190506111c1600083018561119d565b6111ce602083018461119d565b9392505050565b600082825260208201905092915050565b7f596f7520617265206e6f742061207374616b6572000000000000000000000000600082015250565b600061121c6014836111d5565b9150611227826111e6565b602082019050919050565b6000602082019050818103600083015261124b8161120f565b9050919050565b7f596f75722070726563656e7420697a205a45524f000000000000000000000000600082015250565b60006112886014836111d5565b915061129382611252565b602082019050919050565b600060208201905081810360008301526112b78161127b565b9050919050565b7f486f7573652062616c616e636520697a205a45524f0000000000000000000000600082015250565b60006112f46015836111d5565b91506112ff826112be565b602082019050919050565b60006020820190508181036000830152611323816112e7565b9050919050565b7f4e487b7100000000000000000000000000000000000000000000000000000000600052601160045260246000fd5b600061136482611193565b915061136f83611193565b9250817fffffffffffffffffffffffffffffffffffffffffffffffffffffffffffffffff04831182151516156113a8576113a761132a565b5b828202905092915050565b7f4e487b7100000000000000000000000000000000000000000000000000000000600052601260045260246000fd5b60006113ed82611193565b91506113f883611193565b925082611408576114076113b3565b5b828204905092915050565b600061141e82611193565b915061142983611193565b92508282101561143c5761143b61132a565b5b828203905092915050565b7f4e487b7100000000000000000000000000000000000000000000000000000000600052603260045260246000fd5b600061148182611193565b91507fffffffffffffffffffffffffffffffffffffffffffffffffffffffffffffffff8214156114b4576114b361132a565b5b600182019050919050565b7f596f75722062616c616e636520697a205a45524f000000000000000000000000600082015250565b60006114f56014836111d5565b9150611500826114bf565b602082019050919050565b60006020820190508181036000830152611524816114e8565b9050919050565b600073ffffffffffffffffffffffffffffffffffffffff82169050919050565b60006115568261152b565b9050919050565b6115668161154b565b82525050565b6000604082019050611581600083018561155d565b61158e602083018461119d565b9392505050565b6000604051905090565b600080fd5b600080fd5b60008115159050919050565b6115be816115a9565b81146115c957600080fd5b50565b6000815190506115db816115b5565b92915050565b6000602082840312156115f7576115f661159f565b5b6000611605848285016115cc565b91505092915050565b7f4e487b7100000000000000000000000000000000000000000000000000000000600052604160045260246000fd5b6000819050919050565b6000819050919050565b600061166c6116676116628461163d565b611647565b611193565b9050919050565b61167c81611651565b82525050565b600081519050919050565b600082825260208201905092915050565b6000819050602082019050919050565b6116b78161154b565b82525050565b60006116c983836116ae565b60208301905092915050565b6000602082019050919050565b60006116ed82611682565b6116f7818561168d565b93506117028361169e565b8060005b8381101561173357815161171a88826116bd565b9750611725836116d5565b925050600181019050611706565b5085935050505092915050565b600060a082019050611755600083018861119d565b6117626020830187611673565b818103604083015261177481866116e2565b9050611783606083018561155d565b611790608083018461119d565b9695505050505050565b600080fd5b6000601f19601f8301169050919050565b6117b98261179f565b810181811067ffffffffffffffff821117156117d8576117d761160e565b5b80604052505050565b60006117eb611595565b90506117f782826117b0565b919050565b600067ffffffffffffffff8211156118175761181661160e565b5b602082029050602081019050919050565b600080fd5b61183681611193565b811461184157600080fd5b50565b6000815190506118538161182d565b92915050565b600061186c611867846117fc565b6117e1565b9050808382526020820190506020840283018581111561188f5761188e611828565b5b835b818110156118b857806118a48882611844565b845260208401935050602081019050611891565b5050509392505050565b600082601f8301126118d7576118d661179a565b5b81516118e7848260208601611859565b91505092915050565b6000602082840312156119065761190561159f565b5b600082015167ffffffffffffffff811115611924576119236115a4565b5b611930848285016118c2565b91505092915050565b600061194482611193565b915061194f83611193565b9250827fffffffffffffffffffffffffffffffffffffffffffffffffffffffffffffffff038211156119845761198361132a565b5b828201905092915050565b600061199a82611193565b91506119a583611193565b9250826119b5576119b46113b3565b5b82820690509291505056fea2646970667358221220ad6e54eb54e13b355142129235bcecda741b4c81ba4b7d2894751859a40ef15e64736f6c63430008090033",
  "linkReferences": {},
  "deployedLinkReferences": {}
}