{
  "_format": "hh-sol-artifact-1",
  "contractName": "StakerFacet",
  "sourceName": "contracts/StakerFacet.sol",
  "abi": [
    {
      "inputs": [],
      "stateMutability": "nonpayable",
      "type": "constructor"
    },
    {
      "inputs": [],
      "name": "checkStakerBalance",
      "outputs": [
        {
          "internalType": "uint256",
          "name": "stakerPercent",
          "type": "uint256"
        },
        {
          "internalType": "uint256",
          "name": "newHouseBalance",
          "type": "uint256"
        }
      ],
      "stateMutability": "view",
      "type": "function"
    },
    {
      "inputs": [],
      "name": "stakeETH",
      "outputs": [],
      "stateMutability": "payable",
      "type": "function"
    },
    {
      "inputs": [],
      "name": "withdrawAllStakerDAI",
      "outputs": [],
      "stateMutability": "nonpayable",
      "type": "function"
    }
  ],
  "bytecode": "0x608060405234801561001057600080fd5b506100243361002960201b6108741760201c565b610133565b600061003961010660201b60201c565b905060008160030160009054906101000a900473ffffffffffffffffffffffffffffffffffffffff169050828260030160006101000a81548173ffffffffffffffffffffffffffffffffffffffff021916908373ffffffffffffffffffffffffffffffffffffffff1602179055508273ffffffffffffffffffffffffffffffffffffffff168173ffffffffffffffffffffffffffffffffffffffff167f8be0079c531659141344cd1fd0a4f28419497f9722a3daafe3b4186f6b6457e060405160405180910390a3505050565b6000807fec2e1d18880eab0fa99cf138ce95db1d80287501a0d954892af33d430f009c4190508091505090565b61163e806101426000396000f3fe6080604052600436106100345760003560e01c806390975f8214610039578063cae8012f14610050578063dceb986d1461007c575b600080fd5b34801561004557600080fd5b5061004e610086565b005b34801561005c57600080fd5b50610065610705565b60405161007392919061104c565b60405180910390f35b6100846107cf565b005b600c60009054906101000a900460ff16156100d6576040517f08c379a00000000000000000000000000000000000000000000000000000000081526004016100cd906110d2565b60405180910390fd5b6001600c60006101000a81548160ff021916908315150217905550600060020160030160003373ffffffffffffffffffffffffffffffffffffffff1673ffffffffffffffffffffffffffffffffffffffff16815260200190815260200160002060009054906101000a900460ff16610183576040517f08c379a000000000000000000000000000000000000000000000000000000000815260040161017a9061113e565b60405180910390fd5b600080600201600201905060008160003373ffffffffffffffffffffffffffffffffffffffff1673ffffffffffffffffffffffffffffffffffffffff16815260200190815260200160002054905060008111610214576040517f08c379a000000000000000000000000000000000000000000000000000000000815260040161020b906111aa565b60405180910390fd5b600080600201600001541161025e576040517f08c379a000000000000000000000000000000000000000000000000000000000815260040161025590611216565b60405180910390fd5b6000806002016000015490506000670de0b6b3a764000083836102819190611265565b61028b91906112ee565b90506102cc6040518060400160405280600f81526020017f7374616b65724f6c64416d6f756e7400000000000000000000000000000000008152508261094b565b6000600a67016345785d8a000085856102e59190611265565b6102ef91906112ee565b6102f9919061131f565b905061033a6040518060400160405280601b81526020017f7374616b65724f6c64416d6f756e744669727374446563696d616c00000000008152508261094b565b6005811061035157818061034d90611350565b9250505b81600060020160000160008282546103699190611399565b925050819055506000806002016000015490506103bb6040518060400160405280600f81526020017f6e6577486f75736542616c616e636500000000000000000000000000000000008152508261094b565b60008660003373ffffffffffffffffffffffffffffffffffffffff1673ffffffffffffffffffffffffffffffffffffffff16815260200190815260200160002081905550600080600201600401905060008180549050905060005b81811015610594576000838281548110610433576104326113cd565b5b9060005260206000200160009054906101000a900473ffffffffffffffffffffffffffffffffffffffff169050600085111561053d5760008a60008373ffffffffffffffffffffffffffffffffffffffff1673ffffffffffffffffffffffffffffffffffffffff1681526020019081526020016000205490506000670de0b6b3a7640000828b6104c39190611265565b6104cd91906112ee565b9050600087670de0b6b3a7640000836104e69190611265565b6104f091906112ee565b9050808d60008673ffffffffffffffffffffffffffffffffffffffff1673ffffffffffffffffffffffffffffffffffffffff16815260200190815260200160002081905550505050610582565b60008a60008373ffffffffffffffffffffffffffffffffffffffff1673ffffffffffffffffffffffffffffffffffffffff168152602001908152602001600020819055505b508061058d90611350565b9050610416565b50600085116105d8576040517f08c379a00000000000000000000000000000000000000000000000000000000081526004016105cf90611448565b60405180910390fd5b4785111561061b576040517f08c379a0000000000000000000000000000000000000000000000000000000008152600401610612906114da565b60405180910390fd5b61065a6040518060400160405280601b81526020017f5769746864726177696e67207374616b65724f6c64416d6f756e7400000000008152508661094b565b6106996040518060400160405280601581526020017f616464726573732874686973292e62616c616e636500000000000000000000008152504761094b565b3373ffffffffffffffffffffffffffffffffffffffff166108fc869081150290604051600060405180830381858888f193505050501580156106df573d6000803e3d6000fd5b5050505050505050506000600c60006101000a81548160ff021916908315150217905550565b600080600060020160030160003373ffffffffffffffffffffffffffffffffffffffff1673ffffffffffffffffffffffffffffffffffffffff16815260200190815260200160002060009054906101000a900460ff166107725760008060020160000154915091506107cb565b60008060020160020190508060003373ffffffffffffffffffffffffffffffffffffffff1673ffffffffffffffffffffffffffffffffffffffff1681526020019081526020016000205460006002016000015492509250505b9091565b600034905060008060020160000154905081600060020160000160008282546107f891906114fa565b92505081905550600060020160030160003373ffffffffffffffffffffffffffffffffffffffff1673ffffffffffffffffffffffffffffffffffffffff16815260200190815260200160002060009054906101000a900460ff166108655761086081836109e7565b610870565b61086f8183610d09565b5b5050565b600061087e610fdd565b905060008160030160009054906101000a900473ffffffffffffffffffffffffffffffffffffffff169050828260030160006101000a81548173ffffffffffffffffffffffffffffffffffffffff021916908373ffffffffffffffffffffffffffffffffffffffff1602179055508273ffffffffffffffffffffffffffffffffffffffff168173ffffffffffffffffffffffffffffffffffffffff167f8be0079c531659141344cd1fd0a4f28419497f9722a3daafe3b4186f6b6457e060405160405180910390a3505050565b6109e382826040516024016109619291906115d8565b6040516020818303038152906040527fb60e72cc000000000000000000000000000000000000000000000000000000007bffffffffffffffffffffffffffffffffffffffffffffffffffffffff19166020820180517bffffffffffffffffffffffffffffffffffffffffffffffffffffffff838183161783525050505061100a565b5050565b600081836109f591906114fa565b90506000806002016004019050600081805490509050600080600201600201905060005b82811015610b8b576000848281548110610a3657610a356113cd565b5b9060005260206000200160009054906101000a900473ffffffffffffffffffffffffffffffffffffffff16905060008360008373ffffffffffffffffffffffffffffffffffffffff1673ffffffffffffffffffffffffffffffffffffffff1681526020019081526020016000205490506000670de0b6b3a7640000828b610abd9190611265565b610ac791906112ee565b9050600088670de0b6b3a764000083610ae09190611265565b610aea91906112ee565b90506000600a8a678ac7230489e8000085610b059190611265565b610b0f91906112ee565b610b19919061131f565b905060058110610b32578180610b2e90611350565b9250505b818760008773ffffffffffffffffffffffffffffffffffffffff1673ffffffffffffffffffffffffffffffffffffffff16815260200190815260200160002081905550505050505080610b8490611350565b9050610a19565b506000600201600401339080600181540180825580915050600190039060005260206000200160009091909190916101000a81548173ffffffffffffffffffffffffffffffffffffffff021916908373ffffffffffffffffffffffffffffffffffffffff1602179055506001600060020160030160003373ffffffffffffffffffffffffffffffffffffffff1673ffffffffffffffffffffffffffffffffffffffff16815260200190815260200160002060006101000a81548160ff021916908315150217905550600084670de0b6b3a764000087610c6a9190611265565b610c7491906112ee565b90506000600a86678ac7230489e8000089610c8f9190611265565b610c9991906112ee565b610ca3919061131f565b905060058110610cbc578180610cb890611350565b9250505b818360003373ffffffffffffffffffffffffffffffffffffffff1673ffffffffffffffffffffffffffffffffffffffff168152602001908152602001600020819055505050505050505050565b60008183610d1791906114fa565b90506000806002016004019050600081805490509050600080600201600201905060008160003373ffffffffffffffffffffffffffffffffffffffff1673ffffffffffffffffffffffffffffffffffffffff1681526020019081526020016000205490506000670de0b6b3a76400008883610d929190611265565b610d9c91906112ee565b905060005b84811015610f13576000868281548110610dbe57610dbd6113cd565b5b9060005260206000200160009054906101000a900473ffffffffffffffffffffffffffffffffffffffff16905060008560008373ffffffffffffffffffffffffffffffffffffffff1673ffffffffffffffffffffffffffffffffffffffff1681526020019081526020016000205490506000670de0b6b3a7640000828d610e459190611265565b610e4f91906112ee565b905060008a670de0b6b3a764000083610e689190611265565b610e7291906112ee565b90506000600a8c678ac7230489e8000085610e8d9190611265565b610e9791906112ee565b610ea1919061131f565b905060058110610eba578180610eb690611350565b9250505b818960008773ffffffffffffffffffffffffffffffffffffffff1673ffffffffffffffffffffffffffffffffffffffff16815260200190815260200160002081905550505050505080610f0c90611350565b9050610da1565b5060008188610f2291906114fa565b9050600087670de0b6b3a764000083610f3b9190611265565b610f4591906112ee565b90506000600a89678ac7230489e8000085610f609190611265565b610f6a91906112ee565b610f74919061131f565b905060058110610f8d578180610f8990611350565b9250505b818660003373ffffffffffffffffffffffffffffffffffffffff1673ffffffffffffffffffffffffffffffffffffffff168152602001908152602001600020819055505050505050505050505050565b6000807fec2e1d18880eab0fa99cf138ce95db1d80287501a0d954892af33d430f009c4190508091505090565b60008151905060006a636f6e736f6c652e6c6f679050602083016000808483855afa5050505050565b6000819050919050565b61104681611033565b82525050565b6000604082019050611061600083018561103d565b61106e602083018461103d565b9392505050565b600082825260208201905092915050565b7f4e6f2072652d656e7472616e6379000000000000000000000000000000000000600082015250565b60006110bc600e83611075565b91506110c782611086565b602082019050919050565b600060208201905081810360008301526110eb816110af565b9050919050565b7f596f7520617265206e6f742061207374616b6572000000000000000000000000600082015250565b6000611128601483611075565b9150611133826110f2565b602082019050919050565b600060208201905081810360008301526111578161111b565b9050919050565b7f596f75722070726563656e7420697a205a45524f000000000000000000000000600082015250565b6000611194601483611075565b915061119f8261115e565b602082019050919050565b600060208201905081810360008301526111c381611187565b9050919050565b7f486f7573652062616c616e636520697a205a45524f0000000000000000000000600082015250565b6000611200601583611075565b915061120b826111ca565b602082019050919050565b6000602082019050818103600083015261122f816111f3565b9050919050565b7f4e487b7100000000000000000000000000000000000000000000000000000000600052601160045260246000fd5b600061127082611033565b915061127b83611033565b9250817fffffffffffffffffffffffffffffffffffffffffffffffffffffffffffffffff04831182151516156112b4576112b3611236565b5b828202905092915050565b7f4e487b7100000000000000000000000000000000000000000000000000000000600052601260045260246000fd5b60006112f982611033565b915061130483611033565b925082611314576113136112bf565b5b828204905092915050565b600061132a82611033565b915061133583611033565b925082611345576113446112bf565b5b828206905092915050565b600061135b82611033565b91507fffffffffffffffffffffffffffffffffffffffffffffffffffffffffffffffff82141561138e5761138d611236565b5b600182019050919050565b60006113a482611033565b91506113af83611033565b9250828210156113c2576113c1611236565b5b828203905092915050565b7f4e487b7100000000000000000000000000000000000000000000000000000000600052603260045260246000fd5b7f596f75722062616c616e636520697a205a45524f000000000000000000000000600082015250565b6000611432601483611075565b915061143d826113fc565b602082019050919050565b6000602082019050818103600083015261146181611425565b9050919050565b7f42616c616e6365206973206c657373207468616e20706c6174666f726d20686160008201527f7300000000000000000000000000000000000000000000000000000000000000602082015250565b60006114c4602183611075565b91506114cf82611468565b604082019050919050565b600060208201905081810360008301526114f3816114b7565b9050919050565b600061150582611033565b915061151083611033565b9250827fffffffffffffffffffffffffffffffffffffffffffffffffffffffffffffffff0382111561154557611544611236565b5b828201905092915050565b600081519050919050565b60005b8381101561157957808201518184015260208101905061155e565b83811115611588576000848401525b50505050565b6000601f19601f8301169050919050565b60006115aa82611550565b6115b48185611075565b93506115c481856020860161155b565b6115cd8161158e565b840191505092915050565b600060408201905081810360008301526115f2818561159f565b9050611601602083018461103d565b939250505056fea26469706673582212205e5c2cca5bf809130029da9ea1f39c7dcadcd0af46417fb1895caedf1d3bc8e064736f6c63430008090033",
  "linkReferences": {},
  "deployedLinkReferences": {}
}