{
  "_format": "hh-sol-artifact-1",
  "contractName": "StakerFacet",
  "sourceName": "contracts/StakerFacet.sol",
  "abi": [
    {
      "inputs": [],
      "stateMutability": "nonpayable",
      "type": "constructor"
    },
    {
      "inputs": [],
      "name": "checkStakerBalance",
      "outputs": [
        {
          "internalType": "uint256",
          "name": "stakerPercent",
          "type": "uint256"
        },
        {
          "internalType": "uint256",
          "name": "houseBalance",
          "type": "uint256"
        },
        {
          "internalType": "uint256",
          "name": "userbalance",
          "type": "uint256"
        },
        {
          "internalType": "uint256",
          "name": "glpSupply",
          "type": "uint256"
        }
      ],
      "stateMutability": "view",
      "type": "function"
    },
    {
      "inputs": [
        {
          "internalType": "address",
          "name": "GLPtokenAddress",
          "type": "address"
        }
      ],
      "name": "setGLPTokenAddress",
      "outputs": [],
      "stateMutability": "nonpayable",
      "type": "function"
    },
    {
      "inputs": [],
      "name": "stakeETH",
      "outputs": [],
      "stateMutability": "payable",
      "type": "function"
    }
  ],
  "bytecode": "0x608060405234801561001057600080fd5b506100243361002960201b6106171760201c565b610133565b600061003961010660201b60201c565b905060008160030160009054906101000a900473ffffffffffffffffffffffffffffffffffffffff169050828260030160006101000a81548173ffffffffffffffffffffffffffffffffffffffff021916908373ffffffffffffffffffffffffffffffffffffffff1602179055508273ffffffffffffffffffffffffffffffffffffffff168173ffffffffffffffffffffffffffffffffffffffff167f8be0079c531659141344cd1fd0a4f28419497f9722a3daafe3b4186f6b6457e060405160405180910390a3505050565b6000807fec2e1d18880eab0fa99cf138ce95db1d80287501a0d954892af33d430f009c4190508091505090565b610d85806101426000396000f3fe6080604052600436106100345760003560e01c80631e12dcf714610039578063cae8012f14610062578063dceb986d14610090575b600080fd5b34801561004557600080fd5b50610060600480360381019061005b91906108de565b61009a565b005b34801561006e57600080fd5b506100776100ec565b6040516100879493929190610924565b60405180910390f35b610098610282565b005b6100a26106ee565b80600060020160020160006101000a81548173ffffffffffffffffffffffffffffffffffffffff021916908373ffffffffffffffffffffffffffffffffffffffff16021790555050565b600080600080600060020160020160009054906101000a900473ffffffffffffffffffffffffffffffffffffffff1673ffffffffffffffffffffffffffffffffffffffff166318160ddd6040518163ffffffff1660e01b815260040160206040518083038186803b15801561016057600080fd5b505afa158015610174573d6000803e3d6000fd5b505050506040513d601f19601f820116820180604052508101906101989190610995565b9050600060020160020160009054906101000a900473ffffffffffffffffffffffffffffffffffffffff1673ffffffffffffffffffffffffffffffffffffffff166370a08231336040518263ffffffff1660e01b81526004016101fb91906109d1565b60206040518083038186803b15801561021357600080fd5b505afa158015610227573d6000803e3d6000fd5b505050506040513d601f19601f8201168201806040525081019061024b9190610995565b915080670de0b6b3a7640000836102629190610a1b565b61026c9190610aa4565b9350836000600201600001549350935090919293565b600073ffffffffffffffffffffffffffffffffffffffff16600060020160020160009054906101000a900473ffffffffffffffffffffffffffffffffffffffff1673ffffffffffffffffffffffffffffffffffffffff16141561031a576040517f08c379a000000000000000000000000000000000000000000000000000000000815260040161031190610b32565b60405180910390fd5b600034905060008060020160000154905081600060020160000160008282546103439190610b52565b92505081905550600082826103589190610b52565b9050600080600060020160020160009054906101000a900473ffffffffffffffffffffffffffffffffffffffff1673ffffffffffffffffffffffffffffffffffffffff166318160ddd6040518163ffffffff1660e01b815260040160206040518083038186803b1580156103cb57600080fd5b505afa1580156103df573d6000803e3d6000fd5b505050506040513d601f19601f820116820180604052508101906104039190610995565b905060008114806104145750600084145b1561042e576103e8346104279190610a1b565b915061057b565b600083670de0b6b3a7640000866104459190610a1b565b61044f9190610aa4565b90506104906040518060400160405280600f81526020017f6f6c64486f75736542616c616e6365000000000000000000000000000000000081525086610789565b6104cf6040518060400160405280600f81526020017f6e6577486f75736542616c616e6365000000000000000000000000000000000081525085610789565b61050e6040518060400160405280600881526020017f4f6c6456734e657700000000000000000000000000000000000000000000000081525082610789565b61054d6040518060400160405280600981526020017f676c70537570706c79000000000000000000000000000000000000000000000081525083610789565b8081670de0b6b3a76400006105629190610ba8565b8361056d9190610a1b565b6105779190610aa4565b9250505b600060020160020160009054906101000a900473ffffffffffffffffffffffffffffffffffffffff1673ffffffffffffffffffffffffffffffffffffffff166340c10f1933846040518363ffffffff1660e01b81526004016105de929190610bdc565b600060405180830381600087803b1580156105f857600080fd5b505af115801561060c573d6000803e3d6000fd5b505050505050505050565b6000610621610825565b905060008160030160009054906101000a900473ffffffffffffffffffffffffffffffffffffffff169050828260030160006101000a81548173ffffffffffffffffffffffffffffffffffffffff021916908373ffffffffffffffffffffffffffffffffffffffff1602179055508273ffffffffffffffffffffffffffffffffffffffff168173ffffffffffffffffffffffffffffffffffffffff167f8be0079c531659141344cd1fd0a4f28419497f9722a3daafe3b4186f6b6457e060405160405180910390a3505050565b6106f6610825565b60030160009054906101000a900473ffffffffffffffffffffffffffffffffffffffff1673ffffffffffffffffffffffffffffffffffffffff163373ffffffffffffffffffffffffffffffffffffffff1614610787576040517f08c379a000000000000000000000000000000000000000000000000000000000815260040161077e90610c77565b60405180910390fd5b565b610821828260405160240161079f929190610d1f565b6040516020818303038152906040527fb60e72cc000000000000000000000000000000000000000000000000000000007bffffffffffffffffffffffffffffffffffffffffffffffffffffffff19166020820180517bffffffffffffffffffffffffffffffffffffffffffffffffffffffff8381831617835250505050610852565b5050565b6000807fec2e1d18880eab0fa99cf138ce95db1d80287501a0d954892af33d430f009c4190508091505090565b60008151905060006a636f6e736f6c652e6c6f679050602083016000808483855afa5050505050565b600080fd5b600073ffffffffffffffffffffffffffffffffffffffff82169050919050565b60006108ab82610880565b9050919050565b6108bb816108a0565b81146108c657600080fd5b50565b6000813590506108d8816108b2565b92915050565b6000602082840312156108f4576108f361087b565b5b6000610902848285016108c9565b91505092915050565b6000819050919050565b61091e8161090b565b82525050565b60006080820190506109396000830187610915565b6109466020830186610915565b6109536040830185610915565b6109606060830184610915565b95945050505050565b6109728161090b565b811461097d57600080fd5b50565b60008151905061098f81610969565b92915050565b6000602082840312156109ab576109aa61087b565b5b60006109b984828501610980565b91505092915050565b6109cb816108a0565b82525050565b60006020820190506109e660008301846109c2565b92915050565b7f4e487b7100000000000000000000000000000000000000000000000000000000600052601160045260246000fd5b6000610a268261090b565b9150610a318361090b565b9250817fffffffffffffffffffffffffffffffffffffffffffffffffffffffffffffffff0483118215151615610a6a57610a696109ec565b5b828202905092915050565b7f4e487b7100000000000000000000000000000000000000000000000000000000600052601260045260246000fd5b6000610aaf8261090b565b9150610aba8361090b565b925082610aca57610ac9610a75565b5b828204905092915050565b600082825260208201905092915050565b7f474c50546f6b656e41646472657373206973206e6f7420736574000000000000600082015250565b6000610b1c601a83610ad5565b9150610b2782610ae6565b602082019050919050565b60006020820190508181036000830152610b4b81610b0f565b9050919050565b6000610b5d8261090b565b9150610b688361090b565b9250827fffffffffffffffffffffffffffffffffffffffffffffffffffffffffffffffff03821115610b9d57610b9c6109ec565b5b828201905092915050565b6000610bb38261090b565b9150610bbe8361090b565b925082821015610bd157610bd06109ec565b5b828203905092915050565b6000604082019050610bf160008301856109c2565b610bfe6020830184610915565b9392505050565b7f4c69624469616d6f6e643a204d75737420626520636f6e7472616374206f776e60008201527f6572000000000000000000000000000000000000000000000000000000000000602082015250565b6000610c61602283610ad5565b9150610c6c82610c05565b604082019050919050565b60006020820190508181036000830152610c9081610c54565b9050919050565b600081519050919050565b60005b83811015610cc0578082015181840152602081019050610ca5565b83811115610ccf576000848401525b50505050565b6000601f19601f8301169050919050565b6000610cf182610c97565b610cfb8185610ad5565b9350610d0b818560208601610ca2565b610d1481610cd5565b840191505092915050565b60006040820190508181036000830152610d398185610ce6565b9050610d486020830184610915565b939250505056fea2646970667358221220c37e44a9213786cb74a888073b176e8a745d8df454f492d96e75f3f75279a94a64736f6c63430008090033",
  "linkReferences": {},
  "deployedLinkReferences": {}
}