{
  "_format": "hh-sol-artifact-1",
  "contractName": "StakerFacet",
  "sourceName": "contracts/StakerFacet.sol",
  "abi": [
    {
      "inputs": [],
      "stateMutability": "nonpayable",
      "type": "constructor"
    },
    {
      "inputs": [],
      "name": "checkStakerBalance",
      "outputs": [
        {
          "internalType": "uint256",
          "name": "stakerPercent",
          "type": "uint256"
        },
        {
          "internalType": "uint256",
          "name": "houseBalance",
          "type": "uint256"
        },
        {
          "internalType": "uint256",
          "name": "userbalance",
          "type": "uint256"
        },
        {
          "internalType": "uint256",
          "name": "glpSupply",
          "type": "uint256"
        }
      ],
      "stateMutability": "view",
      "type": "function"
    },
    {
      "inputs": [],
      "name": "getGLPTokenAddress",
      "outputs": [
        {
          "internalType": "address",
          "name": "GLPtokenAddress",
          "type": "address"
        }
      ],
      "stateMutability": "view",
      "type": "function"
    },
    {
      "inputs": [
        {
          "internalType": "address",
          "name": "GLPtokenAddress",
          "type": "address"
        }
      ],
      "name": "setGLPTokenAddress",
      "outputs": [],
      "stateMutability": "nonpayable",
      "type": "function"
    },
    {
      "inputs": [],
      "name": "stakeETH",
      "outputs": [],
      "stateMutability": "payable",
      "type": "function"
    }
  ],
  "bytecode": "0x608060405234801561001057600080fd5b506100243361002960201b61068a1760201c565b610133565b600061003961010660201b60201c565b905060008160030160009054906101000a900473ffffffffffffffffffffffffffffffffffffffff169050828260030160006101000a81548173ffffffffffffffffffffffffffffffffffffffff021916908373ffffffffffffffffffffffffffffffffffffffff1602179055508273ffffffffffffffffffffffffffffffffffffffff168173ffffffffffffffffffffffffffffffffffffffff167f8be0079c531659141344cd1fd0a4f28419497f9722a3daafe3b4186f6b6457e060405160405180910390a3505050565b6000807fec2e1d18880eab0fa99cf138ce95db1d80287501a0d954892af33d430f009c4190508091505090565b610df8806101426000396000f3fe60806040526004361061003f5760003560e01c806311afddaf146100445780631e12dcf71461006f578063cae8012f14610098578063dceb986d146100c6575b600080fd5b34801561005057600080fd5b506100596100d0565b604051610066919061092f565b60405180910390f35b34801561007b57600080fd5b506100966004803603810190610091919061097b565b6100ff565b005b3480156100a457600080fd5b506100ad610151565b6040516100bd94939291906109c1565b60405180910390f35b6100ce6102f5565b005b60008060020160020160009054906101000a900473ffffffffffffffffffffffffffffffffffffffff16905090565b610107610761565b80600060020160020160006101000a81548173ffffffffffffffffffffffffffffffffffffffff021916908373ffffffffffffffffffffffffffffffffffffffff16021790555050565b600080600080600060020160020160009054906101000a900473ffffffffffffffffffffffffffffffffffffffff1673ffffffffffffffffffffffffffffffffffffffff166318160ddd6040518163ffffffff1660e01b815260040160206040518083038186803b1580156101c557600080fd5b505afa1580156101d9573d6000803e3d6000fd5b505050506040513d601f19601f820116820180604052508101906101fd9190610a32565b9050600060020160020160009054906101000a900473ffffffffffffffffffffffffffffffffffffffff1673ffffffffffffffffffffffffffffffffffffffff166370a08231336040518263ffffffff1660e01b8152600401610260919061092f565b60206040518083038186803b15801561027857600080fd5b505afa15801561028c573d6000803e3d6000fd5b505050506040513d601f19601f820116820180604052508101906102b09190610a32565b91506000935060008111156102e15780670de0b6b3a7640000836102d49190610a8e565b6102de9190610b17565b93505b836000600201600001549350935090919293565b600073ffffffffffffffffffffffffffffffffffffffff16600060020160020160009054906101000a900473ffffffffffffffffffffffffffffffffffffffff1673ffffffffffffffffffffffffffffffffffffffff16141561038d576040517f08c379a000000000000000000000000000000000000000000000000000000000815260040161038490610ba5565b60405180910390fd5b600034905060008060020160000154905081600060020160000160008282546103b69190610bc5565b92505081905550600082826103cb9190610bc5565b9050600080600060020160020160009054906101000a900473ffffffffffffffffffffffffffffffffffffffff1673ffffffffffffffffffffffffffffffffffffffff166318160ddd6040518163ffffffff1660e01b815260040160206040518083038186803b15801561043e57600080fd5b505afa158015610452573d6000803e3d6000fd5b505050506040513d601f19601f820116820180604052508101906104769190610a32565b905060008114806104875750600084145b156104a1576103e83461049a9190610a8e565b91506105ee565b600083670de0b6b3a7640000866104b89190610a8e565b6104c29190610b17565b90506105036040518060400160405280600f81526020017f6f6c64486f75736542616c616e63650000000000000000000000000000000000815250866107fc565b6105426040518060400160405280600f81526020017f6e6577486f75736542616c616e63650000000000000000000000000000000000815250856107fc565b6105816040518060400160405280600881526020017f4f6c6456734e6577000000000000000000000000000000000000000000000000815250826107fc565b6105c06040518060400160405280600981526020017f676c70537570706c790000000000000000000000000000000000000000000000815250836107fc565b8081670de0b6b3a76400006105d59190610c1b565b836105e09190610a8e565b6105ea9190610b17565b9250505b600060020160020160009054906101000a900473ffffffffffffffffffffffffffffffffffffffff1673ffffffffffffffffffffffffffffffffffffffff166340c10f1933846040518363ffffffff1660e01b8152600401610651929190610c4f565b600060405180830381600087803b15801561066b57600080fd5b505af115801561067f573d6000803e3d6000fd5b505050505050505050565b6000610694610898565b905060008160030160009054906101000a900473ffffffffffffffffffffffffffffffffffffffff169050828260030160006101000a81548173ffffffffffffffffffffffffffffffffffffffff021916908373ffffffffffffffffffffffffffffffffffffffff1602179055508273ffffffffffffffffffffffffffffffffffffffff168173ffffffffffffffffffffffffffffffffffffffff167f8be0079c531659141344cd1fd0a4f28419497f9722a3daafe3b4186f6b6457e060405160405180910390a3505050565b610769610898565b60030160009054906101000a900473ffffffffffffffffffffffffffffffffffffffff1673ffffffffffffffffffffffffffffffffffffffff163373ffffffffffffffffffffffffffffffffffffffff16146107fa576040517f08c379a00000000000000000000000000000000000000000000000000000000081526004016107f190610cea565b60405180910390fd5b565b6108948282604051602401610812929190610d92565b6040516020818303038152906040527fb60e72cc000000000000000000000000000000000000000000000000000000007bffffffffffffffffffffffffffffffffffffffffffffffffffffffff19166020820180517bffffffffffffffffffffffffffffffffffffffffffffffffffffffff83818316178352505050506108c5565b5050565b6000807fec2e1d18880eab0fa99cf138ce95db1d80287501a0d954892af33d430f009c4190508091505090565b60008151905060006a636f6e736f6c652e6c6f679050602083016000808483855afa5050505050565b600073ffffffffffffffffffffffffffffffffffffffff82169050919050565b6000610919826108ee565b9050919050565b6109298161090e565b82525050565b60006020820190506109446000830184610920565b92915050565b600080fd5b6109588161090e565b811461096357600080fd5b50565b6000813590506109758161094f565b92915050565b6000602082840312156109915761099061094a565b5b600061099f84828501610966565b91505092915050565b6000819050919050565b6109bb816109a8565b82525050565b60006080820190506109d660008301876109b2565b6109e360208301866109b2565b6109f060408301856109b2565b6109fd60608301846109b2565b95945050505050565b610a0f816109a8565b8114610a1a57600080fd5b50565b600081519050610a2c81610a06565b92915050565b600060208284031215610a4857610a4761094a565b5b6000610a5684828501610a1d565b91505092915050565b7f4e487b7100000000000000000000000000000000000000000000000000000000600052601160045260246000fd5b6000610a99826109a8565b9150610aa4836109a8565b9250817fffffffffffffffffffffffffffffffffffffffffffffffffffffffffffffffff0483118215151615610add57610adc610a5f565b5b828202905092915050565b7f4e487b7100000000000000000000000000000000000000000000000000000000600052601260045260246000fd5b6000610b22826109a8565b9150610b2d836109a8565b925082610b3d57610b3c610ae8565b5b828204905092915050565b600082825260208201905092915050565b7f474c50546f6b656e41646472657373206973206e6f7420736574000000000000600082015250565b6000610b8f601a83610b48565b9150610b9a82610b59565b602082019050919050565b60006020820190508181036000830152610bbe81610b82565b9050919050565b6000610bd0826109a8565b9150610bdb836109a8565b9250827fffffffffffffffffffffffffffffffffffffffffffffffffffffffffffffffff03821115610c1057610c0f610a5f565b5b828201905092915050565b6000610c26826109a8565b9150610c31836109a8565b925082821015610c4457610c43610a5f565b5b828203905092915050565b6000604082019050610c646000830185610920565b610c7160208301846109b2565b9392505050565b7f4c69624469616d6f6e643a204d75737420626520636f6e7472616374206f776e60008201527f6572000000000000000000000000000000000000000000000000000000000000602082015250565b6000610cd4602283610b48565b9150610cdf82610c78565b604082019050919050565b60006020820190508181036000830152610d0381610cc7565b9050919050565b600081519050919050565b60005b83811015610d33578082015181840152602081019050610d18565b83811115610d42576000848401525b50505050565b6000601f19601f8301169050919050565b6000610d6482610d0a565b610d6e8185610b48565b9350610d7e818560208601610d15565b610d8781610d48565b840191505092915050565b60006040820190508181036000830152610dac8185610d59565b9050610dbb60208301846109b2565b939250505056fea264697066735822122068f74fca39ce386edd80a6effd71f47155deb42f7d96c7b5309effdd28936ae464736f6c63430008090033",
  "linkReferences": {},
  "deployedLinkReferences": {}
}