{
  "_format": "hh-sol-artifact-1",
  "contractName": "StakerFacet",
  "sourceName": "contracts/StakerFacet.sol",
  "abi": [
    {
      "inputs": [],
      "stateMutability": "nonpayable",
      "type": "constructor"
    },
    {
      "inputs": [
        {
          "internalType": "address",
          "name": "_staker",
          "type": "address"
        }
      ],
      "name": "checkStakerBalance",
      "outputs": [
        {
          "internalType": "uint256",
          "name": "stakerPercent",
          "type": "uint256"
        },
        {
          "internalType": "uint256",
          "name": "stakerHlpBalance",
          "type": "uint256"
        }
      ],
      "stateMutability": "view",
      "type": "function"
    },
    {
      "inputs": [
        {
          "internalType": "address",
          "name": "HLPtokenAddress",
          "type": "address"
        }
      ],
      "name": "setHLPmanagerAddress",
      "outputs": [],
      "stateMutability": "nonpayable",
      "type": "function"
    },
    {
      "inputs": [],
      "name": "stakeETH",
      "outputs": [],
      "stateMutability": "payable",
      "type": "function"
    },
    {
      "inputs": [],
      "name": "withdrawAllStakerDAI",
      "outputs": [],
      "stateMutability": "nonpayable",
      "type": "function"
    }
  ],
  "bytecode": "0x608060405234801561001057600080fd5b506100243361002960201b610b631760201c565b610133565b600061003961010660201b60201c565b905060008160030160009054906101000a900473ffffffffffffffffffffffffffffffffffffffff169050828260030160006101000a81548173ffffffffffffffffffffffffffffffffffffffff021916908373ffffffffffffffffffffffffffffffffffffffff1602179055508273ffffffffffffffffffffffffffffffffffffffff168173ffffffffffffffffffffffffffffffffffffffff167f8be0079c531659141344cd1fd0a4f28419497f9722a3daafe3b4186f6b6457e060405160405180910390a3505050565b6000807fec2e1d18880eab0fa99cf138ce95db1d80287501a0d954892af33d430f009c4190508091505090565b611b96806101426000396000f3fe60806040526004361061003f5760003560e01c806321c3dce714610044578063525eea3a1461006d57806390975f82146100ab578063dceb986d146100c2575b600080fd5b34801561005057600080fd5b5061006b60048036038101906100669190611420565b6100cc565b005b34801561007957600080fd5b50610094600480360381019061008f9190611420565b61011b565b6040516100a2929190611466565b60405180910390f35b3480156100b757600080fd5b506100c0610293565b005b6100ca61091a565b005b6100d4610c3a565b806000600c0160016101000a81548173ffffffffffffffffffffffffffffffffffffffff021916908373ffffffffffffffffffffffffffffffffffffffff16021790555050565b600080600080600c0160019054906101000a900473ffffffffffffffffffffffffffffffffffffffff1673ffffffffffffffffffffffffffffffffffffffff166318160ddd6040518163ffffffff1660e01b815260040160206040518083038186803b15801561018a57600080fd5b505afa15801561019e573d6000803e3d6000fd5b505050506040513d601f19601f820116820180604052508101906101c291906114bb565b9050600080600c0160019054906101000a900473ffffffffffffffffffffffffffffffffffffffff1673ffffffffffffffffffffffffffffffffffffffff166370a08231866040518263ffffffff1660e01b815260040161022391906114f7565b60206040518083038186803b15801561023b57600080fd5b505afa15801561024f573d6000803e3d6000fd5b505050506040513d601f19601f8201168201806040525081019061027391906114bb565b9050600082826102839190611570565b9050808294509450505050915091565b6000600c0160009054906101000a900460ff16156102e6576040517f08c379a00000000000000000000000000000000000000000000000000000000081526004016102dd906115fe565b60405180910390fd5b60016000600c0160006101000a81548160ff021916908315150217905550600060020160030160003373ffffffffffffffffffffffffffffffffffffffff1673ffffffffffffffffffffffffffffffffffffffff16815260200190815260200160002060009054906101000a900460ff16610396576040517f08c379a000000000000000000000000000000000000000000000000000000000815260040161038d9061166a565b60405180910390fd5b600080600201600201905060008160003373ffffffffffffffffffffffffffffffffffffffff1673ffffffffffffffffffffffffffffffffffffffff16815260200190815260200160002054905060008111610427576040517f08c379a000000000000000000000000000000000000000000000000000000000815260040161041e906116d6565b60405180910390fd5b6000806002016000015411610471576040517f08c379a000000000000000000000000000000000000000000000000000000000815260040161046890611742565b60405180910390fd5b6000806002016000015490506000670de0b6b3a764000083836104949190611762565b61049e9190611570565b90506104df6040518060400160405280600f81526020017f7374616b65724f6c64416d6f756e74000000000000000000000000000000000081525082610cd5565b6000600a67016345785d8a000085856104f89190611762565b6105029190611570565b61050c91906117bc565b905061054d6040518060400160405280601b81526020017f7374616b65724f6c64416d6f756e744669727374446563696d616c000000000081525082610cd5565b60058110610564578180610560906117ed565b9250505b816000600201600001600082825461057c9190611836565b925050819055506000806002016000015490506105ce6040518060400160405280600f81526020017f6e6577486f75736542616c616e6365000000000000000000000000000000000081525082610cd5565b60008660003373ffffffffffffffffffffffffffffffffffffffff1673ffffffffffffffffffffffffffffffffffffffff16815260200190815260200160002081905550600080600201600401905060008180549050905060005b818110156107a75760008382815481106106465761064561186a565b5b9060005260206000200160009054906101000a900473ffffffffffffffffffffffffffffffffffffffff16905060008511156107505760008a60008373ffffffffffffffffffffffffffffffffffffffff1673ffffffffffffffffffffffffffffffffffffffff1681526020019081526020016000205490506000670de0b6b3a7640000828b6106d69190611762565b6106e09190611570565b9050600087670de0b6b3a7640000836106f99190611762565b6107039190611570565b9050808d60008673ffffffffffffffffffffffffffffffffffffffff1673ffffffffffffffffffffffffffffffffffffffff16815260200190815260200160002081905550505050610795565b60008a60008373ffffffffffffffffffffffffffffffffffffffff1673ffffffffffffffffffffffffffffffffffffffff168152602001908152602001600020819055505b50806107a0906117ed565b9050610629565b50600085116107eb576040517f08c379a00000000000000000000000000000000000000000000000000000000081526004016107e2906118e5565b60405180910390fd5b4785111561082e576040517f08c379a000000000000000000000000000000000000000000000000000000000815260040161082590611977565b60405180910390fd5b61086d6040518060400160405280601b81526020017f5769746864726177696e67207374616b65724f6c64416d6f756e74000000000081525086610cd5565b6108ac6040518060400160405280601581526020017f616464726573732874686973292e62616c616e6365000000000000000000000081525047610cd5565b3373ffffffffffffffffffffffffffffffffffffffff166108fc869081150290604051600060405180830381858888f193505050501580156108f2573d6000803e3d6000fd5b505050505050505050600080600c0160006101000a81548160ff021916908315150217905550565b600034905060008060020160000154905081600060020160000160008282546109439190611997565b92505081905550600060020160030160003373ffffffffffffffffffffffffffffffffffffffff1673ffffffffffffffffffffffffffffffffffffffff16815260200190815260200160002060009054906101000a900460ff166109b0576109ab8183610d71565b6109bb565b6109ba8183611093565b5b6000806000600c0160019054906101000a900473ffffffffffffffffffffffffffffffffffffffff1673ffffffffffffffffffffffffffffffffffffffff166318160ddd6040518163ffffffff1660e01b815260040160206040518083038186803b158015610a2957600080fd5b505afa158015610a3d573d6000803e3d6000fd5b505050506040513d601f19601f82011682018060405250810190610a6191906114bb565b90506000811415610a81576103e834610a7a9190611762565b9150610acb565b600034600060020160000154610a979190611997565b84610aa29190611570565b905080816001610ab29190611836565b83610abd9190611762565b610ac79190611570565b9250505b6000600c0160019054906101000a900473ffffffffffffffffffffffffffffffffffffffff1673ffffffffffffffffffffffffffffffffffffffff166340c10f1933846040518363ffffffff1660e01b8152600401610b2b9291906119ed565b600060405180830381600087803b158015610b4557600080fd5b505af1158015610b59573d6000803e3d6000fd5b5050505050505050565b6000610b6d611367565b905060008160030160009054906101000a900473ffffffffffffffffffffffffffffffffffffffff169050828260030160006101000a81548173ffffffffffffffffffffffffffffffffffffffff021916908373ffffffffffffffffffffffffffffffffffffffff1602179055508273ffffffffffffffffffffffffffffffffffffffff168173ffffffffffffffffffffffffffffffffffffffff167f8be0079c531659141344cd1fd0a4f28419497f9722a3daafe3b4186f6b6457e060405160405180910390a3505050565b610c42611367565b60030160009054906101000a900473ffffffffffffffffffffffffffffffffffffffff1673ffffffffffffffffffffffffffffffffffffffff163373ffffffffffffffffffffffffffffffffffffffff1614610cd3576040517f08c379a0000000000000000000000000000000000000000000000000000000008152600401610cca90611a88565b60405180910390fd5b565b610d6d8282604051602401610ceb929190611b30565b6040516020818303038152906040527fb60e72cc000000000000000000000000000000000000000000000000000000007bffffffffffffffffffffffffffffffffffffffffffffffffffffffff19166020820180517bffffffffffffffffffffffffffffffffffffffffffffffffffffffff8381831617835250505050611394565b5050565b60008183610d7f9190611997565b90506000806002016004019050600081805490509050600080600201600201905060005b82811015610f15576000848281548110610dc057610dbf61186a565b5b9060005260206000200160009054906101000a900473ffffffffffffffffffffffffffffffffffffffff16905060008360008373ffffffffffffffffffffffffffffffffffffffff1673ffffffffffffffffffffffffffffffffffffffff1681526020019081526020016000205490506000670de0b6b3a7640000828b610e479190611762565b610e519190611570565b9050600088670de0b6b3a764000083610e6a9190611762565b610e749190611570565b90506000600a8a678ac7230489e8000085610e8f9190611762565b610e999190611570565b610ea391906117bc565b905060058110610ebc578180610eb8906117ed565b9250505b818760008773ffffffffffffffffffffffffffffffffffffffff1673ffffffffffffffffffffffffffffffffffffffff16815260200190815260200160002081905550505050505080610f0e906117ed565b9050610da3565b506000600201600401339080600181540180825580915050600190039060005260206000200160009091909190916101000a81548173ffffffffffffffffffffffffffffffffffffffff021916908373ffffffffffffffffffffffffffffffffffffffff1602179055506001600060020160030160003373ffffffffffffffffffffffffffffffffffffffff1673ffffffffffffffffffffffffffffffffffffffff16815260200190815260200160002060006101000a81548160ff021916908315150217905550600084670de0b6b3a764000087610ff49190611762565b610ffe9190611570565b90506000600a86678ac7230489e80000896110199190611762565b6110239190611570565b61102d91906117bc565b905060058110611046578180611042906117ed565b9250505b818360003373ffffffffffffffffffffffffffffffffffffffff1673ffffffffffffffffffffffffffffffffffffffff168152602001908152602001600020819055505050505050505050565b600081836110a19190611997565b90506000806002016004019050600081805490509050600080600201600201905060008160003373ffffffffffffffffffffffffffffffffffffffff1673ffffffffffffffffffffffffffffffffffffffff1681526020019081526020016000205490506000670de0b6b3a7640000888361111c9190611762565b6111269190611570565b905060005b8481101561129d5760008682815481106111485761114761186a565b5b9060005260206000200160009054906101000a900473ffffffffffffffffffffffffffffffffffffffff16905060008560008373ffffffffffffffffffffffffffffffffffffffff1673ffffffffffffffffffffffffffffffffffffffff1681526020019081526020016000205490506000670de0b6b3a7640000828d6111cf9190611762565b6111d99190611570565b905060008a670de0b6b3a7640000836111f29190611762565b6111fc9190611570565b90506000600a8c678ac7230489e80000856112179190611762565b6112219190611570565b61122b91906117bc565b905060058110611244578180611240906117ed565b9250505b818960008773ffffffffffffffffffffffffffffffffffffffff1673ffffffffffffffffffffffffffffffffffffffff16815260200190815260200160002081905550505050505080611296906117ed565b905061112b565b50600081886112ac9190611997565b9050600087670de0b6b3a7640000836112c59190611762565b6112cf9190611570565b90506000600a89678ac7230489e80000856112ea9190611762565b6112f49190611570565b6112fe91906117bc565b905060058110611317578180611313906117ed565b9250505b818660003373ffffffffffffffffffffffffffffffffffffffff1673ffffffffffffffffffffffffffffffffffffffff168152602001908152602001600020819055505050505050505050505050565b6000807fec2e1d18880eab0fa99cf138ce95db1d80287501a0d954892af33d430f009c4190508091505090565b60008151905060006a636f6e736f6c652e6c6f679050602083016000808483855afa5050505050565b600080fd5b600073ffffffffffffffffffffffffffffffffffffffff82169050919050565b60006113ed826113c2565b9050919050565b6113fd816113e2565b811461140857600080fd5b50565b60008135905061141a816113f4565b92915050565b600060208284031215611436576114356113bd565b5b60006114448482850161140b565b91505092915050565b6000819050919050565b6114608161144d565b82525050565b600060408201905061147b6000830185611457565b6114886020830184611457565b9392505050565b6114988161144d565b81146114a357600080fd5b50565b6000815190506114b58161148f565b92915050565b6000602082840312156114d1576114d06113bd565b5b60006114df848285016114a6565b91505092915050565b6114f1816113e2565b82525050565b600060208201905061150c60008301846114e8565b92915050565b7f4e487b7100000000000000000000000000000000000000000000000000000000600052601260045260246000fd5b7f4e487b7100000000000000000000000000000000000000000000000000000000600052601160045260246000fd5b600061157b8261144d565b91506115868361144d565b92508261159657611595611512565b5b828204905092915050565b600082825260208201905092915050565b7f4e6f2072652d656e7472616e6379000000000000000000000000000000000000600082015250565b60006115e8600e836115a1565b91506115f3826115b2565b602082019050919050565b60006020820190508181036000830152611617816115db565b9050919050565b7f596f7520617265206e6f742061207374616b6572000000000000000000000000600082015250565b60006116546014836115a1565b915061165f8261161e565b602082019050919050565b6000602082019050818103600083015261168381611647565b9050919050565b7f596f75722070726563656e7420697a205a45524f000000000000000000000000600082015250565b60006116c06014836115a1565b91506116cb8261168a565b602082019050919050565b600060208201905081810360008301526116ef816116b3565b9050919050565b7f486f7573652062616c616e636520697a205a45524f0000000000000000000000600082015250565b600061172c6015836115a1565b9150611737826116f6565b602082019050919050565b6000602082019050818103600083015261175b8161171f565b9050919050565b600061176d8261144d565b91506117788361144d565b9250817fffffffffffffffffffffffffffffffffffffffffffffffffffffffffffffffff04831182151516156117b1576117b0611541565b5b828202905092915050565b60006117c78261144d565b91506117d28361144d565b9250826117e2576117e1611512565b5b828206905092915050565b60006117f88261144d565b91507fffffffffffffffffffffffffffffffffffffffffffffffffffffffffffffffff82141561182b5761182a611541565b5b600182019050919050565b60006118418261144d565b915061184c8361144d565b92508282101561185f5761185e611541565b5b828203905092915050565b7f4e487b7100000000000000000000000000000000000000000000000000000000600052603260045260246000fd5b7f596f75722062616c616e636520697a205a45524f000000000000000000000000600082015250565b60006118cf6014836115a1565b91506118da82611899565b602082019050919050565b600060208201905081810360008301526118fe816118c2565b9050919050565b7f42616c616e6365206973206c657373207468616e20706c6174666f726d20686160008201527f7300000000000000000000000000000000000000000000000000000000000000602082015250565b60006119616021836115a1565b915061196c82611905565b604082019050919050565b6000602082019050818103600083015261199081611954565b9050919050565b60006119a28261144d565b91506119ad8361144d565b9250827fffffffffffffffffffffffffffffffffffffffffffffffffffffffffffffffff038211156119e2576119e1611541565b5b828201905092915050565b6000604082019050611a0260008301856114e8565b611a0f6020830184611457565b9392505050565b7f4c69624469616d6f6e643a204d75737420626520636f6e7472616374206f776e60008201527f6572000000000000000000000000000000000000000000000000000000000000602082015250565b6000611a726022836115a1565b9150611a7d82611a16565b604082019050919050565b60006020820190508181036000830152611aa181611a65565b9050919050565b600081519050919050565b60005b83811015611ad1578082015181840152602081019050611ab6565b83811115611ae0576000848401525b50505050565b6000601f19601f8301169050919050565b6000611b0282611aa8565b611b0c81856115a1565b9350611b1c818560208601611ab3565b611b2581611ae6565b840191505092915050565b60006040820190508181036000830152611b4a8185611af7565b9050611b596020830184611457565b939250505056fea2646970667358221220a42fd215d561859a6f703803a6a1a9b75adeaf3ecc5d3b6e23291cbb68cad7de64736f6c63430008090033",
  "linkReferences": {},
  "deployedLinkReferences": {}
}